{
	"contracts/Paper.sol": {
		"PaperContract": {
			"abi": [
				{
					"inputs": [
						{
							"internalType": "string[]",
							"name": "_authors",
							"type": "string[]"
						},
						{
							"internalType": "string",
							"name": "_institution",
							"type": "string"
						},
						{
							"internalType": "address[]",
							"name": "_citations",
							"type": "address[]"
						},
						{
							"internalType": "address[]",
							"name": "_citedBy",
							"type": "address[]"
						},
						{
							"internalType": "string",
							"name": "_category",
							"type": "string"
						}
					],
					"stateMutability": "nonpayable",
					"type": "constructor"
				},
				{
					"inputs": [
						{
							"internalType": "uint256",
							"name": "",
							"type": "uint256"
						}
					],
					"name": "authors",
					"outputs": [
						{
							"internalType": "string",
							"name": "",
							"type": "string"
						}
					],
					"stateMutability": "view",
					"type": "function"
				},
				{
					"inputs": [],
					"name": "category",
					"outputs": [
						{
							"internalType": "string",
							"name": "",
							"type": "string"
						}
					],
					"stateMutability": "view",
					"type": "function"
				},
				{
					"inputs": [
						{
							"internalType": "uint256",
							"name": "",
							"type": "uint256"
						}
					],
					"name": "citations",
					"outputs": [
						{
							"internalType": "address",
							"name": "",
							"type": "address"
						}
					],
					"stateMutability": "view",
					"type": "function"
				},
				{
					"inputs": [
						{
							"internalType": "address",
							"name": "_paper",
							"type": "address"
						}
					],
					"name": "cite",
					"outputs": [],
					"stateMutability": "nonpayable",
					"type": "function"
				},
				{
					"inputs": [
						{
							"internalType": "uint256",
							"name": "",
							"type": "uint256"
						}
					],
					"name": "citedBy",
					"outputs": [
						{
							"internalType": "address",
							"name": "",
							"type": "address"
						}
					],
					"stateMutability": "view",
					"type": "function"
				},
				{
					"inputs": [],
					"name": "institution",
					"outputs": [
						{
							"internalType": "string",
							"name": "",
							"type": "string"
						}
					],
					"stateMutability": "view",
					"type": "function"
				},
				{
					"inputs": [
						{
							"internalType": "address",
							"name": "citingPaper",
							"type": "address"
						}
					],
					"name": "updateCitedBy",
					"outputs": [
						{
							"internalType": "bool",
							"name": "",
							"type": "bool"
						}
					],
					"stateMutability": "nonpayable",
					"type": "function"
				}
			],
			"devdoc": {
				"kind": "dev",
				"methods": {},
				"version": 1
			},
			"evm": {
				"assembly": "    /* \"contracts/Paper.sol\":66:1198  contract PaperContract {... */\n  mstore(0x40, 0x80)\n    /* \"contracts/Paper.sol\":259:574  constructor(string[] memory _authors, string memory _institution, address[] memory _citations, address[] memory _citedBy, string memory _category) {... */\n  callvalue\n  dup1\n  iszero\n  tag_1\n  jumpi\n  0x00\n  dup1\n  revert\ntag_1:\n  pop\n  mload(0x40)\n  sub(codesize, bytecodeSize)\n  dup1\n  bytecodeSize\n  dup4\n  codecopy\n  dup2\n  dup2\n  add\n  0x40\n  mstore\n  dup2\n  add\n  swap1\n  tag_2\n  swap2\n  swap1\n  tag_3\n  jump\t// in\ntag_2:\n    /* \"contracts/Paper.sol\":427:435  _authors */\n  dup5\n    /* \"contracts/Paper.sol\":417:424  authors */\n  0x00\n    /* \"contracts/Paper.sol\":417:435  authors = _authors */\n  swap1\n  dup1\n  mload\n  swap1\n  0x20\n  add\n  swap1\n  tag_6\n  swap3\n  swap2\n  swap1\n  tag_7\n  jump\t// in\ntag_6:\n  pop\n    /* \"contracts/Paper.sol\":460:472  _institution */\n  dup4\n    /* \"contracts/Paper.sol\":446:457  institution */\n  0x01\n    /* \"contracts/Paper.sol\":446:472  institution = _institution */\n  swap1\n  dup2\n  tag_8\n  swap2\n  swap1\n  tag_9\n  jump\t// in\ntag_8:\n  pop\n    /* \"contracts/Paper.sol\":495:505  _citations */\n  dup3\n    /* \"contracts/Paper.sol\":483:492  citations */\n  0x02\n    /* \"contracts/Paper.sol\":483:505  citations = _citations */\n  swap1\n  dup1\n  mload\n  swap1\n  0x20\n  add\n  swap1\n  tag_10\n  swap3\n  swap2\n  swap1\n  tag_11\n  jump\t// in\ntag_10:\n  pop\n    /* \"contracts/Paper.sol\":526:534  _citedBy */\n  dup2\n    /* \"contracts/Paper.sol\":516:523  citedBy */\n  0x03\n    /* \"contracts/Paper.sol\":516:534  citedBy = _citedBy */\n  swap1\n  dup1\n  mload\n  swap1\n  0x20\n  add\n  swap1\n  tag_12\n  swap3\n  swap2\n  swap1\n  tag_11\n  jump\t// in\ntag_12:\n  pop\n    /* \"contracts/Paper.sol\":556:565  _category */\n  dup1\n    /* \"contracts/Paper.sol\":545:553  category */\n  0x04\n    /* \"contracts/Paper.sol\":545:565  category = _category */\n  swap1\n  dup2\n  tag_13\n  swap2\n  swap1\n  tag_9\n  jump\t// in\ntag_13:\n  pop\n    /* \"contracts/Paper.sol\":259:574  constructor(string[] memory _authors, string memory _institution, address[] memory _citations, address[] memory _citedBy, string memory _category) {... */\n  pop\n  pop\n  pop\n  pop\n  pop\n    /* \"contracts/Paper.sol\":66:1198  contract PaperContract {... */\n  jump(tag_14)\ntag_7:\n  dup3\n  dup1\n  sload\n  dup3\n  dup3\n  sstore\n  swap1\n  0x00\n  mstore\n  keccak256(0x00, 0x20)\n  swap1\n  dup2\n  add\n  swap3\n  dup3\n  iszero\n  tag_15\n  jumpi\n  swap2\n  0x20\n  mul\n  dup3\n  add\ntag_16:\n  dup3\n  dup2\n  gt\n  iszero\n  tag_17\n  jumpi\n  dup3\n  mload\n  dup3\n  swap1\n  dup2\n  tag_18\n  swap2\n  swap1\n  tag_9\n  jump\t// in\ntag_18:\n  pop\n  swap2\n  0x20\n  add\n  swap2\n  swap1\n  0x01\n  add\n  swap1\n  jump(tag_16)\ntag_17:\ntag_15:\n  pop\n  swap1\n  pop\n  tag_19\n  swap2\n  swap1\n  tag_20\n  jump\t// in\ntag_19:\n  pop\n  swap1\n  jump\t// out\ntag_11:\n  dup3\n  dup1\n  sload\n  dup3\n  dup3\n  sstore\n  swap1\n  0x00\n  mstore\n  keccak256(0x00, 0x20)\n  swap1\n  dup2\n  add\n  swap3\n  dup3\n  iszero\n  tag_21\n  jumpi\n  swap2\n  0x20\n  mul\n  dup3\n  add\ntag_22:\n  dup3\n  dup2\n  gt\n  iszero\n  tag_23\n  jumpi\n  dup3\n  mload\n  dup3\n  exp(0x0100, 0x00)\n  dup2\n  sload\n  dup2\n  0xffffffffffffffffffffffffffffffffffffffff\n  mul\n  not\n  and\n  swap1\n  dup4\n  0xffffffffffffffffffffffffffffffffffffffff\n  and\n  mul\n  or\n  swap1\n  sstore\n  pop\n  swap2\n  0x20\n  add\n  swap2\n  swap1\n  0x01\n  add\n  swap1\n  jump(tag_22)\ntag_23:\ntag_21:\n  pop\n  swap1\n  pop\n  tag_24\n  swap2\n  swap1\n  tag_25\n  jump\t// in\ntag_24:\n  pop\n  swap1\n  jump\t// out\ntag_20:\ntag_26:\n  dup1\n  dup3\n  gt\n  iszero\n  tag_27\n  jumpi\n  0x00\n  dup2\n  dup2\n  tag_28\n  swap2\n  swap1\n  tag_29\n  jump\t// in\ntag_28:\n  pop\n  0x01\n  add\n  jump(tag_26)\ntag_27:\n  pop\n  swap1\n  jump\t// out\ntag_25:\ntag_30:\n  dup1\n  dup3\n  gt\n  iszero\n  tag_31\n  jumpi\n  0x00\n  dup2\n  0x00\n  swap1\n  sstore\n  pop\n  0x01\n  add\n  jump(tag_30)\ntag_31:\n  pop\n  swap1\n  jump\t// out\ntag_29:\n  pop\n  dup1\n  sload\n  tag_32\n  swap1\n  tag_33\n  jump\t// in\ntag_32:\n  0x00\n  dup3\n  sstore\n  dup1\n  0x1f\n  lt\n  tag_35\n  jumpi\n  pop\n  jump(tag_34)\ntag_35:\n  0x1f\n  add\n  0x20\n  swap1\n  div\n  swap1\n  0x00\n  mstore\n  keccak256(0x00, 0x20)\n  swap1\n  dup2\n  add\n  swap1\n  tag_36\n  swap2\n  swap1\n  tag_25\n  jump\t// in\ntag_36:\ntag_34:\n  pop\n  jump\t// out\n    /* \"#utility.yul\":7:82   */\ntag_37:\n    /* \"#utility.yul\":40:46   */\n  0x00\n    /* \"#utility.yul\":73:75   */\n  0x40\n    /* \"#utility.yul\":67:76   */\n  mload\n    /* \"#utility.yul\":57:76   */\n  swap1\n  pop\n    /* \"#utility.yul\":7:82   */\n  swap1\n  jump\t// out\n    /* \"#utility.yul\":88:205   */\ntag_38:\n    /* \"#utility.yul\":197:198   */\n  0x00\n    /* \"#utility.yul\":194:195   */\n  dup1\n    /* \"#utility.yul\":187:199   */\n  revert\n    /* \"#utility.yul\":211:328   */\ntag_39:\n    /* \"#utility.yul\":320:321   */\n  0x00\n    /* \"#utility.yul\":317:318   */\n  dup1\n    /* \"#utility.yul\":310:322   */\n  revert\n    /* \"#utility.yul\":334:451   */\ntag_40:\n    /* \"#utility.yul\":443:444   */\n  0x00\n    /* \"#utility.yul\":440:441   */\n  dup1\n    /* \"#utility.yul\":433:445   */\n  revert\n    /* \"#utility.yul\":457:559   */\ntag_41:\n    /* \"#utility.yul\":498:504   */\n  0x00\n    /* \"#utility.yul\":549:551   */\n  0x1f\n    /* \"#utility.yul\":545:552   */\n  not\n    /* \"#utility.yul\":540:542   */\n  0x1f\n    /* \"#utility.yul\":533:538   */\n  dup4\n    /* \"#utility.yul\":529:543   */\n  add\n    /* \"#utility.yul\":525:553   */\n  and\n    /* \"#utility.yul\":515:553   */\n  swap1\n  pop\n    /* \"#utility.yul\":457:559   */\n  swap2\n  swap1\n  pop\n  jump\t// out\n    /* \"#utility.yul\":565:745   */\ntag_42:\n    /* \"#utility.yul\":613:690   */\n  0x4e487b7100000000000000000000000000000000000000000000000000000000\n    /* \"#utility.yul\":610:611   */\n  0x00\n    /* \"#utility.yul\":603:691   */\n  mstore\n    /* \"#utility.yul\":710:714   */\n  0x41\n    /* \"#utility.yul\":707:708   */\n  0x04\n    /* \"#utility.yul\":700:715   */\n  mstore\n    /* \"#utility.yul\":734:738   */\n  0x24\n    /* \"#utility.yul\":731:732   */\n  0x00\n    /* \"#utility.yul\":724:739   */\n  revert\n    /* \"#utility.yul\":751:1032   */\ntag_43:\n    /* \"#utility.yul\":834:861   */\n  tag_87\n    /* \"#utility.yul\":856:860   */\n  dup3\n    /* \"#utility.yul\":834:861   */\n  tag_41\n  jump\t// in\ntag_87:\n    /* \"#utility.yul\":826:832   */\n  dup2\n    /* \"#utility.yul\":822:862   */\n  add\n    /* \"#utility.yul\":964:970   */\n  dup2\n    /* \"#utility.yul\":952:962   */\n  dup2\n    /* \"#utility.yul\":949:971   */\n  lt\n    /* \"#utility.yul\":928:946   */\n  0xffffffffffffffff\n    /* \"#utility.yul\":916:926   */\n  dup3\n    /* \"#utility.yul\":913:947   */\n  gt\n    /* \"#utility.yul\":910:972   */\n  or\n    /* \"#utility.yul\":907:995   */\n  iszero\n  tag_88\n  jumpi\n    /* \"#utility.yul\":975:993   */\n  tag_89\n  tag_42\n  jump\t// in\ntag_89:\n    /* \"#utility.yul\":907:995   */\ntag_88:\n    /* \"#utility.yul\":1015:1025   */\n  dup1\n    /* \"#utility.yul\":1011:1013   */\n  0x40\n    /* \"#utility.yul\":1004:1026   */\n  mstore\n    /* \"#utility.yul\":794:1032   */\n  pop\n    /* \"#utility.yul\":751:1032   */\n  pop\n  pop\n  jump\t// out\n    /* \"#utility.yul\":1038:1167   */\ntag_44:\n    /* \"#utility.yul\":1072:1078   */\n  0x00\n    /* \"#utility.yul\":1099:1119   */\n  tag_91\n  tag_37\n  jump\t// in\ntag_91:\n    /* \"#utility.yul\":1089:1119   */\n  swap1\n  pop\n    /* \"#utility.yul\":1128:1161   */\n  tag_92\n    /* \"#utility.yul\":1156:1160   */\n  dup3\n    /* \"#utility.yul\":1148:1154   */\n  dup3\n    /* \"#utility.yul\":1128:1161   */\n  tag_43\n  jump\t// in\ntag_92:\n    /* \"#utility.yul\":1038:1167   */\n  swap2\n  swap1\n  pop\n  jump\t// out\n    /* \"#utility.yul\":1173:1494   */\ntag_45:\n    /* \"#utility.yul\":1260:1264   */\n  0x00\n    /* \"#utility.yul\":1350:1368   */\n  0xffffffffffffffff\n    /* \"#utility.yul\":1342:1348   */\n  dup3\n    /* \"#utility.yul\":1339:1369   */\n  gt\n    /* \"#utility.yul\":1336:1392   */\n  iszero\n  tag_94\n  jumpi\n    /* \"#utility.yul\":1372:1390   */\n  tag_95\n  tag_42\n  jump\t// in\ntag_95:\n    /* \"#utility.yul\":1336:1392   */\ntag_94:\n    /* \"#utility.yul\":1422:1426   */\n  0x20\n    /* \"#utility.yul\":1414:1420   */\n  dup3\n    /* \"#utility.yul\":1410:1427   */\n  mul\n    /* \"#utility.yul\":1402:1427   */\n  swap1\n  pop\n    /* \"#utility.yul\":1482:1486   */\n  0x20\n    /* \"#utility.yul\":1476:1480   */\n  dup2\n    /* \"#utility.yul\":1472:1487   */\n  add\n    /* \"#utility.yul\":1464:1487   */\n  swap1\n  pop\n    /* \"#utility.yul\":1173:1494   */\n  swap2\n  swap1\n  pop\n  jump\t// out\n    /* \"#utility.yul\":1500:1617   */\ntag_46:\n    /* \"#utility.yul\":1609:1610   */\n  0x00\n    /* \"#utility.yul\":1606:1607   */\n  dup1\n    /* \"#utility.yul\":1599:1611   */\n  revert\n    /* \"#utility.yul\":1623:1740   */\ntag_47:\n    /* \"#utility.yul\":1732:1733   */\n  0x00\n    /* \"#utility.yul\":1729:1730   */\n  dup1\n    /* \"#utility.yul\":1722:1734   */\n  revert\n    /* \"#utility.yul\":1746:2054   */\ntag_48:\n    /* \"#utility.yul\":1808:1812   */\n  0x00\n    /* \"#utility.yul\":1898:1916   */\n  0xffffffffffffffff\n    /* \"#utility.yul\":1890:1896   */\n  dup3\n    /* \"#utility.yul\":1887:1917   */\n  gt\n    /* \"#utility.yul\":1884:1940   */\n  iszero\n  tag_99\n  jumpi\n    /* \"#utility.yul\":1920:1938   */\n  tag_100\n  tag_42\n  jump\t// in\ntag_100:\n    /* \"#utility.yul\":1884:1940   */\ntag_99:\n    /* \"#utility.yul\":1958:1987   */\n  tag_101\n    /* \"#utility.yul\":1980:1986   */\n  dup3\n    /* \"#utility.yul\":1958:1987   */\n  tag_41\n  jump\t// in\ntag_101:\n    /* \"#utility.yul\":1950:1987   */\n  swap1\n  pop\n    /* \"#utility.yul\":2042:2046   */\n  0x20\n    /* \"#utility.yul\":2036:2040   */\n  dup2\n    /* \"#utility.yul\":2032:2047   */\n  add\n    /* \"#utility.yul\":2024:2047   */\n  swap1\n  pop\n    /* \"#utility.yul\":1746:2054   */\n  swap2\n  swap1\n  pop\n  jump\t// out\n    /* \"#utility.yul\":2060:2306   */\ntag_49:\n    /* \"#utility.yul\":2141:2142   */\n  0x00\n    /* \"#utility.yul\":2151:2264   */\ntag_103:\n    /* \"#utility.yul\":2165:2171   */\n  dup4\n    /* \"#utility.yul\":2162:2163   */\n  dup2\n    /* \"#utility.yul\":2159:2172   */\n  lt\n    /* \"#utility.yul\":2151:2264   */\n  iszero\n  tag_105\n  jumpi\n    /* \"#utility.yul\":2250:2251   */\n  dup1\n    /* \"#utility.yul\":2245:2248   */\n  dup3\n    /* \"#utility.yul\":2241:2252   */\n  add\n    /* \"#utility.yul\":2235:2253   */\n  mload\n    /* \"#utility.yul\":2231:2232   */\n  dup2\n    /* \"#utility.yul\":2226:2229   */\n  dup5\n    /* \"#utility.yul\":2222:2233   */\n  add\n    /* \"#utility.yul\":2215:2254   */\n  mstore\n    /* \"#utility.yul\":2187:2189   */\n  0x20\n    /* \"#utility.yul\":2184:2185   */\n  dup2\n    /* \"#utility.yul\":2180:2190   */\n  add\n    /* \"#utility.yul\":2175:2190   */\n  swap1\n  pop\n    /* \"#utility.yul\":2151:2264   */\n  jump(tag_103)\ntag_105:\n    /* \"#utility.yul\":2298:2299   */\n  0x00\n    /* \"#utility.yul\":2289:2295   */\n  dup5\n    /* \"#utility.yul\":2284:2287   */\n  dup5\n    /* \"#utility.yul\":2280:2296   */\n  add\n    /* \"#utility.yul\":2273:2300   */\n  mstore\n    /* \"#utility.yul\":2122:2306   */\n  pop\n    /* \"#utility.yul\":2060:2306   */\n  pop\n  pop\n  pop\n  jump\t// out\n    /* \"#utility.yul\":2312:2746   */\ntag_50:\n    /* \"#utility.yul\":2401:2406   */\n  0x00\n    /* \"#utility.yul\":2426:2492   */\n  tag_107\n    /* \"#utility.yul\":2442:2491   */\n  tag_108\n    /* \"#utility.yul\":2484:2490   */\n  dup5\n    /* \"#utility.yul\":2442:2491   */\n  tag_48\n  jump\t// in\ntag_108:\n    /* \"#utility.yul\":2426:2492   */\n  tag_44\n  jump\t// in\ntag_107:\n    /* \"#utility.yul\":2417:2492   */\n  swap1\n  pop\n    /* \"#utility.yul\":2515:2521   */\n  dup3\n    /* \"#utility.yul\":2508:2513   */\n  dup2\n    /* \"#utility.yul\":2501:2522   */\n  mstore\n    /* \"#utility.yul\":2553:2557   */\n  0x20\n    /* \"#utility.yul\":2546:2551   */\n  dup2\n    /* \"#utility.yul\":2542:2558   */\n  add\n    /* \"#utility.yul\":2591:2594   */\n  dup5\n    /* \"#utility.yul\":2582:2588   */\n  dup5\n    /* \"#utility.yul\":2577:2580   */\n  dup5\n    /* \"#utility.yul\":2573:2589   */\n  add\n    /* \"#utility.yul\":2570:2595   */\n  gt\n    /* \"#utility.yul\":2567:2679   */\n  iszero\n  tag_109\n  jumpi\n    /* \"#utility.yul\":2598:2677   */\n  tag_110\n  tag_47\n  jump\t// in\ntag_110:\n    /* \"#utility.yul\":2567:2679   */\ntag_109:\n    /* \"#utility.yul\":2688:2740   */\n  tag_111\n    /* \"#utility.yul\":2733:2739   */\n  dup5\n    /* \"#utility.yul\":2728:2731   */\n  dup3\n    /* \"#utility.yul\":2723:2726   */\n  dup6\n    /* \"#utility.yul\":2688:2740   */\n  tag_49\n  jump\t// in\ntag_111:\n    /* \"#utility.yul\":2407:2746   */\n  pop\n    /* \"#utility.yul\":2312:2746   */\n  swap4\n  swap3\n  pop\n  pop\n  pop\n  jump\t// out\n    /* \"#utility.yul\":2766:3121   */\ntag_51:\n    /* \"#utility.yul\":2833:2838   */\n  0x00\n    /* \"#utility.yul\":2882:2885   */\n  dup3\n    /* \"#utility.yul\":2875:2879   */\n  0x1f\n    /* \"#utility.yul\":2867:2873   */\n  dup4\n    /* \"#utility.yul\":2863:2880   */\n  add\n    /* \"#utility.yul\":2859:2886   */\n  slt\n    /* \"#utility.yul\":2849:2971   */\n  tag_113\n  jumpi\n    /* \"#utility.yul\":2890:2969   */\n  tag_114\n  tag_40\n  jump\t// in\ntag_114:\n    /* \"#utility.yul\":2849:2971   */\ntag_113:\n    /* \"#utility.yul\":3000:3006   */\n  dup2\n    /* \"#utility.yul\":2994:3007   */\n  mload\n    /* \"#utility.yul\":3025:3115   */\n  tag_115\n    /* \"#utility.yul\":3111:3114   */\n  dup5\n    /* \"#utility.yul\":3103:3109   */\n  dup3\n    /* \"#utility.yul\":3096:3100   */\n  0x20\n    /* \"#utility.yul\":3088:3094   */\n  dup7\n    /* \"#utility.yul\":3084:3101   */\n  add\n    /* \"#utility.yul\":3025:3115   */\n  tag_50\n  jump\t// in\ntag_115:\n    /* \"#utility.yul\":3016:3115   */\n  swap2\n  pop\n    /* \"#utility.yul\":2839:3121   */\n  pop\n    /* \"#utility.yul\":2766:3121   */\n  swap3\n  swap2\n  pop\n  pop\n  jump\t// out\n    /* \"#utility.yul\":3143:4103   */\ntag_52:\n    /* \"#utility.yul\":3260:3265   */\n  0x00\n    /* \"#utility.yul\":3285:3376   */\n  tag_117\n    /* \"#utility.yul\":3301:3375   */\n  tag_118\n    /* \"#utility.yul\":3368:3374   */\n  dup5\n    /* \"#utility.yul\":3301:3375   */\n  tag_45\n  jump\t// in\ntag_118:\n    /* \"#utility.yul\":3285:3376   */\n  tag_44\n  jump\t// in\ntag_117:\n    /* \"#utility.yul\":3276:3376   */\n  swap1\n  pop\n    /* \"#utility.yul\":3396:3401   */\n  dup1\n    /* \"#utility.yul\":3425:3431   */\n  dup4\n    /* \"#utility.yul\":3418:3423   */\n  dup3\n    /* \"#utility.yul\":3411:3432   */\n  mstore\n    /* \"#utility.yul\":3459:3463   */\n  0x20\n    /* \"#utility.yul\":3452:3457   */\n  dup3\n    /* \"#utility.yul\":3448:3464   */\n  add\n    /* \"#utility.yul\":3441:3464   */\n  swap1\n  pop\n    /* \"#utility.yul\":3512:3516   */\n  0x20\n    /* \"#utility.yul\":3504:3510   */\n  dup5\n    /* \"#utility.yul\":3500:3517   */\n  mul\n    /* \"#utility.yul\":3492:3498   */\n  dup4\n    /* \"#utility.yul\":3488:3518   */\n  add\n    /* \"#utility.yul\":3541:3544   */\n  dup6\n    /* \"#utility.yul\":3533:3539   */\n  dup2\n    /* \"#utility.yul\":3530:3545   */\n  gt\n    /* \"#utility.yul\":3527:3649   */\n  iszero\n  tag_119\n  jumpi\n    /* \"#utility.yul\":3560:3639   */\n  tag_120\n  tag_46\n  jump\t// in\ntag_120:\n    /* \"#utility.yul\":3527:3649   */\ntag_119:\n    /* \"#utility.yul\":3675:3681   */\n  dup4\n    /* \"#utility.yul\":3658:4097   */\ntag_121:\n    /* \"#utility.yul\":3692:3698   */\n  dup2\n    /* \"#utility.yul\":3687:3690   */\n  dup2\n    /* \"#utility.yul\":3684:3699   */\n  lt\n    /* \"#utility.yul\":3658:4097   */\n  iszero\n  tag_123\n  jumpi\n    /* \"#utility.yul\":3774:3777   */\n  dup1\n    /* \"#utility.yul\":3768:3778   */\n  mload\n    /* \"#utility.yul\":3810:3828   */\n  0xffffffffffffffff\n    /* \"#utility.yul\":3797:3808   */\n  dup2\n    /* \"#utility.yul\":3794:3829   */\n  gt\n    /* \"#utility.yul\":3791:3913   */\n  iszero\n  tag_124\n  jumpi\n    /* \"#utility.yul\":3832:3911   */\n  tag_125\n  tag_40\n  jump\t// in\ntag_125:\n    /* \"#utility.yul\":3791:3913   */\ntag_124:\n    /* \"#utility.yul\":3956:3967   */\n  dup1\n    /* \"#utility.yul\":3948:3954   */\n  dup7\n    /* \"#utility.yul\":3944:3968   */\n  add\n    /* \"#utility.yul\":3994:4052   */\n  tag_126\n    /* \"#utility.yul\":4048:4051   */\n  dup10\n    /* \"#utility.yul\":4036:4046   */\n  dup3\n    /* \"#utility.yul\":3994:4052   */\n  tag_51\n  jump\t// in\ntag_126:\n    /* \"#utility.yul\":3989:3992   */\n  dup6\n    /* \"#utility.yul\":3982:4053   */\n  mstore\n    /* \"#utility.yul\":4082:4086   */\n  0x20\n    /* \"#utility.yul\":4077:4080   */\n  dup6\n    /* \"#utility.yul\":4073:4087   */\n  add\n    /* \"#utility.yul\":4066:4087   */\n  swap5\n  pop\n    /* \"#utility.yul\":3734:4097   */\n  pop\n  pop\n    /* \"#utility.yul\":3718:3722   */\n  0x20\n    /* \"#utility.yul\":3713:3716   */\n  dup2\n    /* \"#utility.yul\":3709:3723   */\n  add\n    /* \"#utility.yul\":3702:3723   */\n  swap1\n  pop\n    /* \"#utility.yul\":3658:4097   */\n  jump(tag_121)\ntag_123:\n    /* \"#utility.yul\":3662:3683   */\n  pop\n    /* \"#utility.yul\":3266:4103   */\n  pop\n  pop\n    /* \"#utility.yul\":3143:4103   */\n  swap4\n  swap3\n  pop\n  pop\n  pop\n  jump\t// out\n    /* \"#utility.yul\":4125:4530   */\ntag_53:\n    /* \"#utility.yul\":4217:4222   */\n  0x00\n    /* \"#utility.yul\":4266:4269   */\n  dup3\n    /* \"#utility.yul\":4259:4263   */\n  0x1f\n    /* \"#utility.yul\":4251:4257   */\n  dup4\n    /* \"#utility.yul\":4247:4264   */\n  add\n    /* \"#utility.yul\":4243:4270   */\n  slt\n    /* \"#utility.yul\":4233:4355   */\n  tag_128\n  jumpi\n    /* \"#utility.yul\":4274:4353   */\n  tag_129\n  tag_40\n  jump\t// in\ntag_129:\n    /* \"#utility.yul\":4233:4355   */\ntag_128:\n    /* \"#utility.yul\":4384:4390   */\n  dup2\n    /* \"#utility.yul\":4378:4391   */\n  mload\n    /* \"#utility.yul\":4409:4524   */\n  tag_130\n    /* \"#utility.yul\":4520:4523   */\n  dup5\n    /* \"#utility.yul\":4512:4518   */\n  dup3\n    /* \"#utility.yul\":4505:4509   */\n  0x20\n    /* \"#utility.yul\":4497:4503   */\n  dup7\n    /* \"#utility.yul\":4493:4510   */\n  add\n    /* \"#utility.yul\":4409:4524   */\n  tag_52\n  jump\t// in\ntag_130:\n    /* \"#utility.yul\":4400:4524   */\n  swap2\n  pop\n    /* \"#utility.yul\":4223:4530   */\n  pop\n    /* \"#utility.yul\":4125:4530   */\n  swap3\n  swap2\n  pop\n  pop\n  jump\t// out\n    /* \"#utility.yul\":4536:4847   */\ntag_54:\n    /* \"#utility.yul\":4613:4617   */\n  0x00\n    /* \"#utility.yul\":4703:4721   */\n  0xffffffffffffffff\n    /* \"#utility.yul\":4695:4701   */\n  dup3\n    /* \"#utility.yul\":4692:4722   */\n  gt\n    /* \"#utility.yul\":4689:4745   */\n  iszero\n  tag_132\n  jumpi\n    /* \"#utility.yul\":4725:4743   */\n  tag_133\n  tag_42\n  jump\t// in\ntag_133:\n    /* \"#utility.yul\":4689:4745   */\ntag_132:\n    /* \"#utility.yul\":4775:4779   */\n  0x20\n    /* \"#utility.yul\":4767:4773   */\n  dup3\n    /* \"#utility.yul\":4763:4780   */\n  mul\n    /* \"#utility.yul\":4755:4780   */\n  swap1\n  pop\n    /* \"#utility.yul\":4835:4839   */\n  0x20\n    /* \"#utility.yul\":4829:4833   */\n  dup2\n    /* \"#utility.yul\":4825:4840   */\n  add\n    /* \"#utility.yul\":4817:4840   */\n  swap1\n  pop\n    /* \"#utility.yul\":4536:4847   */\n  swap2\n  swap1\n  pop\n  jump\t// out\n    /* \"#utility.yul\":4853:4979   */\ntag_55:\n    /* \"#utility.yul\":4890:4897   */\n  0x00\n    /* \"#utility.yul\":4930:4972   */\n  0xffffffffffffffffffffffffffffffffffffffff\n    /* \"#utility.yul\":4923:4928   */\n  dup3\n    /* \"#utility.yul\":4919:4973   */\n  and\n    /* \"#utility.yul\":4908:4973   */\n  swap1\n  pop\n    /* \"#utility.yul\":4853:4979   */\n  swap2\n  swap1\n  pop\n  jump\t// out\n    /* \"#utility.yul\":4985:5081   */\ntag_56:\n    /* \"#utility.yul\":5022:5029   */\n  0x00\n    /* \"#utility.yul\":5051:5075   */\n  tag_136\n    /* \"#utility.yul\":5069:5074   */\n  dup3\n    /* \"#utility.yul\":5051:5075   */\n  tag_55\n  jump\t// in\ntag_136:\n    /* \"#utility.yul\":5040:5075   */\n  swap1\n  pop\n    /* \"#utility.yul\":4985:5081   */\n  swap2\n  swap1\n  pop\n  jump\t// out\n    /* \"#utility.yul\":5087:5209   */\ntag_57:\n    /* \"#utility.yul\":5160:5184   */\n  tag_138\n    /* \"#utility.yul\":5178:5183   */\n  dup2\n    /* \"#utility.yul\":5160:5184   */\n  tag_56\n  jump\t// in\ntag_138:\n    /* \"#utility.yul\":5153:5158   */\n  dup2\n    /* \"#utility.yul\":5150:5185   */\n  eq\n    /* \"#utility.yul\":5140:5203   */\n  tag_139\n  jumpi\n    /* \"#utility.yul\":5199:5200   */\n  0x00\n    /* \"#utility.yul\":5196:5197   */\n  dup1\n    /* \"#utility.yul\":5189:5201   */\n  revert\n    /* \"#utility.yul\":5140:5203   */\ntag_139:\n    /* \"#utility.yul\":5087:5209   */\n  pop\n  jump\t// out\n    /* \"#utility.yul\":5215:5358   */\ntag_58:\n    /* \"#utility.yul\":5272:5277   */\n  0x00\n    /* \"#utility.yul\":5303:5309   */\n  dup2\n    /* \"#utility.yul\":5297:5310   */\n  mload\n    /* \"#utility.yul\":5288:5310   */\n  swap1\n  pop\n    /* \"#utility.yul\":5319:5352   */\n  tag_141\n    /* \"#utility.yul\":5346:5351   */\n  dup2\n    /* \"#utility.yul\":5319:5352   */\n  tag_57\n  jump\t// in\ntag_141:\n    /* \"#utility.yul\":5215:5358   */\n  swap3\n  swap2\n  pop\n  pop\n  jump\t// out\n    /* \"#utility.yul\":5381:6113   */\ntag_59:\n    /* \"#utility.yul\":5488:5493   */\n  0x00\n    /* \"#utility.yul\":5513:5594   */\n  tag_143\n    /* \"#utility.yul\":5529:5593   */\n  tag_144\n    /* \"#utility.yul\":5586:5592   */\n  dup5\n    /* \"#utility.yul\":5529:5593   */\n  tag_54\n  jump\t// in\ntag_144:\n    /* \"#utility.yul\":5513:5594   */\n  tag_44\n  jump\t// in\ntag_143:\n    /* \"#utility.yul\":5504:5594   */\n  swap1\n  pop\n    /* \"#utility.yul\":5614:5619   */\n  dup1\n    /* \"#utility.yul\":5643:5649   */\n  dup4\n    /* \"#utility.yul\":5636:5641   */\n  dup3\n    /* \"#utility.yul\":5629:5650   */\n  mstore\n    /* \"#utility.yul\":5677:5681   */\n  0x20\n    /* \"#utility.yul\":5670:5675   */\n  dup3\n    /* \"#utility.yul\":5666:5682   */\n  add\n    /* \"#utility.yul\":5659:5682   */\n  swap1\n  pop\n    /* \"#utility.yul\":5730:5734   */\n  0x20\n    /* \"#utility.yul\":5722:5728   */\n  dup5\n    /* \"#utility.yul\":5718:5735   */\n  mul\n    /* \"#utility.yul\":5710:5716   */\n  dup4\n    /* \"#utility.yul\":5706:5736   */\n  add\n    /* \"#utility.yul\":5759:5762   */\n  dup6\n    /* \"#utility.yul\":5751:5757   */\n  dup2\n    /* \"#utility.yul\":5748:5763   */\n  gt\n    /* \"#utility.yul\":5745:5867   */\n  iszero\n  tag_145\n  jumpi\n    /* \"#utility.yul\":5778:5857   */\n  tag_146\n  tag_46\n  jump\t// in\ntag_146:\n    /* \"#utility.yul\":5745:5867   */\ntag_145:\n    /* \"#utility.yul\":5893:5899   */\n  dup4\n    /* \"#utility.yul\":5876:6107   */\ntag_147:\n    /* \"#utility.yul\":5910:5916   */\n  dup2\n    /* \"#utility.yul\":5905:5908   */\n  dup2\n    /* \"#utility.yul\":5902:5917   */\n  lt\n    /* \"#utility.yul\":5876:6107   */\n  iszero\n  tag_149\n  jumpi\n    /* \"#utility.yul\":5985:5988   */\n  dup1\n    /* \"#utility.yul\":6014:6062   */\n  tag_150\n    /* \"#utility.yul\":6058:6061   */\n  dup9\n    /* \"#utility.yul\":6046:6056   */\n  dup3\n    /* \"#utility.yul\":6014:6062   */\n  tag_58\n  jump\t// in\ntag_150:\n    /* \"#utility.yul\":6009:6012   */\n  dup5\n    /* \"#utility.yul\":6002:6063   */\n  mstore\n    /* \"#utility.yul\":6092:6096   */\n  0x20\n    /* \"#utility.yul\":6087:6090   */\n  dup5\n    /* \"#utility.yul\":6083:6097   */\n  add\n    /* \"#utility.yul\":6076:6097   */\n  swap4\n  pop\n    /* \"#utility.yul\":5952:6107   */\n  pop\n    /* \"#utility.yul\":5936:5940   */\n  0x20\n    /* \"#utility.yul\":5931:5934   */\n  dup2\n    /* \"#utility.yul\":5927:5941   */\n  add\n    /* \"#utility.yul\":5920:5941   */\n  swap1\n  pop\n    /* \"#utility.yul\":5876:6107   */\n  jump(tag_147)\ntag_149:\n    /* \"#utility.yul\":5880:5901   */\n  pop\n    /* \"#utility.yul\":5494:6113   */\n  pop\n  pop\n    /* \"#utility.yul\":5381:6113   */\n  swap4\n  swap3\n  pop\n  pop\n  pop\n  jump\t// out\n    /* \"#utility.yul\":6136:6521   */\ntag_60:\n    /* \"#utility.yul\":6218:6223   */\n  0x00\n    /* \"#utility.yul\":6267:6270   */\n  dup3\n    /* \"#utility.yul\":6260:6264   */\n  0x1f\n    /* \"#utility.yul\":6252:6258   */\n  dup4\n    /* \"#utility.yul\":6248:6265   */\n  add\n    /* \"#utility.yul\":6244:6271   */\n  slt\n    /* \"#utility.yul\":6234:6356   */\n  tag_152\n  jumpi\n    /* \"#utility.yul\":6275:6354   */\n  tag_153\n  tag_40\n  jump\t// in\ntag_153:\n    /* \"#utility.yul\":6234:6356   */\ntag_152:\n    /* \"#utility.yul\":6385:6391   */\n  dup2\n    /* \"#utility.yul\":6379:6392   */\n  mload\n    /* \"#utility.yul\":6410:6515   */\n  tag_154\n    /* \"#utility.yul\":6511:6514   */\n  dup5\n    /* \"#utility.yul\":6503:6509   */\n  dup3\n    /* \"#utility.yul\":6496:6500   */\n  0x20\n    /* \"#utility.yul\":6488:6494   */\n  dup7\n    /* \"#utility.yul\":6484:6501   */\n  add\n    /* \"#utility.yul\":6410:6515   */\n  tag_59\n  jump\t// in\ntag_154:\n    /* \"#utility.yul\":6401:6515   */\n  swap2\n  pop\n    /* \"#utility.yul\":6224:6521   */\n  pop\n    /* \"#utility.yul\":6136:6521   */\n  swap3\n  swap2\n  pop\n  pop\n  jump\t// out\n    /* \"#utility.yul\":6527:8479   */\ntag_3:\n    /* \"#utility.yul\":6738:6744   */\n  0x00\n    /* \"#utility.yul\":6746:6752   */\n  dup1\n    /* \"#utility.yul\":6754:6760   */\n  0x00\n    /* \"#utility.yul\":6762:6768   */\n  dup1\n    /* \"#utility.yul\":6770:6776   */\n  0x00\n    /* \"#utility.yul\":6819:6822   */\n  0xa0\n    /* \"#utility.yul\":6807:6816   */\n  dup7\n    /* \"#utility.yul\":6798:6805   */\n  dup9\n    /* \"#utility.yul\":6794:6817   */\n  sub\n    /* \"#utility.yul\":6790:6823   */\n  slt\n    /* \"#utility.yul\":6787:6907   */\n  iszero\n  tag_156\n  jumpi\n    /* \"#utility.yul\":6826:6905   */\n  tag_157\n  tag_38\n  jump\t// in\ntag_157:\n    /* \"#utility.yul\":6787:6907   */\ntag_156:\n    /* \"#utility.yul\":6967:6968   */\n  0x00\n    /* \"#utility.yul\":6956:6965   */\n  dup7\n    /* \"#utility.yul\":6952:6969   */\n  add\n    /* \"#utility.yul\":6946:6970   */\n  mload\n    /* \"#utility.yul\":6997:7015   */\n  0xffffffffffffffff\n    /* \"#utility.yul\":6989:6995   */\n  dup2\n    /* \"#utility.yul\":6986:7016   */\n  gt\n    /* \"#utility.yul\":6983:7100   */\n  iszero\n  tag_158\n  jumpi\n    /* \"#utility.yul\":7019:7098   */\n  tag_159\n  tag_39\n  jump\t// in\ntag_159:\n    /* \"#utility.yul\":6983:7100   */\ntag_158:\n    /* \"#utility.yul\":7124:7223   */\n  tag_160\n    /* \"#utility.yul\":7215:7222   */\n  dup9\n    /* \"#utility.yul\":7206:7212   */\n  dup3\n    /* \"#utility.yul\":7195:7204   */\n  dup10\n    /* \"#utility.yul\":7191:7213   */\n  add\n    /* \"#utility.yul\":7124:7223   */\n  tag_53\n  jump\t// in\ntag_160:\n    /* \"#utility.yul\":7114:7223   */\n  swap6\n  pop\n    /* \"#utility.yul\":6917:7233   */\n  pop\n    /* \"#utility.yul\":7293:7295   */\n  0x20\n    /* \"#utility.yul\":7282:7291   */\n  dup7\n    /* \"#utility.yul\":7278:7296   */\n  add\n    /* \"#utility.yul\":7272:7297   */\n  mload\n    /* \"#utility.yul\":7324:7342   */\n  0xffffffffffffffff\n    /* \"#utility.yul\":7316:7322   */\n  dup2\n    /* \"#utility.yul\":7313:7343   */\n  gt\n    /* \"#utility.yul\":7310:7427   */\n  iszero\n  tag_161\n  jumpi\n    /* \"#utility.yul\":7346:7425   */\n  tag_162\n  tag_39\n  jump\t// in\ntag_162:\n    /* \"#utility.yul\":7310:7427   */\ntag_161:\n    /* \"#utility.yul\":7451:7525   */\n  tag_163\n    /* \"#utility.yul\":7517:7524   */\n  dup9\n    /* \"#utility.yul\":7508:7514   */\n  dup3\n    /* \"#utility.yul\":7497:7506   */\n  dup10\n    /* \"#utility.yul\":7493:7515   */\n  add\n    /* \"#utility.yul\":7451:7525   */\n  tag_51\n  jump\t// in\ntag_163:\n    /* \"#utility.yul\":7441:7525   */\n  swap5\n  pop\n    /* \"#utility.yul\":7243:7535   */\n  pop\n    /* \"#utility.yul\":7595:7597   */\n  0x40\n    /* \"#utility.yul\":7584:7593   */\n  dup7\n    /* \"#utility.yul\":7580:7598   */\n  add\n    /* \"#utility.yul\":7574:7599   */\n  mload\n    /* \"#utility.yul\":7626:7644   */\n  0xffffffffffffffff\n    /* \"#utility.yul\":7618:7624   */\n  dup2\n    /* \"#utility.yul\":7615:7645   */\n  gt\n    /* \"#utility.yul\":7612:7729   */\n  iszero\n  tag_164\n  jumpi\n    /* \"#utility.yul\":7648:7727   */\n  tag_165\n  tag_39\n  jump\t// in\ntag_165:\n    /* \"#utility.yul\":7612:7729   */\ntag_164:\n    /* \"#utility.yul\":7753:7842   */\n  tag_166\n    /* \"#utility.yul\":7834:7841   */\n  dup9\n    /* \"#utility.yul\":7825:7831   */\n  dup3\n    /* \"#utility.yul\":7814:7823   */\n  dup10\n    /* \"#utility.yul\":7810:7832   */\n  add\n    /* \"#utility.yul\":7753:7842   */\n  tag_60\n  jump\t// in\ntag_166:\n    /* \"#utility.yul\":7743:7842   */\n  swap4\n  pop\n    /* \"#utility.yul\":7545:7852   */\n  pop\n    /* \"#utility.yul\":7912:7914   */\n  0x60\n    /* \"#utility.yul\":7901:7910   */\n  dup7\n    /* \"#utility.yul\":7897:7915   */\n  add\n    /* \"#utility.yul\":7891:7916   */\n  mload\n    /* \"#utility.yul\":7943:7961   */\n  0xffffffffffffffff\n    /* \"#utility.yul\":7935:7941   */\n  dup2\n    /* \"#utility.yul\":7932:7962   */\n  gt\n    /* \"#utility.yul\":7929:8046   */\n  iszero\n  tag_167\n  jumpi\n    /* \"#utility.yul\":7965:8044   */\n  tag_168\n  tag_39\n  jump\t// in\ntag_168:\n    /* \"#utility.yul\":7929:8046   */\ntag_167:\n    /* \"#utility.yul\":8070:8159   */\n  tag_169\n    /* \"#utility.yul\":8151:8158   */\n  dup9\n    /* \"#utility.yul\":8142:8148   */\n  dup3\n    /* \"#utility.yul\":8131:8140   */\n  dup10\n    /* \"#utility.yul\":8127:8149   */\n  add\n    /* \"#utility.yul\":8070:8159   */\n  tag_60\n  jump\t// in\ntag_169:\n    /* \"#utility.yul\":8060:8159   */\n  swap3\n  pop\n    /* \"#utility.yul\":7862:8169   */\n  pop\n    /* \"#utility.yul\":8229:8232   */\n  0x80\n    /* \"#utility.yul\":8218:8227   */\n  dup7\n    /* \"#utility.yul\":8214:8233   */\n  add\n    /* \"#utility.yul\":8208:8234   */\n  mload\n    /* \"#utility.yul\":8261:8279   */\n  0xffffffffffffffff\n    /* \"#utility.yul\":8253:8259   */\n  dup2\n    /* \"#utility.yul\":8250:8280   */\n  gt\n    /* \"#utility.yul\":8247:8364   */\n  iszero\n  tag_170\n  jumpi\n    /* \"#utility.yul\":8283:8362   */\n  tag_171\n  tag_39\n  jump\t// in\ntag_171:\n    /* \"#utility.yul\":8247:8364   */\ntag_170:\n    /* \"#utility.yul\":8388:8462   */\n  tag_172\n    /* \"#utility.yul\":8454:8461   */\n  dup9\n    /* \"#utility.yul\":8445:8451   */\n  dup3\n    /* \"#utility.yul\":8434:8443   */\n  dup10\n    /* \"#utility.yul\":8430:8452   */\n  add\n    /* \"#utility.yul\":8388:8462   */\n  tag_51\n  jump\t// in\ntag_172:\n    /* \"#utility.yul\":8378:8462   */\n  swap2\n  pop\n    /* \"#utility.yul\":8179:8472   */\n  pop\n    /* \"#utility.yul\":6527:8479   */\n  swap3\n  swap6\n  pop\n  swap3\n  swap6\n  swap1\n  swap4\n  pop\n  jump\t// out\n    /* \"#utility.yul\":8485:8584   */\ntag_61:\n    /* \"#utility.yul\":8537:8543   */\n  0x00\n    /* \"#utility.yul\":8571:8576   */\n  dup2\n    /* \"#utility.yul\":8565:8577   */\n  mload\n    /* \"#utility.yul\":8555:8577   */\n  swap1\n  pop\n    /* \"#utility.yul\":8485:8584   */\n  swap2\n  swap1\n  pop\n  jump\t// out\n    /* \"#utility.yul\":8590:8770   */\ntag_62:\n    /* \"#utility.yul\":8638:8715   */\n  0x4e487b7100000000000000000000000000000000000000000000000000000000\n    /* \"#utility.yul\":8635:8636   */\n  0x00\n    /* \"#utility.yul\":8628:8716   */\n  mstore\n    /* \"#utility.yul\":8735:8739   */\n  0x22\n    /* \"#utility.yul\":8732:8733   */\n  0x04\n    /* \"#utility.yul\":8725:8740   */\n  mstore\n    /* \"#utility.yul\":8759:8763   */\n  0x24\n    /* \"#utility.yul\":8756:8757   */\n  0x00\n    /* \"#utility.yul\":8749:8764   */\n  revert\n    /* \"#utility.yul\":8776:9096   */\ntag_33:\n    /* \"#utility.yul\":8820:8826   */\n  0x00\n    /* \"#utility.yul\":8857:8858   */\n  0x02\n    /* \"#utility.yul\":8851:8855   */\n  dup3\n    /* \"#utility.yul\":8847:8859   */\n  div\n    /* \"#utility.yul\":8837:8859   */\n  swap1\n  pop\n    /* \"#utility.yul\":8904:8905   */\n  0x01\n    /* \"#utility.yul\":8898:8902   */\n  dup3\n    /* \"#utility.yul\":8894:8906   */\n  and\n    /* \"#utility.yul\":8925:8943   */\n  dup1\n    /* \"#utility.yul\":8915:8996   */\n  tag_176\n  jumpi\n    /* \"#utility.yul\":8981:8985   */\n  0x7f\n    /* \"#utility.yul\":8973:8979   */\n  dup3\n    /* \"#utility.yul\":8969:8986   */\n  and\n    /* \"#utility.yul\":8959:8986   */\n  swap2\n  pop\n    /* \"#utility.yul\":8915:8996   */\ntag_176:\n    /* \"#utility.yul\":9043:9045   */\n  0x20\n    /* \"#utility.yul\":9035:9041   */\n  dup3\n    /* \"#utility.yul\":9032:9046   */\n  lt\n    /* \"#utility.yul\":9012:9030   */\n  dup2\n    /* \"#utility.yul\":9009:9047   */\n  sub\n    /* \"#utility.yul\":9006:9090   */\n  tag_177\n  jumpi\n    /* \"#utility.yul\":9062:9080   */\n  tag_178\n  tag_62\n  jump\t// in\ntag_178:\n    /* \"#utility.yul\":9006:9090   */\ntag_177:\n    /* \"#utility.yul\":8827:9096   */\n  pop\n    /* \"#utility.yul\":8776:9096   */\n  swap2\n  swap1\n  pop\n  jump\t// out\n    /* \"#utility.yul\":9102:9243   */\ntag_63:\n    /* \"#utility.yul\":9151:9155   */\n  0x00\n    /* \"#utility.yul\":9174:9177   */\n  dup2\n    /* \"#utility.yul\":9166:9177   */\n  swap1\n  pop\n    /* \"#utility.yul\":9197:9200   */\n  dup2\n    /* \"#utility.yul\":9194:9195   */\n  0x00\n    /* \"#utility.yul\":9187:9201   */\n  mstore\n    /* \"#utility.yul\":9231:9235   */\n  0x20\n    /* \"#utility.yul\":9228:9229   */\n  0x00\n    /* \"#utility.yul\":9218:9236   */\n  keccak256\n    /* \"#utility.yul\":9210:9236   */\n  swap1\n  pop\n    /* \"#utility.yul\":9102:9243   */\n  swap2\n  swap1\n  pop\n  jump\t// out\n    /* \"#utility.yul\":9249:9342   */\ntag_64:\n    /* \"#utility.yul\":9286:9292   */\n  0x00\n    /* \"#utility.yul\":9333:9335   */\n  0x20\n    /* \"#utility.yul\":9328:9330   */\n  0x1f\n    /* \"#utility.yul\":9321:9326   */\n  dup4\n    /* \"#utility.yul\":9317:9331   */\n  add\n    /* \"#utility.yul\":9313:9336   */\n  div\n    /* \"#utility.yul\":9303:9336   */\n  swap1\n  pop\n    /* \"#utility.yul\":9249:9342   */\n  swap2\n  swap1\n  pop\n  jump\t// out\n    /* \"#utility.yul\":9348:9455   */\ntag_65:\n    /* \"#utility.yul\":9392:9400   */\n  0x00\n    /* \"#utility.yul\":9442:9447   */\n  dup3\n    /* \"#utility.yul\":9436:9440   */\n  dup3\n    /* \"#utility.yul\":9432:9448   */\n  shl\n    /* \"#utility.yul\":9411:9448   */\n  swap1\n  pop\n    /* \"#utility.yul\":9348:9455   */\n  swap3\n  swap2\n  pop\n  pop\n  jump\t// out\n    /* \"#utility.yul\":9461:9854   */\ntag_66:\n    /* \"#utility.yul\":9530:9536   */\n  0x00\n    /* \"#utility.yul\":9580:9581   */\n  0x08\n    /* \"#utility.yul\":9568:9578   */\n  dup4\n    /* \"#utility.yul\":9564:9582   */\n  mul\n    /* \"#utility.yul\":9603:9700   */\n  tag_183\n    /* \"#utility.yul\":9633:9699   */\n  0xffffffffffffffffffffffffffffffffffffffffffffffffffffffffffffffff\n    /* \"#utility.yul\":9622:9631   */\n  dup3\n    /* \"#utility.yul\":9603:9700   */\n  tag_65\n  jump\t// in\ntag_183:\n    /* \"#utility.yul\":9721:9760   */\n  tag_184\n    /* \"#utility.yul\":9751:9759   */\n  dup7\n    /* \"#utility.yul\":9740:9749   */\n  dup4\n    /* \"#utility.yul\":9721:9760   */\n  tag_65\n  jump\t// in\ntag_184:\n    /* \"#utility.yul\":9709:9760   */\n  swap6\n  pop\n    /* \"#utility.yul\":9793:9797   */\n  dup1\n    /* \"#utility.yul\":9789:9798   */\n  not\n    /* \"#utility.yul\":9782:9787   */\n  dup5\n    /* \"#utility.yul\":9778:9799   */\n  and\n    /* \"#utility.yul\":9769:9799   */\n  swap4\n  pop\n    /* \"#utility.yul\":9842:9846   */\n  dup1\n    /* \"#utility.yul\":9832:9840   */\n  dup7\n    /* \"#utility.yul\":9828:9847   */\n  and\n    /* \"#utility.yul\":9821:9826   */\n  dup5\n    /* \"#utility.yul\":9818:9848   */\n  or\n    /* \"#utility.yul\":9808:9848   */\n  swap3\n  pop\n    /* \"#utility.yul\":9537:9854   */\n  pop\n  pop\n    /* \"#utility.yul\":9461:9854   */\n  swap4\n  swap3\n  pop\n  pop\n  pop\n  jump\t// out\n    /* \"#utility.yul\":9860:9937   */\ntag_67:\n    /* \"#utility.yul\":9897:9904   */\n  0x00\n    /* \"#utility.yul\":9926:9931   */\n  dup2\n    /* \"#utility.yul\":9915:9931   */\n  swap1\n  pop\n    /* \"#utility.yul\":9860:9937   */\n  swap2\n  swap1\n  pop\n  jump\t// out\n    /* \"#utility.yul\":9943:10003   */\ntag_68:\n    /* \"#utility.yul\":9971:9974   */\n  0x00\n    /* \"#utility.yul\":9992:9997   */\n  dup2\n    /* \"#utility.yul\":9985:9997   */\n  swap1\n  pop\n    /* \"#utility.yul\":9943:10003   */\n  swap2\n  swap1\n  pop\n  jump\t// out\n    /* \"#utility.yul\":10009:10151   */\ntag_69:\n    /* \"#utility.yul\":10059:10068   */\n  0x00\n    /* \"#utility.yul\":10092:10145   */\n  tag_188\n    /* \"#utility.yul\":10110:10144   */\n  tag_189\n    /* \"#utility.yul\":10119:10143   */\n  tag_190\n    /* \"#utility.yul\":10137:10142   */\n  dup5\n    /* \"#utility.yul\":10119:10143   */\n  tag_67\n  jump\t// in\ntag_190:\n    /* \"#utility.yul\":10110:10144   */\n  tag_68\n  jump\t// in\ntag_189:\n    /* \"#utility.yul\":10092:10145   */\n  tag_67\n  jump\t// in\ntag_188:\n    /* \"#utility.yul\":10079:10145   */\n  swap1\n  pop\n    /* \"#utility.yul\":10009:10151   */\n  swap2\n  swap1\n  pop\n  jump\t// out\n    /* \"#utility.yul\":10157:10232   */\ntag_70:\n    /* \"#utility.yul\":10200:10203   */\n  0x00\n    /* \"#utility.yul\":10221:10226   */\n  dup2\n    /* \"#utility.yul\":10214:10226   */\n  swap1\n  pop\n    /* \"#utility.yul\":10157:10232   */\n  swap2\n  swap1\n  pop\n  jump\t// out\n    /* \"#utility.yul\":10238:10507   */\ntag_71:\n    /* \"#utility.yul\":10348:10387   */\n  tag_193\n    /* \"#utility.yul\":10379:10386   */\n  dup4\n    /* \"#utility.yul\":10348:10387   */\n  tag_69\n  jump\t// in\ntag_193:\n    /* \"#utility.yul\":10409:10500   */\n  tag_194\n    /* \"#utility.yul\":10458:10499   */\n  tag_195\n    /* \"#utility.yul\":10482:10498   */\n  dup3\n    /* \"#utility.yul\":10458:10499   */\n  tag_70\n  jump\t// in\ntag_195:\n    /* \"#utility.yul\":10450:10456   */\n  dup5\n    /* \"#utility.yul\":10443:10447   */\n  dup5\n    /* \"#utility.yul\":10437:10448   */\n  sload\n    /* \"#utility.yul\":10409:10500   */\n  tag_66\n  jump\t// in\ntag_194:\n    /* \"#utility.yul\":10403:10407   */\n  dup3\n    /* \"#utility.yul\":10396:10501   */\n  sstore\n    /* \"#utility.yul\":10314:10507   */\n  pop\n    /* \"#utility.yul\":10238:10507   */\n  pop\n  pop\n  pop\n  jump\t// out\n    /* \"#utility.yul\":10513:10586   */\ntag_72:\n    /* \"#utility.yul\":10558:10561   */\n  0x00\n    /* \"#utility.yul\":10513:10586   */\n  swap1\n  jump\t// out\n    /* \"#utility.yul\":10592:10781   */\ntag_73:\n    /* \"#utility.yul\":10669:10701   */\n  tag_198\n  tag_72\n  jump\t// in\ntag_198:\n    /* \"#utility.yul\":10710:10775   */\n  tag_199\n    /* \"#utility.yul\":10768:10774   */\n  dup2\n    /* \"#utility.yul\":10760:10766   */\n  dup5\n    /* \"#utility.yul\":10754:10758   */\n  dup5\n    /* \"#utility.yul\":10710:10775   */\n  tag_71\n  jump\t// in\ntag_199:\n    /* \"#utility.yul\":10645:10781   */\n  pop\n    /* \"#utility.yul\":10592:10781   */\n  pop\n  pop\n  jump\t// out\n    /* \"#utility.yul\":10787:10973   */\ntag_74:\n    /* \"#utility.yul\":10847:10967   */\ntag_201:\n    /* \"#utility.yul\":10864:10867   */\n  dup2\n    /* \"#utility.yul\":10857:10862   */\n  dup2\n    /* \"#utility.yul\":10854:10868   */\n  lt\n    /* \"#utility.yul\":10847:10967   */\n  iszero\n  tag_203\n  jumpi\n    /* \"#utility.yul\":10918:10957   */\n  tag_204\n    /* \"#utility.yul\":10955:10956   */\n  0x00\n    /* \"#utility.yul\":10948:10953   */\n  dup3\n    /* \"#utility.yul\":10918:10957   */\n  tag_73\n  jump\t// in\ntag_204:\n    /* \"#utility.yul\":10891:10892   */\n  0x01\n    /* \"#utility.yul\":10884:10889   */\n  dup2\n    /* \"#utility.yul\":10880:10893   */\n  add\n    /* \"#utility.yul\":10871:10893   */\n  swap1\n  pop\n    /* \"#utility.yul\":10847:10967   */\n  jump(tag_201)\ntag_203:\n    /* \"#utility.yul\":10787:10973   */\n  pop\n  pop\n  jump\t// out\n    /* \"#utility.yul\":10979:11522   */\ntag_75:\n    /* \"#utility.yul\":11080:11082   */\n  0x1f\n    /* \"#utility.yul\":11075:11078   */\n  dup3\n    /* \"#utility.yul\":11072:11083   */\n  gt\n    /* \"#utility.yul\":11069:11515   */\n  iszero\n  tag_206\n  jumpi\n    /* \"#utility.yul\":11114:11152   */\n  tag_207\n    /* \"#utility.yul\":11146:11151   */\n  dup2\n    /* \"#utility.yul\":11114:11152   */\n  tag_63\n  jump\t// in\ntag_207:\n    /* \"#utility.yul\":11198:11227   */\n  tag_208\n    /* \"#utility.yul\":11216:11226   */\n  dup5\n    /* \"#utility.yul\":11198:11227   */\n  tag_64\n  jump\t// in\ntag_208:\n    /* \"#utility.yul\":11188:11196   */\n  dup2\n    /* \"#utility.yul\":11184:11228   */\n  add\n    /* \"#utility.yul\":11381:11383   */\n  0x20\n    /* \"#utility.yul\":11369:11379   */\n  dup6\n    /* \"#utility.yul\":11366:11384   */\n  lt\n    /* \"#utility.yul\":11363:11412   */\n  iszero\n  tag_209\n  jumpi\n    /* \"#utility.yul\":11402:11410   */\n  dup2\n    /* \"#utility.yul\":11387:11410   */\n  swap1\n  pop\n    /* \"#utility.yul\":11363:11412   */\ntag_209:\n    /* \"#utility.yul\":11425:11505   */\n  tag_210\n    /* \"#utility.yul\":11481:11503   */\n  tag_211\n    /* \"#utility.yul\":11499:11502   */\n  dup6\n    /* \"#utility.yul\":11481:11503   */\n  tag_64\n  jump\t// in\ntag_211:\n    /* \"#utility.yul\":11471:11479   */\n  dup4\n    /* \"#utility.yul\":11467:11504   */\n  add\n    /* \"#utility.yul\":11454:11465   */\n  dup3\n    /* \"#utility.yul\":11425:11505   */\n  tag_74\n  jump\t// in\ntag_210:\n    /* \"#utility.yul\":11084:11515   */\n  pop\n  pop\n    /* \"#utility.yul\":11069:11515   */\ntag_206:\n    /* \"#utility.yul\":10979:11522   */\n  pop\n  pop\n  pop\n  jump\t// out\n    /* \"#utility.yul\":11528:11645   */\ntag_76:\n    /* \"#utility.yul\":11582:11590   */\n  0x00\n    /* \"#utility.yul\":11632:11637   */\n  dup3\n    /* \"#utility.yul\":11626:11630   */\n  dup3\n    /* \"#utility.yul\":11622:11638   */\n  shr\n    /* \"#utility.yul\":11601:11638   */\n  swap1\n  pop\n    /* \"#utility.yul\":11528:11645   */\n  swap3\n  swap2\n  pop\n  pop\n  jump\t// out\n    /* \"#utility.yul\":11651:11820   */\ntag_77:\n    /* \"#utility.yul\":11695:11701   */\n  0x00\n    /* \"#utility.yul\":11728:11779   */\n  tag_214\n    /* \"#utility.yul\":11776:11777   */\n  0x00\n    /* \"#utility.yul\":11772:11778   */\n  not\n    /* \"#utility.yul\":11764:11769   */\n  dup5\n    /* \"#utility.yul\":11761:11762   */\n  0x08\n    /* \"#utility.yul\":11757:11770   */\n  mul\n    /* \"#utility.yul\":11728:11779   */\n  tag_76\n  jump\t// in\ntag_214:\n    /* \"#utility.yul\":11724:11780   */\n  not\n    /* \"#utility.yul\":11809:11813   */\n  dup1\n    /* \"#utility.yul\":11803:11807   */\n  dup4\n    /* \"#utility.yul\":11799:11814   */\n  and\n    /* \"#utility.yul\":11789:11814   */\n  swap2\n  pop\n    /* \"#utility.yul\":11702:11820   */\n  pop\n    /* \"#utility.yul\":11651:11820   */\n  swap3\n  swap2\n  pop\n  pop\n  jump\t// out\n    /* \"#utility.yul\":11825:12120   */\ntag_78:\n    /* \"#utility.yul\":11901:11905   */\n  0x00\n    /* \"#utility.yul\":12047:12076   */\n  tag_216\n    /* \"#utility.yul\":12072:12075   */\n  dup4\n    /* \"#utility.yul\":12066:12070   */\n  dup4\n    /* \"#utility.yul\":12047:12076   */\n  tag_77\n  jump\t// in\ntag_216:\n    /* \"#utility.yul\":12039:12076   */\n  swap2\n  pop\n    /* \"#utility.yul\":12109:12112   */\n  dup3\n    /* \"#utility.yul\":12106:12107   */\n  0x02\n    /* \"#utility.yul\":12102:12113   */\n  mul\n    /* \"#utility.yul\":12096:12100   */\n  dup3\n    /* \"#utility.yul\":12093:12114   */\n  or\n    /* \"#utility.yul\":12085:12114   */\n  swap1\n  pop\n    /* \"#utility.yul\":11825:12120   */\n  swap3\n  swap2\n  pop\n  pop\n  jump\t// out\n    /* \"#utility.yul\":12125:13520   */\ntag_9:\n    /* \"#utility.yul\":12242:12279   */\n  tag_218\n    /* \"#utility.yul\":12275:12278   */\n  dup3\n    /* \"#utility.yul\":12242:12279   */\n  tag_61\n  jump\t// in\ntag_218:\n    /* \"#utility.yul\":12344:12362   */\n  0xffffffffffffffff\n    /* \"#utility.yul\":12336:12342   */\n  dup2\n    /* \"#utility.yul\":12333:12363   */\n  gt\n    /* \"#utility.yul\":12330:12386   */\n  iszero\n  tag_219\n  jumpi\n    /* \"#utility.yul\":12366:12384   */\n  tag_220\n  tag_42\n  jump\t// in\ntag_220:\n    /* \"#utility.yul\":12330:12386   */\ntag_219:\n    /* \"#utility.yul\":12410:12448   */\n  tag_221\n    /* \"#utility.yul\":12442:12446   */\n  dup3\n    /* \"#utility.yul\":12436:12447   */\n  sload\n    /* \"#utility.yul\":12410:12448   */\n  tag_33\n  jump\t// in\ntag_221:\n    /* \"#utility.yul\":12495:12562   */\n  tag_222\n    /* \"#utility.yul\":12555:12561   */\n  dup3\n    /* \"#utility.yul\":12547:12553   */\n  dup3\n    /* \"#utility.yul\":12541:12545   */\n  dup6\n    /* \"#utility.yul\":12495:12562   */\n  tag_75\n  jump\t// in\ntag_222:\n    /* \"#utility.yul\":12589:12590   */\n  0x00\n    /* \"#utility.yul\":12613:12617   */\n  0x20\n    /* \"#utility.yul\":12600:12617   */\n  swap1\n  pop\n    /* \"#utility.yul\":12645:12647   */\n  0x1f\n    /* \"#utility.yul\":12637:12643   */\n  dup4\n    /* \"#utility.yul\":12634:12648   */\n  gt\n    /* \"#utility.yul\":12662:12663   */\n  0x01\n    /* \"#utility.yul\":12657:13275   */\n  dup2\n  eq\n  tag_224\n  jumpi\n    /* \"#utility.yul\":13319:13320   */\n  0x00\n    /* \"#utility.yul\":13336:13342   */\n  dup5\n    /* \"#utility.yul\":13333:13410   */\n  iszero\n  tag_225\n  jumpi\n    /* \"#utility.yul\":13385:13394   */\n  dup3\n    /* \"#utility.yul\":13380:13383   */\n  dup8\n    /* \"#utility.yul\":13376:13395   */\n  add\n    /* \"#utility.yul\":13370:13396   */\n  mload\n    /* \"#utility.yul\":13361:13396   */\n  swap1\n  pop\n    /* \"#utility.yul\":13333:13410   */\ntag_225:\n    /* \"#utility.yul\":13436:13503   */\n  tag_226\n    /* \"#utility.yul\":13496:13502   */\n  dup6\n    /* \"#utility.yul\":13489:13494   */\n  dup3\n    /* \"#utility.yul\":13436:13503   */\n  tag_78\n  jump\t// in\ntag_226:\n    /* \"#utility.yul\":13430:13434   */\n  dup7\n    /* \"#utility.yul\":13423:13504   */\n  sstore\n    /* \"#utility.yul\":13292:13514   */\n  pop\n    /* \"#utility.yul\":12627:13514   */\n  jump(tag_223)\n    /* \"#utility.yul\":12657:13275   */\ntag_224:\n    /* \"#utility.yul\":12709:12713   */\n  0x1f\n    /* \"#utility.yul\":12705:12714   */\n  not\n    /* \"#utility.yul\":12697:12703   */\n  dup5\n    /* \"#utility.yul\":12693:12715   */\n  and\n    /* \"#utility.yul\":12743:12780   */\n  tag_227\n    /* \"#utility.yul\":12775:12779   */\n  dup7\n    /* \"#utility.yul\":12743:12780   */\n  tag_63\n  jump\t// in\ntag_227:\n    /* \"#utility.yul\":12802:12803   */\n  0x00\n    /* \"#utility.yul\":12816:13024   */\ntag_228:\n    /* \"#utility.yul\":12830:12837   */\n  dup3\n    /* \"#utility.yul\":12827:12828   */\n  dup2\n    /* \"#utility.yul\":12824:12838   */\n  lt\n    /* \"#utility.yul\":12816:13024   */\n  iszero\n  tag_230\n  jumpi\n    /* \"#utility.yul\":12909:12918   */\n  dup5\n    /* \"#utility.yul\":12904:12907   */\n  dup10\n    /* \"#utility.yul\":12900:12919   */\n  add\n    /* \"#utility.yul\":12894:12920   */\n  mload\n    /* \"#utility.yul\":12886:12892   */\n  dup3\n    /* \"#utility.yul\":12879:12921   */\n  sstore\n    /* \"#utility.yul\":12960:12961   */\n  0x01\n    /* \"#utility.yul\":12952:12958   */\n  dup3\n    /* \"#utility.yul\":12948:12962   */\n  add\n    /* \"#utility.yul\":12938:12962   */\n  swap2\n  pop\n    /* \"#utility.yul\":13007:13009   */\n  0x20\n    /* \"#utility.yul\":12996:13005   */\n  dup6\n    /* \"#utility.yul\":12992:13010   */\n  add\n    /* \"#utility.yul\":12979:13010   */\n  swap5\n  pop\n    /* \"#utility.yul\":12853:12857   */\n  0x20\n    /* \"#utility.yul\":12850:12851   */\n  dup2\n    /* \"#utility.yul\":12846:12858   */\n  add\n    /* \"#utility.yul\":12841:12858   */\n  swap1\n  pop\n    /* \"#utility.yul\":12816:13024   */\n  jump(tag_228)\ntag_230:\n    /* \"#utility.yul\":13052:13058   */\n  dup7\n    /* \"#utility.yul\":13043:13050   */\n  dup4\n    /* \"#utility.yul\":13040:13059   */\n  lt\n    /* \"#utility.yul\":13037:13216   */\n  iszero\n  tag_231\n  jumpi\n    /* \"#utility.yul\":13110:13119   */\n  dup5\n    /* \"#utility.yul\":13105:13108   */\n  dup10\n    /* \"#utility.yul\":13101:13120   */\n  add\n    /* \"#utility.yul\":13095:13121   */\n  mload\n    /* \"#utility.yul\":13153:13201   */\n  tag_232\n    /* \"#utility.yul\":13195:13199   */\n  0x1f\n    /* \"#utility.yul\":13187:13193   */\n  dup10\n    /* \"#utility.yul\":13183:13200   */\n  and\n    /* \"#utility.yul\":13172:13181   */\n  dup3\n    /* \"#utility.yul\":13153:13201   */\n  tag_77\n  jump\t// in\ntag_232:\n    /* \"#utility.yul\":13145:13151   */\n  dup4\n    /* \"#utility.yul\":13138:13202   */\n  sstore\n    /* \"#utility.yul\":13060:13216   */\n  pop\n    /* \"#utility.yul\":13037:13216   */\ntag_231:\n    /* \"#utility.yul\":13262:13263   */\n  0x01\n    /* \"#utility.yul\":13258:13259   */\n  0x02\n    /* \"#utility.yul\":13250:13256   */\n  dup9\n    /* \"#utility.yul\":13246:13260   */\n  mul\n    /* \"#utility.yul\":13242:13264   */\n  add\n    /* \"#utility.yul\":13236:13240   */\n  dup9\n    /* \"#utility.yul\":13229:13265   */\n  sstore\n    /* \"#utility.yul\":12664:13275   */\n  pop\n  pop\n  pop\n    /* \"#utility.yul\":12627:13514   */\ntag_223:\n  pop\n    /* \"#utility.yul\":12217:13520   */\n  pop\n  pop\n  pop\n    /* \"#utility.yul\":12125:13520   */\n  pop\n  pop\n  jump\t// out\n    /* \"contracts/Paper.sol\":66:1198  contract PaperContract {... */\ntag_14:\n  dataSize(sub_0)\n  dup1\n  dataOffset(sub_0)\n  0x00\n  codecopy\n  0x00\n  return\nstop\n\nsub_0: assembly {\n        /* \"contracts/Paper.sol\":66:1198  contract PaperContract {... */\n      mstore(0x40, 0x80)\n      callvalue\n      dup1\n      iszero\n      tag_1\n      jumpi\n      0x00\n      dup1\n      revert\n    tag_1:\n      pop\n      jumpi(tag_2, lt(calldatasize, 0x04))\n      shr(0xe0, calldataload(0x00))\n      dup1\n      0xd1384eb6\n      gt\n      tag_10\n      jumpi\n      dup1\n      0xd1384eb6\n      eq\n      tag_6\n      jumpi\n      dup1\n      0xdd1ed946\n      eq\n      tag_7\n      jumpi\n      dup1\n      0xec8c9785\n      eq\n      tag_8\n      jumpi\n      dup1\n      0xef430aa6\n      eq\n      tag_9\n      jumpi\n      jump(tag_2)\n    tag_10:\n      dup1\n      0x3db804da\n      eq\n      tag_3\n      jumpi\n      dup1\n      0x55f28564\n      eq\n      tag_4\n      jumpi\n      dup1\n      0xa13c53be\n      eq\n      tag_5\n      jumpi\n    tag_2:\n      0x00\n      dup1\n      revert\n        /* \"contracts/Paper.sol\":98:121  string[] public authors */\n    tag_3:\n      tag_11\n      0x04\n      dup1\n      calldatasize\n      sub\n      dup2\n      add\n      swap1\n      tag_12\n      swap2\n      swap1\n      tag_13\n      jump\t// in\n    tag_12:\n      tag_14\n      jump\t// in\n    tag_11:\n      mload(0x40)\n      tag_15\n      swap2\n      swap1\n      tag_16\n      jump\t// in\n    tag_15:\n      mload(0x40)\n      dup1\n      swap2\n      sub\n      swap1\n      return\n        /* \"contracts/Paper.sol\":582:713  function updateCitedBy(address citingPaper) public returns(bool) {... */\n    tag_4:\n      tag_17\n      0x04\n      dup1\n      calldatasize\n      sub\n      dup2\n      add\n      swap1\n      tag_18\n      swap2\n      swap1\n      tag_19\n      jump\t// in\n    tag_18:\n      tag_20\n      jump\t// in\n    tag_17:\n      mload(0x40)\n      tag_21\n      swap2\n      swap1\n      tag_22\n      jump\t// in\n    tag_21:\n      mload(0x40)\n      dup1\n      swap2\n      sub\n      swap1\n      return\n        /* \"contracts/Paper.sol\":721:1191  function cite(address _paper) public {... */\n    tag_5:\n      tag_23\n      0x04\n      dup1\n      calldatasize\n      sub\n      dup2\n      add\n      swap1\n      tag_24\n      swap2\n      swap1\n      tag_19\n      jump\t// in\n    tag_24:\n      tag_25\n      jump\t// in\n    tag_23:\n      stop\n        /* \"contracts/Paper.sol\":128:153  string public institution */\n    tag_6:\n      tag_26\n      tag_27\n      jump\t// in\n    tag_26:\n      mload(0x40)\n      tag_28\n      swap2\n      swap1\n      tag_16\n      jump\t// in\n    tag_28:\n      mload(0x40)\n      dup1\n      swap2\n      sub\n      swap1\n      return\n        /* \"contracts/Paper.sol\":193:217  address[] public citedBy */\n    tag_7:\n      tag_29\n      0x04\n      dup1\n      calldatasize\n      sub\n      dup2\n      add\n      swap1\n      tag_30\n      swap2\n      swap1\n      tag_13\n      jump\t// in\n    tag_30:\n      tag_31\n      jump\t// in\n    tag_29:\n      mload(0x40)\n      tag_32\n      swap2\n      swap1\n      tag_33\n      jump\t// in\n    tag_32:\n      mload(0x40)\n      dup1\n      swap2\n      sub\n      swap1\n      return\n        /* \"contracts/Paper.sol\":160:186  address[] public citations */\n    tag_8:\n      tag_34\n      0x04\n      dup1\n      calldatasize\n      sub\n      dup2\n      add\n      swap1\n      tag_35\n      swap2\n      swap1\n      tag_13\n      jump\t// in\n    tag_35:\n      tag_36\n      jump\t// in\n    tag_34:\n      mload(0x40)\n      tag_37\n      swap2\n      swap1\n      tag_33\n      jump\t// in\n    tag_37:\n      mload(0x40)\n      dup1\n      swap2\n      sub\n      swap1\n      return\n        /* \"contracts/Paper.sol\":224:246  string public category */\n    tag_9:\n      tag_38\n      tag_39\n      jump\t// in\n    tag_38:\n      mload(0x40)\n      tag_40\n      swap2\n      swap1\n      tag_16\n      jump\t// in\n    tag_40:\n      mload(0x40)\n      dup1\n      swap2\n      sub\n      swap1\n      return\n        /* \"contracts/Paper.sol\":98:121  string[] public authors */\n    tag_14:\n      0x00\n      dup2\n      dup2\n      sload\n      dup2\n      lt\n      tag_41\n      jumpi\n      0x00\n      dup1\n      revert\n    tag_41:\n      swap1\n      0x00\n      mstore\n      keccak256(0x00, 0x20)\n      add\n      0x00\n      swap2\n      pop\n      swap1\n      pop\n      dup1\n      sload\n      tag_43\n      swap1\n      tag_44\n      jump\t// in\n    tag_43:\n      dup1\n      0x1f\n      add\n      0x20\n      dup1\n      swap2\n      div\n      mul\n      0x20\n      add\n      mload(0x40)\n      swap1\n      dup2\n      add\n      0x40\n      mstore\n      dup1\n      swap3\n      swap2\n      swap1\n      dup2\n      dup2\n      mstore\n      0x20\n      add\n      dup3\n      dup1\n      sload\n      tag_45\n      swap1\n      tag_44\n      jump\t// in\n    tag_45:\n      dup1\n      iszero\n      tag_46\n      jumpi\n      dup1\n      0x1f\n      lt\n      tag_47\n      jumpi\n      0x0100\n      dup1\n      dup4\n      sload\n      div\n      mul\n      dup4\n      mstore\n      swap2\n      0x20\n      add\n      swap2\n      jump(tag_46)\n    tag_47:\n      dup3\n      add\n      swap2\n      swap1\n      0x00\n      mstore\n      keccak256(0x00, 0x20)\n      swap1\n    tag_48:\n      dup2\n      sload\n      dup2\n      mstore\n      swap1\n      0x01\n      add\n      swap1\n      0x20\n      add\n      dup1\n      dup4\n      gt\n      tag_48\n      jumpi\n      dup3\n      swap1\n      sub\n      0x1f\n      and\n      dup3\n      add\n      swap2\n    tag_46:\n      pop\n      pop\n      pop\n      pop\n      pop\n      dup2\n      jump\t// out\n        /* \"contracts/Paper.sol\":582:713  function updateCitedBy(address citingPaper) public returns(bool) {... */\n    tag_20:\n        /* \"contracts/Paper.sol\":641:645  bool */\n      0x00\n        /* \"contracts/Paper.sol\":658:665  citedBy */\n      0x03\n        /* \"contracts/Paper.sol\":671:682  citingPaper */\n      dup3\n        /* \"contracts/Paper.sol\":658:683  citedBy.push(citingPaper) */\n      swap1\n      dup1\n      0x01\n      dup2\n      sload\n      add\n      dup1\n      dup3\n      sstore\n      dup1\n      swap2\n      pop\n      pop\n      0x01\n      swap1\n      sub\n      swap1\n      0x00\n      mstore\n      keccak256(0x00, 0x20)\n      add\n      0x00\n      swap1\n      swap2\n      swap1\n      swap2\n      swap1\n      swap2\n      0x0100\n      exp\n      dup2\n      sload\n      dup2\n      0xffffffffffffffffffffffffffffffffffffffff\n      mul\n      not\n      and\n      swap1\n      dup4\n      0xffffffffffffffffffffffffffffffffffffffff\n      and\n      mul\n      or\n      swap1\n      sstore\n      pop\n        /* \"contracts/Paper.sol\":701:705  true */\n      0x01\n        /* \"contracts/Paper.sol\":694:705  return true */\n      swap1\n      pop\n        /* \"contracts/Paper.sol\":582:713  function updateCitedBy(address citingPaper) public returns(bool) {... */\n      swap2\n      swap1\n      pop\n      jump\t// out\n        /* \"contracts/Paper.sol\":721:1191  function cite(address _paper) public {... */\n    tag_25:\n        /* \"contracts/Paper.sol\":795:799  this */\n      address\n        /* \"contracts/Paper.sol\":777:800  _paper != address(this) */\n      0xffffffffffffffffffffffffffffffffffffffff\n      and\n        /* \"contracts/Paper.sol\":777:783  _paper */\n      dup2\n        /* \"contracts/Paper.sol\":777:800  _paper != address(this) */\n      0xffffffffffffffffffffffffffffffffffffffff\n      and\n      sub\n        /* \"contracts/Paper.sol\":769:829  require(_paper != address(this), \"You can't cite yourself.\") */\n      tag_52\n      jumpi\n      mload(0x40)\n      0x08c379a000000000000000000000000000000000000000000000000000000000\n      dup2\n      mstore\n      0x04\n      add\n      tag_53\n      swap1\n      tag_54\n      jump\t// in\n    tag_53:\n      mload(0x40)\n      dup1\n      swap2\n      sub\n      swap1\n      revert\n    tag_52:\n        /* \"contracts/Paper.sol\":902:926  PaperContract paperCited */\n      0x00\n        /* \"contracts/Paper.sol\":943:949  _paper */\n      dup2\n        /* \"contracts/Paper.sol\":902:950  PaperContract paperCited = PaperContract(_paper) */\n      swap1\n      pop\n        /* \"contracts/Paper.sol\":1008:1018  paperCited */\n      dup1\n        /* \"contracts/Paper.sol\":1008:1032  paperCited.updateCitedBy */\n      0xffffffffffffffffffffffffffffffffffffffff\n      and\n      0x55f28564\n        /* \"contracts/Paper.sol\":1041:1045  this */\n      address\n        /* \"contracts/Paper.sol\":1008:1047  paperCited.updateCitedBy(address(this)) */\n      mload(0x40)\n      dup3\n      0xffffffff\n      and\n      0xe0\n      shl\n      dup2\n      mstore\n      0x04\n      add\n      tag_55\n      swap2\n      swap1\n      tag_33\n      jump\t// in\n    tag_55:\n      0x20\n      mload(0x40)\n      dup1\n      dup4\n      sub\n      dup2\n      0x00\n      dup8\n      gas\n      call\n      iszero\n      dup1\n      iszero\n      tag_57\n      jumpi\n      returndatasize\n      0x00\n      dup1\n      returndatacopy\n      revert(0x00, returndatasize)\n    tag_57:\n      pop\n      pop\n      pop\n      pop\n      mload(0x40)\n      returndatasize\n      not(0x1f)\n      0x1f\n      dup3\n      add\n      and\n      dup3\n      add\n      dup1\n      0x40\n      mstore\n      pop\n      dup2\n      add\n      swap1\n      tag_58\n      swap2\n      swap1\n      tag_59\n      jump\t// in\n    tag_58:\n        /* \"contracts/Paper.sol\":1000:1080  require(paperCited.updateCitedBy(address(this)), \"Could not access that paper!\") */\n      tag_60\n      jumpi\n      mload(0x40)\n      0x08c379a000000000000000000000000000000000000000000000000000000000\n      dup2\n      mstore\n      0x04\n      add\n      tag_61\n      swap1\n      tag_62\n      jump\t// in\n    tag_61:\n      mload(0x40)\n      dup1\n      swap2\n      sub\n      swap1\n      revert\n    tag_60:\n        /* \"contracts/Paper.sol\":1091:1100  citations */\n      0x02\n        /* \"contracts/Paper.sol\":1106:1112  _paper */\n      dup3\n        /* \"contracts/Paper.sol\":1091:1113  citations.push(_paper) */\n      swap1\n      dup1\n      0x01\n      dup2\n      sload\n      add\n      dup1\n      dup3\n      sstore\n      dup1\n      swap2\n      pop\n      pop\n      0x01\n      swap1\n      sub\n      swap1\n      0x00\n      mstore\n      keccak256(0x00, 0x20)\n      add\n      0x00\n      swap1\n      swap2\n      swap1\n      swap2\n      swap1\n      swap2\n      0x0100\n      exp\n      dup2\n      sload\n      dup2\n      0xffffffffffffffffffffffffffffffffffffffff\n      mul\n      not\n      and\n      swap1\n      dup4\n      0xffffffffffffffffffffffffffffffffffffffff\n      and\n      mul\n      or\n      swap1\n      sstore\n      pop\n        /* \"contracts/Paper.sol\":758:1191  {... */\n      pop\n        /* \"contracts/Paper.sol\":721:1191  function cite(address _paper) public {... */\n      pop\n      jump\t// out\n        /* \"contracts/Paper.sol\":128:153  string public institution */\n    tag_27:\n      0x01\n      dup1\n      sload\n      tag_64\n      swap1\n      tag_44\n      jump\t// in\n    tag_64:\n      dup1\n      0x1f\n      add\n      0x20\n      dup1\n      swap2\n      div\n      mul\n      0x20\n      add\n      mload(0x40)\n      swap1\n      dup2\n      add\n      0x40\n      mstore\n      dup1\n      swap3\n      swap2\n      swap1\n      dup2\n      dup2\n      mstore\n      0x20\n      add\n      dup3\n      dup1\n      sload\n      tag_65\n      swap1\n      tag_44\n      jump\t// in\n    tag_65:\n      dup1\n      iszero\n      tag_66\n      jumpi\n      dup1\n      0x1f\n      lt\n      tag_67\n      jumpi\n      0x0100\n      dup1\n      dup4\n      sload\n      div\n      mul\n      dup4\n      mstore\n      swap2\n      0x20\n      add\n      swap2\n      jump(tag_66)\n    tag_67:\n      dup3\n      add\n      swap2\n      swap1\n      0x00\n      mstore\n      keccak256(0x00, 0x20)\n      swap1\n    tag_68:\n      dup2\n      sload\n      dup2\n      mstore\n      swap1\n      0x01\n      add\n      swap1\n      0x20\n      add\n      dup1\n      dup4\n      gt\n      tag_68\n      jumpi\n      dup3\n      swap1\n      sub\n      0x1f\n      and\n      dup3\n      add\n      swap2\n    tag_66:\n      pop\n      pop\n      pop\n      pop\n      pop\n      dup2\n      jump\t// out\n        /* \"contracts/Paper.sol\":193:217  address[] public citedBy */\n    tag_31:\n      0x03\n      dup2\n      dup2\n      sload\n      dup2\n      lt\n      tag_69\n      jumpi\n      0x00\n      dup1\n      revert\n    tag_69:\n      swap1\n      0x00\n      mstore\n      keccak256(0x00, 0x20)\n      add\n      0x00\n      swap2\n      pop\n      sload\n      swap1\n      0x0100\n      exp\n      swap1\n      div\n      0xffffffffffffffffffffffffffffffffffffffff\n      and\n      dup2\n      jump\t// out\n        /* \"contracts/Paper.sol\":160:186  address[] public citations */\n    tag_36:\n      0x02\n      dup2\n      dup2\n      sload\n      dup2\n      lt\n      tag_71\n      jumpi\n      0x00\n      dup1\n      revert\n    tag_71:\n      swap1\n      0x00\n      mstore\n      keccak256(0x00, 0x20)\n      add\n      0x00\n      swap2\n      pop\n      sload\n      swap1\n      0x0100\n      exp\n      swap1\n      div\n      0xffffffffffffffffffffffffffffffffffffffff\n      and\n      dup2\n      jump\t// out\n        /* \"contracts/Paper.sol\":224:246  string public category */\n    tag_39:\n      0x04\n      dup1\n      sload\n      tag_73\n      swap1\n      tag_44\n      jump\t// in\n    tag_73:\n      dup1\n      0x1f\n      add\n      0x20\n      dup1\n      swap2\n      div\n      mul\n      0x20\n      add\n      mload(0x40)\n      swap1\n      dup2\n      add\n      0x40\n      mstore\n      dup1\n      swap3\n      swap2\n      swap1\n      dup2\n      dup2\n      mstore\n      0x20\n      add\n      dup3\n      dup1\n      sload\n      tag_74\n      swap1\n      tag_44\n      jump\t// in\n    tag_74:\n      dup1\n      iszero\n      tag_75\n      jumpi\n      dup1\n      0x1f\n      lt\n      tag_76\n      jumpi\n      0x0100\n      dup1\n      dup4\n      sload\n      div\n      mul\n      dup4\n      mstore\n      swap2\n      0x20\n      add\n      swap2\n      jump(tag_75)\n    tag_76:\n      dup3\n      add\n      swap2\n      swap1\n      0x00\n      mstore\n      keccak256(0x00, 0x20)\n      swap1\n    tag_77:\n      dup2\n      sload\n      dup2\n      mstore\n      swap1\n      0x01\n      add\n      swap1\n      0x20\n      add\n      dup1\n      dup4\n      gt\n      tag_77\n      jumpi\n      dup3\n      swap1\n      sub\n      0x1f\n      and\n      dup3\n      add\n      swap2\n    tag_75:\n      pop\n      pop\n      pop\n      pop\n      pop\n      dup2\n      jump\t// out\n        /* \"#utility.yul\":88:205   */\n    tag_79:\n        /* \"#utility.yul\":197:198   */\n      0x00\n        /* \"#utility.yul\":194:195   */\n      dup1\n        /* \"#utility.yul\":187:199   */\n      revert\n        /* \"#utility.yul\":334:411   */\n    tag_81:\n        /* \"#utility.yul\":371:378   */\n      0x00\n        /* \"#utility.yul\":400:405   */\n      dup2\n        /* \"#utility.yul\":389:405   */\n      swap1\n      pop\n        /* \"#utility.yul\":334:411   */\n      swap2\n      swap1\n      pop\n      jump\t// out\n        /* \"#utility.yul\":417:539   */\n    tag_82:\n        /* \"#utility.yul\":490:514   */\n      tag_109\n        /* \"#utility.yul\":508:513   */\n      dup2\n        /* \"#utility.yul\":490:514   */\n      tag_81\n      jump\t// in\n    tag_109:\n        /* \"#utility.yul\":483:488   */\n      dup2\n        /* \"#utility.yul\":480:515   */\n      eq\n        /* \"#utility.yul\":470:533   */\n      tag_110\n      jumpi\n        /* \"#utility.yul\":529:530   */\n      0x00\n        /* \"#utility.yul\":526:527   */\n      dup1\n        /* \"#utility.yul\":519:531   */\n      revert\n        /* \"#utility.yul\":470:533   */\n    tag_110:\n        /* \"#utility.yul\":417:539   */\n      pop\n      jump\t// out\n        /* \"#utility.yul\":545:684   */\n    tag_83:\n        /* \"#utility.yul\":591:596   */\n      0x00\n        /* \"#utility.yul\":629:635   */\n      dup2\n        /* \"#utility.yul\":616:636   */\n      calldataload\n        /* \"#utility.yul\":607:636   */\n      swap1\n      pop\n        /* \"#utility.yul\":645:678   */\n      tag_112\n        /* \"#utility.yul\":672:677   */\n      dup2\n        /* \"#utility.yul\":645:678   */\n      tag_82\n      jump\t// in\n    tag_112:\n        /* \"#utility.yul\":545:684   */\n      swap3\n      swap2\n      pop\n      pop\n      jump\t// out\n        /* \"#utility.yul\":690:1019   */\n    tag_13:\n        /* \"#utility.yul\":749:755   */\n      0x00\n        /* \"#utility.yul\":798:800   */\n      0x20\n        /* \"#utility.yul\":786:795   */\n      dup3\n        /* \"#utility.yul\":777:784   */\n      dup5\n        /* \"#utility.yul\":773:796   */\n      sub\n        /* \"#utility.yul\":769:801   */\n      slt\n        /* \"#utility.yul\":766:885   */\n      iszero\n      tag_114\n      jumpi\n        /* \"#utility.yul\":804:883   */\n      tag_115\n      tag_79\n      jump\t// in\n    tag_115:\n        /* \"#utility.yul\":766:885   */\n    tag_114:\n        /* \"#utility.yul\":924:925   */\n      0x00\n        /* \"#utility.yul\":949:1002   */\n      tag_116\n        /* \"#utility.yul\":994:1001   */\n      dup5\n        /* \"#utility.yul\":985:991   */\n      dup3\n        /* \"#utility.yul\":974:983   */\n      dup6\n        /* \"#utility.yul\":970:992   */\n      add\n        /* \"#utility.yul\":949:1002   */\n      tag_83\n      jump\t// in\n    tag_116:\n        /* \"#utility.yul\":939:1002   */\n      swap2\n      pop\n        /* \"#utility.yul\":895:1012   */\n      pop\n        /* \"#utility.yul\":690:1019   */\n      swap3\n      swap2\n      pop\n      pop\n      jump\t// out\n        /* \"#utility.yul\":1025:1124   */\n    tag_84:\n        /* \"#utility.yul\":1077:1083   */\n      0x00\n        /* \"#utility.yul\":1111:1116   */\n      dup2\n        /* \"#utility.yul\":1105:1117   */\n      mload\n        /* \"#utility.yul\":1095:1117   */\n      swap1\n      pop\n        /* \"#utility.yul\":1025:1124   */\n      swap2\n      swap1\n      pop\n      jump\t// out\n        /* \"#utility.yul\":1130:1299   */\n    tag_85:\n        /* \"#utility.yul\":1214:1225   */\n      0x00\n        /* \"#utility.yul\":1248:1254   */\n      dup3\n        /* \"#utility.yul\":1243:1246   */\n      dup3\n        /* \"#utility.yul\":1236:1255   */\n      mstore\n        /* \"#utility.yul\":1288:1292   */\n      0x20\n        /* \"#utility.yul\":1283:1286   */\n      dup3\n        /* \"#utility.yul\":1279:1293   */\n      add\n        /* \"#utility.yul\":1264:1293   */\n      swap1\n      pop\n        /* \"#utility.yul\":1130:1299   */\n      swap3\n      swap2\n      pop\n      pop\n      jump\t// out\n        /* \"#utility.yul\":1305:1551   */\n    tag_86:\n        /* \"#utility.yul\":1386:1387   */\n      0x00\n        /* \"#utility.yul\":1396:1509   */\n    tag_120:\n        /* \"#utility.yul\":1410:1416   */\n      dup4\n        /* \"#utility.yul\":1407:1408   */\n      dup2\n        /* \"#utility.yul\":1404:1417   */\n      lt\n        /* \"#utility.yul\":1396:1509   */\n      iszero\n      tag_122\n      jumpi\n        /* \"#utility.yul\":1495:1496   */\n      dup1\n        /* \"#utility.yul\":1490:1493   */\n      dup3\n        /* \"#utility.yul\":1486:1497   */\n      add\n        /* \"#utility.yul\":1480:1498   */\n      mload\n        /* \"#utility.yul\":1476:1477   */\n      dup2\n        /* \"#utility.yul\":1471:1474   */\n      dup5\n        /* \"#utility.yul\":1467:1478   */\n      add\n        /* \"#utility.yul\":1460:1499   */\n      mstore\n        /* \"#utility.yul\":1432:1434   */\n      0x20\n        /* \"#utility.yul\":1429:1430   */\n      dup2\n        /* \"#utility.yul\":1425:1435   */\n      add\n        /* \"#utility.yul\":1420:1435   */\n      swap1\n      pop\n        /* \"#utility.yul\":1396:1509   */\n      jump(tag_120)\n    tag_122:\n        /* \"#utility.yul\":1543:1544   */\n      0x00\n        /* \"#utility.yul\":1534:1540   */\n      dup5\n        /* \"#utility.yul\":1529:1532   */\n      dup5\n        /* \"#utility.yul\":1525:1541   */\n      add\n        /* \"#utility.yul\":1518:1545   */\n      mstore\n        /* \"#utility.yul\":1367:1551   */\n      pop\n        /* \"#utility.yul\":1305:1551   */\n      pop\n      pop\n      pop\n      jump\t// out\n        /* \"#utility.yul\":1557:1659   */\n    tag_87:\n        /* \"#utility.yul\":1598:1604   */\n      0x00\n        /* \"#utility.yul\":1649:1651   */\n      0x1f\n        /* \"#utility.yul\":1645:1652   */\n      not\n        /* \"#utility.yul\":1640:1642   */\n      0x1f\n        /* \"#utility.yul\":1633:1638   */\n      dup4\n        /* \"#utility.yul\":1629:1643   */\n      add\n        /* \"#utility.yul\":1625:1653   */\n      and\n        /* \"#utility.yul\":1615:1653   */\n      swap1\n      pop\n        /* \"#utility.yul\":1557:1659   */\n      swap2\n      swap1\n      pop\n      jump\t// out\n        /* \"#utility.yul\":1665:2042   */\n    tag_88:\n        /* \"#utility.yul\":1753:1756   */\n      0x00\n        /* \"#utility.yul\":1781:1820   */\n      tag_125\n        /* \"#utility.yul\":1814:1819   */\n      dup3\n        /* \"#utility.yul\":1781:1820   */\n      tag_84\n      jump\t// in\n    tag_125:\n        /* \"#utility.yul\":1836:1907   */\n      tag_126\n        /* \"#utility.yul\":1900:1906   */\n      dup2\n        /* \"#utility.yul\":1895:1898   */\n      dup6\n        /* \"#utility.yul\":1836:1907   */\n      tag_85\n      jump\t// in\n    tag_126:\n        /* \"#utility.yul\":1829:1907   */\n      swap4\n      pop\n        /* \"#utility.yul\":1916:1981   */\n      tag_127\n        /* \"#utility.yul\":1974:1980   */\n      dup2\n        /* \"#utility.yul\":1969:1972   */\n      dup6\n        /* \"#utility.yul\":1962:1966   */\n      0x20\n        /* \"#utility.yul\":1955:1960   */\n      dup7\n        /* \"#utility.yul\":1951:1967   */\n      add\n        /* \"#utility.yul\":1916:1981   */\n      tag_86\n      jump\t// in\n    tag_127:\n        /* \"#utility.yul\":2006:2035   */\n      tag_128\n        /* \"#utility.yul\":2028:2034   */\n      dup2\n        /* \"#utility.yul\":2006:2035   */\n      tag_87\n      jump\t// in\n    tag_128:\n        /* \"#utility.yul\":2001:2004   */\n      dup5\n        /* \"#utility.yul\":1997:2036   */\n      add\n        /* \"#utility.yul\":1990:2036   */\n      swap2\n      pop\n        /* \"#utility.yul\":1757:2042   */\n      pop\n        /* \"#utility.yul\":1665:2042   */\n      swap3\n      swap2\n      pop\n      pop\n      jump\t// out\n        /* \"#utility.yul\":2048:2361   */\n    tag_16:\n        /* \"#utility.yul\":2161:2165   */\n      0x00\n        /* \"#utility.yul\":2199:2201   */\n      0x20\n        /* \"#utility.yul\":2188:2197   */\n      dup3\n        /* \"#utility.yul\":2184:2202   */\n      add\n        /* \"#utility.yul\":2176:2202   */\n      swap1\n      pop\n        /* \"#utility.yul\":2248:2257   */\n      dup2\n        /* \"#utility.yul\":2242:2246   */\n      dup2\n        /* \"#utility.yul\":2238:2258   */\n      sub\n        /* \"#utility.yul\":2234:2235   */\n      0x00\n        /* \"#utility.yul\":2223:2232   */\n      dup4\n        /* \"#utility.yul\":2219:2236   */\n      add\n        /* \"#utility.yul\":2212:2259   */\n      mstore\n        /* \"#utility.yul\":2276:2354   */\n      tag_130\n        /* \"#utility.yul\":2349:2353   */\n      dup2\n        /* \"#utility.yul\":2340:2346   */\n      dup5\n        /* \"#utility.yul\":2276:2354   */\n      tag_88\n      jump\t// in\n    tag_130:\n        /* \"#utility.yul\":2268:2354   */\n      swap1\n      pop\n        /* \"#utility.yul\":2048:2361   */\n      swap3\n      swap2\n      pop\n      pop\n      jump\t// out\n        /* \"#utility.yul\":2367:2493   */\n    tag_89:\n        /* \"#utility.yul\":2404:2411   */\n      0x00\n        /* \"#utility.yul\":2444:2486   */\n      0xffffffffffffffffffffffffffffffffffffffff\n        /* \"#utility.yul\":2437:2442   */\n      dup3\n        /* \"#utility.yul\":2433:2487   */\n      and\n        /* \"#utility.yul\":2422:2487   */\n      swap1\n      pop\n        /* \"#utility.yul\":2367:2493   */\n      swap2\n      swap1\n      pop\n      jump\t// out\n        /* \"#utility.yul\":2499:2595   */\n    tag_90:\n        /* \"#utility.yul\":2536:2543   */\n      0x00\n        /* \"#utility.yul\":2565:2589   */\n      tag_133\n        /* \"#utility.yul\":2583:2588   */\n      dup3\n        /* \"#utility.yul\":2565:2589   */\n      tag_89\n      jump\t// in\n    tag_133:\n        /* \"#utility.yul\":2554:2589   */\n      swap1\n      pop\n        /* \"#utility.yul\":2499:2595   */\n      swap2\n      swap1\n      pop\n      jump\t// out\n        /* \"#utility.yul\":2601:2723   */\n    tag_91:\n        /* \"#utility.yul\":2674:2698   */\n      tag_135\n        /* \"#utility.yul\":2692:2697   */\n      dup2\n        /* \"#utility.yul\":2674:2698   */\n      tag_90\n      jump\t// in\n    tag_135:\n        /* \"#utility.yul\":2667:2672   */\n      dup2\n        /* \"#utility.yul\":2664:2699   */\n      eq\n        /* \"#utility.yul\":2654:2717   */\n      tag_136\n      jumpi\n        /* \"#utility.yul\":2713:2714   */\n      0x00\n        /* \"#utility.yul\":2710:2711   */\n      dup1\n        /* \"#utility.yul\":2703:2715   */\n      revert\n        /* \"#utility.yul\":2654:2717   */\n    tag_136:\n        /* \"#utility.yul\":2601:2723   */\n      pop\n      jump\t// out\n        /* \"#utility.yul\":2729:2868   */\n    tag_92:\n        /* \"#utility.yul\":2775:2780   */\n      0x00\n        /* \"#utility.yul\":2813:2819   */\n      dup2\n        /* \"#utility.yul\":2800:2820   */\n      calldataload\n        /* \"#utility.yul\":2791:2820   */\n      swap1\n      pop\n        /* \"#utility.yul\":2829:2862   */\n      tag_138\n        /* \"#utility.yul\":2856:2861   */\n      dup2\n        /* \"#utility.yul\":2829:2862   */\n      tag_91\n      jump\t// in\n    tag_138:\n        /* \"#utility.yul\":2729:2868   */\n      swap3\n      swap2\n      pop\n      pop\n      jump\t// out\n        /* \"#utility.yul\":2874:3203   */\n    tag_19:\n        /* \"#utility.yul\":2933:2939   */\n      0x00\n        /* \"#utility.yul\":2982:2984   */\n      0x20\n        /* \"#utility.yul\":2970:2979   */\n      dup3\n        /* \"#utility.yul\":2961:2968   */\n      dup5\n        /* \"#utility.yul\":2957:2980   */\n      sub\n        /* \"#utility.yul\":2953:2985   */\n      slt\n        /* \"#utility.yul\":2950:3069   */\n      iszero\n      tag_140\n      jumpi\n        /* \"#utility.yul\":2988:3067   */\n      tag_141\n      tag_79\n      jump\t// in\n    tag_141:\n        /* \"#utility.yul\":2950:3069   */\n    tag_140:\n        /* \"#utility.yul\":3108:3109   */\n      0x00\n        /* \"#utility.yul\":3133:3186   */\n      tag_142\n        /* \"#utility.yul\":3178:3185   */\n      dup5\n        /* \"#utility.yul\":3169:3175   */\n      dup3\n        /* \"#utility.yul\":3158:3167   */\n      dup6\n        /* \"#utility.yul\":3154:3176   */\n      add\n        /* \"#utility.yul\":3133:3186   */\n      tag_92\n      jump\t// in\n    tag_142:\n        /* \"#utility.yul\":3123:3186   */\n      swap2\n      pop\n        /* \"#utility.yul\":3079:3196   */\n      pop\n        /* \"#utility.yul\":2874:3203   */\n      swap3\n      swap2\n      pop\n      pop\n      jump\t// out\n        /* \"#utility.yul\":3209:3299   */\n    tag_93:\n        /* \"#utility.yul\":3243:3250   */\n      0x00\n        /* \"#utility.yul\":3286:3291   */\n      dup2\n        /* \"#utility.yul\":3279:3292   */\n      iszero\n        /* \"#utility.yul\":3272:3293   */\n      iszero\n        /* \"#utility.yul\":3261:3293   */\n      swap1\n      pop\n        /* \"#utility.yul\":3209:3299   */\n      swap2\n      swap1\n      pop\n      jump\t// out\n        /* \"#utility.yul\":3305:3414   */\n    tag_94:\n        /* \"#utility.yul\":3386:3407   */\n      tag_145\n        /* \"#utility.yul\":3401:3406   */\n      dup2\n        /* \"#utility.yul\":3386:3407   */\n      tag_93\n      jump\t// in\n    tag_145:\n        /* \"#utility.yul\":3381:3384   */\n      dup3\n        /* \"#utility.yul\":3374:3408   */\n      mstore\n        /* \"#utility.yul\":3305:3414   */\n      pop\n      pop\n      jump\t// out\n        /* \"#utility.yul\":3420:3630   */\n    tag_22:\n        /* \"#utility.yul\":3507:3511   */\n      0x00\n        /* \"#utility.yul\":3545:3547   */\n      0x20\n        /* \"#utility.yul\":3534:3543   */\n      dup3\n        /* \"#utility.yul\":3530:3548   */\n      add\n        /* \"#utility.yul\":3522:3548   */\n      swap1\n      pop\n        /* \"#utility.yul\":3558:3623   */\n      tag_147\n        /* \"#utility.yul\":3620:3621   */\n      0x00\n        /* \"#utility.yul\":3609:3618   */\n      dup4\n        /* \"#utility.yul\":3605:3622   */\n      add\n        /* \"#utility.yul\":3596:3602   */\n      dup5\n        /* \"#utility.yul\":3558:3623   */\n      tag_94\n      jump\t// in\n    tag_147:\n        /* \"#utility.yul\":3420:3630   */\n      swap3\n      swap2\n      pop\n      pop\n      jump\t// out\n        /* \"#utility.yul\":3636:3754   */\n    tag_95:\n        /* \"#utility.yul\":3723:3747   */\n      tag_149\n        /* \"#utility.yul\":3741:3746   */\n      dup2\n        /* \"#utility.yul\":3723:3747   */\n      tag_90\n      jump\t// in\n    tag_149:\n        /* \"#utility.yul\":3718:3721   */\n      dup3\n        /* \"#utility.yul\":3711:3748   */\n      mstore\n        /* \"#utility.yul\":3636:3754   */\n      pop\n      pop\n      jump\t// out\n        /* \"#utility.yul\":3760:3982   */\n    tag_33:\n        /* \"#utility.yul\":3853:3857   */\n      0x00\n        /* \"#utility.yul\":3891:3893   */\n      0x20\n        /* \"#utility.yul\":3880:3889   */\n      dup3\n        /* \"#utility.yul\":3876:3894   */\n      add\n        /* \"#utility.yul\":3868:3894   */\n      swap1\n      pop\n        /* \"#utility.yul\":3904:3975   */\n      tag_151\n        /* \"#utility.yul\":3972:3973   */\n      0x00\n        /* \"#utility.yul\":3961:3970   */\n      dup4\n        /* \"#utility.yul\":3957:3974   */\n      add\n        /* \"#utility.yul\":3948:3954   */\n      dup5\n        /* \"#utility.yul\":3904:3975   */\n      tag_95\n      jump\t// in\n    tag_151:\n        /* \"#utility.yul\":3760:3982   */\n      swap3\n      swap2\n      pop\n      pop\n      jump\t// out\n        /* \"#utility.yul\":3988:4168   */\n    tag_96:\n        /* \"#utility.yul\":4036:4113   */\n      0x4e487b7100000000000000000000000000000000000000000000000000000000\n        /* \"#utility.yul\":4033:4034   */\n      0x00\n        /* \"#utility.yul\":4026:4114   */\n      mstore\n        /* \"#utility.yul\":4133:4137   */\n      0x22\n        /* \"#utility.yul\":4130:4131   */\n      0x04\n        /* \"#utility.yul\":4123:4138   */\n      mstore\n        /* \"#utility.yul\":4157:4161   */\n      0x24\n        /* \"#utility.yul\":4154:4155   */\n      0x00\n        /* \"#utility.yul\":4147:4162   */\n      revert\n        /* \"#utility.yul\":4174:4494   */\n    tag_44:\n        /* \"#utility.yul\":4218:4224   */\n      0x00\n        /* \"#utility.yul\":4255:4256   */\n      0x02\n        /* \"#utility.yul\":4249:4253   */\n      dup3\n        /* \"#utility.yul\":4245:4257   */\n      div\n        /* \"#utility.yul\":4235:4257   */\n      swap1\n      pop\n        /* \"#utility.yul\":4302:4303   */\n      0x01\n        /* \"#utility.yul\":4296:4300   */\n      dup3\n        /* \"#utility.yul\":4292:4304   */\n      and\n        /* \"#utility.yul\":4323:4341   */\n      dup1\n        /* \"#utility.yul\":4313:4394   */\n      tag_154\n      jumpi\n        /* \"#utility.yul\":4379:4383   */\n      0x7f\n        /* \"#utility.yul\":4371:4377   */\n      dup3\n        /* \"#utility.yul\":4367:4384   */\n      and\n        /* \"#utility.yul\":4357:4384   */\n      swap2\n      pop\n        /* \"#utility.yul\":4313:4394   */\n    tag_154:\n        /* \"#utility.yul\":4441:4443   */\n      0x20\n        /* \"#utility.yul\":4433:4439   */\n      dup3\n        /* \"#utility.yul\":4430:4444   */\n      lt\n        /* \"#utility.yul\":4410:4428   */\n      dup2\n        /* \"#utility.yul\":4407:4445   */\n      sub\n        /* \"#utility.yul\":4404:4488   */\n      tag_155\n      jumpi\n        /* \"#utility.yul\":4460:4478   */\n      tag_156\n      tag_96\n      jump\t// in\n    tag_156:\n        /* \"#utility.yul\":4404:4488   */\n    tag_155:\n        /* \"#utility.yul\":4225:4494   */\n      pop\n        /* \"#utility.yul\":4174:4494   */\n      swap2\n      swap1\n      pop\n      jump\t// out\n        /* \"#utility.yul\":4500:4674   */\n    tag_97:\n        /* \"#utility.yul\":4640:4666   */\n      0x596f752063616e2774206369746520796f757273656c662e0000000000000000\n        /* \"#utility.yul\":4636:4637   */\n      0x00\n        /* \"#utility.yul\":4628:4634   */\n      dup3\n        /* \"#utility.yul\":4624:4638   */\n      add\n        /* \"#utility.yul\":4617:4667   */\n      mstore\n        /* \"#utility.yul\":4500:4674   */\n      pop\n      jump\t// out\n        /* \"#utility.yul\":4680:5046   */\n    tag_98:\n        /* \"#utility.yul\":4822:4825   */\n      0x00\n        /* \"#utility.yul\":4843:4910   */\n      tag_159\n        /* \"#utility.yul\":4907:4909   */\n      0x18\n        /* \"#utility.yul\":4902:4905   */\n      dup4\n        /* \"#utility.yul\":4843:4910   */\n      tag_85\n      jump\t// in\n    tag_159:\n        /* \"#utility.yul\":4836:4910   */\n      swap2\n      pop\n        /* \"#utility.yul\":4919:5012   */\n      tag_160\n        /* \"#utility.yul\":5008:5011   */\n      dup3\n        /* \"#utility.yul\":4919:5012   */\n      tag_97\n      jump\t// in\n    tag_160:\n        /* \"#utility.yul\":5037:5039   */\n      0x20\n        /* \"#utility.yul\":5032:5035   */\n      dup3\n        /* \"#utility.yul\":5028:5040   */\n      add\n        /* \"#utility.yul\":5021:5040   */\n      swap1\n      pop\n        /* \"#utility.yul\":4680:5046   */\n      swap2\n      swap1\n      pop\n      jump\t// out\n        /* \"#utility.yul\":5052:5471   */\n    tag_54:\n        /* \"#utility.yul\":5218:5222   */\n      0x00\n        /* \"#utility.yul\":5256:5258   */\n      0x20\n        /* \"#utility.yul\":5245:5254   */\n      dup3\n        /* \"#utility.yul\":5241:5259   */\n      add\n        /* \"#utility.yul\":5233:5259   */\n      swap1\n      pop\n        /* \"#utility.yul\":5305:5314   */\n      dup2\n        /* \"#utility.yul\":5299:5303   */\n      dup2\n        /* \"#utility.yul\":5295:5315   */\n      sub\n        /* \"#utility.yul\":5291:5292   */\n      0x00\n        /* \"#utility.yul\":5280:5289   */\n      dup4\n        /* \"#utility.yul\":5276:5293   */\n      add\n        /* \"#utility.yul\":5269:5316   */\n      mstore\n        /* \"#utility.yul\":5333:5464   */\n      tag_162\n        /* \"#utility.yul\":5459:5463   */\n      dup2\n        /* \"#utility.yul\":5333:5464   */\n      tag_98\n      jump\t// in\n    tag_162:\n        /* \"#utility.yul\":5325:5464   */\n      swap1\n      pop\n        /* \"#utility.yul\":5052:5471   */\n      swap2\n      swap1\n      pop\n      jump\t// out\n        /* \"#utility.yul\":5477:5593   */\n    tag_99:\n        /* \"#utility.yul\":5547:5568   */\n      tag_164\n        /* \"#utility.yul\":5562:5567   */\n      dup2\n        /* \"#utility.yul\":5547:5568   */\n      tag_93\n      jump\t// in\n    tag_164:\n        /* \"#utility.yul\":5540:5545   */\n      dup2\n        /* \"#utility.yul\":5537:5569   */\n      eq\n        /* \"#utility.yul\":5527:5587   */\n      tag_165\n      jumpi\n        /* \"#utility.yul\":5583:5584   */\n      0x00\n        /* \"#utility.yul\":5580:5581   */\n      dup1\n        /* \"#utility.yul\":5573:5585   */\n      revert\n        /* \"#utility.yul\":5527:5587   */\n    tag_165:\n        /* \"#utility.yul\":5477:5593   */\n      pop\n      jump\t// out\n        /* \"#utility.yul\":5599:5736   */\n    tag_100:\n        /* \"#utility.yul\":5653:5658   */\n      0x00\n        /* \"#utility.yul\":5684:5690   */\n      dup2\n        /* \"#utility.yul\":5678:5691   */\n      mload\n        /* \"#utility.yul\":5669:5691   */\n      swap1\n      pop\n        /* \"#utility.yul\":5700:5730   */\n      tag_167\n        /* \"#utility.yul\":5724:5729   */\n      dup2\n        /* \"#utility.yul\":5700:5730   */\n      tag_99\n      jump\t// in\n    tag_167:\n        /* \"#utility.yul\":5599:5736   */\n      swap3\n      swap2\n      pop\n      pop\n      jump\t// out\n        /* \"#utility.yul\":5742:6087   */\n    tag_59:\n        /* \"#utility.yul\":5809:5815   */\n      0x00\n        /* \"#utility.yul\":5858:5860   */\n      0x20\n        /* \"#utility.yul\":5846:5855   */\n      dup3\n        /* \"#utility.yul\":5837:5844   */\n      dup5\n        /* \"#utility.yul\":5833:5856   */\n      sub\n        /* \"#utility.yul\":5829:5861   */\n      slt\n        /* \"#utility.yul\":5826:5945   */\n      iszero\n      tag_169\n      jumpi\n        /* \"#utility.yul\":5864:5943   */\n      tag_170\n      tag_79\n      jump\t// in\n    tag_170:\n        /* \"#utility.yul\":5826:5945   */\n    tag_169:\n        /* \"#utility.yul\":5984:5985   */\n      0x00\n        /* \"#utility.yul\":6009:6070   */\n      tag_171\n        /* \"#utility.yul\":6062:6069   */\n      dup5\n        /* \"#utility.yul\":6053:6059   */\n      dup3\n        /* \"#utility.yul\":6042:6051   */\n      dup6\n        /* \"#utility.yul\":6038:6060   */\n      add\n        /* \"#utility.yul\":6009:6070   */\n      tag_100\n      jump\t// in\n    tag_171:\n        /* \"#utility.yul\":5999:6070   */\n      swap2\n      pop\n        /* \"#utility.yul\":5955:6080   */\n      pop\n        /* \"#utility.yul\":5742:6087   */\n      swap3\n      swap2\n      pop\n      pop\n      jump\t// out\n        /* \"#utility.yul\":6093:6271   */\n    tag_101:\n        /* \"#utility.yul\":6233:6263   */\n      0x436f756c64206e6f742061636365737320746861742070617065722100000000\n        /* \"#utility.yul\":6229:6230   */\n      0x00\n        /* \"#utility.yul\":6221:6227   */\n      dup3\n        /* \"#utility.yul\":6217:6231   */\n      add\n        /* \"#utility.yul\":6210:6264   */\n      mstore\n        /* \"#utility.yul\":6093:6271   */\n      pop\n      jump\t// out\n        /* \"#utility.yul\":6277:6643   */\n    tag_102:\n        /* \"#utility.yul\":6419:6422   */\n      0x00\n        /* \"#utility.yul\":6440:6507   */\n      tag_174\n        /* \"#utility.yul\":6504:6506   */\n      0x1c\n        /* \"#utility.yul\":6499:6502   */\n      dup4\n        /* \"#utility.yul\":6440:6507   */\n      tag_85\n      jump\t// in\n    tag_174:\n        /* \"#utility.yul\":6433:6507   */\n      swap2\n      pop\n        /* \"#utility.yul\":6516:6609   */\n      tag_175\n        /* \"#utility.yul\":6605:6608   */\n      dup3\n        /* \"#utility.yul\":6516:6609   */\n      tag_101\n      jump\t// in\n    tag_175:\n        /* \"#utility.yul\":6634:6636   */\n      0x20\n        /* \"#utility.yul\":6629:6632   */\n      dup3\n        /* \"#utility.yul\":6625:6637   */\n      add\n        /* \"#utility.yul\":6618:6637   */\n      swap1\n      pop\n        /* \"#utility.yul\":6277:6643   */\n      swap2\n      swap1\n      pop\n      jump\t// out\n        /* \"#utility.yul\":6649:7068   */\n    tag_62:\n        /* \"#utility.yul\":6815:6819   */\n      0x00\n        /* \"#utility.yul\":6853:6855   */\n      0x20\n        /* \"#utility.yul\":6842:6851   */\n      dup3\n        /* \"#utility.yul\":6838:6856   */\n      add\n        /* \"#utility.yul\":6830:6856   */\n      swap1\n      pop\n        /* \"#utility.yul\":6902:6911   */\n      dup2\n        /* \"#utility.yul\":6896:6900   */\n      dup2\n        /* \"#utility.yul\":6892:6912   */\n      sub\n        /* \"#utility.yul\":6888:6889   */\n      0x00\n        /* \"#utility.yul\":6877:6886   */\n      dup4\n        /* \"#utility.yul\":6873:6890   */\n      add\n        /* \"#utility.yul\":6866:6913   */\n      mstore\n        /* \"#utility.yul\":6930:7061   */\n      tag_177\n        /* \"#utility.yul\":7056:7060   */\n      dup2\n        /* \"#utility.yul\":6930:7061   */\n      tag_102\n      jump\t// in\n    tag_177:\n        /* \"#utility.yul\":6922:7061   */\n      swap1\n      pop\n        /* \"#utility.yul\":6649:7068   */\n      swap2\n      swap1\n      pop\n      jump\t// out\n\n    auxdata: 0xa2646970667358221220b1bdd9fc19d95953dbeabc34813193bfed59d03c5272050f836b63b494d3ee8564736f6c63430008120033\n}\n",
				"bytecode": {
					"linkReferences": {},
					"object": "60806040523480156200001157600080fd5b506040516200140b3803806200140b8339818101604052810190620000379190620005f7565b84600090805190602001906200004f929190620000b1565b50836001908162000061919062000965565b5082600290805190602001906200007a92919062000111565b5081600390805190602001906200009392919062000111565b508060049081620000a5919062000965565b50505050505062000a4c565b828054828255906000526020600020908101928215620000fe579160200282015b82811115620000fd578251829081620000ec919062000965565b5091602001919060010190620000d2565b5b5090506200010d9190620001a0565b5090565b8280548282559060005260206000209081019282156200018d579160200282015b828111156200018c5782518260006101000a81548173ffffffffffffffffffffffffffffffffffffffff021916908373ffffffffffffffffffffffffffffffffffffffff1602179055509160200191906001019062000132565b5b5090506200019c9190620001c8565b5090565b5b80821115620001c45760008181620001ba9190620001e7565b50600101620001a1565b5090565b5b80821115620001e3576000816000905550600101620001c9565b5090565b508054620001f59062000754565b6000825580601f106200020957506200022a565b601f016020900490600052602060002090810190620002299190620001c8565b5b50565b6000604051905090565b600080fd5b600080fd5b600080fd5b6000601f19601f8301169050919050565b7f4e487b7100000000000000000000000000000000000000000000000000000000600052604160045260246000fd5b620002918262000246565b810181811067ffffffffffffffff82111715620002b357620002b262000257565b5b80604052505050565b6000620002c86200022d565b9050620002d6828262000286565b919050565b600067ffffffffffffffff821115620002f957620002f862000257565b5b602082029050602081019050919050565b600080fd5b600080fd5b600067ffffffffffffffff82111562000332576200033162000257565b5b6200033d8262000246565b9050602081019050919050565b60005b838110156200036a5780820151818401526020810190506200034d565b60008484015250505050565b60006200038d620003878462000314565b620002bc565b905082815260208101848484011115620003ac57620003ab6200030f565b5b620003b98482856200034a565b509392505050565b600082601f830112620003d957620003d862000241565b5b8151620003eb84826020860162000376565b91505092915050565b60006200040b6200040584620002db565b620002bc565b905080838252602082019050602084028301858111156200043157620004306200030a565b5b835b818110156200047f57805167ffffffffffffffff8111156200045a576200045962000241565b5b808601620004698982620003c1565b8552602085019450505060208101905062000433565b5050509392505050565b600082601f830112620004a157620004a062000241565b5b8151620004b3848260208601620003f4565b91505092915050565b600067ffffffffffffffff821115620004da57620004d962000257565b5b602082029050602081019050919050565b600073ffffffffffffffffffffffffffffffffffffffff82169050919050565b60006200051882620004eb565b9050919050565b6200052a816200050b565b81146200053657600080fd5b50565b6000815190506200054a816200051f565b92915050565b6000620005676200056184620004bc565b620002bc565b905080838252602082019050602084028301858111156200058d576200058c6200030a565b5b835b81811015620005ba5780620005a5888262000539565b8452602084019350506020810190506200058f565b5050509392505050565b600082601f830112620005dc57620005db62000241565b5b8151620005ee84826020860162000550565b91505092915050565b600080600080600060a0868803121562000616576200061562000237565b5b600086015167ffffffffffffffff8111156200063757620006366200023c565b5b620006458882890162000489565b955050602086015167ffffffffffffffff8111156200066957620006686200023c565b5b6200067788828901620003c1565b945050604086015167ffffffffffffffff8111156200069b576200069a6200023c565b5b620006a988828901620005c4565b935050606086015167ffffffffffffffff811115620006cd57620006cc6200023c565b5b620006db88828901620005c4565b925050608086015167ffffffffffffffff811115620006ff57620006fe6200023c565b5b6200070d88828901620003c1565b9150509295509295909350565b600081519050919050565b7f4e487b7100000000000000000000000000000000000000000000000000000000600052602260045260246000fd5b600060028204905060018216806200076d57607f821691505b60208210810362000783576200078262000725565b5b50919050565b60008190508160005260206000209050919050565b60006020601f8301049050919050565b600082821b905092915050565b600060088302620007ed7fffffffffffffffffffffffffffffffffffffffffffffffffffffffffffffffff82620007ae565b620007f98683620007ae565b95508019841693508086168417925050509392505050565b6000819050919050565b6000819050919050565b600062000846620008406200083a8462000811565b6200081b565b62000811565b9050919050565b6000819050919050565b620008628362000825565b6200087a62000871826200084d565b848454620007bb565b825550505050565b600090565b6200089162000882565b6200089e81848462000857565b505050565b5b81811015620008c657620008ba60008262000887565b600181019050620008a4565b5050565b601f8211156200091557620008df8162000789565b620008ea846200079e565b81016020851015620008fa578190505b6200091262000909856200079e565b830182620008a3565b50505b505050565b600082821c905092915050565b60006200093a600019846008026200091a565b1980831691505092915050565b600062000955838362000927565b9150826002028217905092915050565b62000970826200071a565b67ffffffffffffffff8111156200098c576200098b62000257565b5b62000998825462000754565b620009a5828285620008ca565b600060209050601f831160018114620009dd5760008415620009c8578287015190505b620009d4858262000947565b86555062000a44565b601f198416620009ed8662000789565b60005b8281101562000a1757848901518255600182019150602085019450602081019050620009f0565b8683101562000a37578489015162000a33601f89168262000927565b8355505b6001600288020188555050505b505050505050565b6109af8062000a5c6000396000f3fe608060405234801561001057600080fd5b506004361061007d5760003560e01c8063d1384eb61161005b578063d1384eb6146100fe578063dd1ed9461461011c578063ec8c97851461014c578063ef430aa61461017c5761007d565b80633db804da1461008257806355f28564146100b2578063a13c53be146100e2575b600080fd5b61009c6004803603810190610097919061061e565b61019a565b6040516100a991906106db565b60405180910390f35b6100cc60048036038101906100c7919061075b565b610246565b6040516100d991906107a3565b60405180910390f35b6100fc60048036038101906100f7919061075b565b6102b4565b005b610106610449565b60405161011391906106db565b60405180910390f35b6101366004803603810190610131919061061e565b6104d7565b60405161014391906107cd565b60405180910390f35b6101666004803603810190610161919061061e565b610516565b60405161017391906107cd565b60405180910390f35b610184610555565b60405161019191906106db565b60405180910390f35b600081815481106101aa57600080fd5b9060005260206000200160009150905080546101c590610817565b80601f01602080910402602001604051908101604052809291908181526020018280546101f190610817565b801561023e5780601f106102135761010080835404028352916020019161023e565b820191906000526020600020905b81548152906001019060200180831161022157829003601f168201915b505050505081565b60006003829080600181540180825580915050600190039060005260206000200160009091909190916101000a81548173ffffffffffffffffffffffffffffffffffffffff021916908373ffffffffffffffffffffffffffffffffffffffff16021790555060019050919050565b3073ffffffffffffffffffffffffffffffffffffffff168173ffffffffffffffffffffffffffffffffffffffff1603610322576040517f08c379a000000000000000000000000000000000000000000000000000000000815260040161031990610894565b60405180910390fd5b60008190508073ffffffffffffffffffffffffffffffffffffffff166355f28564306040518263ffffffff1660e01b815260040161036091906107cd565b6020604051808303816000875af115801561037f573d6000803e3d6000fd5b505050506040513d601f19601f820116820180604052508101906103a391906108e0565b6103e2576040517f08c379a00000000000000000000000000000000000000000000000000000000081526004016103d990610959565b60405180910390fd5b6002829080600181540180825580915050600190039060005260206000200160009091909190916101000a81548173ffffffffffffffffffffffffffffffffffffffff021916908373ffffffffffffffffffffffffffffffffffffffff1602179055505050565b6001805461045690610817565b80601f016020809104026020016040519081016040528092919081815260200182805461048290610817565b80156104cf5780601f106104a4576101008083540402835291602001916104cf565b820191906000526020600020905b8154815290600101906020018083116104b257829003601f168201915b505050505081565b600381815481106104e757600080fd5b906000526020600020016000915054906101000a900473ffffffffffffffffffffffffffffffffffffffff1681565b6002818154811061052657600080fd5b906000526020600020016000915054906101000a900473ffffffffffffffffffffffffffffffffffffffff1681565b6004805461056290610817565b80601f016020809104026020016040519081016040528092919081815260200182805461058e90610817565b80156105db5780601f106105b0576101008083540402835291602001916105db565b820191906000526020600020905b8154815290600101906020018083116105be57829003601f168201915b505050505081565b600080fd5b6000819050919050565b6105fb816105e8565b811461060657600080fd5b50565b600081359050610618816105f2565b92915050565b600060208284031215610634576106336105e3565b5b600061064284828501610609565b91505092915050565b600081519050919050565b600082825260208201905092915050565b60005b8381101561068557808201518184015260208101905061066a565b60008484015250505050565b6000601f19601f8301169050919050565b60006106ad8261064b565b6106b78185610656565b93506106c7818560208601610667565b6106d081610691565b840191505092915050565b600060208201905081810360008301526106f581846106a2565b905092915050565b600073ffffffffffffffffffffffffffffffffffffffff82169050919050565b6000610728826106fd565b9050919050565b6107388161071d565b811461074357600080fd5b50565b6000813590506107558161072f565b92915050565b600060208284031215610771576107706105e3565b5b600061077f84828501610746565b91505092915050565b60008115159050919050565b61079d81610788565b82525050565b60006020820190506107b86000830184610794565b92915050565b6107c78161071d565b82525050565b60006020820190506107e260008301846107be565b92915050565b7f4e487b7100000000000000000000000000000000000000000000000000000000600052602260045260246000fd5b6000600282049050600182168061082f57607f821691505b602082108103610842576108416107e8565b5b50919050565b7f596f752063616e2774206369746520796f757273656c662e0000000000000000600082015250565b600061087e601883610656565b915061088982610848565b602082019050919050565b600060208201905081810360008301526108ad81610871565b9050919050565b6108bd81610788565b81146108c857600080fd5b50565b6000815190506108da816108b4565b92915050565b6000602082840312156108f6576108f56105e3565b5b6000610904848285016108cb565b91505092915050565b7f436f756c64206e6f742061636365737320746861742070617065722100000000600082015250565b6000610943601c83610656565b915061094e8261090d565b602082019050919050565b6000602082019050818103600083015261097281610936565b905091905056fea2646970667358221220b1bdd9fc19d95953dbeabc34813193bfed59d03c5272050f836b63b494d3ee8564736f6c63430008120033",
					"opcodes": "PUSH1 0x80 PUSH1 0x40 MSTORE CALLVALUE DUP1 ISZERO PUSH3 0x11 JUMPI PUSH1 0x0 DUP1 REVERT JUMPDEST POP PUSH1 0x40 MLOAD PUSH3 0x140B CODESIZE SUB DUP1 PUSH3 0x140B DUP4 CODECOPY DUP2 DUP2 ADD PUSH1 0x40 MSTORE DUP2 ADD SWAP1 PUSH3 0x37 SWAP2 SWAP1 PUSH3 0x5F7 JUMP JUMPDEST DUP5 PUSH1 0x0 SWAP1 DUP1 MLOAD SWAP1 PUSH1 0x20 ADD SWAP1 PUSH3 0x4F SWAP3 SWAP2 SWAP1 PUSH3 0xB1 JUMP JUMPDEST POP DUP4 PUSH1 0x1 SWAP1 DUP2 PUSH3 0x61 SWAP2 SWAP1 PUSH3 0x965 JUMP JUMPDEST POP DUP3 PUSH1 0x2 SWAP1 DUP1 MLOAD SWAP1 PUSH1 0x20 ADD SWAP1 PUSH3 0x7A SWAP3 SWAP2 SWAP1 PUSH3 0x111 JUMP JUMPDEST POP DUP2 PUSH1 0x3 SWAP1 DUP1 MLOAD SWAP1 PUSH1 0x20 ADD SWAP1 PUSH3 0x93 SWAP3 SWAP2 SWAP1 PUSH3 0x111 JUMP JUMPDEST POP DUP1 PUSH1 0x4 SWAP1 DUP2 PUSH3 0xA5 SWAP2 SWAP1 PUSH3 0x965 JUMP JUMPDEST POP POP POP POP POP POP PUSH3 0xA4C JUMP JUMPDEST DUP3 DUP1 SLOAD DUP3 DUP3 SSTORE SWAP1 PUSH1 0x0 MSTORE PUSH1 0x20 PUSH1 0x0 KECCAK256 SWAP1 DUP2 ADD SWAP3 DUP3 ISZERO PUSH3 0xFE JUMPI SWAP2 PUSH1 0x20 MUL DUP3 ADD JUMPDEST DUP3 DUP2 GT ISZERO PUSH3 0xFD JUMPI DUP3 MLOAD DUP3 SWAP1 DUP2 PUSH3 0xEC SWAP2 SWAP1 PUSH3 0x965 JUMP JUMPDEST POP SWAP2 PUSH1 0x20 ADD SWAP2 SWAP1 PUSH1 0x1 ADD SWAP1 PUSH3 0xD2 JUMP JUMPDEST JUMPDEST POP SWAP1 POP PUSH3 0x10D SWAP2 SWAP1 PUSH3 0x1A0 JUMP JUMPDEST POP SWAP1 JUMP JUMPDEST DUP3 DUP1 SLOAD DUP3 DUP3 SSTORE SWAP1 PUSH1 0x0 MSTORE PUSH1 0x20 PUSH1 0x0 KECCAK256 SWAP1 DUP2 ADD SWAP3 DUP3 ISZERO PUSH3 0x18D JUMPI SWAP2 PUSH1 0x20 MUL DUP3 ADD JUMPDEST DUP3 DUP2 GT ISZERO PUSH3 0x18C JUMPI DUP3 MLOAD DUP3 PUSH1 0x0 PUSH2 0x100 EXP DUP2 SLOAD DUP2 PUSH20 0xFFFFFFFFFFFFFFFFFFFFFFFFFFFFFFFFFFFFFFFF MUL NOT AND SWAP1 DUP4 PUSH20 0xFFFFFFFFFFFFFFFFFFFFFFFFFFFFFFFFFFFFFFFF AND MUL OR SWAP1 SSTORE POP SWAP2 PUSH1 0x20 ADD SWAP2 SWAP1 PUSH1 0x1 ADD SWAP1 PUSH3 0x132 JUMP JUMPDEST JUMPDEST POP SWAP1 POP PUSH3 0x19C SWAP2 SWAP1 PUSH3 0x1C8 JUMP JUMPDEST POP SWAP1 JUMP JUMPDEST JUMPDEST DUP1 DUP3 GT ISZERO PUSH3 0x1C4 JUMPI PUSH1 0x0 DUP2 DUP2 PUSH3 0x1BA SWAP2 SWAP1 PUSH3 0x1E7 JUMP JUMPDEST POP PUSH1 0x1 ADD PUSH3 0x1A1 JUMP JUMPDEST POP SWAP1 JUMP JUMPDEST JUMPDEST DUP1 DUP3 GT ISZERO PUSH3 0x1E3 JUMPI PUSH1 0x0 DUP2 PUSH1 0x0 SWAP1 SSTORE POP PUSH1 0x1 ADD PUSH3 0x1C9 JUMP JUMPDEST POP SWAP1 JUMP JUMPDEST POP DUP1 SLOAD PUSH3 0x1F5 SWAP1 PUSH3 0x754 JUMP JUMPDEST PUSH1 0x0 DUP3 SSTORE DUP1 PUSH1 0x1F LT PUSH3 0x209 JUMPI POP PUSH3 0x22A JUMP JUMPDEST PUSH1 0x1F ADD PUSH1 0x20 SWAP1 DIV SWAP1 PUSH1 0x0 MSTORE PUSH1 0x20 PUSH1 0x0 KECCAK256 SWAP1 DUP2 ADD SWAP1 PUSH3 0x229 SWAP2 SWAP1 PUSH3 0x1C8 JUMP JUMPDEST JUMPDEST POP JUMP JUMPDEST PUSH1 0x0 PUSH1 0x40 MLOAD SWAP1 POP SWAP1 JUMP JUMPDEST PUSH1 0x0 DUP1 REVERT JUMPDEST PUSH1 0x0 DUP1 REVERT JUMPDEST PUSH1 0x0 DUP1 REVERT JUMPDEST PUSH1 0x0 PUSH1 0x1F NOT PUSH1 0x1F DUP4 ADD AND SWAP1 POP SWAP2 SWAP1 POP JUMP JUMPDEST PUSH32 0x4E487B7100000000000000000000000000000000000000000000000000000000 PUSH1 0x0 MSTORE PUSH1 0x41 PUSH1 0x4 MSTORE PUSH1 0x24 PUSH1 0x0 REVERT JUMPDEST PUSH3 0x291 DUP3 PUSH3 0x246 JUMP JUMPDEST DUP2 ADD DUP2 DUP2 LT PUSH8 0xFFFFFFFFFFFFFFFF DUP3 GT OR ISZERO PUSH3 0x2B3 JUMPI PUSH3 0x2B2 PUSH3 0x257 JUMP JUMPDEST JUMPDEST DUP1 PUSH1 0x40 MSTORE POP POP POP JUMP JUMPDEST PUSH1 0x0 PUSH3 0x2C8 PUSH3 0x22D JUMP JUMPDEST SWAP1 POP PUSH3 0x2D6 DUP3 DUP3 PUSH3 0x286 JUMP JUMPDEST SWAP2 SWAP1 POP JUMP JUMPDEST PUSH1 0x0 PUSH8 0xFFFFFFFFFFFFFFFF DUP3 GT ISZERO PUSH3 0x2F9 JUMPI PUSH3 0x2F8 PUSH3 0x257 JUMP JUMPDEST JUMPDEST PUSH1 0x20 DUP3 MUL SWAP1 POP PUSH1 0x20 DUP2 ADD SWAP1 POP SWAP2 SWAP1 POP JUMP JUMPDEST PUSH1 0x0 DUP1 REVERT JUMPDEST PUSH1 0x0 DUP1 REVERT JUMPDEST PUSH1 0x0 PUSH8 0xFFFFFFFFFFFFFFFF DUP3 GT ISZERO PUSH3 0x332 JUMPI PUSH3 0x331 PUSH3 0x257 JUMP JUMPDEST JUMPDEST PUSH3 0x33D DUP3 PUSH3 0x246 JUMP JUMPDEST SWAP1 POP PUSH1 0x20 DUP2 ADD SWAP1 POP SWAP2 SWAP1 POP JUMP JUMPDEST PUSH1 0x0 JUMPDEST DUP4 DUP2 LT ISZERO PUSH3 0x36A JUMPI DUP1 DUP3 ADD MLOAD DUP2 DUP5 ADD MSTORE PUSH1 0x20 DUP2 ADD SWAP1 POP PUSH3 0x34D JUMP JUMPDEST PUSH1 0x0 DUP5 DUP5 ADD MSTORE POP POP POP POP JUMP JUMPDEST PUSH1 0x0 PUSH3 0x38D PUSH3 0x387 DUP5 PUSH3 0x314 JUMP JUMPDEST PUSH3 0x2BC JUMP JUMPDEST SWAP1 POP DUP3 DUP2 MSTORE PUSH1 0x20 DUP2 ADD DUP5 DUP5 DUP5 ADD GT ISZERO PUSH3 0x3AC JUMPI PUSH3 0x3AB PUSH3 0x30F JUMP JUMPDEST JUMPDEST PUSH3 0x3B9 DUP5 DUP3 DUP6 PUSH3 0x34A JUMP JUMPDEST POP SWAP4 SWAP3 POP POP POP JUMP JUMPDEST PUSH1 0x0 DUP3 PUSH1 0x1F DUP4 ADD SLT PUSH3 0x3D9 JUMPI PUSH3 0x3D8 PUSH3 0x241 JUMP JUMPDEST JUMPDEST DUP2 MLOAD PUSH3 0x3EB DUP5 DUP3 PUSH1 0x20 DUP7 ADD PUSH3 0x376 JUMP JUMPDEST SWAP2 POP POP SWAP3 SWAP2 POP POP JUMP JUMPDEST PUSH1 0x0 PUSH3 0x40B PUSH3 0x405 DUP5 PUSH3 0x2DB JUMP JUMPDEST PUSH3 0x2BC JUMP JUMPDEST SWAP1 POP DUP1 DUP4 DUP3 MSTORE PUSH1 0x20 DUP3 ADD SWAP1 POP PUSH1 0x20 DUP5 MUL DUP4 ADD DUP6 DUP2 GT ISZERO PUSH3 0x431 JUMPI PUSH3 0x430 PUSH3 0x30A JUMP JUMPDEST JUMPDEST DUP4 JUMPDEST DUP2 DUP2 LT ISZERO PUSH3 0x47F JUMPI DUP1 MLOAD PUSH8 0xFFFFFFFFFFFFFFFF DUP2 GT ISZERO PUSH3 0x45A JUMPI PUSH3 0x459 PUSH3 0x241 JUMP JUMPDEST JUMPDEST DUP1 DUP7 ADD PUSH3 0x469 DUP10 DUP3 PUSH3 0x3C1 JUMP JUMPDEST DUP6 MSTORE PUSH1 0x20 DUP6 ADD SWAP5 POP POP POP PUSH1 0x20 DUP2 ADD SWAP1 POP PUSH3 0x433 JUMP JUMPDEST POP POP POP SWAP4 SWAP3 POP POP POP JUMP JUMPDEST PUSH1 0x0 DUP3 PUSH1 0x1F DUP4 ADD SLT PUSH3 0x4A1 JUMPI PUSH3 0x4A0 PUSH3 0x241 JUMP JUMPDEST JUMPDEST DUP2 MLOAD PUSH3 0x4B3 DUP5 DUP3 PUSH1 0x20 DUP7 ADD PUSH3 0x3F4 JUMP JUMPDEST SWAP2 POP POP SWAP3 SWAP2 POP POP JUMP JUMPDEST PUSH1 0x0 PUSH8 0xFFFFFFFFFFFFFFFF DUP3 GT ISZERO PUSH3 0x4DA JUMPI PUSH3 0x4D9 PUSH3 0x257 JUMP JUMPDEST JUMPDEST PUSH1 0x20 DUP3 MUL SWAP1 POP PUSH1 0x20 DUP2 ADD SWAP1 POP SWAP2 SWAP1 POP JUMP JUMPDEST PUSH1 0x0 PUSH20 0xFFFFFFFFFFFFFFFFFFFFFFFFFFFFFFFFFFFFFFFF DUP3 AND SWAP1 POP SWAP2 SWAP1 POP JUMP JUMPDEST PUSH1 0x0 PUSH3 0x518 DUP3 PUSH3 0x4EB JUMP JUMPDEST SWAP1 POP SWAP2 SWAP1 POP JUMP JUMPDEST PUSH3 0x52A DUP2 PUSH3 0x50B JUMP JUMPDEST DUP2 EQ PUSH3 0x536 JUMPI PUSH1 0x0 DUP1 REVERT JUMPDEST POP JUMP JUMPDEST PUSH1 0x0 DUP2 MLOAD SWAP1 POP PUSH3 0x54A DUP2 PUSH3 0x51F JUMP JUMPDEST SWAP3 SWAP2 POP POP JUMP JUMPDEST PUSH1 0x0 PUSH3 0x567 PUSH3 0x561 DUP5 PUSH3 0x4BC JUMP JUMPDEST PUSH3 0x2BC JUMP JUMPDEST SWAP1 POP DUP1 DUP4 DUP3 MSTORE PUSH1 0x20 DUP3 ADD SWAP1 POP PUSH1 0x20 DUP5 MUL DUP4 ADD DUP6 DUP2 GT ISZERO PUSH3 0x58D JUMPI PUSH3 0x58C PUSH3 0x30A JUMP JUMPDEST JUMPDEST DUP4 JUMPDEST DUP2 DUP2 LT ISZERO PUSH3 0x5BA JUMPI DUP1 PUSH3 0x5A5 DUP9 DUP3 PUSH3 0x539 JUMP JUMPDEST DUP5 MSTORE PUSH1 0x20 DUP5 ADD SWAP4 POP POP PUSH1 0x20 DUP2 ADD SWAP1 POP PUSH3 0x58F JUMP JUMPDEST POP POP POP SWAP4 SWAP3 POP POP POP JUMP JUMPDEST PUSH1 0x0 DUP3 PUSH1 0x1F DUP4 ADD SLT PUSH3 0x5DC JUMPI PUSH3 0x5DB PUSH3 0x241 JUMP JUMPDEST JUMPDEST DUP2 MLOAD PUSH3 0x5EE DUP5 DUP3 PUSH1 0x20 DUP7 ADD PUSH3 0x550 JUMP JUMPDEST SWAP2 POP POP SWAP3 SWAP2 POP POP JUMP JUMPDEST PUSH1 0x0 DUP1 PUSH1 0x0 DUP1 PUSH1 0x0 PUSH1 0xA0 DUP7 DUP9 SUB SLT ISZERO PUSH3 0x616 JUMPI PUSH3 0x615 PUSH3 0x237 JUMP JUMPDEST JUMPDEST PUSH1 0x0 DUP7 ADD MLOAD PUSH8 0xFFFFFFFFFFFFFFFF DUP2 GT ISZERO PUSH3 0x637 JUMPI PUSH3 0x636 PUSH3 0x23C JUMP JUMPDEST JUMPDEST PUSH3 0x645 DUP9 DUP3 DUP10 ADD PUSH3 0x489 JUMP JUMPDEST SWAP6 POP POP PUSH1 0x20 DUP7 ADD MLOAD PUSH8 0xFFFFFFFFFFFFFFFF DUP2 GT ISZERO PUSH3 0x669 JUMPI PUSH3 0x668 PUSH3 0x23C JUMP JUMPDEST JUMPDEST PUSH3 0x677 DUP9 DUP3 DUP10 ADD PUSH3 0x3C1 JUMP JUMPDEST SWAP5 POP POP PUSH1 0x40 DUP7 ADD MLOAD PUSH8 0xFFFFFFFFFFFFFFFF DUP2 GT ISZERO PUSH3 0x69B JUMPI PUSH3 0x69A PUSH3 0x23C JUMP JUMPDEST JUMPDEST PUSH3 0x6A9 DUP9 DUP3 DUP10 ADD PUSH3 0x5C4 JUMP JUMPDEST SWAP4 POP POP PUSH1 0x60 DUP7 ADD MLOAD PUSH8 0xFFFFFFFFFFFFFFFF DUP2 GT ISZERO PUSH3 0x6CD JUMPI PUSH3 0x6CC PUSH3 0x23C JUMP JUMPDEST JUMPDEST PUSH3 0x6DB DUP9 DUP3 DUP10 ADD PUSH3 0x5C4 JUMP JUMPDEST SWAP3 POP POP PUSH1 0x80 DUP7 ADD MLOAD PUSH8 0xFFFFFFFFFFFFFFFF DUP2 GT ISZERO PUSH3 0x6FF JUMPI PUSH3 0x6FE PUSH3 0x23C JUMP JUMPDEST JUMPDEST PUSH3 0x70D DUP9 DUP3 DUP10 ADD PUSH3 0x3C1 JUMP JUMPDEST SWAP2 POP POP SWAP3 SWAP6 POP SWAP3 SWAP6 SWAP1 SWAP4 POP JUMP JUMPDEST PUSH1 0x0 DUP2 MLOAD SWAP1 POP SWAP2 SWAP1 POP JUMP JUMPDEST PUSH32 0x4E487B7100000000000000000000000000000000000000000000000000000000 PUSH1 0x0 MSTORE PUSH1 0x22 PUSH1 0x4 MSTORE PUSH1 0x24 PUSH1 0x0 REVERT JUMPDEST PUSH1 0x0 PUSH1 0x2 DUP3 DIV SWAP1 POP PUSH1 0x1 DUP3 AND DUP1 PUSH3 0x76D JUMPI PUSH1 0x7F DUP3 AND SWAP2 POP JUMPDEST PUSH1 0x20 DUP3 LT DUP2 SUB PUSH3 0x783 JUMPI PUSH3 0x782 PUSH3 0x725 JUMP JUMPDEST JUMPDEST POP SWAP2 SWAP1 POP JUMP JUMPDEST PUSH1 0x0 DUP2 SWAP1 POP DUP2 PUSH1 0x0 MSTORE PUSH1 0x20 PUSH1 0x0 KECCAK256 SWAP1 POP SWAP2 SWAP1 POP JUMP JUMPDEST PUSH1 0x0 PUSH1 0x20 PUSH1 0x1F DUP4 ADD DIV SWAP1 POP SWAP2 SWAP1 POP JUMP JUMPDEST PUSH1 0x0 DUP3 DUP3 SHL SWAP1 POP SWAP3 SWAP2 POP POP JUMP JUMPDEST PUSH1 0x0 PUSH1 0x8 DUP4 MUL PUSH3 0x7ED PUSH32 0xFFFFFFFFFFFFFFFFFFFFFFFFFFFFFFFFFFFFFFFFFFFFFFFFFFFFFFFFFFFFFFFF DUP3 PUSH3 0x7AE JUMP JUMPDEST PUSH3 0x7F9 DUP7 DUP4 PUSH3 0x7AE JUMP JUMPDEST SWAP6 POP DUP1 NOT DUP5 AND SWAP4 POP DUP1 DUP7 AND DUP5 OR SWAP3 POP POP POP SWAP4 SWAP3 POP POP POP JUMP JUMPDEST PUSH1 0x0 DUP2 SWAP1 POP SWAP2 SWAP1 POP JUMP JUMPDEST PUSH1 0x0 DUP2 SWAP1 POP SWAP2 SWAP1 POP JUMP JUMPDEST PUSH1 0x0 PUSH3 0x846 PUSH3 0x840 PUSH3 0x83A DUP5 PUSH3 0x811 JUMP JUMPDEST PUSH3 0x81B JUMP JUMPDEST PUSH3 0x811 JUMP JUMPDEST SWAP1 POP SWAP2 SWAP1 POP JUMP JUMPDEST PUSH1 0x0 DUP2 SWAP1 POP SWAP2 SWAP1 POP JUMP JUMPDEST PUSH3 0x862 DUP4 PUSH3 0x825 JUMP JUMPDEST PUSH3 0x87A PUSH3 0x871 DUP3 PUSH3 0x84D JUMP JUMPDEST DUP5 DUP5 SLOAD PUSH3 0x7BB JUMP JUMPDEST DUP3 SSTORE POP POP POP POP JUMP JUMPDEST PUSH1 0x0 SWAP1 JUMP JUMPDEST PUSH3 0x891 PUSH3 0x882 JUMP JUMPDEST PUSH3 0x89E DUP2 DUP5 DUP5 PUSH3 0x857 JUMP JUMPDEST POP POP POP JUMP JUMPDEST JUMPDEST DUP2 DUP2 LT ISZERO PUSH3 0x8C6 JUMPI PUSH3 0x8BA PUSH1 0x0 DUP3 PUSH3 0x887 JUMP JUMPDEST PUSH1 0x1 DUP2 ADD SWAP1 POP PUSH3 0x8A4 JUMP JUMPDEST POP POP JUMP JUMPDEST PUSH1 0x1F DUP3 GT ISZERO PUSH3 0x915 JUMPI PUSH3 0x8DF DUP2 PUSH3 0x789 JUMP JUMPDEST PUSH3 0x8EA DUP5 PUSH3 0x79E JUMP JUMPDEST DUP2 ADD PUSH1 0x20 DUP6 LT ISZERO PUSH3 0x8FA JUMPI DUP2 SWAP1 POP JUMPDEST PUSH3 0x912 PUSH3 0x909 DUP6 PUSH3 0x79E JUMP JUMPDEST DUP4 ADD DUP3 PUSH3 0x8A3 JUMP JUMPDEST POP POP JUMPDEST POP POP POP JUMP JUMPDEST PUSH1 0x0 DUP3 DUP3 SHR SWAP1 POP SWAP3 SWAP2 POP POP JUMP JUMPDEST PUSH1 0x0 PUSH3 0x93A PUSH1 0x0 NOT DUP5 PUSH1 0x8 MUL PUSH3 0x91A JUMP JUMPDEST NOT DUP1 DUP4 AND SWAP2 POP POP SWAP3 SWAP2 POP POP JUMP JUMPDEST PUSH1 0x0 PUSH3 0x955 DUP4 DUP4 PUSH3 0x927 JUMP JUMPDEST SWAP2 POP DUP3 PUSH1 0x2 MUL DUP3 OR SWAP1 POP SWAP3 SWAP2 POP POP JUMP JUMPDEST PUSH3 0x970 DUP3 PUSH3 0x71A JUMP JUMPDEST PUSH8 0xFFFFFFFFFFFFFFFF DUP2 GT ISZERO PUSH3 0x98C JUMPI PUSH3 0x98B PUSH3 0x257 JUMP JUMPDEST JUMPDEST PUSH3 0x998 DUP3 SLOAD PUSH3 0x754 JUMP JUMPDEST PUSH3 0x9A5 DUP3 DUP3 DUP6 PUSH3 0x8CA JUMP JUMPDEST PUSH1 0x0 PUSH1 0x20 SWAP1 POP PUSH1 0x1F DUP4 GT PUSH1 0x1 DUP2 EQ PUSH3 0x9DD JUMPI PUSH1 0x0 DUP5 ISZERO PUSH3 0x9C8 JUMPI DUP3 DUP8 ADD MLOAD SWAP1 POP JUMPDEST PUSH3 0x9D4 DUP6 DUP3 PUSH3 0x947 JUMP JUMPDEST DUP7 SSTORE POP PUSH3 0xA44 JUMP JUMPDEST PUSH1 0x1F NOT DUP5 AND PUSH3 0x9ED DUP7 PUSH3 0x789 JUMP JUMPDEST PUSH1 0x0 JUMPDEST DUP3 DUP2 LT ISZERO PUSH3 0xA17 JUMPI DUP5 DUP10 ADD MLOAD DUP3 SSTORE PUSH1 0x1 DUP3 ADD SWAP2 POP PUSH1 0x20 DUP6 ADD SWAP5 POP PUSH1 0x20 DUP2 ADD SWAP1 POP PUSH3 0x9F0 JUMP JUMPDEST DUP7 DUP4 LT ISZERO PUSH3 0xA37 JUMPI DUP5 DUP10 ADD MLOAD PUSH3 0xA33 PUSH1 0x1F DUP10 AND DUP3 PUSH3 0x927 JUMP JUMPDEST DUP4 SSTORE POP JUMPDEST PUSH1 0x1 PUSH1 0x2 DUP9 MUL ADD DUP9 SSTORE POP POP POP JUMPDEST POP POP POP POP POP POP JUMP JUMPDEST PUSH2 0x9AF DUP1 PUSH3 0xA5C PUSH1 0x0 CODECOPY PUSH1 0x0 RETURN INVALID PUSH1 0x80 PUSH1 0x40 MSTORE CALLVALUE DUP1 ISZERO PUSH2 0x10 JUMPI PUSH1 0x0 DUP1 REVERT JUMPDEST POP PUSH1 0x4 CALLDATASIZE LT PUSH2 0x7D JUMPI PUSH1 0x0 CALLDATALOAD PUSH1 0xE0 SHR DUP1 PUSH4 0xD1384EB6 GT PUSH2 0x5B JUMPI DUP1 PUSH4 0xD1384EB6 EQ PUSH2 0xFE JUMPI DUP1 PUSH4 0xDD1ED946 EQ PUSH2 0x11C JUMPI DUP1 PUSH4 0xEC8C9785 EQ PUSH2 0x14C JUMPI DUP1 PUSH4 0xEF430AA6 EQ PUSH2 0x17C JUMPI PUSH2 0x7D JUMP JUMPDEST DUP1 PUSH4 0x3DB804DA EQ PUSH2 0x82 JUMPI DUP1 PUSH4 0x55F28564 EQ PUSH2 0xB2 JUMPI DUP1 PUSH4 0xA13C53BE EQ PUSH2 0xE2 JUMPI JUMPDEST PUSH1 0x0 DUP1 REVERT JUMPDEST PUSH2 0x9C PUSH1 0x4 DUP1 CALLDATASIZE SUB DUP2 ADD SWAP1 PUSH2 0x97 SWAP2 SWAP1 PUSH2 0x61E JUMP JUMPDEST PUSH2 0x19A JUMP JUMPDEST PUSH1 0x40 MLOAD PUSH2 0xA9 SWAP2 SWAP1 PUSH2 0x6DB JUMP JUMPDEST PUSH1 0x40 MLOAD DUP1 SWAP2 SUB SWAP1 RETURN JUMPDEST PUSH2 0xCC PUSH1 0x4 DUP1 CALLDATASIZE SUB DUP2 ADD SWAP1 PUSH2 0xC7 SWAP2 SWAP1 PUSH2 0x75B JUMP JUMPDEST PUSH2 0x246 JUMP JUMPDEST PUSH1 0x40 MLOAD PUSH2 0xD9 SWAP2 SWAP1 PUSH2 0x7A3 JUMP JUMPDEST PUSH1 0x40 MLOAD DUP1 SWAP2 SUB SWAP1 RETURN JUMPDEST PUSH2 0xFC PUSH1 0x4 DUP1 CALLDATASIZE SUB DUP2 ADD SWAP1 PUSH2 0xF7 SWAP2 SWAP1 PUSH2 0x75B JUMP JUMPDEST PUSH2 0x2B4 JUMP JUMPDEST STOP JUMPDEST PUSH2 0x106 PUSH2 0x449 JUMP JUMPDEST PUSH1 0x40 MLOAD PUSH2 0x113 SWAP2 SWAP1 PUSH2 0x6DB JUMP JUMPDEST PUSH1 0x40 MLOAD DUP1 SWAP2 SUB SWAP1 RETURN JUMPDEST PUSH2 0x136 PUSH1 0x4 DUP1 CALLDATASIZE SUB DUP2 ADD SWAP1 PUSH2 0x131 SWAP2 SWAP1 PUSH2 0x61E JUMP JUMPDEST PUSH2 0x4D7 JUMP JUMPDEST PUSH1 0x40 MLOAD PUSH2 0x143 SWAP2 SWAP1 PUSH2 0x7CD JUMP JUMPDEST PUSH1 0x40 MLOAD DUP1 SWAP2 SUB SWAP1 RETURN JUMPDEST PUSH2 0x166 PUSH1 0x4 DUP1 CALLDATASIZE SUB DUP2 ADD SWAP1 PUSH2 0x161 SWAP2 SWAP1 PUSH2 0x61E JUMP JUMPDEST PUSH2 0x516 JUMP JUMPDEST PUSH1 0x40 MLOAD PUSH2 0x173 SWAP2 SWAP1 PUSH2 0x7CD JUMP JUMPDEST PUSH1 0x40 MLOAD DUP1 SWAP2 SUB SWAP1 RETURN JUMPDEST PUSH2 0x184 PUSH2 0x555 JUMP JUMPDEST PUSH1 0x40 MLOAD PUSH2 0x191 SWAP2 SWAP1 PUSH2 0x6DB JUMP JUMPDEST PUSH1 0x40 MLOAD DUP1 SWAP2 SUB SWAP1 RETURN JUMPDEST PUSH1 0x0 DUP2 DUP2 SLOAD DUP2 LT PUSH2 0x1AA JUMPI PUSH1 0x0 DUP1 REVERT JUMPDEST SWAP1 PUSH1 0x0 MSTORE PUSH1 0x20 PUSH1 0x0 KECCAK256 ADD PUSH1 0x0 SWAP2 POP SWAP1 POP DUP1 SLOAD PUSH2 0x1C5 SWAP1 PUSH2 0x817 JUMP JUMPDEST DUP1 PUSH1 0x1F ADD PUSH1 0x20 DUP1 SWAP2 DIV MUL PUSH1 0x20 ADD PUSH1 0x40 MLOAD SWAP1 DUP2 ADD PUSH1 0x40 MSTORE DUP1 SWAP3 SWAP2 SWAP1 DUP2 DUP2 MSTORE PUSH1 0x20 ADD DUP3 DUP1 SLOAD PUSH2 0x1F1 SWAP1 PUSH2 0x817 JUMP JUMPDEST DUP1 ISZERO PUSH2 0x23E JUMPI DUP1 PUSH1 0x1F LT PUSH2 0x213 JUMPI PUSH2 0x100 DUP1 DUP4 SLOAD DIV MUL DUP4 MSTORE SWAP2 PUSH1 0x20 ADD SWAP2 PUSH2 0x23E JUMP JUMPDEST DUP3 ADD SWAP2 SWAP1 PUSH1 0x0 MSTORE PUSH1 0x20 PUSH1 0x0 KECCAK256 SWAP1 JUMPDEST DUP2 SLOAD DUP2 MSTORE SWAP1 PUSH1 0x1 ADD SWAP1 PUSH1 0x20 ADD DUP1 DUP4 GT PUSH2 0x221 JUMPI DUP3 SWAP1 SUB PUSH1 0x1F AND DUP3 ADD SWAP2 JUMPDEST POP POP POP POP POP DUP2 JUMP JUMPDEST PUSH1 0x0 PUSH1 0x3 DUP3 SWAP1 DUP1 PUSH1 0x1 DUP2 SLOAD ADD DUP1 DUP3 SSTORE DUP1 SWAP2 POP POP PUSH1 0x1 SWAP1 SUB SWAP1 PUSH1 0x0 MSTORE PUSH1 0x20 PUSH1 0x0 KECCAK256 ADD PUSH1 0x0 SWAP1 SWAP2 SWAP1 SWAP2 SWAP1 SWAP2 PUSH2 0x100 EXP DUP2 SLOAD DUP2 PUSH20 0xFFFFFFFFFFFFFFFFFFFFFFFFFFFFFFFFFFFFFFFF MUL NOT AND SWAP1 DUP4 PUSH20 0xFFFFFFFFFFFFFFFFFFFFFFFFFFFFFFFFFFFFFFFF AND MUL OR SWAP1 SSTORE POP PUSH1 0x1 SWAP1 POP SWAP2 SWAP1 POP JUMP JUMPDEST ADDRESS PUSH20 0xFFFFFFFFFFFFFFFFFFFFFFFFFFFFFFFFFFFFFFFF AND DUP2 PUSH20 0xFFFFFFFFFFFFFFFFFFFFFFFFFFFFFFFFFFFFFFFF AND SUB PUSH2 0x322 JUMPI PUSH1 0x40 MLOAD PUSH32 0x8C379A000000000000000000000000000000000000000000000000000000000 DUP2 MSTORE PUSH1 0x4 ADD PUSH2 0x319 SWAP1 PUSH2 0x894 JUMP JUMPDEST PUSH1 0x40 MLOAD DUP1 SWAP2 SUB SWAP1 REVERT JUMPDEST PUSH1 0x0 DUP2 SWAP1 POP DUP1 PUSH20 0xFFFFFFFFFFFFFFFFFFFFFFFFFFFFFFFFFFFFFFFF AND PUSH4 0x55F28564 ADDRESS PUSH1 0x40 MLOAD DUP3 PUSH4 0xFFFFFFFF AND PUSH1 0xE0 SHL DUP2 MSTORE PUSH1 0x4 ADD PUSH2 0x360 SWAP2 SWAP1 PUSH2 0x7CD JUMP JUMPDEST PUSH1 0x20 PUSH1 0x40 MLOAD DUP1 DUP4 SUB DUP2 PUSH1 0x0 DUP8 GAS CALL ISZERO DUP1 ISZERO PUSH2 0x37F JUMPI RETURNDATASIZE PUSH1 0x0 DUP1 RETURNDATACOPY RETURNDATASIZE PUSH1 0x0 REVERT JUMPDEST POP POP POP POP PUSH1 0x40 MLOAD RETURNDATASIZE PUSH1 0x1F NOT PUSH1 0x1F DUP3 ADD AND DUP3 ADD DUP1 PUSH1 0x40 MSTORE POP DUP2 ADD SWAP1 PUSH2 0x3A3 SWAP2 SWAP1 PUSH2 0x8E0 JUMP JUMPDEST PUSH2 0x3E2 JUMPI PUSH1 0x40 MLOAD PUSH32 0x8C379A000000000000000000000000000000000000000000000000000000000 DUP2 MSTORE PUSH1 0x4 ADD PUSH2 0x3D9 SWAP1 PUSH2 0x959 JUMP JUMPDEST PUSH1 0x40 MLOAD DUP1 SWAP2 SUB SWAP1 REVERT JUMPDEST PUSH1 0x2 DUP3 SWAP1 DUP1 PUSH1 0x1 DUP2 SLOAD ADD DUP1 DUP3 SSTORE DUP1 SWAP2 POP POP PUSH1 0x1 SWAP1 SUB SWAP1 PUSH1 0x0 MSTORE PUSH1 0x20 PUSH1 0x0 KECCAK256 ADD PUSH1 0x0 SWAP1 SWAP2 SWAP1 SWAP2 SWAP1 SWAP2 PUSH2 0x100 EXP DUP2 SLOAD DUP2 PUSH20 0xFFFFFFFFFFFFFFFFFFFFFFFFFFFFFFFFFFFFFFFF MUL NOT AND SWAP1 DUP4 PUSH20 0xFFFFFFFFFFFFFFFFFFFFFFFFFFFFFFFFFFFFFFFF AND MUL OR SWAP1 SSTORE POP POP POP JUMP JUMPDEST PUSH1 0x1 DUP1 SLOAD PUSH2 0x456 SWAP1 PUSH2 0x817 JUMP JUMPDEST DUP1 PUSH1 0x1F ADD PUSH1 0x20 DUP1 SWAP2 DIV MUL PUSH1 0x20 ADD PUSH1 0x40 MLOAD SWAP1 DUP2 ADD PUSH1 0x40 MSTORE DUP1 SWAP3 SWAP2 SWAP1 DUP2 DUP2 MSTORE PUSH1 0x20 ADD DUP3 DUP1 SLOAD PUSH2 0x482 SWAP1 PUSH2 0x817 JUMP JUMPDEST DUP1 ISZERO PUSH2 0x4CF JUMPI DUP1 PUSH1 0x1F LT PUSH2 0x4A4 JUMPI PUSH2 0x100 DUP1 DUP4 SLOAD DIV MUL DUP4 MSTORE SWAP2 PUSH1 0x20 ADD SWAP2 PUSH2 0x4CF JUMP JUMPDEST DUP3 ADD SWAP2 SWAP1 PUSH1 0x0 MSTORE PUSH1 0x20 PUSH1 0x0 KECCAK256 SWAP1 JUMPDEST DUP2 SLOAD DUP2 MSTORE SWAP1 PUSH1 0x1 ADD SWAP1 PUSH1 0x20 ADD DUP1 DUP4 GT PUSH2 0x4B2 JUMPI DUP3 SWAP1 SUB PUSH1 0x1F AND DUP3 ADD SWAP2 JUMPDEST POP POP POP POP POP DUP2 JUMP JUMPDEST PUSH1 0x3 DUP2 DUP2 SLOAD DUP2 LT PUSH2 0x4E7 JUMPI PUSH1 0x0 DUP1 REVERT JUMPDEST SWAP1 PUSH1 0x0 MSTORE PUSH1 0x20 PUSH1 0x0 KECCAK256 ADD PUSH1 0x0 SWAP2 POP SLOAD SWAP1 PUSH2 0x100 EXP SWAP1 DIV PUSH20 0xFFFFFFFFFFFFFFFFFFFFFFFFFFFFFFFFFFFFFFFF AND DUP2 JUMP JUMPDEST PUSH1 0x2 DUP2 DUP2 SLOAD DUP2 LT PUSH2 0x526 JUMPI PUSH1 0x0 DUP1 REVERT JUMPDEST SWAP1 PUSH1 0x0 MSTORE PUSH1 0x20 PUSH1 0x0 KECCAK256 ADD PUSH1 0x0 SWAP2 POP SLOAD SWAP1 PUSH2 0x100 EXP SWAP1 DIV PUSH20 0xFFFFFFFFFFFFFFFFFFFFFFFFFFFFFFFFFFFFFFFF AND DUP2 JUMP JUMPDEST PUSH1 0x4 DUP1 SLOAD PUSH2 0x562 SWAP1 PUSH2 0x817 JUMP JUMPDEST DUP1 PUSH1 0x1F ADD PUSH1 0x20 DUP1 SWAP2 DIV MUL PUSH1 0x20 ADD PUSH1 0x40 MLOAD SWAP1 DUP2 ADD PUSH1 0x40 MSTORE DUP1 SWAP3 SWAP2 SWAP1 DUP2 DUP2 MSTORE PUSH1 0x20 ADD DUP3 DUP1 SLOAD PUSH2 0x58E SWAP1 PUSH2 0x817 JUMP JUMPDEST DUP1 ISZERO PUSH2 0x5DB JUMPI DUP1 PUSH1 0x1F LT PUSH2 0x5B0 JUMPI PUSH2 0x100 DUP1 DUP4 SLOAD DIV MUL DUP4 MSTORE SWAP2 PUSH1 0x20 ADD SWAP2 PUSH2 0x5DB JUMP JUMPDEST DUP3 ADD SWAP2 SWAP1 PUSH1 0x0 MSTORE PUSH1 0x20 PUSH1 0x0 KECCAK256 SWAP1 JUMPDEST DUP2 SLOAD DUP2 MSTORE SWAP1 PUSH1 0x1 ADD SWAP1 PUSH1 0x20 ADD DUP1 DUP4 GT PUSH2 0x5BE JUMPI DUP3 SWAP1 SUB PUSH1 0x1F AND DUP3 ADD SWAP2 JUMPDEST POP POP POP POP POP DUP2 JUMP JUMPDEST PUSH1 0x0 DUP1 REVERT JUMPDEST PUSH1 0x0 DUP2 SWAP1 POP SWAP2 SWAP1 POP JUMP JUMPDEST PUSH2 0x5FB DUP2 PUSH2 0x5E8 JUMP JUMPDEST DUP2 EQ PUSH2 0x606 JUMPI PUSH1 0x0 DUP1 REVERT JUMPDEST POP JUMP JUMPDEST PUSH1 0x0 DUP2 CALLDATALOAD SWAP1 POP PUSH2 0x618 DUP2 PUSH2 0x5F2 JUMP JUMPDEST SWAP3 SWAP2 POP POP JUMP JUMPDEST PUSH1 0x0 PUSH1 0x20 DUP3 DUP5 SUB SLT ISZERO PUSH2 0x634 JUMPI PUSH2 0x633 PUSH2 0x5E3 JUMP JUMPDEST JUMPDEST PUSH1 0x0 PUSH2 0x642 DUP5 DUP3 DUP6 ADD PUSH2 0x609 JUMP JUMPDEST SWAP2 POP POP SWAP3 SWAP2 POP POP JUMP JUMPDEST PUSH1 0x0 DUP2 MLOAD SWAP1 POP SWAP2 SWAP1 POP JUMP JUMPDEST PUSH1 0x0 DUP3 DUP3 MSTORE PUSH1 0x20 DUP3 ADD SWAP1 POP SWAP3 SWAP2 POP POP JUMP JUMPDEST PUSH1 0x0 JUMPDEST DUP4 DUP2 LT ISZERO PUSH2 0x685 JUMPI DUP1 DUP3 ADD MLOAD DUP2 DUP5 ADD MSTORE PUSH1 0x20 DUP2 ADD SWAP1 POP PUSH2 0x66A JUMP JUMPDEST PUSH1 0x0 DUP5 DUP5 ADD MSTORE POP POP POP POP JUMP JUMPDEST PUSH1 0x0 PUSH1 0x1F NOT PUSH1 0x1F DUP4 ADD AND SWAP1 POP SWAP2 SWAP1 POP JUMP JUMPDEST PUSH1 0x0 PUSH2 0x6AD DUP3 PUSH2 0x64B JUMP JUMPDEST PUSH2 0x6B7 DUP2 DUP6 PUSH2 0x656 JUMP JUMPDEST SWAP4 POP PUSH2 0x6C7 DUP2 DUP6 PUSH1 0x20 DUP7 ADD PUSH2 0x667 JUMP JUMPDEST PUSH2 0x6D0 DUP2 PUSH2 0x691 JUMP JUMPDEST DUP5 ADD SWAP2 POP POP SWAP3 SWAP2 POP POP JUMP JUMPDEST PUSH1 0x0 PUSH1 0x20 DUP3 ADD SWAP1 POP DUP2 DUP2 SUB PUSH1 0x0 DUP4 ADD MSTORE PUSH2 0x6F5 DUP2 DUP5 PUSH2 0x6A2 JUMP JUMPDEST SWAP1 POP SWAP3 SWAP2 POP POP JUMP JUMPDEST PUSH1 0x0 PUSH20 0xFFFFFFFFFFFFFFFFFFFFFFFFFFFFFFFFFFFFFFFF DUP3 AND SWAP1 POP SWAP2 SWAP1 POP JUMP JUMPDEST PUSH1 0x0 PUSH2 0x728 DUP3 PUSH2 0x6FD JUMP JUMPDEST SWAP1 POP SWAP2 SWAP1 POP JUMP JUMPDEST PUSH2 0x738 DUP2 PUSH2 0x71D JUMP JUMPDEST DUP2 EQ PUSH2 0x743 JUMPI PUSH1 0x0 DUP1 REVERT JUMPDEST POP JUMP JUMPDEST PUSH1 0x0 DUP2 CALLDATALOAD SWAP1 POP PUSH2 0x755 DUP2 PUSH2 0x72F JUMP JUMPDEST SWAP3 SWAP2 POP POP JUMP JUMPDEST PUSH1 0x0 PUSH1 0x20 DUP3 DUP5 SUB SLT ISZERO PUSH2 0x771 JUMPI PUSH2 0x770 PUSH2 0x5E3 JUMP JUMPDEST JUMPDEST PUSH1 0x0 PUSH2 0x77F DUP5 DUP3 DUP6 ADD PUSH2 0x746 JUMP JUMPDEST SWAP2 POP POP SWAP3 SWAP2 POP POP JUMP JUMPDEST PUSH1 0x0 DUP2 ISZERO ISZERO SWAP1 POP SWAP2 SWAP1 POP JUMP JUMPDEST PUSH2 0x79D DUP2 PUSH2 0x788 JUMP JUMPDEST DUP3 MSTORE POP POP JUMP JUMPDEST PUSH1 0x0 PUSH1 0x20 DUP3 ADD SWAP1 POP PUSH2 0x7B8 PUSH1 0x0 DUP4 ADD DUP5 PUSH2 0x794 JUMP JUMPDEST SWAP3 SWAP2 POP POP JUMP JUMPDEST PUSH2 0x7C7 DUP2 PUSH2 0x71D JUMP JUMPDEST DUP3 MSTORE POP POP JUMP JUMPDEST PUSH1 0x0 PUSH1 0x20 DUP3 ADD SWAP1 POP PUSH2 0x7E2 PUSH1 0x0 DUP4 ADD DUP5 PUSH2 0x7BE JUMP JUMPDEST SWAP3 SWAP2 POP POP JUMP JUMPDEST PUSH32 0x4E487B7100000000000000000000000000000000000000000000000000000000 PUSH1 0x0 MSTORE PUSH1 0x22 PUSH1 0x4 MSTORE PUSH1 0x24 PUSH1 0x0 REVERT JUMPDEST PUSH1 0x0 PUSH1 0x2 DUP3 DIV SWAP1 POP PUSH1 0x1 DUP3 AND DUP1 PUSH2 0x82F JUMPI PUSH1 0x7F DUP3 AND SWAP2 POP JUMPDEST PUSH1 0x20 DUP3 LT DUP2 SUB PUSH2 0x842 JUMPI PUSH2 0x841 PUSH2 0x7E8 JUMP JUMPDEST JUMPDEST POP SWAP2 SWAP1 POP JUMP JUMPDEST PUSH32 0x596F752063616E2774206369746520796F757273656C662E0000000000000000 PUSH1 0x0 DUP3 ADD MSTORE POP JUMP JUMPDEST PUSH1 0x0 PUSH2 0x87E PUSH1 0x18 DUP4 PUSH2 0x656 JUMP JUMPDEST SWAP2 POP PUSH2 0x889 DUP3 PUSH2 0x848 JUMP JUMPDEST PUSH1 0x20 DUP3 ADD SWAP1 POP SWAP2 SWAP1 POP JUMP JUMPDEST PUSH1 0x0 PUSH1 0x20 DUP3 ADD SWAP1 POP DUP2 DUP2 SUB PUSH1 0x0 DUP4 ADD MSTORE PUSH2 0x8AD DUP2 PUSH2 0x871 JUMP JUMPDEST SWAP1 POP SWAP2 SWAP1 POP JUMP JUMPDEST PUSH2 0x8BD DUP2 PUSH2 0x788 JUMP JUMPDEST DUP2 EQ PUSH2 0x8C8 JUMPI PUSH1 0x0 DUP1 REVERT JUMPDEST POP JUMP JUMPDEST PUSH1 0x0 DUP2 MLOAD SWAP1 POP PUSH2 0x8DA DUP2 PUSH2 0x8B4 JUMP JUMPDEST SWAP3 SWAP2 POP POP JUMP JUMPDEST PUSH1 0x0 PUSH1 0x20 DUP3 DUP5 SUB SLT ISZERO PUSH2 0x8F6 JUMPI PUSH2 0x8F5 PUSH2 0x5E3 JUMP JUMPDEST JUMPDEST PUSH1 0x0 PUSH2 0x904 DUP5 DUP3 DUP6 ADD PUSH2 0x8CB JUMP JUMPDEST SWAP2 POP POP SWAP3 SWAP2 POP POP JUMP JUMPDEST PUSH32 0x436F756C64206E6F742061636365737320746861742070617065722100000000 PUSH1 0x0 DUP3 ADD MSTORE POP JUMP JUMPDEST PUSH1 0x0 PUSH2 0x943 PUSH1 0x1C DUP4 PUSH2 0x656 JUMP JUMPDEST SWAP2 POP PUSH2 0x94E DUP3 PUSH2 0x90D JUMP JUMPDEST PUSH1 0x20 DUP3 ADD SWAP1 POP SWAP2 SWAP1 POP JUMP JUMPDEST PUSH1 0x0 PUSH1 0x20 DUP3 ADD SWAP1 POP DUP2 DUP2 SUB PUSH1 0x0 DUP4 ADD MSTORE PUSH2 0x972 DUP2 PUSH2 0x936 JUMP JUMPDEST SWAP1 POP SWAP2 SWAP1 POP JUMP INVALID LOG2 PUSH5 0x6970667358 0x22 SLT KECCAK256 0xB1 0xBD 0xD9 0xFC NOT 0xD9 MSIZE MSTORE8 0xDB 0xEA 0xBC CALLVALUE DUP2 BALANCE SWAP4 0xBF 0xED MSIZE 0xD0 EXTCODECOPY MSTORE PUSH19 0x50F836B63B494D3EE8564736F6C6343000812 STOP CALLER "
				},
				"gasEstimates": {
					"creation": {
						"codeDepositCost": "495800",
						"executionCost": "infinite",
						"totalCost": "infinite"
					},
					"external": {
						"authors(uint256)": "infinite",
						"category()": "infinite",
						"citations(uint256)": "5000",
						"cite(address)": "infinite",
						"citedBy(uint256)": "4978",
						"institution()": "infinite",
						"updateCitedBy(address)": "49259"
					}
				},
				"methodIdentifiers": {
					"authors(uint256)": "3db804da",
					"category()": "ef430aa6",
					"citations(uint256)": "ec8c9785",
					"cite(address)": "a13c53be",
					"citedBy(uint256)": "dd1ed946",
					"institution()": "d1384eb6",
					"updateCitedBy(address)": "55f28564"
				}
			},
			"storageLayout": {
				"storage": [
					{
						"astId": 4,
						"contract": "contracts/Paper.sol:PaperContract",
						"label": "authors",
						"offset": 0,
						"slot": "0",
						"type": "t_array(t_string_storage)dyn_storage"
					},
					{
						"astId": 6,
						"contract": "contracts/Paper.sol:PaperContract",
						"label": "institution",
						"offset": 0,
						"slot": "1",
						"type": "t_string_storage"
					},
					{
						"astId": 9,
						"contract": "contracts/Paper.sol:PaperContract",
						"label": "citations",
						"offset": 0,
						"slot": "2",
						"type": "t_array(t_address)dyn_storage"
					},
					{
						"astId": 12,
						"contract": "contracts/Paper.sol:PaperContract",
						"label": "citedBy",
						"offset": 0,
						"slot": "3",
						"type": "t_array(t_address)dyn_storage"
					},
					{
						"astId": 14,
						"contract": "contracts/Paper.sol:PaperContract",
						"label": "category",
						"offset": 0,
						"slot": "4",
						"type": "t_string_storage"
					}
				],
				"types": {
					"t_address": {
						"encoding": "inplace",
						"label": "address",
						"numberOfBytes": "20"
					},
					"t_array(t_address)dyn_storage": {
						"base": "t_address",
						"encoding": "dynamic_array",
						"label": "address[]",
						"numberOfBytes": "32"
					},
					"t_array(t_string_storage)dyn_storage": {
						"base": "t_string_storage",
						"encoding": "dynamic_array",
						"label": "string[]",
						"numberOfBytes": "32"
					},
					"t_string_storage": {
						"encoding": "bytes",
						"label": "string",
						"numberOfBytes": "32"
					}
				}
			},
			"userdoc": {
				"kind": "user",
				"methods": {},
				"version": 1
			}
		}
	}
}