{
	"contracts/Paper.sol": {
		"PaperContract": {
			"abi": [
				{
					"inputs": [
						{
							"internalType": "string[]",
							"name": "_authors",
							"type": "string[]"
						},
						{
							"internalType": "string",
							"name": "_institution",
							"type": "string"
						},
						{
							"internalType": "address[]",
							"name": "_citations",
							"type": "address[]"
						},
						{
							"internalType": "address[]",
							"name": "_citedBy",
							"type": "address[]"
						},
						{
							"internalType": "string",
							"name": "_category",
							"type": "string"
						}
					],
					"stateMutability": "nonpayable",
					"type": "constructor"
				},
				{
					"inputs": [
						{
							"internalType": "address",
							"name": "_paper",
							"type": "address"
						}
					],
					"name": "cite",
					"outputs": [],
					"stateMutability": "nonpayable",
					"type": "function"
				},
				{
					"inputs": [
						{
							"internalType": "address",
							"name": "citingPaper",
							"type": "address"
						}
					],
					"name": "updateCitedBy",
					"outputs": [],
					"stateMutability": "nonpayable",
					"type": "function"
				}
			],
			"devdoc": {
				"kind": "dev",
				"methods": {},
				"version": 1
			},
			"evm": {
				"assembly": "    /* \"contracts/Paper.sol\":66:915  contract PaperContract {... */\n  mstore(0x40, 0x80)\n    /* \"contracts/Paper.sol\":281:517  constructor(string[] memory _authors, string memory _institution, address[] memory _citations, address[] memory _citedBy, string memory _category) {... */\n  callvalue\n  dup1\n  iszero\n  tag_1\n  jumpi\n  0x00\n  dup1\n  revert\ntag_1:\n  pop\n  mload(0x40)\n  sub(codesize, bytecodeSize)\n  dup1\n  bytecodeSize\n  dup4\n  codecopy\n  dup2\n  dup2\n  add\n  0x40\n  mstore\n  dup2\n  add\n  swap1\n  tag_2\n  swap2\n  swap1\n  tag_3\n  jump\t// in\ntag_2:\n    /* \"contracts/Paper.sol\":447:509  Paper(_authors, _institution, _citations, _citedBy, _category) */\n  mload(0x40)\n  dup1\n  0xa0\n  add\n  0x40\n  mstore\n  dup1\n    /* \"contracts/Paper.sol\":453:461  _authors */\n  dup7\n    /* \"contracts/Paper.sol\":447:509  Paper(_authors, _institution, _citations, _citedBy, _category) */\n  dup2\n  mstore\n  0x20\n  add\n    /* \"contracts/Paper.sol\":463:475  _institution */\n  dup6\n    /* \"contracts/Paper.sol\":447:509  Paper(_authors, _institution, _citations, _citedBy, _category) */\n  dup2\n  mstore\n  0x20\n  add\n    /* \"contracts/Paper.sol\":477:487  _citations */\n  dup5\n    /* \"contracts/Paper.sol\":447:509  Paper(_authors, _institution, _citations, _citedBy, _category) */\n  dup2\n  mstore\n  0x20\n  add\n    /* \"contracts/Paper.sol\":489:497  _citedBy */\n  dup4\n    /* \"contracts/Paper.sol\":447:509  Paper(_authors, _institution, _citations, _citedBy, _category) */\n  dup2\n  mstore\n  0x20\n  add\n    /* \"contracts/Paper.sol\":499:508  _category */\n  dup3\n    /* \"contracts/Paper.sol\":447:509  Paper(_authors, _institution, _citations, _citedBy, _category) */\n  dup2\n  mstore\n  pop\n    /* \"contracts/Paper.sol\":439:444  paper */\n  0x00\n    /* \"contracts/Paper.sol\":439:509  paper = Paper(_authors, _institution, _citations, _citedBy, _category) */\n  dup1\n  dup3\n  add\n  mload\n  dup2\n  0x00\n  add\n  swap1\n  dup1\n  mload\n  swap1\n  0x20\n  add\n  swap1\n  tag_6\n  swap3\n  swap2\n  swap1\n  tag_7\n  jump\t// in\ntag_6:\n  pop\n  0x20\n  dup3\n  add\n  mload\n  dup2\n  0x01\n  add\n  swap1\n  dup2\n  tag_8\n  swap2\n  swap1\n  tag_9\n  jump\t// in\ntag_8:\n  pop\n  0x40\n  dup3\n  add\n  mload\n  dup2\n  0x02\n  add\n  swap1\n  dup1\n  mload\n  swap1\n  0x20\n  add\n  swap1\n  tag_10\n  swap3\n  swap2\n  swap1\n  tag_11\n  jump\t// in\ntag_10:\n  pop\n  0x60\n  dup3\n  add\n  mload\n  dup2\n  0x03\n  add\n  swap1\n  dup1\n  mload\n  swap1\n  0x20\n  add\n  swap1\n  tag_12\n  swap3\n  swap2\n  swap1\n  tag_11\n  jump\t// in\ntag_12:\n  pop\n  0x80\n  dup3\n  add\n  mload\n  dup2\n  0x04\n  add\n  swap1\n  dup2\n  tag_13\n  swap2\n  swap1\n  tag_9\n  jump\t// in\ntag_13:\n  pop\n  swap1\n  pop\n  pop\n    /* \"contracts/Paper.sol\":281:517  constructor(string[] memory _authors, string memory _institution, address[] memory _citations, address[] memory _citedBy, string memory _category) {... */\n  pop\n  pop\n  pop\n  pop\n  pop\n    /* \"contracts/Paper.sol\":66:915  contract PaperContract {... */\n  jump(tag_14)\ntag_7:\n  dup3\n  dup1\n  sload\n  dup3\n  dup3\n  sstore\n  swap1\n  0x00\n  mstore\n  keccak256(0x00, 0x20)\n  swap1\n  dup2\n  add\n  swap3\n  dup3\n  iszero\n  tag_15\n  jumpi\n  swap2\n  0x20\n  mul\n  dup3\n  add\ntag_16:\n  dup3\n  dup2\n  gt\n  iszero\n  tag_17\n  jumpi\n  dup3\n  mload\n  dup3\n  swap1\n  dup2\n  tag_18\n  swap2\n  swap1\n  tag_9\n  jump\t// in\ntag_18:\n  pop\n  swap2\n  0x20\n  add\n  swap2\n  swap1\n  0x01\n  add\n  swap1\n  jump(tag_16)\ntag_17:\ntag_15:\n  pop\n  swap1\n  pop\n  tag_19\n  swap2\n  swap1\n  tag_20\n  jump\t// in\ntag_19:\n  pop\n  swap1\n  jump\t// out\ntag_11:\n  dup3\n  dup1\n  sload\n  dup3\n  dup3\n  sstore\n  swap1\n  0x00\n  mstore\n  keccak256(0x00, 0x20)\n  swap1\n  dup2\n  add\n  swap3\n  dup3\n  iszero\n  tag_21\n  jumpi\n  swap2\n  0x20\n  mul\n  dup3\n  add\ntag_22:\n  dup3\n  dup2\n  gt\n  iszero\n  tag_23\n  jumpi\n  dup3\n  mload\n  dup3\n  exp(0x0100, 0x00)\n  dup2\n  sload\n  dup2\n  0xffffffffffffffffffffffffffffffffffffffff\n  mul\n  not\n  and\n  swap1\n  dup4\n  0xffffffffffffffffffffffffffffffffffffffff\n  and\n  mul\n  or\n  swap1\n  sstore\n  pop\n  swap2\n  0x20\n  add\n  swap2\n  swap1\n  0x01\n  add\n  swap1\n  jump(tag_22)\ntag_23:\ntag_21:\n  pop\n  swap1\n  pop\n  tag_24\n  swap2\n  swap1\n  tag_25\n  jump\t// in\ntag_24:\n  pop\n  swap1\n  jump\t// out\ntag_20:\ntag_26:\n  dup1\n  dup3\n  gt\n  iszero\n  tag_27\n  jumpi\n  0x00\n  dup2\n  dup2\n  tag_28\n  swap2\n  swap1\n  tag_29\n  jump\t// in\ntag_28:\n  pop\n  0x01\n  add\n  jump(tag_26)\ntag_27:\n  pop\n  swap1\n  jump\t// out\ntag_25:\ntag_30:\n  dup1\n  dup3\n  gt\n  iszero\n  tag_31\n  jumpi\n  0x00\n  dup2\n  0x00\n  swap1\n  sstore\n  pop\n  0x01\n  add\n  jump(tag_30)\ntag_31:\n  pop\n  swap1\n  jump\t// out\ntag_29:\n  pop\n  dup1\n  sload\n  tag_32\n  swap1\n  tag_33\n  jump\t// in\ntag_32:\n  0x00\n  dup3\n  sstore\n  dup1\n  0x1f\n  lt\n  tag_35\n  jumpi\n  pop\n  jump(tag_34)\ntag_35:\n  0x1f\n  add\n  0x20\n  swap1\n  div\n  swap1\n  0x00\n  mstore\n  keccak256(0x00, 0x20)\n  swap1\n  dup2\n  add\n  swap1\n  tag_36\n  swap2\n  swap1\n  tag_25\n  jump\t// in\ntag_36:\ntag_34:\n  pop\n  jump\t// out\n    /* \"#utility.yul\":7:82   */\ntag_37:\n    /* \"#utility.yul\":40:46   */\n  0x00\n    /* \"#utility.yul\":73:75   */\n  0x40\n    /* \"#utility.yul\":67:76   */\n  mload\n    /* \"#utility.yul\":57:76   */\n  swap1\n  pop\n    /* \"#utility.yul\":7:82   */\n  swap1\n  jump\t// out\n    /* \"#utility.yul\":88:205   */\ntag_38:\n    /* \"#utility.yul\":197:198   */\n  0x00\n    /* \"#utility.yul\":194:195   */\n  dup1\n    /* \"#utility.yul\":187:199   */\n  revert\n    /* \"#utility.yul\":211:328   */\ntag_39:\n    /* \"#utility.yul\":320:321   */\n  0x00\n    /* \"#utility.yul\":317:318   */\n  dup1\n    /* \"#utility.yul\":310:322   */\n  revert\n    /* \"#utility.yul\":334:451   */\ntag_40:\n    /* \"#utility.yul\":443:444   */\n  0x00\n    /* \"#utility.yul\":440:441   */\n  dup1\n    /* \"#utility.yul\":433:445   */\n  revert\n    /* \"#utility.yul\":457:559   */\ntag_41:\n    /* \"#utility.yul\":498:504   */\n  0x00\n    /* \"#utility.yul\":549:551   */\n  0x1f\n    /* \"#utility.yul\":545:552   */\n  not\n    /* \"#utility.yul\":540:542   */\n  0x1f\n    /* \"#utility.yul\":533:538   */\n  dup4\n    /* \"#utility.yul\":529:543   */\n  add\n    /* \"#utility.yul\":525:553   */\n  and\n    /* \"#utility.yul\":515:553   */\n  swap1\n  pop\n    /* \"#utility.yul\":457:559   */\n  swap2\n  swap1\n  pop\n  jump\t// out\n    /* \"#utility.yul\":565:745   */\ntag_42:\n    /* \"#utility.yul\":613:690   */\n  0x4e487b7100000000000000000000000000000000000000000000000000000000\n    /* \"#utility.yul\":610:611   */\n  0x00\n    /* \"#utility.yul\":603:691   */\n  mstore\n    /* \"#utility.yul\":710:714   */\n  0x41\n    /* \"#utility.yul\":707:708   */\n  0x04\n    /* \"#utility.yul\":700:715   */\n  mstore\n    /* \"#utility.yul\":734:738   */\n  0x24\n    /* \"#utility.yul\":731:732   */\n  0x00\n    /* \"#utility.yul\":724:739   */\n  revert\n    /* \"#utility.yul\":751:1032   */\ntag_43:\n    /* \"#utility.yul\":834:861   */\n  tag_87\n    /* \"#utility.yul\":856:860   */\n  dup3\n    /* \"#utility.yul\":834:861   */\n  tag_41\n  jump\t// in\ntag_87:\n    /* \"#utility.yul\":826:832   */\n  dup2\n    /* \"#utility.yul\":822:862   */\n  add\n    /* \"#utility.yul\":964:970   */\n  dup2\n    /* \"#utility.yul\":952:962   */\n  dup2\n    /* \"#utility.yul\":949:971   */\n  lt\n    /* \"#utility.yul\":928:946   */\n  0xffffffffffffffff\n    /* \"#utility.yul\":916:926   */\n  dup3\n    /* \"#utility.yul\":913:947   */\n  gt\n    /* \"#utility.yul\":910:972   */\n  or\n    /* \"#utility.yul\":907:995   */\n  iszero\n  tag_88\n  jumpi\n    /* \"#utility.yul\":975:993   */\n  tag_89\n  tag_42\n  jump\t// in\ntag_89:\n    /* \"#utility.yul\":907:995   */\ntag_88:\n    /* \"#utility.yul\":1015:1025   */\n  dup1\n    /* \"#utility.yul\":1011:1013   */\n  0x40\n    /* \"#utility.yul\":1004:1026   */\n  mstore\n    /* \"#utility.yul\":794:1032   */\n  pop\n    /* \"#utility.yul\":751:1032   */\n  pop\n  pop\n  jump\t// out\n    /* \"#utility.yul\":1038:1167   */\ntag_44:\n    /* \"#utility.yul\":1072:1078   */\n  0x00\n    /* \"#utility.yul\":1099:1119   */\n  tag_91\n  tag_37\n  jump\t// in\ntag_91:\n    /* \"#utility.yul\":1089:1119   */\n  swap1\n  pop\n    /* \"#utility.yul\":1128:1161   */\n  tag_92\n    /* \"#utility.yul\":1156:1160   */\n  dup3\n    /* \"#utility.yul\":1148:1154   */\n  dup3\n    /* \"#utility.yul\":1128:1161   */\n  tag_43\n  jump\t// in\ntag_92:\n    /* \"#utility.yul\":1038:1167   */\n  swap2\n  swap1\n  pop\n  jump\t// out\n    /* \"#utility.yul\":1173:1494   */\ntag_45:\n    /* \"#utility.yul\":1260:1264   */\n  0x00\n    /* \"#utility.yul\":1350:1368   */\n  0xffffffffffffffff\n    /* \"#utility.yul\":1342:1348   */\n  dup3\n    /* \"#utility.yul\":1339:1369   */\n  gt\n    /* \"#utility.yul\":1336:1392   */\n  iszero\n  tag_94\n  jumpi\n    /* \"#utility.yul\":1372:1390   */\n  tag_95\n  tag_42\n  jump\t// in\ntag_95:\n    /* \"#utility.yul\":1336:1392   */\ntag_94:\n    /* \"#utility.yul\":1422:1426   */\n  0x20\n    /* \"#utility.yul\":1414:1420   */\n  dup3\n    /* \"#utility.yul\":1410:1427   */\n  mul\n    /* \"#utility.yul\":1402:1427   */\n  swap1\n  pop\n    /* \"#utility.yul\":1482:1486   */\n  0x20\n    /* \"#utility.yul\":1476:1480   */\n  dup2\n    /* \"#utility.yul\":1472:1487   */\n  add\n    /* \"#utility.yul\":1464:1487   */\n  swap1\n  pop\n    /* \"#utility.yul\":1173:1494   */\n  swap2\n  swap1\n  pop\n  jump\t// out\n    /* \"#utility.yul\":1500:1617   */\ntag_46:\n    /* \"#utility.yul\":1609:1610   */\n  0x00\n    /* \"#utility.yul\":1606:1607   */\n  dup1\n    /* \"#utility.yul\":1599:1611   */\n  revert\n    /* \"#utility.yul\":1623:1740   */\ntag_47:\n    /* \"#utility.yul\":1732:1733   */\n  0x00\n    /* \"#utility.yul\":1729:1730   */\n  dup1\n    /* \"#utility.yul\":1722:1734   */\n  revert\n    /* \"#utility.yul\":1746:2054   */\ntag_48:\n    /* \"#utility.yul\":1808:1812   */\n  0x00\n    /* \"#utility.yul\":1898:1916   */\n  0xffffffffffffffff\n    /* \"#utility.yul\":1890:1896   */\n  dup3\n    /* \"#utility.yul\":1887:1917   */\n  gt\n    /* \"#utility.yul\":1884:1940   */\n  iszero\n  tag_99\n  jumpi\n    /* \"#utility.yul\":1920:1938   */\n  tag_100\n  tag_42\n  jump\t// in\ntag_100:\n    /* \"#utility.yul\":1884:1940   */\ntag_99:\n    /* \"#utility.yul\":1958:1987   */\n  tag_101\n    /* \"#utility.yul\":1980:1986   */\n  dup3\n    /* \"#utility.yul\":1958:1987   */\n  tag_41\n  jump\t// in\ntag_101:\n    /* \"#utility.yul\":1950:1987   */\n  swap1\n  pop\n    /* \"#utility.yul\":2042:2046   */\n  0x20\n    /* \"#utility.yul\":2036:2040   */\n  dup2\n    /* \"#utility.yul\":2032:2047   */\n  add\n    /* \"#utility.yul\":2024:2047   */\n  swap1\n  pop\n    /* \"#utility.yul\":1746:2054   */\n  swap2\n  swap1\n  pop\n  jump\t// out\n    /* \"#utility.yul\":2060:2306   */\ntag_49:\n    /* \"#utility.yul\":2141:2142   */\n  0x00\n    /* \"#utility.yul\":2151:2264   */\ntag_103:\n    /* \"#utility.yul\":2165:2171   */\n  dup4\n    /* \"#utility.yul\":2162:2163   */\n  dup2\n    /* \"#utility.yul\":2159:2172   */\n  lt\n    /* \"#utility.yul\":2151:2264   */\n  iszero\n  tag_105\n  jumpi\n    /* \"#utility.yul\":2250:2251   */\n  dup1\n    /* \"#utility.yul\":2245:2248   */\n  dup3\n    /* \"#utility.yul\":2241:2252   */\n  add\n    /* \"#utility.yul\":2235:2253   */\n  mload\n    /* \"#utility.yul\":2231:2232   */\n  dup2\n    /* \"#utility.yul\":2226:2229   */\n  dup5\n    /* \"#utility.yul\":2222:2233   */\n  add\n    /* \"#utility.yul\":2215:2254   */\n  mstore\n    /* \"#utility.yul\":2187:2189   */\n  0x20\n    /* \"#utility.yul\":2184:2185   */\n  dup2\n    /* \"#utility.yul\":2180:2190   */\n  add\n    /* \"#utility.yul\":2175:2190   */\n  swap1\n  pop\n    /* \"#utility.yul\":2151:2264   */\n  jump(tag_103)\ntag_105:\n    /* \"#utility.yul\":2298:2299   */\n  0x00\n    /* \"#utility.yul\":2289:2295   */\n  dup5\n    /* \"#utility.yul\":2284:2287   */\n  dup5\n    /* \"#utility.yul\":2280:2296   */\n  add\n    /* \"#utility.yul\":2273:2300   */\n  mstore\n    /* \"#utility.yul\":2122:2306   */\n  pop\n    /* \"#utility.yul\":2060:2306   */\n  pop\n  pop\n  pop\n  jump\t// out\n    /* \"#utility.yul\":2312:2746   */\ntag_50:\n    /* \"#utility.yul\":2401:2406   */\n  0x00\n    /* \"#utility.yul\":2426:2492   */\n  tag_107\n    /* \"#utility.yul\":2442:2491   */\n  tag_108\n    /* \"#utility.yul\":2484:2490   */\n  dup5\n    /* \"#utility.yul\":2442:2491   */\n  tag_48\n  jump\t// in\ntag_108:\n    /* \"#utility.yul\":2426:2492   */\n  tag_44\n  jump\t// in\ntag_107:\n    /* \"#utility.yul\":2417:2492   */\n  swap1\n  pop\n    /* \"#utility.yul\":2515:2521   */\n  dup3\n    /* \"#utility.yul\":2508:2513   */\n  dup2\n    /* \"#utility.yul\":2501:2522   */\n  mstore\n    /* \"#utility.yul\":2553:2557   */\n  0x20\n    /* \"#utility.yul\":2546:2551   */\n  dup2\n    /* \"#utility.yul\":2542:2558   */\n  add\n    /* \"#utility.yul\":2591:2594   */\n  dup5\n    /* \"#utility.yul\":2582:2588   */\n  dup5\n    /* \"#utility.yul\":2577:2580   */\n  dup5\n    /* \"#utility.yul\":2573:2589   */\n  add\n    /* \"#utility.yul\":2570:2595   */\n  gt\n    /* \"#utility.yul\":2567:2679   */\n  iszero\n  tag_109\n  jumpi\n    /* \"#utility.yul\":2598:2677   */\n  tag_110\n  tag_47\n  jump\t// in\ntag_110:\n    /* \"#utility.yul\":2567:2679   */\ntag_109:\n    /* \"#utility.yul\":2688:2740   */\n  tag_111\n    /* \"#utility.yul\":2733:2739   */\n  dup5\n    /* \"#utility.yul\":2728:2731   */\n  dup3\n    /* \"#utility.yul\":2723:2726   */\n  dup6\n    /* \"#utility.yul\":2688:2740   */\n  tag_49\n  jump\t// in\ntag_111:\n    /* \"#utility.yul\":2407:2746   */\n  pop\n    /* \"#utility.yul\":2312:2746   */\n  swap4\n  swap3\n  pop\n  pop\n  pop\n  jump\t// out\n    /* \"#utility.yul\":2766:3121   */\ntag_51:\n    /* \"#utility.yul\":2833:2838   */\n  0x00\n    /* \"#utility.yul\":2882:2885   */\n  dup3\n    /* \"#utility.yul\":2875:2879   */\n  0x1f\n    /* \"#utility.yul\":2867:2873   */\n  dup4\n    /* \"#utility.yul\":2863:2880   */\n  add\n    /* \"#utility.yul\":2859:2886   */\n  slt\n    /* \"#utility.yul\":2849:2971   */\n  tag_113\n  jumpi\n    /* \"#utility.yul\":2890:2969   */\n  tag_114\n  tag_40\n  jump\t// in\ntag_114:\n    /* \"#utility.yul\":2849:2971   */\ntag_113:\n    /* \"#utility.yul\":3000:3006   */\n  dup2\n    /* \"#utility.yul\":2994:3007   */\n  mload\n    /* \"#utility.yul\":3025:3115   */\n  tag_115\n    /* \"#utility.yul\":3111:3114   */\n  dup5\n    /* \"#utility.yul\":3103:3109   */\n  dup3\n    /* \"#utility.yul\":3096:3100   */\n  0x20\n    /* \"#utility.yul\":3088:3094   */\n  dup7\n    /* \"#utility.yul\":3084:3101   */\n  add\n    /* \"#utility.yul\":3025:3115   */\n  tag_50\n  jump\t// in\ntag_115:\n    /* \"#utility.yul\":3016:3115   */\n  swap2\n  pop\n    /* \"#utility.yul\":2839:3121   */\n  pop\n    /* \"#utility.yul\":2766:3121   */\n  swap3\n  swap2\n  pop\n  pop\n  jump\t// out\n    /* \"#utility.yul\":3143:4103   */\ntag_52:\n    /* \"#utility.yul\":3260:3265   */\n  0x00\n    /* \"#utility.yul\":3285:3376   */\n  tag_117\n    /* \"#utility.yul\":3301:3375   */\n  tag_118\n    /* \"#utility.yul\":3368:3374   */\n  dup5\n    /* \"#utility.yul\":3301:3375   */\n  tag_45\n  jump\t// in\ntag_118:\n    /* \"#utility.yul\":3285:3376   */\n  tag_44\n  jump\t// in\ntag_117:\n    /* \"#utility.yul\":3276:3376   */\n  swap1\n  pop\n    /* \"#utility.yul\":3396:3401   */\n  dup1\n    /* \"#utility.yul\":3425:3431   */\n  dup4\n    /* \"#utility.yul\":3418:3423   */\n  dup3\n    /* \"#utility.yul\":3411:3432   */\n  mstore\n    /* \"#utility.yul\":3459:3463   */\n  0x20\n    /* \"#utility.yul\":3452:3457   */\n  dup3\n    /* \"#utility.yul\":3448:3464   */\n  add\n    /* \"#utility.yul\":3441:3464   */\n  swap1\n  pop\n    /* \"#utility.yul\":3512:3516   */\n  0x20\n    /* \"#utility.yul\":3504:3510   */\n  dup5\n    /* \"#utility.yul\":3500:3517   */\n  mul\n    /* \"#utility.yul\":3492:3498   */\n  dup4\n    /* \"#utility.yul\":3488:3518   */\n  add\n    /* \"#utility.yul\":3541:3544   */\n  dup6\n    /* \"#utility.yul\":3533:3539   */\n  dup2\n    /* \"#utility.yul\":3530:3545   */\n  gt\n    /* \"#utility.yul\":3527:3649   */\n  iszero\n  tag_119\n  jumpi\n    /* \"#utility.yul\":3560:3639   */\n  tag_120\n  tag_46\n  jump\t// in\ntag_120:\n    /* \"#utility.yul\":3527:3649   */\ntag_119:\n    /* \"#utility.yul\":3675:3681   */\n  dup4\n    /* \"#utility.yul\":3658:4097   */\ntag_121:\n    /* \"#utility.yul\":3692:3698   */\n  dup2\n    /* \"#utility.yul\":3687:3690   */\n  dup2\n    /* \"#utility.yul\":3684:3699   */\n  lt\n    /* \"#utility.yul\":3658:4097   */\n  iszero\n  tag_123\n  jumpi\n    /* \"#utility.yul\":3774:3777   */\n  dup1\n    /* \"#utility.yul\":3768:3778   */\n  mload\n    /* \"#utility.yul\":3810:3828   */\n  0xffffffffffffffff\n    /* \"#utility.yul\":3797:3808   */\n  dup2\n    /* \"#utility.yul\":3794:3829   */\n  gt\n    /* \"#utility.yul\":3791:3913   */\n  iszero\n  tag_124\n  jumpi\n    /* \"#utility.yul\":3832:3911   */\n  tag_125\n  tag_40\n  jump\t// in\ntag_125:\n    /* \"#utility.yul\":3791:3913   */\ntag_124:\n    /* \"#utility.yul\":3956:3967   */\n  dup1\n    /* \"#utility.yul\":3948:3954   */\n  dup7\n    /* \"#utility.yul\":3944:3968   */\n  add\n    /* \"#utility.yul\":3994:4052   */\n  tag_126\n    /* \"#utility.yul\":4048:4051   */\n  dup10\n    /* \"#utility.yul\":4036:4046   */\n  dup3\n    /* \"#utility.yul\":3994:4052   */\n  tag_51\n  jump\t// in\ntag_126:\n    /* \"#utility.yul\":3989:3992   */\n  dup6\n    /* \"#utility.yul\":3982:4053   */\n  mstore\n    /* \"#utility.yul\":4082:4086   */\n  0x20\n    /* \"#utility.yul\":4077:4080   */\n  dup6\n    /* \"#utility.yul\":4073:4087   */\n  add\n    /* \"#utility.yul\":4066:4087   */\n  swap5\n  pop\n    /* \"#utility.yul\":3734:4097   */\n  pop\n  pop\n    /* \"#utility.yul\":3718:3722   */\n  0x20\n    /* \"#utility.yul\":3713:3716   */\n  dup2\n    /* \"#utility.yul\":3709:3723   */\n  add\n    /* \"#utility.yul\":3702:3723   */\n  swap1\n  pop\n    /* \"#utility.yul\":3658:4097   */\n  jump(tag_121)\ntag_123:\n    /* \"#utility.yul\":3662:3683   */\n  pop\n    /* \"#utility.yul\":3266:4103   */\n  pop\n  pop\n    /* \"#utility.yul\":3143:4103   */\n  swap4\n  swap3\n  pop\n  pop\n  pop\n  jump\t// out\n    /* \"#utility.yul\":4125:4530   */\ntag_53:\n    /* \"#utility.yul\":4217:4222   */\n  0x00\n    /* \"#utility.yul\":4266:4269   */\n  dup3\n    /* \"#utility.yul\":4259:4263   */\n  0x1f\n    /* \"#utility.yul\":4251:4257   */\n  dup4\n    /* \"#utility.yul\":4247:4264   */\n  add\n    /* \"#utility.yul\":4243:4270   */\n  slt\n    /* \"#utility.yul\":4233:4355   */\n  tag_128\n  jumpi\n    /* \"#utility.yul\":4274:4353   */\n  tag_129\n  tag_40\n  jump\t// in\ntag_129:\n    /* \"#utility.yul\":4233:4355   */\ntag_128:\n    /* \"#utility.yul\":4384:4390   */\n  dup2\n    /* \"#utility.yul\":4378:4391   */\n  mload\n    /* \"#utility.yul\":4409:4524   */\n  tag_130\n    /* \"#utility.yul\":4520:4523   */\n  dup5\n    /* \"#utility.yul\":4512:4518   */\n  dup3\n    /* \"#utility.yul\":4505:4509   */\n  0x20\n    /* \"#utility.yul\":4497:4503   */\n  dup7\n    /* \"#utility.yul\":4493:4510   */\n  add\n    /* \"#utility.yul\":4409:4524   */\n  tag_52\n  jump\t// in\ntag_130:\n    /* \"#utility.yul\":4400:4524   */\n  swap2\n  pop\n    /* \"#utility.yul\":4223:4530   */\n  pop\n    /* \"#utility.yul\":4125:4530   */\n  swap3\n  swap2\n  pop\n  pop\n  jump\t// out\n    /* \"#utility.yul\":4536:4847   */\ntag_54:\n    /* \"#utility.yul\":4613:4617   */\n  0x00\n    /* \"#utility.yul\":4703:4721   */\n  0xffffffffffffffff\n    /* \"#utility.yul\":4695:4701   */\n  dup3\n    /* \"#utility.yul\":4692:4722   */\n  gt\n    /* \"#utility.yul\":4689:4745   */\n  iszero\n  tag_132\n  jumpi\n    /* \"#utility.yul\":4725:4743   */\n  tag_133\n  tag_42\n  jump\t// in\ntag_133:\n    /* \"#utility.yul\":4689:4745   */\ntag_132:\n    /* \"#utility.yul\":4775:4779   */\n  0x20\n    /* \"#utility.yul\":4767:4773   */\n  dup3\n    /* \"#utility.yul\":4763:4780   */\n  mul\n    /* \"#utility.yul\":4755:4780   */\n  swap1\n  pop\n    /* \"#utility.yul\":4835:4839   */\n  0x20\n    /* \"#utility.yul\":4829:4833   */\n  dup2\n    /* \"#utility.yul\":4825:4840   */\n  add\n    /* \"#utility.yul\":4817:4840   */\n  swap1\n  pop\n    /* \"#utility.yul\":4536:4847   */\n  swap2\n  swap1\n  pop\n  jump\t// out\n    /* \"#utility.yul\":4853:4979   */\ntag_55:\n    /* \"#utility.yul\":4890:4897   */\n  0x00\n    /* \"#utility.yul\":4930:4972   */\n  0xffffffffffffffffffffffffffffffffffffffff\n    /* \"#utility.yul\":4923:4928   */\n  dup3\n    /* \"#utility.yul\":4919:4973   */\n  and\n    /* \"#utility.yul\":4908:4973   */\n  swap1\n  pop\n    /* \"#utility.yul\":4853:4979   */\n  swap2\n  swap1\n  pop\n  jump\t// out\n    /* \"#utility.yul\":4985:5081   */\ntag_56:\n    /* \"#utility.yul\":5022:5029   */\n  0x00\n    /* \"#utility.yul\":5051:5075   */\n  tag_136\n    /* \"#utility.yul\":5069:5074   */\n  dup3\n    /* \"#utility.yul\":5051:5075   */\n  tag_55\n  jump\t// in\ntag_136:\n    /* \"#utility.yul\":5040:5075   */\n  swap1\n  pop\n    /* \"#utility.yul\":4985:5081   */\n  swap2\n  swap1\n  pop\n  jump\t// out\n    /* \"#utility.yul\":5087:5209   */\ntag_57:\n    /* \"#utility.yul\":5160:5184   */\n  tag_138\n    /* \"#utility.yul\":5178:5183   */\n  dup2\n    /* \"#utility.yul\":5160:5184   */\n  tag_56\n  jump\t// in\ntag_138:\n    /* \"#utility.yul\":5153:5158   */\n  dup2\n    /* \"#utility.yul\":5150:5185   */\n  eq\n    /* \"#utility.yul\":5140:5203   */\n  tag_139\n  jumpi\n    /* \"#utility.yul\":5199:5200   */\n  0x00\n    /* \"#utility.yul\":5196:5197   */\n  dup1\n    /* \"#utility.yul\":5189:5201   */\n  revert\n    /* \"#utility.yul\":5140:5203   */\ntag_139:\n    /* \"#utility.yul\":5087:5209   */\n  pop\n  jump\t// out\n    /* \"#utility.yul\":5215:5358   */\ntag_58:\n    /* \"#utility.yul\":5272:5277   */\n  0x00\n    /* \"#utility.yul\":5303:5309   */\n  dup2\n    /* \"#utility.yul\":5297:5310   */\n  mload\n    /* \"#utility.yul\":5288:5310   */\n  swap1\n  pop\n    /* \"#utility.yul\":5319:5352   */\n  tag_141\n    /* \"#utility.yul\":5346:5351   */\n  dup2\n    /* \"#utility.yul\":5319:5352   */\n  tag_57\n  jump\t// in\ntag_141:\n    /* \"#utility.yul\":5215:5358   */\n  swap3\n  swap2\n  pop\n  pop\n  jump\t// out\n    /* \"#utility.yul\":5381:6113   */\ntag_59:\n    /* \"#utility.yul\":5488:5493   */\n  0x00\n    /* \"#utility.yul\":5513:5594   */\n  tag_143\n    /* \"#utility.yul\":5529:5593   */\n  tag_144\n    /* \"#utility.yul\":5586:5592   */\n  dup5\n    /* \"#utility.yul\":5529:5593   */\n  tag_54\n  jump\t// in\ntag_144:\n    /* \"#utility.yul\":5513:5594   */\n  tag_44\n  jump\t// in\ntag_143:\n    /* \"#utility.yul\":5504:5594   */\n  swap1\n  pop\n    /* \"#utility.yul\":5614:5619   */\n  dup1\n    /* \"#utility.yul\":5643:5649   */\n  dup4\n    /* \"#utility.yul\":5636:5641   */\n  dup3\n    /* \"#utility.yul\":5629:5650   */\n  mstore\n    /* \"#utility.yul\":5677:5681   */\n  0x20\n    /* \"#utility.yul\":5670:5675   */\n  dup3\n    /* \"#utility.yul\":5666:5682   */\n  add\n    /* \"#utility.yul\":5659:5682   */\n  swap1\n  pop\n    /* \"#utility.yul\":5730:5734   */\n  0x20\n    /* \"#utility.yul\":5722:5728   */\n  dup5\n    /* \"#utility.yul\":5718:5735   */\n  mul\n    /* \"#utility.yul\":5710:5716   */\n  dup4\n    /* \"#utility.yul\":5706:5736   */\n  add\n    /* \"#utility.yul\":5759:5762   */\n  dup6\n    /* \"#utility.yul\":5751:5757   */\n  dup2\n    /* \"#utility.yul\":5748:5763   */\n  gt\n    /* \"#utility.yul\":5745:5867   */\n  iszero\n  tag_145\n  jumpi\n    /* \"#utility.yul\":5778:5857   */\n  tag_146\n  tag_46\n  jump\t// in\ntag_146:\n    /* \"#utility.yul\":5745:5867   */\ntag_145:\n    /* \"#utility.yul\":5893:5899   */\n  dup4\n    /* \"#utility.yul\":5876:6107   */\ntag_147:\n    /* \"#utility.yul\":5910:5916   */\n  dup2\n    /* \"#utility.yul\":5905:5908   */\n  dup2\n    /* \"#utility.yul\":5902:5917   */\n  lt\n    /* \"#utility.yul\":5876:6107   */\n  iszero\n  tag_149\n  jumpi\n    /* \"#utility.yul\":5985:5988   */\n  dup1\n    /* \"#utility.yul\":6014:6062   */\n  tag_150\n    /* \"#utility.yul\":6058:6061   */\n  dup9\n    /* \"#utility.yul\":6046:6056   */\n  dup3\n    /* \"#utility.yul\":6014:6062   */\n  tag_58\n  jump\t// in\ntag_150:\n    /* \"#utility.yul\":6009:6012   */\n  dup5\n    /* \"#utility.yul\":6002:6063   */\n  mstore\n    /* \"#utility.yul\":6092:6096   */\n  0x20\n    /* \"#utility.yul\":6087:6090   */\n  dup5\n    /* \"#utility.yul\":6083:6097   */\n  add\n    /* \"#utility.yul\":6076:6097   */\n  swap4\n  pop\n    /* \"#utility.yul\":5952:6107   */\n  pop\n    /* \"#utility.yul\":5936:5940   */\n  0x20\n    /* \"#utility.yul\":5931:5934   */\n  dup2\n    /* \"#utility.yul\":5927:5941   */\n  add\n    /* \"#utility.yul\":5920:5941   */\n  swap1\n  pop\n    /* \"#utility.yul\":5876:6107   */\n  jump(tag_147)\ntag_149:\n    /* \"#utility.yul\":5880:5901   */\n  pop\n    /* \"#utility.yul\":5494:6113   */\n  pop\n  pop\n    /* \"#utility.yul\":5381:6113   */\n  swap4\n  swap3\n  pop\n  pop\n  pop\n  jump\t// out\n    /* \"#utility.yul\":6136:6521   */\ntag_60:\n    /* \"#utility.yul\":6218:6223   */\n  0x00\n    /* \"#utility.yul\":6267:6270   */\n  dup3\n    /* \"#utility.yul\":6260:6264   */\n  0x1f\n    /* \"#utility.yul\":6252:6258   */\n  dup4\n    /* \"#utility.yul\":6248:6265   */\n  add\n    /* \"#utility.yul\":6244:6271   */\n  slt\n    /* \"#utility.yul\":6234:6356   */\n  tag_152\n  jumpi\n    /* \"#utility.yul\":6275:6354   */\n  tag_153\n  tag_40\n  jump\t// in\ntag_153:\n    /* \"#utility.yul\":6234:6356   */\ntag_152:\n    /* \"#utility.yul\":6385:6391   */\n  dup2\n    /* \"#utility.yul\":6379:6392   */\n  mload\n    /* \"#utility.yul\":6410:6515   */\n  tag_154\n    /* \"#utility.yul\":6511:6514   */\n  dup5\n    /* \"#utility.yul\":6503:6509   */\n  dup3\n    /* \"#utility.yul\":6496:6500   */\n  0x20\n    /* \"#utility.yul\":6488:6494   */\n  dup7\n    /* \"#utility.yul\":6484:6501   */\n  add\n    /* \"#utility.yul\":6410:6515   */\n  tag_59\n  jump\t// in\ntag_154:\n    /* \"#utility.yul\":6401:6515   */\n  swap2\n  pop\n    /* \"#utility.yul\":6224:6521   */\n  pop\n    /* \"#utility.yul\":6136:6521   */\n  swap3\n  swap2\n  pop\n  pop\n  jump\t// out\n    /* \"#utility.yul\":6527:8479   */\ntag_3:\n    /* \"#utility.yul\":6738:6744   */\n  0x00\n    /* \"#utility.yul\":6746:6752   */\n  dup1\n    /* \"#utility.yul\":6754:6760   */\n  0x00\n    /* \"#utility.yul\":6762:6768   */\n  dup1\n    /* \"#utility.yul\":6770:6776   */\n  0x00\n    /* \"#utility.yul\":6819:6822   */\n  0xa0\n    /* \"#utility.yul\":6807:6816   */\n  dup7\n    /* \"#utility.yul\":6798:6805   */\n  dup9\n    /* \"#utility.yul\":6794:6817   */\n  sub\n    /* \"#utility.yul\":6790:6823   */\n  slt\n    /* \"#utility.yul\":6787:6907   */\n  iszero\n  tag_156\n  jumpi\n    /* \"#utility.yul\":6826:6905   */\n  tag_157\n  tag_38\n  jump\t// in\ntag_157:\n    /* \"#utility.yul\":6787:6907   */\ntag_156:\n    /* \"#utility.yul\":6967:6968   */\n  0x00\n    /* \"#utility.yul\":6956:6965   */\n  dup7\n    /* \"#utility.yul\":6952:6969   */\n  add\n    /* \"#utility.yul\":6946:6970   */\n  mload\n    /* \"#utility.yul\":6997:7015   */\n  0xffffffffffffffff\n    /* \"#utility.yul\":6989:6995   */\n  dup2\n    /* \"#utility.yul\":6986:7016   */\n  gt\n    /* \"#utility.yul\":6983:7100   */\n  iszero\n  tag_158\n  jumpi\n    /* \"#utility.yul\":7019:7098   */\n  tag_159\n  tag_39\n  jump\t// in\ntag_159:\n    /* \"#utility.yul\":6983:7100   */\ntag_158:\n    /* \"#utility.yul\":7124:7223   */\n  tag_160\n    /* \"#utility.yul\":7215:7222   */\n  dup9\n    /* \"#utility.yul\":7206:7212   */\n  dup3\n    /* \"#utility.yul\":7195:7204   */\n  dup10\n    /* \"#utility.yul\":7191:7213   */\n  add\n    /* \"#utility.yul\":7124:7223   */\n  tag_53\n  jump\t// in\ntag_160:\n    /* \"#utility.yul\":7114:7223   */\n  swap6\n  pop\n    /* \"#utility.yul\":6917:7233   */\n  pop\n    /* \"#utility.yul\":7293:7295   */\n  0x20\n    /* \"#utility.yul\":7282:7291   */\n  dup7\n    /* \"#utility.yul\":7278:7296   */\n  add\n    /* \"#utility.yul\":7272:7297   */\n  mload\n    /* \"#utility.yul\":7324:7342   */\n  0xffffffffffffffff\n    /* \"#utility.yul\":7316:7322   */\n  dup2\n    /* \"#utility.yul\":7313:7343   */\n  gt\n    /* \"#utility.yul\":7310:7427   */\n  iszero\n  tag_161\n  jumpi\n    /* \"#utility.yul\":7346:7425   */\n  tag_162\n  tag_39\n  jump\t// in\ntag_162:\n    /* \"#utility.yul\":7310:7427   */\ntag_161:\n    /* \"#utility.yul\":7451:7525   */\n  tag_163\n    /* \"#utility.yul\":7517:7524   */\n  dup9\n    /* \"#utility.yul\":7508:7514   */\n  dup3\n    /* \"#utility.yul\":7497:7506   */\n  dup10\n    /* \"#utility.yul\":7493:7515   */\n  add\n    /* \"#utility.yul\":7451:7525   */\n  tag_51\n  jump\t// in\ntag_163:\n    /* \"#utility.yul\":7441:7525   */\n  swap5\n  pop\n    /* \"#utility.yul\":7243:7535   */\n  pop\n    /* \"#utility.yul\":7595:7597   */\n  0x40\n    /* \"#utility.yul\":7584:7593   */\n  dup7\n    /* \"#utility.yul\":7580:7598   */\n  add\n    /* \"#utility.yul\":7574:7599   */\n  mload\n    /* \"#utility.yul\":7626:7644   */\n  0xffffffffffffffff\n    /* \"#utility.yul\":7618:7624   */\n  dup2\n    /* \"#utility.yul\":7615:7645   */\n  gt\n    /* \"#utility.yul\":7612:7729   */\n  iszero\n  tag_164\n  jumpi\n    /* \"#utility.yul\":7648:7727   */\n  tag_165\n  tag_39\n  jump\t// in\ntag_165:\n    /* \"#utility.yul\":7612:7729   */\ntag_164:\n    /* \"#utility.yul\":7753:7842   */\n  tag_166\n    /* \"#utility.yul\":7834:7841   */\n  dup9\n    /* \"#utility.yul\":7825:7831   */\n  dup3\n    /* \"#utility.yul\":7814:7823   */\n  dup10\n    /* \"#utility.yul\":7810:7832   */\n  add\n    /* \"#utility.yul\":7753:7842   */\n  tag_60\n  jump\t// in\ntag_166:\n    /* \"#utility.yul\":7743:7842   */\n  swap4\n  pop\n    /* \"#utility.yul\":7545:7852   */\n  pop\n    /* \"#utility.yul\":7912:7914   */\n  0x60\n    /* \"#utility.yul\":7901:7910   */\n  dup7\n    /* \"#utility.yul\":7897:7915   */\n  add\n    /* \"#utility.yul\":7891:7916   */\n  mload\n    /* \"#utility.yul\":7943:7961   */\n  0xffffffffffffffff\n    /* \"#utility.yul\":7935:7941   */\n  dup2\n    /* \"#utility.yul\":7932:7962   */\n  gt\n    /* \"#utility.yul\":7929:8046   */\n  iszero\n  tag_167\n  jumpi\n    /* \"#utility.yul\":7965:8044   */\n  tag_168\n  tag_39\n  jump\t// in\ntag_168:\n    /* \"#utility.yul\":7929:8046   */\ntag_167:\n    /* \"#utility.yul\":8070:8159   */\n  tag_169\n    /* \"#utility.yul\":8151:8158   */\n  dup9\n    /* \"#utility.yul\":8142:8148   */\n  dup3\n    /* \"#utility.yul\":8131:8140   */\n  dup10\n    /* \"#utility.yul\":8127:8149   */\n  add\n    /* \"#utility.yul\":8070:8159   */\n  tag_60\n  jump\t// in\ntag_169:\n    /* \"#utility.yul\":8060:8159   */\n  swap3\n  pop\n    /* \"#utility.yul\":7862:8169   */\n  pop\n    /* \"#utility.yul\":8229:8232   */\n  0x80\n    /* \"#utility.yul\":8218:8227   */\n  dup7\n    /* \"#utility.yul\":8214:8233   */\n  add\n    /* \"#utility.yul\":8208:8234   */\n  mload\n    /* \"#utility.yul\":8261:8279   */\n  0xffffffffffffffff\n    /* \"#utility.yul\":8253:8259   */\n  dup2\n    /* \"#utility.yul\":8250:8280   */\n  gt\n    /* \"#utility.yul\":8247:8364   */\n  iszero\n  tag_170\n  jumpi\n    /* \"#utility.yul\":8283:8362   */\n  tag_171\n  tag_39\n  jump\t// in\ntag_171:\n    /* \"#utility.yul\":8247:8364   */\ntag_170:\n    /* \"#utility.yul\":8388:8462   */\n  tag_172\n    /* \"#utility.yul\":8454:8461   */\n  dup9\n    /* \"#utility.yul\":8445:8451   */\n  dup3\n    /* \"#utility.yul\":8434:8443   */\n  dup10\n    /* \"#utility.yul\":8430:8452   */\n  add\n    /* \"#utility.yul\":8388:8462   */\n  tag_51\n  jump\t// in\ntag_172:\n    /* \"#utility.yul\":8378:8462   */\n  swap2\n  pop\n    /* \"#utility.yul\":8179:8472   */\n  pop\n    /* \"#utility.yul\":6527:8479   */\n  swap3\n  swap6\n  pop\n  swap3\n  swap6\n  swap1\n  swap4\n  pop\n  jump\t// out\n    /* \"#utility.yul\":8485:8584   */\ntag_61:\n    /* \"#utility.yul\":8537:8543   */\n  0x00\n    /* \"#utility.yul\":8571:8576   */\n  dup2\n    /* \"#utility.yul\":8565:8577   */\n  mload\n    /* \"#utility.yul\":8555:8577   */\n  swap1\n  pop\n    /* \"#utility.yul\":8485:8584   */\n  swap2\n  swap1\n  pop\n  jump\t// out\n    /* \"#utility.yul\":8590:8770   */\ntag_62:\n    /* \"#utility.yul\":8638:8715   */\n  0x4e487b7100000000000000000000000000000000000000000000000000000000\n    /* \"#utility.yul\":8635:8636   */\n  0x00\n    /* \"#utility.yul\":8628:8716   */\n  mstore\n    /* \"#utility.yul\":8735:8739   */\n  0x22\n    /* \"#utility.yul\":8732:8733   */\n  0x04\n    /* \"#utility.yul\":8725:8740   */\n  mstore\n    /* \"#utility.yul\":8759:8763   */\n  0x24\n    /* \"#utility.yul\":8756:8757   */\n  0x00\n    /* \"#utility.yul\":8749:8764   */\n  revert\n    /* \"#utility.yul\":8776:9096   */\ntag_33:\n    /* \"#utility.yul\":8820:8826   */\n  0x00\n    /* \"#utility.yul\":8857:8858   */\n  0x02\n    /* \"#utility.yul\":8851:8855   */\n  dup3\n    /* \"#utility.yul\":8847:8859   */\n  div\n    /* \"#utility.yul\":8837:8859   */\n  swap1\n  pop\n    /* \"#utility.yul\":8904:8905   */\n  0x01\n    /* \"#utility.yul\":8898:8902   */\n  dup3\n    /* \"#utility.yul\":8894:8906   */\n  and\n    /* \"#utility.yul\":8925:8943   */\n  dup1\n    /* \"#utility.yul\":8915:8996   */\n  tag_176\n  jumpi\n    /* \"#utility.yul\":8981:8985   */\n  0x7f\n    /* \"#utility.yul\":8973:8979   */\n  dup3\n    /* \"#utility.yul\":8969:8986   */\n  and\n    /* \"#utility.yul\":8959:8986   */\n  swap2\n  pop\n    /* \"#utility.yul\":8915:8996   */\ntag_176:\n    /* \"#utility.yul\":9043:9045   */\n  0x20\n    /* \"#utility.yul\":9035:9041   */\n  dup3\n    /* \"#utility.yul\":9032:9046   */\n  lt\n    /* \"#utility.yul\":9012:9030   */\n  dup2\n    /* \"#utility.yul\":9009:9047   */\n  sub\n    /* \"#utility.yul\":9006:9090   */\n  tag_177\n  jumpi\n    /* \"#utility.yul\":9062:9080   */\n  tag_178\n  tag_62\n  jump\t// in\ntag_178:\n    /* \"#utility.yul\":9006:9090   */\ntag_177:\n    /* \"#utility.yul\":8827:9096   */\n  pop\n    /* \"#utility.yul\":8776:9096   */\n  swap2\n  swap1\n  pop\n  jump\t// out\n    /* \"#utility.yul\":9102:9243   */\ntag_63:\n    /* \"#utility.yul\":9151:9155   */\n  0x00\n    /* \"#utility.yul\":9174:9177   */\n  dup2\n    /* \"#utility.yul\":9166:9177   */\n  swap1\n  pop\n    /* \"#utility.yul\":9197:9200   */\n  dup2\n    /* \"#utility.yul\":9194:9195   */\n  0x00\n    /* \"#utility.yul\":9187:9201   */\n  mstore\n    /* \"#utility.yul\":9231:9235   */\n  0x20\n    /* \"#utility.yul\":9228:9229   */\n  0x00\n    /* \"#utility.yul\":9218:9236   */\n  keccak256\n    /* \"#utility.yul\":9210:9236   */\n  swap1\n  pop\n    /* \"#utility.yul\":9102:9243   */\n  swap2\n  swap1\n  pop\n  jump\t// out\n    /* \"#utility.yul\":9249:9342   */\ntag_64:\n    /* \"#utility.yul\":9286:9292   */\n  0x00\n    /* \"#utility.yul\":9333:9335   */\n  0x20\n    /* \"#utility.yul\":9328:9330   */\n  0x1f\n    /* \"#utility.yul\":9321:9326   */\n  dup4\n    /* \"#utility.yul\":9317:9331   */\n  add\n    /* \"#utility.yul\":9313:9336   */\n  div\n    /* \"#utility.yul\":9303:9336   */\n  swap1\n  pop\n    /* \"#utility.yul\":9249:9342   */\n  swap2\n  swap1\n  pop\n  jump\t// out\n    /* \"#utility.yul\":9348:9455   */\ntag_65:\n    /* \"#utility.yul\":9392:9400   */\n  0x00\n    /* \"#utility.yul\":9442:9447   */\n  dup3\n    /* \"#utility.yul\":9436:9440   */\n  dup3\n    /* \"#utility.yul\":9432:9448   */\n  shl\n    /* \"#utility.yul\":9411:9448   */\n  swap1\n  pop\n    /* \"#utility.yul\":9348:9455   */\n  swap3\n  swap2\n  pop\n  pop\n  jump\t// out\n    /* \"#utility.yul\":9461:9854   */\ntag_66:\n    /* \"#utility.yul\":9530:9536   */\n  0x00\n    /* \"#utility.yul\":9580:9581   */\n  0x08\n    /* \"#utility.yul\":9568:9578   */\n  dup4\n    /* \"#utility.yul\":9564:9582   */\n  mul\n    /* \"#utility.yul\":9603:9700   */\n  tag_183\n    /* \"#utility.yul\":9633:9699   */\n  0xffffffffffffffffffffffffffffffffffffffffffffffffffffffffffffffff\n    /* \"#utility.yul\":9622:9631   */\n  dup3\n    /* \"#utility.yul\":9603:9700   */\n  tag_65\n  jump\t// in\ntag_183:\n    /* \"#utility.yul\":9721:9760   */\n  tag_184\n    /* \"#utility.yul\":9751:9759   */\n  dup7\n    /* \"#utility.yul\":9740:9749   */\n  dup4\n    /* \"#utility.yul\":9721:9760   */\n  tag_65\n  jump\t// in\ntag_184:\n    /* \"#utility.yul\":9709:9760   */\n  swap6\n  pop\n    /* \"#utility.yul\":9793:9797   */\n  dup1\n    /* \"#utility.yul\":9789:9798   */\n  not\n    /* \"#utility.yul\":9782:9787   */\n  dup5\n    /* \"#utility.yul\":9778:9799   */\n  and\n    /* \"#utility.yul\":9769:9799   */\n  swap4\n  pop\n    /* \"#utility.yul\":9842:9846   */\n  dup1\n    /* \"#utility.yul\":9832:9840   */\n  dup7\n    /* \"#utility.yul\":9828:9847   */\n  and\n    /* \"#utility.yul\":9821:9826   */\n  dup5\n    /* \"#utility.yul\":9818:9848   */\n  or\n    /* \"#utility.yul\":9808:9848   */\n  swap3\n  pop\n    /* \"#utility.yul\":9537:9854   */\n  pop\n  pop\n    /* \"#utility.yul\":9461:9854   */\n  swap4\n  swap3\n  pop\n  pop\n  pop\n  jump\t// out\n    /* \"#utility.yul\":9860:9937   */\ntag_67:\n    /* \"#utility.yul\":9897:9904   */\n  0x00\n    /* \"#utility.yul\":9926:9931   */\n  dup2\n    /* \"#utility.yul\":9915:9931   */\n  swap1\n  pop\n    /* \"#utility.yul\":9860:9937   */\n  swap2\n  swap1\n  pop\n  jump\t// out\n    /* \"#utility.yul\":9943:10003   */\ntag_68:\n    /* \"#utility.yul\":9971:9974   */\n  0x00\n    /* \"#utility.yul\":9992:9997   */\n  dup2\n    /* \"#utility.yul\":9985:9997   */\n  swap1\n  pop\n    /* \"#utility.yul\":9943:10003   */\n  swap2\n  swap1\n  pop\n  jump\t// out\n    /* \"#utility.yul\":10009:10151   */\ntag_69:\n    /* \"#utility.yul\":10059:10068   */\n  0x00\n    /* \"#utility.yul\":10092:10145   */\n  tag_188\n    /* \"#utility.yul\":10110:10144   */\n  tag_189\n    /* \"#utility.yul\":10119:10143   */\n  tag_190\n    /* \"#utility.yul\":10137:10142   */\n  dup5\n    /* \"#utility.yul\":10119:10143   */\n  tag_67\n  jump\t// in\ntag_190:\n    /* \"#utility.yul\":10110:10144   */\n  tag_68\n  jump\t// in\ntag_189:\n    /* \"#utility.yul\":10092:10145   */\n  tag_67\n  jump\t// in\ntag_188:\n    /* \"#utility.yul\":10079:10145   */\n  swap1\n  pop\n    /* \"#utility.yul\":10009:10151   */\n  swap2\n  swap1\n  pop\n  jump\t// out\n    /* \"#utility.yul\":10157:10232   */\ntag_70:\n    /* \"#utility.yul\":10200:10203   */\n  0x00\n    /* \"#utility.yul\":10221:10226   */\n  dup2\n    /* \"#utility.yul\":10214:10226   */\n  swap1\n  pop\n    /* \"#utility.yul\":10157:10232   */\n  swap2\n  swap1\n  pop\n  jump\t// out\n    /* \"#utility.yul\":10238:10507   */\ntag_71:\n    /* \"#utility.yul\":10348:10387   */\n  tag_193\n    /* \"#utility.yul\":10379:10386   */\n  dup4\n    /* \"#utility.yul\":10348:10387   */\n  tag_69\n  jump\t// in\ntag_193:\n    /* \"#utility.yul\":10409:10500   */\n  tag_194\n    /* \"#utility.yul\":10458:10499   */\n  tag_195\n    /* \"#utility.yul\":10482:10498   */\n  dup3\n    /* \"#utility.yul\":10458:10499   */\n  tag_70\n  jump\t// in\ntag_195:\n    /* \"#utility.yul\":10450:10456   */\n  dup5\n    /* \"#utility.yul\":10443:10447   */\n  dup5\n    /* \"#utility.yul\":10437:10448   */\n  sload\n    /* \"#utility.yul\":10409:10500   */\n  tag_66\n  jump\t// in\ntag_194:\n    /* \"#utility.yul\":10403:10407   */\n  dup3\n    /* \"#utility.yul\":10396:10501   */\n  sstore\n    /* \"#utility.yul\":10314:10507   */\n  pop\n    /* \"#utility.yul\":10238:10507   */\n  pop\n  pop\n  pop\n  jump\t// out\n    /* \"#utility.yul\":10513:10586   */\ntag_72:\n    /* \"#utility.yul\":10558:10561   */\n  0x00\n    /* \"#utility.yul\":10513:10586   */\n  swap1\n  jump\t// out\n    /* \"#utility.yul\":10592:10781   */\ntag_73:\n    /* \"#utility.yul\":10669:10701   */\n  tag_198\n  tag_72\n  jump\t// in\ntag_198:\n    /* \"#utility.yul\":10710:10775   */\n  tag_199\n    /* \"#utility.yul\":10768:10774   */\n  dup2\n    /* \"#utility.yul\":10760:10766   */\n  dup5\n    /* \"#utility.yul\":10754:10758   */\n  dup5\n    /* \"#utility.yul\":10710:10775   */\n  tag_71\n  jump\t// in\ntag_199:\n    /* \"#utility.yul\":10645:10781   */\n  pop\n    /* \"#utility.yul\":10592:10781   */\n  pop\n  pop\n  jump\t// out\n    /* \"#utility.yul\":10787:10973   */\ntag_74:\n    /* \"#utility.yul\":10847:10967   */\ntag_201:\n    /* \"#utility.yul\":10864:10867   */\n  dup2\n    /* \"#utility.yul\":10857:10862   */\n  dup2\n    /* \"#utility.yul\":10854:10868   */\n  lt\n    /* \"#utility.yul\":10847:10967   */\n  iszero\n  tag_203\n  jumpi\n    /* \"#utility.yul\":10918:10957   */\n  tag_204\n    /* \"#utility.yul\":10955:10956   */\n  0x00\n    /* \"#utility.yul\":10948:10953   */\n  dup3\n    /* \"#utility.yul\":10918:10957   */\n  tag_73\n  jump\t// in\ntag_204:\n    /* \"#utility.yul\":10891:10892   */\n  0x01\n    /* \"#utility.yul\":10884:10889   */\n  dup2\n    /* \"#utility.yul\":10880:10893   */\n  add\n    /* \"#utility.yul\":10871:10893   */\n  swap1\n  pop\n    /* \"#utility.yul\":10847:10967   */\n  jump(tag_201)\ntag_203:\n    /* \"#utility.yul\":10787:10973   */\n  pop\n  pop\n  jump\t// out\n    /* \"#utility.yul\":10979:11522   */\ntag_75:\n    /* \"#utility.yul\":11080:11082   */\n  0x1f\n    /* \"#utility.yul\":11075:11078   */\n  dup3\n    /* \"#utility.yul\":11072:11083   */\n  gt\n    /* \"#utility.yul\":11069:11515   */\n  iszero\n  tag_206\n  jumpi\n    /* \"#utility.yul\":11114:11152   */\n  tag_207\n    /* \"#utility.yul\":11146:11151   */\n  dup2\n    /* \"#utility.yul\":11114:11152   */\n  tag_63\n  jump\t// in\ntag_207:\n    /* \"#utility.yul\":11198:11227   */\n  tag_208\n    /* \"#utility.yul\":11216:11226   */\n  dup5\n    /* \"#utility.yul\":11198:11227   */\n  tag_64\n  jump\t// in\ntag_208:\n    /* \"#utility.yul\":11188:11196   */\n  dup2\n    /* \"#utility.yul\":11184:11228   */\n  add\n    /* \"#utility.yul\":11381:11383   */\n  0x20\n    /* \"#utility.yul\":11369:11379   */\n  dup6\n    /* \"#utility.yul\":11366:11384   */\n  lt\n    /* \"#utility.yul\":11363:11412   */\n  iszero\n  tag_209\n  jumpi\n    /* \"#utility.yul\":11402:11410   */\n  dup2\n    /* \"#utility.yul\":11387:11410   */\n  swap1\n  pop\n    /* \"#utility.yul\":11363:11412   */\ntag_209:\n    /* \"#utility.yul\":11425:11505   */\n  tag_210\n    /* \"#utility.yul\":11481:11503   */\n  tag_211\n    /* \"#utility.yul\":11499:11502   */\n  dup6\n    /* \"#utility.yul\":11481:11503   */\n  tag_64\n  jump\t// in\ntag_211:\n    /* \"#utility.yul\":11471:11479   */\n  dup4\n    /* \"#utility.yul\":11467:11504   */\n  add\n    /* \"#utility.yul\":11454:11465   */\n  dup3\n    /* \"#utility.yul\":11425:11505   */\n  tag_74\n  jump\t// in\ntag_210:\n    /* \"#utility.yul\":11084:11515   */\n  pop\n  pop\n    /* \"#utility.yul\":11069:11515   */\ntag_206:\n    /* \"#utility.yul\":10979:11522   */\n  pop\n  pop\n  pop\n  jump\t// out\n    /* \"#utility.yul\":11528:11645   */\ntag_76:\n    /* \"#utility.yul\":11582:11590   */\n  0x00\n    /* \"#utility.yul\":11632:11637   */\n  dup3\n    /* \"#utility.yul\":11626:11630   */\n  dup3\n    /* \"#utility.yul\":11622:11638   */\n  shr\n    /* \"#utility.yul\":11601:11638   */\n  swap1\n  pop\n    /* \"#utility.yul\":11528:11645   */\n  swap3\n  swap2\n  pop\n  pop\n  jump\t// out\n    /* \"#utility.yul\":11651:11820   */\ntag_77:\n    /* \"#utility.yul\":11695:11701   */\n  0x00\n    /* \"#utility.yul\":11728:11779   */\n  tag_214\n    /* \"#utility.yul\":11776:11777   */\n  0x00\n    /* \"#utility.yul\":11772:11778   */\n  not\n    /* \"#utility.yul\":11764:11769   */\n  dup5\n    /* \"#utility.yul\":11761:11762   */\n  0x08\n    /* \"#utility.yul\":11757:11770   */\n  mul\n    /* \"#utility.yul\":11728:11779   */\n  tag_76\n  jump\t// in\ntag_214:\n    /* \"#utility.yul\":11724:11780   */\n  not\n    /* \"#utility.yul\":11809:11813   */\n  dup1\n    /* \"#utility.yul\":11803:11807   */\n  dup4\n    /* \"#utility.yul\":11799:11814   */\n  and\n    /* \"#utility.yul\":11789:11814   */\n  swap2\n  pop\n    /* \"#utility.yul\":11702:11820   */\n  pop\n    /* \"#utility.yul\":11651:11820   */\n  swap3\n  swap2\n  pop\n  pop\n  jump\t// out\n    /* \"#utility.yul\":11825:12120   */\ntag_78:\n    /* \"#utility.yul\":11901:11905   */\n  0x00\n    /* \"#utility.yul\":12047:12076   */\n  tag_216\n    /* \"#utility.yul\":12072:12075   */\n  dup4\n    /* \"#utility.yul\":12066:12070   */\n  dup4\n    /* \"#utility.yul\":12047:12076   */\n  tag_77\n  jump\t// in\ntag_216:\n    /* \"#utility.yul\":12039:12076   */\n  swap2\n  pop\n    /* \"#utility.yul\":12109:12112   */\n  dup3\n    /* \"#utility.yul\":12106:12107   */\n  0x02\n    /* \"#utility.yul\":12102:12113   */\n  mul\n    /* \"#utility.yul\":12096:12100   */\n  dup3\n    /* \"#utility.yul\":12093:12114   */\n  or\n    /* \"#utility.yul\":12085:12114   */\n  swap1\n  pop\n    /* \"#utility.yul\":11825:12120   */\n  swap3\n  swap2\n  pop\n  pop\n  jump\t// out\n    /* \"#utility.yul\":12125:13520   */\ntag_9:\n    /* \"#utility.yul\":12242:12279   */\n  tag_218\n    /* \"#utility.yul\":12275:12278   */\n  dup3\n    /* \"#utility.yul\":12242:12279   */\n  tag_61\n  jump\t// in\ntag_218:\n    /* \"#utility.yul\":12344:12362   */\n  0xffffffffffffffff\n    /* \"#utility.yul\":12336:12342   */\n  dup2\n    /* \"#utility.yul\":12333:12363   */\n  gt\n    /* \"#utility.yul\":12330:12386   */\n  iszero\n  tag_219\n  jumpi\n    /* \"#utility.yul\":12366:12384   */\n  tag_220\n  tag_42\n  jump\t// in\ntag_220:\n    /* \"#utility.yul\":12330:12386   */\ntag_219:\n    /* \"#utility.yul\":12410:12448   */\n  tag_221\n    /* \"#utility.yul\":12442:12446   */\n  dup3\n    /* \"#utility.yul\":12436:12447   */\n  sload\n    /* \"#utility.yul\":12410:12448   */\n  tag_33\n  jump\t// in\ntag_221:\n    /* \"#utility.yul\":12495:12562   */\n  tag_222\n    /* \"#utility.yul\":12555:12561   */\n  dup3\n    /* \"#utility.yul\":12547:12553   */\n  dup3\n    /* \"#utility.yul\":12541:12545   */\n  dup6\n    /* \"#utility.yul\":12495:12562   */\n  tag_75\n  jump\t// in\ntag_222:\n    /* \"#utility.yul\":12589:12590   */\n  0x00\n    /* \"#utility.yul\":12613:12617   */\n  0x20\n    /* \"#utility.yul\":12600:12617   */\n  swap1\n  pop\n    /* \"#utility.yul\":12645:12647   */\n  0x1f\n    /* \"#utility.yul\":12637:12643   */\n  dup4\n    /* \"#utility.yul\":12634:12648   */\n  gt\n    /* \"#utility.yul\":12662:12663   */\n  0x01\n    /* \"#utility.yul\":12657:13275   */\n  dup2\n  eq\n  tag_224\n  jumpi\n    /* \"#utility.yul\":13319:13320   */\n  0x00\n    /* \"#utility.yul\":13336:13342   */\n  dup5\n    /* \"#utility.yul\":13333:13410   */\n  iszero\n  tag_225\n  jumpi\n    /* \"#utility.yul\":13385:13394   */\n  dup3\n    /* \"#utility.yul\":13380:13383   */\n  dup8\n    /* \"#utility.yul\":13376:13395   */\n  add\n    /* \"#utility.yul\":13370:13396   */\n  mload\n    /* \"#utility.yul\":13361:13396   */\n  swap1\n  pop\n    /* \"#utility.yul\":13333:13410   */\ntag_225:\n    /* \"#utility.yul\":13436:13503   */\n  tag_226\n    /* \"#utility.yul\":13496:13502   */\n  dup6\n    /* \"#utility.yul\":13489:13494   */\n  dup3\n    /* \"#utility.yul\":13436:13503   */\n  tag_78\n  jump\t// in\ntag_226:\n    /* \"#utility.yul\":13430:13434   */\n  dup7\n    /* \"#utility.yul\":13423:13504   */\n  sstore\n    /* \"#utility.yul\":13292:13514   */\n  pop\n    /* \"#utility.yul\":12627:13514   */\n  jump(tag_223)\n    /* \"#utility.yul\":12657:13275   */\ntag_224:\n    /* \"#utility.yul\":12709:12713   */\n  0x1f\n    /* \"#utility.yul\":12705:12714   */\n  not\n    /* \"#utility.yul\":12697:12703   */\n  dup5\n    /* \"#utility.yul\":12693:12715   */\n  and\n    /* \"#utility.yul\":12743:12780   */\n  tag_227\n    /* \"#utility.yul\":12775:12779   */\n  dup7\n    /* \"#utility.yul\":12743:12780   */\n  tag_63\n  jump\t// in\ntag_227:\n    /* \"#utility.yul\":12802:12803   */\n  0x00\n    /* \"#utility.yul\":12816:13024   */\ntag_228:\n    /* \"#utility.yul\":12830:12837   */\n  dup3\n    /* \"#utility.yul\":12827:12828   */\n  dup2\n    /* \"#utility.yul\":12824:12838   */\n  lt\n    /* \"#utility.yul\":12816:13024   */\n  iszero\n  tag_230\n  jumpi\n    /* \"#utility.yul\":12909:12918   */\n  dup5\n    /* \"#utility.yul\":12904:12907   */\n  dup10\n    /* \"#utility.yul\":12900:12919   */\n  add\n    /* \"#utility.yul\":12894:12920   */\n  mload\n    /* \"#utility.yul\":12886:12892   */\n  dup3\n    /* \"#utility.yul\":12879:12921   */\n  sstore\n    /* \"#utility.yul\":12960:12961   */\n  0x01\n    /* \"#utility.yul\":12952:12958   */\n  dup3\n    /* \"#utility.yul\":12948:12962   */\n  add\n    /* \"#utility.yul\":12938:12962   */\n  swap2\n  pop\n    /* \"#utility.yul\":13007:13009   */\n  0x20\n    /* \"#utility.yul\":12996:13005   */\n  dup6\n    /* \"#utility.yul\":12992:13010   */\n  add\n    /* \"#utility.yul\":12979:13010   */\n  swap5\n  pop\n    /* \"#utility.yul\":12853:12857   */\n  0x20\n    /* \"#utility.yul\":12850:12851   */\n  dup2\n    /* \"#utility.yul\":12846:12858   */\n  add\n    /* \"#utility.yul\":12841:12858   */\n  swap1\n  pop\n    /* \"#utility.yul\":12816:13024   */\n  jump(tag_228)\ntag_230:\n    /* \"#utility.yul\":13052:13058   */\n  dup7\n    /* \"#utility.yul\":13043:13050   */\n  dup4\n    /* \"#utility.yul\":13040:13059   */\n  lt\n    /* \"#utility.yul\":13037:13216   */\n  iszero\n  tag_231\n  jumpi\n    /* \"#utility.yul\":13110:13119   */\n  dup5\n    /* \"#utility.yul\":13105:13108   */\n  dup10\n    /* \"#utility.yul\":13101:13120   */\n  add\n    /* \"#utility.yul\":13095:13121   */\n  mload\n    /* \"#utility.yul\":13153:13201   */\n  tag_232\n    /* \"#utility.yul\":13195:13199   */\n  0x1f\n    /* \"#utility.yul\":13187:13193   */\n  dup10\n    /* \"#utility.yul\":13183:13200   */\n  and\n    /* \"#utility.yul\":13172:13181   */\n  dup3\n    /* \"#utility.yul\":13153:13201   */\n  tag_77\n  jump\t// in\ntag_232:\n    /* \"#utility.yul\":13145:13151   */\n  dup4\n    /* \"#utility.yul\":13138:13202   */\n  sstore\n    /* \"#utility.yul\":13060:13216   */\n  pop\n    /* \"#utility.yul\":13037:13216   */\ntag_231:\n    /* \"#utility.yul\":13262:13263   */\n  0x01\n    /* \"#utility.yul\":13258:13259   */\n  0x02\n    /* \"#utility.yul\":13250:13256   */\n  dup9\n    /* \"#utility.yul\":13246:13260   */\n  mul\n    /* \"#utility.yul\":13242:13264   */\n  add\n    /* \"#utility.yul\":13236:13240   */\n  dup9\n    /* \"#utility.yul\":13229:13265   */\n  sstore\n    /* \"#utility.yul\":12664:13275   */\n  pop\n  pop\n  pop\n    /* \"#utility.yul\":12627:13514   */\ntag_223:\n  pop\n    /* \"#utility.yul\":12217:13520   */\n  pop\n  pop\n  pop\n    /* \"#utility.yul\":12125:13520   */\n  pop\n  pop\n  jump\t// out\n    /* \"contracts/Paper.sol\":66:915  contract PaperContract {... */\ntag_14:\n  dataSize(sub_0)\n  dup1\n  dataOffset(sub_0)\n  0x00\n  codecopy\n  0x00\n  return\nstop\n\nsub_0: assembly {\n        /* \"contracts/Paper.sol\":66:915  contract PaperContract {... */\n      mstore(0x40, 0x80)\n      callvalue\n      dup1\n      iszero\n      tag_1\n      jumpi\n      0x00\n      dup1\n      revert\n    tag_1:\n      pop\n      jumpi(tag_2, lt(calldatasize, 0x04))\n      shr(0xe0, calldataload(0x00))\n      dup1\n      0x55f28564\n      eq\n      tag_3\n      jumpi\n      dup1\n      0xa13c53be\n      eq\n      tag_4\n      jumpi\n    tag_2:\n      0x00\n      dup1\n      revert\n        /* \"contracts/Paper.sol\":525:626  function updateCitedBy(address citingPaper) public {... */\n    tag_3:\n      tag_5\n      0x04\n      dup1\n      calldatasize\n      sub\n      dup2\n      add\n      swap1\n      tag_6\n      swap2\n      swap1\n      tag_7\n      jump\t// in\n    tag_6:\n      tag_8\n      jump\t// in\n    tag_5:\n      stop\n        /* \"contracts/Paper.sol\":720:910  function cite(address _paper) public {... */\n    tag_4:\n      tag_9\n      0x04\n      dup1\n      calldatasize\n      sub\n      dup2\n      add\n      swap1\n      tag_10\n      swap2\n      swap1\n      tag_7\n      jump\t// in\n    tag_10:\n      tag_11\n      jump\t// in\n    tag_9:\n      stop\n        /* \"contracts/Paper.sol\":525:626  function updateCitedBy(address citingPaper) public {... */\n    tag_8:\n        /* \"contracts/Paper.sol\":587:592  paper */\n      0x00\n        /* \"contracts/Paper.sol\":587:600  paper.citedBy */\n      0x03\n      add\n        /* \"contracts/Paper.sol\":606:617  citingPaper */\n      dup2\n        /* \"contracts/Paper.sol\":587:618  paper.citedBy.push(citingPaper) */\n      swap1\n      dup1\n      0x01\n      dup2\n      sload\n      add\n      dup1\n      dup3\n      sstore\n      dup1\n      swap2\n      pop\n      pop\n      0x01\n      swap1\n      sub\n      swap1\n      0x00\n      mstore\n      keccak256(0x00, 0x20)\n      add\n      0x00\n      swap1\n      swap2\n      swap1\n      swap2\n      swap1\n      swap2\n      0x0100\n      exp\n      dup2\n      sload\n      dup2\n      0xffffffffffffffffffffffffffffffffffffffff\n      mul\n      not\n      and\n      swap1\n      dup4\n      0xffffffffffffffffffffffffffffffffffffffff\n      and\n      mul\n      or\n      swap1\n      sstore\n      pop\n        /* \"contracts/Paper.sol\":525:626  function updateCitedBy(address citingPaper) public {... */\n      pop\n      jump\t// out\n        /* \"contracts/Paper.sol\":720:910  function cite(address _paper) public {... */\n    tag_11:\n        /* \"contracts/Paper.sol\":768:792  PaperContract paperCited */\n      0x00\n        /* \"contracts/Paper.sol\":809:815  _paper */\n      dup2\n        /* \"contracts/Paper.sol\":768:816  PaperContract paperCited = PaperContract(_paper) */\n      swap1\n      pop\n        /* \"contracts/Paper.sol\":866:876  paperCited */\n      dup1\n        /* \"contracts/Paper.sol\":866:890  paperCited.updateCitedBy */\n      0xffffffffffffffffffffffffffffffffffffffff\n      and\n      0x55f28564\n        /* \"contracts/Paper.sol\":891:901  msg.sender */\n      caller\n        /* \"contracts/Paper.sol\":866:902  paperCited.updateCitedBy(msg.sender) */\n      mload(0x40)\n      dup3\n      0xffffffff\n      and\n      0xe0\n      shl\n      dup2\n      mstore\n      0x04\n      add\n      tag_15\n      swap2\n      swap1\n      tag_16\n      jump\t// in\n    tag_15:\n      0x00\n      mload(0x40)\n      dup1\n      dup4\n      sub\n      dup2\n      0x00\n      dup8\n      dup1\n      extcodesize\n      iszero\n      dup1\n      iszero\n      tag_17\n      jumpi\n      0x00\n      dup1\n      revert\n    tag_17:\n      pop\n      gas\n      call\n      iszero\n      dup1\n      iszero\n      tag_19\n      jumpi\n      returndatasize\n      0x00\n      dup1\n      returndatacopy\n      revert(0x00, returndatasize)\n    tag_19:\n      pop\n      pop\n      pop\n      pop\n        /* \"contracts/Paper.sol\":757:910  {... */\n      pop\n        /* \"contracts/Paper.sol\":720:910  function cite(address _paper) public {... */\n      pop\n      jump\t// out\n        /* \"#utility.yul\":88:205   */\n    tag_21:\n        /* \"#utility.yul\":197:198   */\n      0x00\n        /* \"#utility.yul\":194:195   */\n      dup1\n        /* \"#utility.yul\":187:199   */\n      revert\n        /* \"#utility.yul\":334:460   */\n    tag_23:\n        /* \"#utility.yul\":371:378   */\n      0x00\n        /* \"#utility.yul\":411:453   */\n      0xffffffffffffffffffffffffffffffffffffffff\n        /* \"#utility.yul\":404:409   */\n      dup3\n        /* \"#utility.yul\":400:454   */\n      and\n        /* \"#utility.yul\":389:454   */\n      swap1\n      pop\n        /* \"#utility.yul\":334:460   */\n      swap2\n      swap1\n      pop\n      jump\t// out\n        /* \"#utility.yul\":466:562   */\n    tag_24:\n        /* \"#utility.yul\":503:510   */\n      0x00\n        /* \"#utility.yul\":532:556   */\n      tag_34\n        /* \"#utility.yul\":550:555   */\n      dup3\n        /* \"#utility.yul\":532:556   */\n      tag_23\n      jump\t// in\n    tag_34:\n        /* \"#utility.yul\":521:556   */\n      swap1\n      pop\n        /* \"#utility.yul\":466:562   */\n      swap2\n      swap1\n      pop\n      jump\t// out\n        /* \"#utility.yul\":568:690   */\n    tag_25:\n        /* \"#utility.yul\":641:665   */\n      tag_36\n        /* \"#utility.yul\":659:664   */\n      dup2\n        /* \"#utility.yul\":641:665   */\n      tag_24\n      jump\t// in\n    tag_36:\n        /* \"#utility.yul\":634:639   */\n      dup2\n        /* \"#utility.yul\":631:666   */\n      eq\n        /* \"#utility.yul\":621:684   */\n      tag_37\n      jumpi\n        /* \"#utility.yul\":680:681   */\n      0x00\n        /* \"#utility.yul\":677:678   */\n      dup1\n        /* \"#utility.yul\":670:682   */\n      revert\n        /* \"#utility.yul\":621:684   */\n    tag_37:\n        /* \"#utility.yul\":568:690   */\n      pop\n      jump\t// out\n        /* \"#utility.yul\":696:835   */\n    tag_26:\n        /* \"#utility.yul\":742:747   */\n      0x00\n        /* \"#utility.yul\":780:786   */\n      dup2\n        /* \"#utility.yul\":767:787   */\n      calldataload\n        /* \"#utility.yul\":758:787   */\n      swap1\n      pop\n        /* \"#utility.yul\":796:829   */\n      tag_39\n        /* \"#utility.yul\":823:828   */\n      dup2\n        /* \"#utility.yul\":796:829   */\n      tag_25\n      jump\t// in\n    tag_39:\n        /* \"#utility.yul\":696:835   */\n      swap3\n      swap2\n      pop\n      pop\n      jump\t// out\n        /* \"#utility.yul\":841:1170   */\n    tag_7:\n        /* \"#utility.yul\":900:906   */\n      0x00\n        /* \"#utility.yul\":949:951   */\n      0x20\n        /* \"#utility.yul\":937:946   */\n      dup3\n        /* \"#utility.yul\":928:935   */\n      dup5\n        /* \"#utility.yul\":924:947   */\n      sub\n        /* \"#utility.yul\":920:952   */\n      slt\n        /* \"#utility.yul\":917:1036   */\n      iszero\n      tag_41\n      jumpi\n        /* \"#utility.yul\":955:1034   */\n      tag_42\n      tag_21\n      jump\t// in\n    tag_42:\n        /* \"#utility.yul\":917:1036   */\n    tag_41:\n        /* \"#utility.yul\":1075:1076   */\n      0x00\n        /* \"#utility.yul\":1100:1153   */\n      tag_43\n        /* \"#utility.yul\":1145:1152   */\n      dup5\n        /* \"#utility.yul\":1136:1142   */\n      dup3\n        /* \"#utility.yul\":1125:1134   */\n      dup6\n        /* \"#utility.yul\":1121:1143   */\n      add\n        /* \"#utility.yul\":1100:1153   */\n      tag_26\n      jump\t// in\n    tag_43:\n        /* \"#utility.yul\":1090:1153   */\n      swap2\n      pop\n        /* \"#utility.yul\":1046:1163   */\n      pop\n        /* \"#utility.yul\":841:1170   */\n      swap3\n      swap2\n      pop\n      pop\n      jump\t// out\n        /* \"#utility.yul\":1176:1294   */\n    tag_27:\n        /* \"#utility.yul\":1263:1287   */\n      tag_45\n        /* \"#utility.yul\":1281:1286   */\n      dup2\n        /* \"#utility.yul\":1263:1287   */\n      tag_24\n      jump\t// in\n    tag_45:\n        /* \"#utility.yul\":1258:1261   */\n      dup3\n        /* \"#utility.yul\":1251:1288   */\n      mstore\n        /* \"#utility.yul\":1176:1294   */\n      pop\n      pop\n      jump\t// out\n        /* \"#utility.yul\":1300:1522   */\n    tag_16:\n        /* \"#utility.yul\":1393:1397   */\n      0x00\n        /* \"#utility.yul\":1431:1433   */\n      0x20\n        /* \"#utility.yul\":1420:1429   */\n      dup3\n        /* \"#utility.yul\":1416:1434   */\n      add\n        /* \"#utility.yul\":1408:1434   */\n      swap1\n      pop\n        /* \"#utility.yul\":1444:1515   */\n      tag_47\n        /* \"#utility.yul\":1512:1513   */\n      0x00\n        /* \"#utility.yul\":1501:1510   */\n      dup4\n        /* \"#utility.yul\":1497:1514   */\n      add\n        /* \"#utility.yul\":1488:1494   */\n      dup5\n        /* \"#utility.yul\":1444:1515   */\n      tag_27\n      jump\t// in\n    tag_47:\n        /* \"#utility.yul\":1300:1522   */\n      swap3\n      swap2\n      pop\n      pop\n      jump\t// out\n\n    auxdata: 0xa26469706673582212202a7fbdc2768e36c84ad0b6e97bcee691dbe738cc0c6ca22ff9a2c13121ff345864736f6c63430008120033\n}\n",
				"bytecode": {
					"linkReferences": {},
					"object": "60806040523480156200001157600080fd5b5060405162000ce538038062000ce5833981810160405281019062000037919062000640565b6040518060a00160405280868152602001858152602001848152602001838152602001828152506000808201518160000190805190602001906200007d929190620000fa565b506020820151816001019081620000959190620009ae565b506040820151816002019080519060200190620000b49291906200015a565b506060820151816003019080519060200190620000d39291906200015a565b506080820151816004019081620000eb9190620009ae565b50905050505050505062000a95565b82805482825590600052602060002090810192821562000147579160200282015b8281111562000146578251829081620001359190620009ae565b50916020019190600101906200011b565b5b509050620001569190620001e9565b5090565b828054828255906000526020600020908101928215620001d6579160200282015b82811115620001d55782518260006101000a81548173ffffffffffffffffffffffffffffffffffffffff021916908373ffffffffffffffffffffffffffffffffffffffff160217905550916020019190600101906200017b565b5b509050620001e5919062000211565b5090565b5b808211156200020d576000818162000203919062000230565b50600101620001ea565b5090565b5b808211156200022c57600081600090555060010162000212565b5090565b5080546200023e906200079d565b6000825580601f1062000252575062000273565b601f01602090049060005260206000209081019062000272919062000211565b5b50565b6000604051905090565b600080fd5b600080fd5b600080fd5b6000601f19601f8301169050919050565b7f4e487b7100000000000000000000000000000000000000000000000000000000600052604160045260246000fd5b620002da826200028f565b810181811067ffffffffffffffff82111715620002fc57620002fb620002a0565b5b80604052505050565b60006200031162000276565b90506200031f8282620002cf565b919050565b600067ffffffffffffffff821115620003425762000341620002a0565b5b602082029050602081019050919050565b600080fd5b600080fd5b600067ffffffffffffffff8211156200037b576200037a620002a0565b5b62000386826200028f565b9050602081019050919050565b60005b83811015620003b357808201518184015260208101905062000396565b60008484015250505050565b6000620003d6620003d0846200035d565b62000305565b905082815260208101848484011115620003f557620003f462000358565b5b6200040284828562000393565b509392505050565b600082601f8301126200042257620004216200028a565b5b815162000434848260208601620003bf565b91505092915050565b6000620004546200044e8462000324565b62000305565b905080838252602082019050602084028301858111156200047a576200047962000353565b5b835b81811015620004c857805167ffffffffffffffff811115620004a357620004a26200028a565b5b808601620004b289826200040a565b855260208501945050506020810190506200047c565b5050509392505050565b600082601f830112620004ea57620004e96200028a565b5b8151620004fc8482602086016200043d565b91505092915050565b600067ffffffffffffffff821115620005235762000522620002a0565b5b602082029050602081019050919050565b600073ffffffffffffffffffffffffffffffffffffffff82169050919050565b6000620005618262000534565b9050919050565b620005738162000554565b81146200057f57600080fd5b50565b600081519050620005938162000568565b92915050565b6000620005b0620005aa8462000505565b62000305565b90508083825260208201905060208402830185811115620005d657620005d562000353565b5b835b81811015620006035780620005ee888262000582565b845260208401935050602081019050620005d8565b5050509392505050565b600082601f8301126200062557620006246200028a565b5b81516200063784826020860162000599565b91505092915050565b600080600080600060a086880312156200065f576200065e62000280565b5b600086015167ffffffffffffffff81111562000680576200067f62000285565b5b6200068e88828901620004d2565b955050602086015167ffffffffffffffff811115620006b257620006b162000285565b5b620006c0888289016200040a565b945050604086015167ffffffffffffffff811115620006e457620006e362000285565b5b620006f2888289016200060d565b935050606086015167ffffffffffffffff81111562000716576200071562000285565b5b62000724888289016200060d565b925050608086015167ffffffffffffffff81111562000748576200074762000285565b5b62000756888289016200040a565b9150509295509295909350565b600081519050919050565b7f4e487b7100000000000000000000000000000000000000000000000000000000600052602260045260246000fd5b60006002820490506001821680620007b657607f821691505b602082108103620007cc57620007cb6200076e565b5b50919050565b60008190508160005260206000209050919050565b60006020601f8301049050919050565b600082821b905092915050565b600060088302620008367fffffffffffffffffffffffffffffffffffffffffffffffffffffffffffffffff82620007f7565b620008428683620007f7565b95508019841693508086168417925050509392505050565b6000819050919050565b6000819050919050565b60006200088f6200088962000883846200085a565b62000864565b6200085a565b9050919050565b6000819050919050565b620008ab836200086e565b620008c3620008ba8262000896565b84845462000804565b825550505050565b600090565b620008da620008cb565b620008e7818484620008a0565b505050565b5b818110156200090f5762000903600082620008d0565b600181019050620008ed565b5050565b601f8211156200095e576200092881620007d2565b6200093384620007e7565b8101602085101562000943578190505b6200095b6200095285620007e7565b830182620008ec565b50505b505050565b600082821c905092915050565b6000620009836000198460080262000963565b1980831691505092915050565b60006200099e838362000970565b9150826002028217905092915050565b620009b98262000763565b67ffffffffffffffff811115620009d557620009d4620002a0565b5b620009e182546200079d565b620009ee82828562000913565b600060209050601f83116001811462000a26576000841562000a11578287015190505b62000a1d858262000990565b86555062000a8d565b601f19841662000a3686620007d2565b60005b8281101562000a605784890151825560018201915060208501945060208101905062000a39565b8683101562000a80578489015162000a7c601f89168262000970565b8355505b6001600288020188555050505b505050505050565b6102408062000aa56000396000f3fe608060405234801561001057600080fd5b50600436106100365760003560e01c806355f285641461003b578063a13c53be14610057575b600080fd5b610055600480360381019061005091906101b3565b610073565b005b610071600480360381019061006c91906101b3565b6100dc565b005b6000600301819080600181540180825580915050600190039060005260206000200160009091909190916101000a81548173ffffffffffffffffffffffffffffffffffffffff021916908373ffffffffffffffffffffffffffffffffffffffff16021790555050565b60008190508073ffffffffffffffffffffffffffffffffffffffff166355f28564336040518263ffffffff1660e01b815260040161011a91906101ef565b600060405180830381600087803b15801561013457600080fd5b505af1158015610148573d6000803e3d6000fd5b505050505050565b600080fd5b600073ffffffffffffffffffffffffffffffffffffffff82169050919050565b600061018082610155565b9050919050565b61019081610175565b811461019b57600080fd5b50565b6000813590506101ad81610187565b92915050565b6000602082840312156101c9576101c8610150565b5b60006101d78482850161019e565b91505092915050565b6101e981610175565b82525050565b600060208201905061020460008301846101e0565b9291505056fea26469706673582212202a7fbdc2768e36c84ad0b6e97bcee691dbe738cc0c6ca22ff9a2c13121ff345864736f6c63430008120033",
					"opcodes": "PUSH1 0x80 PUSH1 0x40 MSTORE CALLVALUE DUP1 ISZERO PUSH3 0x11 JUMPI PUSH1 0x0 DUP1 REVERT JUMPDEST POP PUSH1 0x40 MLOAD PUSH3 0xCE5 CODESIZE SUB DUP1 PUSH3 0xCE5 DUP4 CODECOPY DUP2 DUP2 ADD PUSH1 0x40 MSTORE DUP2 ADD SWAP1 PUSH3 0x37 SWAP2 SWAP1 PUSH3 0x640 JUMP JUMPDEST PUSH1 0x40 MLOAD DUP1 PUSH1 0xA0 ADD PUSH1 0x40 MSTORE DUP1 DUP7 DUP2 MSTORE PUSH1 0x20 ADD DUP6 DUP2 MSTORE PUSH1 0x20 ADD DUP5 DUP2 MSTORE PUSH1 0x20 ADD DUP4 DUP2 MSTORE PUSH1 0x20 ADD DUP3 DUP2 MSTORE POP PUSH1 0x0 DUP1 DUP3 ADD MLOAD DUP2 PUSH1 0x0 ADD SWAP1 DUP1 MLOAD SWAP1 PUSH1 0x20 ADD SWAP1 PUSH3 0x7D SWAP3 SWAP2 SWAP1 PUSH3 0xFA JUMP JUMPDEST POP PUSH1 0x20 DUP3 ADD MLOAD DUP2 PUSH1 0x1 ADD SWAP1 DUP2 PUSH3 0x95 SWAP2 SWAP1 PUSH3 0x9AE JUMP JUMPDEST POP PUSH1 0x40 DUP3 ADD MLOAD DUP2 PUSH1 0x2 ADD SWAP1 DUP1 MLOAD SWAP1 PUSH1 0x20 ADD SWAP1 PUSH3 0xB4 SWAP3 SWAP2 SWAP1 PUSH3 0x15A JUMP JUMPDEST POP PUSH1 0x60 DUP3 ADD MLOAD DUP2 PUSH1 0x3 ADD SWAP1 DUP1 MLOAD SWAP1 PUSH1 0x20 ADD SWAP1 PUSH3 0xD3 SWAP3 SWAP2 SWAP1 PUSH3 0x15A JUMP JUMPDEST POP PUSH1 0x80 DUP3 ADD MLOAD DUP2 PUSH1 0x4 ADD SWAP1 DUP2 PUSH3 0xEB SWAP2 SWAP1 PUSH3 0x9AE JUMP JUMPDEST POP SWAP1 POP POP POP POP POP POP POP PUSH3 0xA95 JUMP JUMPDEST DUP3 DUP1 SLOAD DUP3 DUP3 SSTORE SWAP1 PUSH1 0x0 MSTORE PUSH1 0x20 PUSH1 0x0 KECCAK256 SWAP1 DUP2 ADD SWAP3 DUP3 ISZERO PUSH3 0x147 JUMPI SWAP2 PUSH1 0x20 MUL DUP3 ADD JUMPDEST DUP3 DUP2 GT ISZERO PUSH3 0x146 JUMPI DUP3 MLOAD DUP3 SWAP1 DUP2 PUSH3 0x135 SWAP2 SWAP1 PUSH3 0x9AE JUMP JUMPDEST POP SWAP2 PUSH1 0x20 ADD SWAP2 SWAP1 PUSH1 0x1 ADD SWAP1 PUSH3 0x11B JUMP JUMPDEST JUMPDEST POP SWAP1 POP PUSH3 0x156 SWAP2 SWAP1 PUSH3 0x1E9 JUMP JUMPDEST POP SWAP1 JUMP JUMPDEST DUP3 DUP1 SLOAD DUP3 DUP3 SSTORE SWAP1 PUSH1 0x0 MSTORE PUSH1 0x20 PUSH1 0x0 KECCAK256 SWAP1 DUP2 ADD SWAP3 DUP3 ISZERO PUSH3 0x1D6 JUMPI SWAP2 PUSH1 0x20 MUL DUP3 ADD JUMPDEST DUP3 DUP2 GT ISZERO PUSH3 0x1D5 JUMPI DUP3 MLOAD DUP3 PUSH1 0x0 PUSH2 0x100 EXP DUP2 SLOAD DUP2 PUSH20 0xFFFFFFFFFFFFFFFFFFFFFFFFFFFFFFFFFFFFFFFF MUL NOT AND SWAP1 DUP4 PUSH20 0xFFFFFFFFFFFFFFFFFFFFFFFFFFFFFFFFFFFFFFFF AND MUL OR SWAP1 SSTORE POP SWAP2 PUSH1 0x20 ADD SWAP2 SWAP1 PUSH1 0x1 ADD SWAP1 PUSH3 0x17B JUMP JUMPDEST JUMPDEST POP SWAP1 POP PUSH3 0x1E5 SWAP2 SWAP1 PUSH3 0x211 JUMP JUMPDEST POP SWAP1 JUMP JUMPDEST JUMPDEST DUP1 DUP3 GT ISZERO PUSH3 0x20D JUMPI PUSH1 0x0 DUP2 DUP2 PUSH3 0x203 SWAP2 SWAP1 PUSH3 0x230 JUMP JUMPDEST POP PUSH1 0x1 ADD PUSH3 0x1EA JUMP JUMPDEST POP SWAP1 JUMP JUMPDEST JUMPDEST DUP1 DUP3 GT ISZERO PUSH3 0x22C JUMPI PUSH1 0x0 DUP2 PUSH1 0x0 SWAP1 SSTORE POP PUSH1 0x1 ADD PUSH3 0x212 JUMP JUMPDEST POP SWAP1 JUMP JUMPDEST POP DUP1 SLOAD PUSH3 0x23E SWAP1 PUSH3 0x79D JUMP JUMPDEST PUSH1 0x0 DUP3 SSTORE DUP1 PUSH1 0x1F LT PUSH3 0x252 JUMPI POP PUSH3 0x273 JUMP JUMPDEST PUSH1 0x1F ADD PUSH1 0x20 SWAP1 DIV SWAP1 PUSH1 0x0 MSTORE PUSH1 0x20 PUSH1 0x0 KECCAK256 SWAP1 DUP2 ADD SWAP1 PUSH3 0x272 SWAP2 SWAP1 PUSH3 0x211 JUMP JUMPDEST JUMPDEST POP JUMP JUMPDEST PUSH1 0x0 PUSH1 0x40 MLOAD SWAP1 POP SWAP1 JUMP JUMPDEST PUSH1 0x0 DUP1 REVERT JUMPDEST PUSH1 0x0 DUP1 REVERT JUMPDEST PUSH1 0x0 DUP1 REVERT JUMPDEST PUSH1 0x0 PUSH1 0x1F NOT PUSH1 0x1F DUP4 ADD AND SWAP1 POP SWAP2 SWAP1 POP JUMP JUMPDEST PUSH32 0x4E487B7100000000000000000000000000000000000000000000000000000000 PUSH1 0x0 MSTORE PUSH1 0x41 PUSH1 0x4 MSTORE PUSH1 0x24 PUSH1 0x0 REVERT JUMPDEST PUSH3 0x2DA DUP3 PUSH3 0x28F JUMP JUMPDEST DUP2 ADD DUP2 DUP2 LT PUSH8 0xFFFFFFFFFFFFFFFF DUP3 GT OR ISZERO PUSH3 0x2FC JUMPI PUSH3 0x2FB PUSH3 0x2A0 JUMP JUMPDEST JUMPDEST DUP1 PUSH1 0x40 MSTORE POP POP POP JUMP JUMPDEST PUSH1 0x0 PUSH3 0x311 PUSH3 0x276 JUMP JUMPDEST SWAP1 POP PUSH3 0x31F DUP3 DUP3 PUSH3 0x2CF JUMP JUMPDEST SWAP2 SWAP1 POP JUMP JUMPDEST PUSH1 0x0 PUSH8 0xFFFFFFFFFFFFFFFF DUP3 GT ISZERO PUSH3 0x342 JUMPI PUSH3 0x341 PUSH3 0x2A0 JUMP JUMPDEST JUMPDEST PUSH1 0x20 DUP3 MUL SWAP1 POP PUSH1 0x20 DUP2 ADD SWAP1 POP SWAP2 SWAP1 POP JUMP JUMPDEST PUSH1 0x0 DUP1 REVERT JUMPDEST PUSH1 0x0 DUP1 REVERT JUMPDEST PUSH1 0x0 PUSH8 0xFFFFFFFFFFFFFFFF DUP3 GT ISZERO PUSH3 0x37B JUMPI PUSH3 0x37A PUSH3 0x2A0 JUMP JUMPDEST JUMPDEST PUSH3 0x386 DUP3 PUSH3 0x28F JUMP JUMPDEST SWAP1 POP PUSH1 0x20 DUP2 ADD SWAP1 POP SWAP2 SWAP1 POP JUMP JUMPDEST PUSH1 0x0 JUMPDEST DUP4 DUP2 LT ISZERO PUSH3 0x3B3 JUMPI DUP1 DUP3 ADD MLOAD DUP2 DUP5 ADD MSTORE PUSH1 0x20 DUP2 ADD SWAP1 POP PUSH3 0x396 JUMP JUMPDEST PUSH1 0x0 DUP5 DUP5 ADD MSTORE POP POP POP POP JUMP JUMPDEST PUSH1 0x0 PUSH3 0x3D6 PUSH3 0x3D0 DUP5 PUSH3 0x35D JUMP JUMPDEST PUSH3 0x305 JUMP JUMPDEST SWAP1 POP DUP3 DUP2 MSTORE PUSH1 0x20 DUP2 ADD DUP5 DUP5 DUP5 ADD GT ISZERO PUSH3 0x3F5 JUMPI PUSH3 0x3F4 PUSH3 0x358 JUMP JUMPDEST JUMPDEST PUSH3 0x402 DUP5 DUP3 DUP6 PUSH3 0x393 JUMP JUMPDEST POP SWAP4 SWAP3 POP POP POP JUMP JUMPDEST PUSH1 0x0 DUP3 PUSH1 0x1F DUP4 ADD SLT PUSH3 0x422 JUMPI PUSH3 0x421 PUSH3 0x28A JUMP JUMPDEST JUMPDEST DUP2 MLOAD PUSH3 0x434 DUP5 DUP3 PUSH1 0x20 DUP7 ADD PUSH3 0x3BF JUMP JUMPDEST SWAP2 POP POP SWAP3 SWAP2 POP POP JUMP JUMPDEST PUSH1 0x0 PUSH3 0x454 PUSH3 0x44E DUP5 PUSH3 0x324 JUMP JUMPDEST PUSH3 0x305 JUMP JUMPDEST SWAP1 POP DUP1 DUP4 DUP3 MSTORE PUSH1 0x20 DUP3 ADD SWAP1 POP PUSH1 0x20 DUP5 MUL DUP4 ADD DUP6 DUP2 GT ISZERO PUSH3 0x47A JUMPI PUSH3 0x479 PUSH3 0x353 JUMP JUMPDEST JUMPDEST DUP4 JUMPDEST DUP2 DUP2 LT ISZERO PUSH3 0x4C8 JUMPI DUP1 MLOAD PUSH8 0xFFFFFFFFFFFFFFFF DUP2 GT ISZERO PUSH3 0x4A3 JUMPI PUSH3 0x4A2 PUSH3 0x28A JUMP JUMPDEST JUMPDEST DUP1 DUP7 ADD PUSH3 0x4B2 DUP10 DUP3 PUSH3 0x40A JUMP JUMPDEST DUP6 MSTORE PUSH1 0x20 DUP6 ADD SWAP5 POP POP POP PUSH1 0x20 DUP2 ADD SWAP1 POP PUSH3 0x47C JUMP JUMPDEST POP POP POP SWAP4 SWAP3 POP POP POP JUMP JUMPDEST PUSH1 0x0 DUP3 PUSH1 0x1F DUP4 ADD SLT PUSH3 0x4EA JUMPI PUSH3 0x4E9 PUSH3 0x28A JUMP JUMPDEST JUMPDEST DUP2 MLOAD PUSH3 0x4FC DUP5 DUP3 PUSH1 0x20 DUP7 ADD PUSH3 0x43D JUMP JUMPDEST SWAP2 POP POP SWAP3 SWAP2 POP POP JUMP JUMPDEST PUSH1 0x0 PUSH8 0xFFFFFFFFFFFFFFFF DUP3 GT ISZERO PUSH3 0x523 JUMPI PUSH3 0x522 PUSH3 0x2A0 JUMP JUMPDEST JUMPDEST PUSH1 0x20 DUP3 MUL SWAP1 POP PUSH1 0x20 DUP2 ADD SWAP1 POP SWAP2 SWAP1 POP JUMP JUMPDEST PUSH1 0x0 PUSH20 0xFFFFFFFFFFFFFFFFFFFFFFFFFFFFFFFFFFFFFFFF DUP3 AND SWAP1 POP SWAP2 SWAP1 POP JUMP JUMPDEST PUSH1 0x0 PUSH3 0x561 DUP3 PUSH3 0x534 JUMP JUMPDEST SWAP1 POP SWAP2 SWAP1 POP JUMP JUMPDEST PUSH3 0x573 DUP2 PUSH3 0x554 JUMP JUMPDEST DUP2 EQ PUSH3 0x57F JUMPI PUSH1 0x0 DUP1 REVERT JUMPDEST POP JUMP JUMPDEST PUSH1 0x0 DUP2 MLOAD SWAP1 POP PUSH3 0x593 DUP2 PUSH3 0x568 JUMP JUMPDEST SWAP3 SWAP2 POP POP JUMP JUMPDEST PUSH1 0x0 PUSH3 0x5B0 PUSH3 0x5AA DUP5 PUSH3 0x505 JUMP JUMPDEST PUSH3 0x305 JUMP JUMPDEST SWAP1 POP DUP1 DUP4 DUP3 MSTORE PUSH1 0x20 DUP3 ADD SWAP1 POP PUSH1 0x20 DUP5 MUL DUP4 ADD DUP6 DUP2 GT ISZERO PUSH3 0x5D6 JUMPI PUSH3 0x5D5 PUSH3 0x353 JUMP JUMPDEST JUMPDEST DUP4 JUMPDEST DUP2 DUP2 LT ISZERO PUSH3 0x603 JUMPI DUP1 PUSH3 0x5EE DUP9 DUP3 PUSH3 0x582 JUMP JUMPDEST DUP5 MSTORE PUSH1 0x20 DUP5 ADD SWAP4 POP POP PUSH1 0x20 DUP2 ADD SWAP1 POP PUSH3 0x5D8 JUMP JUMPDEST POP POP POP SWAP4 SWAP3 POP POP POP JUMP JUMPDEST PUSH1 0x0 DUP3 PUSH1 0x1F DUP4 ADD SLT PUSH3 0x625 JUMPI PUSH3 0x624 PUSH3 0x28A JUMP JUMPDEST JUMPDEST DUP2 MLOAD PUSH3 0x637 DUP5 DUP3 PUSH1 0x20 DUP7 ADD PUSH3 0x599 JUMP JUMPDEST SWAP2 POP POP SWAP3 SWAP2 POP POP JUMP JUMPDEST PUSH1 0x0 DUP1 PUSH1 0x0 DUP1 PUSH1 0x0 PUSH1 0xA0 DUP7 DUP9 SUB SLT ISZERO PUSH3 0x65F JUMPI PUSH3 0x65E PUSH3 0x280 JUMP JUMPDEST JUMPDEST PUSH1 0x0 DUP7 ADD MLOAD PUSH8 0xFFFFFFFFFFFFFFFF DUP2 GT ISZERO PUSH3 0x680 JUMPI PUSH3 0x67F PUSH3 0x285 JUMP JUMPDEST JUMPDEST PUSH3 0x68E DUP9 DUP3 DUP10 ADD PUSH3 0x4D2 JUMP JUMPDEST SWAP6 POP POP PUSH1 0x20 DUP7 ADD MLOAD PUSH8 0xFFFFFFFFFFFFFFFF DUP2 GT ISZERO PUSH3 0x6B2 JUMPI PUSH3 0x6B1 PUSH3 0x285 JUMP JUMPDEST JUMPDEST PUSH3 0x6C0 DUP9 DUP3 DUP10 ADD PUSH3 0x40A JUMP JUMPDEST SWAP5 POP POP PUSH1 0x40 DUP7 ADD MLOAD PUSH8 0xFFFFFFFFFFFFFFFF DUP2 GT ISZERO PUSH3 0x6E4 JUMPI PUSH3 0x6E3 PUSH3 0x285 JUMP JUMPDEST JUMPDEST PUSH3 0x6F2 DUP9 DUP3 DUP10 ADD PUSH3 0x60D JUMP JUMPDEST SWAP4 POP POP PUSH1 0x60 DUP7 ADD MLOAD PUSH8 0xFFFFFFFFFFFFFFFF DUP2 GT ISZERO PUSH3 0x716 JUMPI PUSH3 0x715 PUSH3 0x285 JUMP JUMPDEST JUMPDEST PUSH3 0x724 DUP9 DUP3 DUP10 ADD PUSH3 0x60D JUMP JUMPDEST SWAP3 POP POP PUSH1 0x80 DUP7 ADD MLOAD PUSH8 0xFFFFFFFFFFFFFFFF DUP2 GT ISZERO PUSH3 0x748 JUMPI PUSH3 0x747 PUSH3 0x285 JUMP JUMPDEST JUMPDEST PUSH3 0x756 DUP9 DUP3 DUP10 ADD PUSH3 0x40A JUMP JUMPDEST SWAP2 POP POP SWAP3 SWAP6 POP SWAP3 SWAP6 SWAP1 SWAP4 POP JUMP JUMPDEST PUSH1 0x0 DUP2 MLOAD SWAP1 POP SWAP2 SWAP1 POP JUMP JUMPDEST PUSH32 0x4E487B7100000000000000000000000000000000000000000000000000000000 PUSH1 0x0 MSTORE PUSH1 0x22 PUSH1 0x4 MSTORE PUSH1 0x24 PUSH1 0x0 REVERT JUMPDEST PUSH1 0x0 PUSH1 0x2 DUP3 DIV SWAP1 POP PUSH1 0x1 DUP3 AND DUP1 PUSH3 0x7B6 JUMPI PUSH1 0x7F DUP3 AND SWAP2 POP JUMPDEST PUSH1 0x20 DUP3 LT DUP2 SUB PUSH3 0x7CC JUMPI PUSH3 0x7CB PUSH3 0x76E JUMP JUMPDEST JUMPDEST POP SWAP2 SWAP1 POP JUMP JUMPDEST PUSH1 0x0 DUP2 SWAP1 POP DUP2 PUSH1 0x0 MSTORE PUSH1 0x20 PUSH1 0x0 KECCAK256 SWAP1 POP SWAP2 SWAP1 POP JUMP JUMPDEST PUSH1 0x0 PUSH1 0x20 PUSH1 0x1F DUP4 ADD DIV SWAP1 POP SWAP2 SWAP1 POP JUMP JUMPDEST PUSH1 0x0 DUP3 DUP3 SHL SWAP1 POP SWAP3 SWAP2 POP POP JUMP JUMPDEST PUSH1 0x0 PUSH1 0x8 DUP4 MUL PUSH3 0x836 PUSH32 0xFFFFFFFFFFFFFFFFFFFFFFFFFFFFFFFFFFFFFFFFFFFFFFFFFFFFFFFFFFFFFFFF DUP3 PUSH3 0x7F7 JUMP JUMPDEST PUSH3 0x842 DUP7 DUP4 PUSH3 0x7F7 JUMP JUMPDEST SWAP6 POP DUP1 NOT DUP5 AND SWAP4 POP DUP1 DUP7 AND DUP5 OR SWAP3 POP POP POP SWAP4 SWAP3 POP POP POP JUMP JUMPDEST PUSH1 0x0 DUP2 SWAP1 POP SWAP2 SWAP1 POP JUMP JUMPDEST PUSH1 0x0 DUP2 SWAP1 POP SWAP2 SWAP1 POP JUMP JUMPDEST PUSH1 0x0 PUSH3 0x88F PUSH3 0x889 PUSH3 0x883 DUP5 PUSH3 0x85A JUMP JUMPDEST PUSH3 0x864 JUMP JUMPDEST PUSH3 0x85A JUMP JUMPDEST SWAP1 POP SWAP2 SWAP1 POP JUMP JUMPDEST PUSH1 0x0 DUP2 SWAP1 POP SWAP2 SWAP1 POP JUMP JUMPDEST PUSH3 0x8AB DUP4 PUSH3 0x86E JUMP JUMPDEST PUSH3 0x8C3 PUSH3 0x8BA DUP3 PUSH3 0x896 JUMP JUMPDEST DUP5 DUP5 SLOAD PUSH3 0x804 JUMP JUMPDEST DUP3 SSTORE POP POP POP POP JUMP JUMPDEST PUSH1 0x0 SWAP1 JUMP JUMPDEST PUSH3 0x8DA PUSH3 0x8CB JUMP JUMPDEST PUSH3 0x8E7 DUP2 DUP5 DUP5 PUSH3 0x8A0 JUMP JUMPDEST POP POP POP JUMP JUMPDEST JUMPDEST DUP2 DUP2 LT ISZERO PUSH3 0x90F JUMPI PUSH3 0x903 PUSH1 0x0 DUP3 PUSH3 0x8D0 JUMP JUMPDEST PUSH1 0x1 DUP2 ADD SWAP1 POP PUSH3 0x8ED JUMP JUMPDEST POP POP JUMP JUMPDEST PUSH1 0x1F DUP3 GT ISZERO PUSH3 0x95E JUMPI PUSH3 0x928 DUP2 PUSH3 0x7D2 JUMP JUMPDEST PUSH3 0x933 DUP5 PUSH3 0x7E7 JUMP JUMPDEST DUP2 ADD PUSH1 0x20 DUP6 LT ISZERO PUSH3 0x943 JUMPI DUP2 SWAP1 POP JUMPDEST PUSH3 0x95B PUSH3 0x952 DUP6 PUSH3 0x7E7 JUMP JUMPDEST DUP4 ADD DUP3 PUSH3 0x8EC JUMP JUMPDEST POP POP JUMPDEST POP POP POP JUMP JUMPDEST PUSH1 0x0 DUP3 DUP3 SHR SWAP1 POP SWAP3 SWAP2 POP POP JUMP JUMPDEST PUSH1 0x0 PUSH3 0x983 PUSH1 0x0 NOT DUP5 PUSH1 0x8 MUL PUSH3 0x963 JUMP JUMPDEST NOT DUP1 DUP4 AND SWAP2 POP POP SWAP3 SWAP2 POP POP JUMP JUMPDEST PUSH1 0x0 PUSH3 0x99E DUP4 DUP4 PUSH3 0x970 JUMP JUMPDEST SWAP2 POP DUP3 PUSH1 0x2 MUL DUP3 OR SWAP1 POP SWAP3 SWAP2 POP POP JUMP JUMPDEST PUSH3 0x9B9 DUP3 PUSH3 0x763 JUMP JUMPDEST PUSH8 0xFFFFFFFFFFFFFFFF DUP2 GT ISZERO PUSH3 0x9D5 JUMPI PUSH3 0x9D4 PUSH3 0x2A0 JUMP JUMPDEST JUMPDEST PUSH3 0x9E1 DUP3 SLOAD PUSH3 0x79D JUMP JUMPDEST PUSH3 0x9EE DUP3 DUP3 DUP6 PUSH3 0x913 JUMP JUMPDEST PUSH1 0x0 PUSH1 0x20 SWAP1 POP PUSH1 0x1F DUP4 GT PUSH1 0x1 DUP2 EQ PUSH3 0xA26 JUMPI PUSH1 0x0 DUP5 ISZERO PUSH3 0xA11 JUMPI DUP3 DUP8 ADD MLOAD SWAP1 POP JUMPDEST PUSH3 0xA1D DUP6 DUP3 PUSH3 0x990 JUMP JUMPDEST DUP7 SSTORE POP PUSH3 0xA8D JUMP JUMPDEST PUSH1 0x1F NOT DUP5 AND PUSH3 0xA36 DUP7 PUSH3 0x7D2 JUMP JUMPDEST PUSH1 0x0 JUMPDEST DUP3 DUP2 LT ISZERO PUSH3 0xA60 JUMPI DUP5 DUP10 ADD MLOAD DUP3 SSTORE PUSH1 0x1 DUP3 ADD SWAP2 POP PUSH1 0x20 DUP6 ADD SWAP5 POP PUSH1 0x20 DUP2 ADD SWAP1 POP PUSH3 0xA39 JUMP JUMPDEST DUP7 DUP4 LT ISZERO PUSH3 0xA80 JUMPI DUP5 DUP10 ADD MLOAD PUSH3 0xA7C PUSH1 0x1F DUP10 AND DUP3 PUSH3 0x970 JUMP JUMPDEST DUP4 SSTORE POP JUMPDEST PUSH1 0x1 PUSH1 0x2 DUP9 MUL ADD DUP9 SSTORE POP POP POP JUMPDEST POP POP POP POP POP POP JUMP JUMPDEST PUSH2 0x240 DUP1 PUSH3 0xAA5 PUSH1 0x0 CODECOPY PUSH1 0x0 RETURN INVALID PUSH1 0x80 PUSH1 0x40 MSTORE CALLVALUE DUP1 ISZERO PUSH2 0x10 JUMPI PUSH1 0x0 DUP1 REVERT JUMPDEST POP PUSH1 0x4 CALLDATASIZE LT PUSH2 0x36 JUMPI PUSH1 0x0 CALLDATALOAD PUSH1 0xE0 SHR DUP1 PUSH4 0x55F28564 EQ PUSH2 0x3B JUMPI DUP1 PUSH4 0xA13C53BE EQ PUSH2 0x57 JUMPI JUMPDEST PUSH1 0x0 DUP1 REVERT JUMPDEST PUSH2 0x55 PUSH1 0x4 DUP1 CALLDATASIZE SUB DUP2 ADD SWAP1 PUSH2 0x50 SWAP2 SWAP1 PUSH2 0x1B3 JUMP JUMPDEST PUSH2 0x73 JUMP JUMPDEST STOP JUMPDEST PUSH2 0x71 PUSH1 0x4 DUP1 CALLDATASIZE SUB DUP2 ADD SWAP1 PUSH2 0x6C SWAP2 SWAP1 PUSH2 0x1B3 JUMP JUMPDEST PUSH2 0xDC JUMP JUMPDEST STOP JUMPDEST PUSH1 0x0 PUSH1 0x3 ADD DUP2 SWAP1 DUP1 PUSH1 0x1 DUP2 SLOAD ADD DUP1 DUP3 SSTORE DUP1 SWAP2 POP POP PUSH1 0x1 SWAP1 SUB SWAP1 PUSH1 0x0 MSTORE PUSH1 0x20 PUSH1 0x0 KECCAK256 ADD PUSH1 0x0 SWAP1 SWAP2 SWAP1 SWAP2 SWAP1 SWAP2 PUSH2 0x100 EXP DUP2 SLOAD DUP2 PUSH20 0xFFFFFFFFFFFFFFFFFFFFFFFFFFFFFFFFFFFFFFFF MUL NOT AND SWAP1 DUP4 PUSH20 0xFFFFFFFFFFFFFFFFFFFFFFFFFFFFFFFFFFFFFFFF AND MUL OR SWAP1 SSTORE POP POP JUMP JUMPDEST PUSH1 0x0 DUP2 SWAP1 POP DUP1 PUSH20 0xFFFFFFFFFFFFFFFFFFFFFFFFFFFFFFFFFFFFFFFF AND PUSH4 0x55F28564 CALLER PUSH1 0x40 MLOAD DUP3 PUSH4 0xFFFFFFFF AND PUSH1 0xE0 SHL DUP2 MSTORE PUSH1 0x4 ADD PUSH2 0x11A SWAP2 SWAP1 PUSH2 0x1EF JUMP JUMPDEST PUSH1 0x0 PUSH1 0x40 MLOAD DUP1 DUP4 SUB DUP2 PUSH1 0x0 DUP8 DUP1 EXTCODESIZE ISZERO DUP1 ISZERO PUSH2 0x134 JUMPI PUSH1 0x0 DUP1 REVERT JUMPDEST POP GAS CALL ISZERO DUP1 ISZERO PUSH2 0x148 JUMPI RETURNDATASIZE PUSH1 0x0 DUP1 RETURNDATACOPY RETURNDATASIZE PUSH1 0x0 REVERT JUMPDEST POP POP POP POP POP POP JUMP JUMPDEST PUSH1 0x0 DUP1 REVERT JUMPDEST PUSH1 0x0 PUSH20 0xFFFFFFFFFFFFFFFFFFFFFFFFFFFFFFFFFFFFFFFF DUP3 AND SWAP1 POP SWAP2 SWAP1 POP JUMP JUMPDEST PUSH1 0x0 PUSH2 0x180 DUP3 PUSH2 0x155 JUMP JUMPDEST SWAP1 POP SWAP2 SWAP1 POP JUMP JUMPDEST PUSH2 0x190 DUP2 PUSH2 0x175 JUMP JUMPDEST DUP2 EQ PUSH2 0x19B JUMPI PUSH1 0x0 DUP1 REVERT JUMPDEST POP JUMP JUMPDEST PUSH1 0x0 DUP2 CALLDATALOAD SWAP1 POP PUSH2 0x1AD DUP2 PUSH2 0x187 JUMP JUMPDEST SWAP3 SWAP2 POP POP JUMP JUMPDEST PUSH1 0x0 PUSH1 0x20 DUP3 DUP5 SUB SLT ISZERO PUSH2 0x1C9 JUMPI PUSH2 0x1C8 PUSH2 0x150 JUMP JUMPDEST JUMPDEST PUSH1 0x0 PUSH2 0x1D7 DUP5 DUP3 DUP6 ADD PUSH2 0x19E JUMP JUMPDEST SWAP2 POP POP SWAP3 SWAP2 POP POP JUMP JUMPDEST PUSH2 0x1E9 DUP2 PUSH2 0x175 JUMP JUMPDEST DUP3 MSTORE POP POP JUMP JUMPDEST PUSH1 0x0 PUSH1 0x20 DUP3 ADD SWAP1 POP PUSH2 0x204 PUSH1 0x0 DUP4 ADD DUP5 PUSH2 0x1E0 JUMP JUMPDEST SWAP3 SWAP2 POP POP JUMP INVALID LOG2 PUSH5 0x6970667358 0x22 SLT KECCAK256 0x2A PUSH32 0xBDC2768E36C84AD0B6E97BCEE691DBE738CC0C6CA22FF9A2C13121FF34586473 PUSH16 0x6C634300081200330000000000000000 "
				},
				"gasEstimates": {
					"creation": {
						"codeDepositCost": "115200",
						"executionCost": "infinite",
						"totalCost": "infinite"
					},
					"external": {
						"cite(address)": "infinite",
						"updateCitedBy(address)": "49018"
					}
				},
				"methodIdentifiers": {
					"cite(address)": "a13c53be",
					"updateCitedBy(address)": "55f28564"
				}
			},
			"storageLayout": {
				"storage": [
					{
						"astId": 18,
						"contract": "contracts/Paper.sol:PaperContract",
						"label": "paper",
						"offset": 0,
						"slot": "0",
						"type": "t_struct(Paper)15_storage"
					}
				],
				"types": {
					"t_address": {
						"encoding": "inplace",
						"label": "address",
						"numberOfBytes": "20"
					},
					"t_array(t_address)dyn_storage": {
						"base": "t_address",
						"encoding": "dynamic_array",
						"label": "address[]",
						"numberOfBytes": "32"
					},
					"t_array(t_string_storage)dyn_storage": {
						"base": "t_string_storage",
						"encoding": "dynamic_array",
						"label": "string[]",
						"numberOfBytes": "32"
					},
					"t_string_storage": {
						"encoding": "bytes",
						"label": "string",
						"numberOfBytes": "32"
					},
					"t_struct(Paper)15_storage": {
						"encoding": "inplace",
						"label": "struct PaperContract.Paper",
						"members": [
							{
								"astId": 4,
								"contract": "contracts/Paper.sol:PaperContract",
								"label": "authors",
								"offset": 0,
								"slot": "0",
								"type": "t_array(t_string_storage)dyn_storage"
							},
							{
								"astId": 6,
								"contract": "contracts/Paper.sol:PaperContract",
								"label": "institution",
								"offset": 0,
								"slot": "1",
								"type": "t_string_storage"
							},
							{
								"astId": 9,
								"contract": "contracts/Paper.sol:PaperContract",
								"label": "citations",
								"offset": 0,
								"slot": "2",
								"type": "t_array(t_address)dyn_storage"
							},
							{
								"astId": 12,
								"contract": "contracts/Paper.sol:PaperContract",
								"label": "citedBy",
								"offset": 0,
								"slot": "3",
								"type": "t_array(t_address)dyn_storage"
							},
							{
								"astId": 14,
								"contract": "contracts/Paper.sol:PaperContract",
								"label": "category",
								"offset": 0,
								"slot": "4",
								"type": "t_string_storage"
							}
						],
						"numberOfBytes": "160"
					}
				}
			},
			"userdoc": {
				"kind": "user",
				"methods": {},
				"version": 1
			}
		}
	}
}