{
	"contracts/Publication.sol": {
		"Publication": {
			"abi": [
				{
					"inputs": [
						{
							"internalType": "string[]",
							"name": "_authors",
							"type": "string[]"
						},
						{
							"internalType": "string",
							"name": "_institution",
							"type": "string"
						},
						{
							"internalType": "address[]",
							"name": "_citations",
							"type": "address[]"
						},
						{
							"internalType": "address[]",
							"name": "_citedBy",
							"type": "address[]"
						},
						{
							"internalType": "string",
							"name": "_category",
							"type": "string"
						}
					],
					"stateMutability": "nonpayable",
					"type": "constructor"
				},
				{
					"inputs": [
						{
							"internalType": "address",
							"name": "_paper",
							"type": "address"
						}
					],
					"name": "cite",
					"outputs": [],
					"stateMutability": "nonpayable",
					"type": "function"
				},
				{
					"inputs": [
						{
							"internalType": "uint256",
							"name": "",
							"type": "uint256"
						}
					],
					"name": "citedBy",
					"outputs": [
						{
							"internalType": "address",
							"name": "",
							"type": "address"
						}
					],
					"stateMutability": "view",
					"type": "function"
				},
				{
					"inputs": [],
					"name": "paper",
					"outputs": [
						{
							"internalType": "string",
							"name": "institution",
							"type": "string"
						},
						{
							"internalType": "string",
							"name": "category",
							"type": "string"
						}
					],
					"stateMutability": "view",
					"type": "function"
				},
				{
					"inputs": [],
					"name": "revealData",
					"outputs": [
						{
							"internalType": "address[]",
							"name": "",
							"type": "address[]"
						}
					],
					"stateMutability": "view",
					"type": "function"
				},
				{
					"inputs": [
						{
							"internalType": "address",
							"name": "citingPaper",
							"type": "address"
						}
					],
					"name": "updateCitedBy",
					"outputs": [],
					"stateMutability": "nonpayable",
					"type": "function"
				}
			],
			"devdoc": {
				"kind": "dev",
				"methods": {},
				"version": 1
			},
			"evm": {
				"assembly": "    /* \"contracts/Publication.sol\":177:1278  contract Publication {... */\n  mstore(0x40, 0x80)\n    /* \"contracts/Publication.sol\":433:752  constructor(string[] memory _authors, string memory _institution, address[] memory _citations, address[] memory _citedBy, string memory _category) {... */\n  callvalue\n  dup1\n  iszero\n  tag_1\n  jumpi\n  0x00\n  dup1\n  revert\ntag_1:\n  pop\n  mload(0x40)\n  sub(codesize, bytecodeSize)\n  dup1\n  bytecodeSize\n  dup4\n  codecopy\n  dup2\n  dup2\n  add\n  0x40\n  mstore\n  dup2\n  add\n  swap1\n  tag_2\n  swap2\n  swap1\n  tag_3\n  jump\t// in\ntag_2:\n    /* \"contracts/Publication.sol\":599:715  Paper({authors: _authors, institution: _institution, citations: _citations, citedBy: _citedBy, category: _category}) */\n  mload(0x40)\n  dup1\n  0xa0\n  add\n  0x40\n  mstore\n  dup1\n    /* \"contracts/Publication.sol\":615:623  _authors */\n  dup7\n    /* \"contracts/Publication.sol\":599:715  Paper({authors: _authors, institution: _institution, citations: _citations, citedBy: _citedBy, category: _category}) */\n  dup2\n  mstore\n  0x20\n  add\n    /* \"contracts/Publication.sol\":638:650  _institution */\n  dup6\n    /* \"contracts/Publication.sol\":599:715  Paper({authors: _authors, institution: _institution, citations: _citations, citedBy: _citedBy, category: _category}) */\n  dup2\n  mstore\n  0x20\n  add\n    /* \"contracts/Publication.sol\":663:673  _citations */\n  dup5\n    /* \"contracts/Publication.sol\":599:715  Paper({authors: _authors, institution: _institution, citations: _citations, citedBy: _citedBy, category: _category}) */\n  dup2\n  mstore\n  0x20\n  add\n    /* \"contracts/Publication.sol\":684:692  _citedBy */\n  dup4\n    /* \"contracts/Publication.sol\":599:715  Paper({authors: _authors, institution: _institution, citations: _citations, citedBy: _citedBy, category: _category}) */\n  dup2\n  mstore\n  0x20\n  add\n    /* \"contracts/Publication.sol\":704:713  _category */\n  dup3\n    /* \"contracts/Publication.sol\":599:715  Paper({authors: _authors, institution: _institution, citations: _citations, citedBy: _citedBy, category: _category}) */\n  dup2\n  mstore\n  pop\n    /* \"contracts/Publication.sol\":591:596  paper */\n  0x00\n    /* \"contracts/Publication.sol\":591:715  paper = Paper({authors: _authors, institution: _institution, citations: _citations, citedBy: _citedBy, category: _category}) */\n  dup1\n  dup3\n  add\n  mload\n  dup2\n  0x00\n  add\n  swap1\n  dup1\n  mload\n  swap1\n  0x20\n  add\n  swap1\n  tag_6\n  swap3\n  swap2\n  swap1\n  tag_7\n  jump\t// in\ntag_6:\n  pop\n  0x20\n  dup3\n  add\n  mload\n  dup2\n  0x01\n  add\n  swap1\n  dup2\n  tag_8\n  swap2\n  swap1\n  tag_9\n  jump\t// in\ntag_8:\n  pop\n  0x40\n  dup3\n  add\n  mload\n  dup2\n  0x02\n  add\n  swap1\n  dup1\n  mload\n  swap1\n  0x20\n  add\n  swap1\n  tag_10\n  swap3\n  swap2\n  swap1\n  tag_11\n  jump\t// in\ntag_10:\n  pop\n  0x60\n  dup3\n  add\n  mload\n  dup2\n  0x03\n  add\n  swap1\n  dup1\n  mload\n  swap1\n  0x20\n  add\n  swap1\n  tag_12\n  swap3\n  swap2\n  swap1\n  tag_11\n  jump\t// in\ntag_12:\n  pop\n  0x80\n  dup3\n  add\n  mload\n  dup2\n  0x04\n  add\n  swap1\n  dup2\n  tag_13\n  swap2\n  swap1\n  tag_9\n  jump\t// in\ntag_13:\n  pop\n  swap1\n  pop\n  pop\n    /* \"contracts/Publication.sol\":736:744  _citedBy */\n  dup2\n    /* \"contracts/Publication.sol\":726:733  citedBy */\n  0x05\n    /* \"contracts/Publication.sol\":726:744  citedBy = _citedBy */\n  swap1\n  dup1\n  mload\n  swap1\n  0x20\n  add\n  swap1\n  tag_14\n  swap3\n  swap2\n  swap1\n  tag_11\n  jump\t// in\ntag_14:\n  pop\n    /* \"contracts/Publication.sol\":433:752  constructor(string[] memory _authors, string memory _institution, address[] memory _citations, address[] memory _citedBy, string memory _category) {... */\n  pop\n  pop\n  pop\n  pop\n  pop\n    /* \"contracts/Publication.sol\":177:1278  contract Publication {... */\n  jump(tag_15)\ntag_7:\n  dup3\n  dup1\n  sload\n  dup3\n  dup3\n  sstore\n  swap1\n  0x00\n  mstore\n  keccak256(0x00, 0x20)\n  swap1\n  dup2\n  add\n  swap3\n  dup3\n  iszero\n  tag_16\n  jumpi\n  swap2\n  0x20\n  mul\n  dup3\n  add\ntag_17:\n  dup3\n  dup2\n  gt\n  iszero\n  tag_18\n  jumpi\n  dup3\n  mload\n  dup3\n  swap1\n  dup2\n  tag_19\n  swap2\n  swap1\n  tag_9\n  jump\t// in\ntag_19:\n  pop\n  swap2\n  0x20\n  add\n  swap2\n  swap1\n  0x01\n  add\n  swap1\n  jump(tag_17)\ntag_18:\ntag_16:\n  pop\n  swap1\n  pop\n  tag_20\n  swap2\n  swap1\n  tag_21\n  jump\t// in\ntag_20:\n  pop\n  swap1\n  jump\t// out\ntag_11:\n  dup3\n  dup1\n  sload\n  dup3\n  dup3\n  sstore\n  swap1\n  0x00\n  mstore\n  keccak256(0x00, 0x20)\n  swap1\n  dup2\n  add\n  swap3\n  dup3\n  iszero\n  tag_22\n  jumpi\n  swap2\n  0x20\n  mul\n  dup3\n  add\ntag_23:\n  dup3\n  dup2\n  gt\n  iszero\n  tag_24\n  jumpi\n  dup3\n  mload\n  dup3\n  exp(0x0100, 0x00)\n  dup2\n  sload\n  dup2\n  0xffffffffffffffffffffffffffffffffffffffff\n  mul\n  not\n  and\n  swap1\n  dup4\n  0xffffffffffffffffffffffffffffffffffffffff\n  and\n  mul\n  or\n  swap1\n  sstore\n  pop\n  swap2\n  0x20\n  add\n  swap2\n  swap1\n  0x01\n  add\n  swap1\n  jump(tag_23)\ntag_24:\ntag_22:\n  pop\n  swap1\n  pop\n  tag_25\n  swap2\n  swap1\n  tag_26\n  jump\t// in\ntag_25:\n  pop\n  swap1\n  jump\t// out\ntag_21:\ntag_27:\n  dup1\n  dup3\n  gt\n  iszero\n  tag_28\n  jumpi\n  0x00\n  dup2\n  dup2\n  tag_29\n  swap2\n  swap1\n  tag_30\n  jump\t// in\ntag_29:\n  pop\n  0x01\n  add\n  jump(tag_27)\ntag_28:\n  pop\n  swap1\n  jump\t// out\ntag_26:\ntag_31:\n  dup1\n  dup3\n  gt\n  iszero\n  tag_32\n  jumpi\n  0x00\n  dup2\n  0x00\n  swap1\n  sstore\n  pop\n  0x01\n  add\n  jump(tag_31)\ntag_32:\n  pop\n  swap1\n  jump\t// out\ntag_30:\n  pop\n  dup1\n  sload\n  tag_33\n  swap1\n  tag_34\n  jump\t// in\ntag_33:\n  0x00\n  dup3\n  sstore\n  dup1\n  0x1f\n  lt\n  tag_36\n  jumpi\n  pop\n  jump(tag_35)\ntag_36:\n  0x1f\n  add\n  0x20\n  swap1\n  div\n  swap1\n  0x00\n  mstore\n  keccak256(0x00, 0x20)\n  swap1\n  dup2\n  add\n  swap1\n  tag_37\n  swap2\n  swap1\n  tag_26\n  jump\t// in\ntag_37:\ntag_35:\n  pop\n  jump\t// out\n    /* \"#utility.yul\":7:82   */\ntag_38:\n    /* \"#utility.yul\":40:46   */\n  0x00\n    /* \"#utility.yul\":73:75   */\n  0x40\n    /* \"#utility.yul\":67:76   */\n  mload\n    /* \"#utility.yul\":57:76   */\n  swap1\n  pop\n    /* \"#utility.yul\":7:82   */\n  swap1\n  jump\t// out\n    /* \"#utility.yul\":88:205   */\ntag_39:\n    /* \"#utility.yul\":197:198   */\n  0x00\n    /* \"#utility.yul\":194:195   */\n  dup1\n    /* \"#utility.yul\":187:199   */\n  revert\n    /* \"#utility.yul\":211:328   */\ntag_40:\n    /* \"#utility.yul\":320:321   */\n  0x00\n    /* \"#utility.yul\":317:318   */\n  dup1\n    /* \"#utility.yul\":310:322   */\n  revert\n    /* \"#utility.yul\":334:451   */\ntag_41:\n    /* \"#utility.yul\":443:444   */\n  0x00\n    /* \"#utility.yul\":440:441   */\n  dup1\n    /* \"#utility.yul\":433:445   */\n  revert\n    /* \"#utility.yul\":457:559   */\ntag_42:\n    /* \"#utility.yul\":498:504   */\n  0x00\n    /* \"#utility.yul\":549:551   */\n  0x1f\n    /* \"#utility.yul\":545:552   */\n  not\n    /* \"#utility.yul\":540:542   */\n  0x1f\n    /* \"#utility.yul\":533:538   */\n  dup4\n    /* \"#utility.yul\":529:543   */\n  add\n    /* \"#utility.yul\":525:553   */\n  and\n    /* \"#utility.yul\":515:553   */\n  swap1\n  pop\n    /* \"#utility.yul\":457:559   */\n  swap2\n  swap1\n  pop\n  jump\t// out\n    /* \"#utility.yul\":565:745   */\ntag_43:\n    /* \"#utility.yul\":613:690   */\n  0x4e487b7100000000000000000000000000000000000000000000000000000000\n    /* \"#utility.yul\":610:611   */\n  0x00\n    /* \"#utility.yul\":603:691   */\n  mstore\n    /* \"#utility.yul\":710:714   */\n  0x41\n    /* \"#utility.yul\":707:708   */\n  0x04\n    /* \"#utility.yul\":700:715   */\n  mstore\n    /* \"#utility.yul\":734:738   */\n  0x24\n    /* \"#utility.yul\":731:732   */\n  0x00\n    /* \"#utility.yul\":724:739   */\n  revert\n    /* \"#utility.yul\":751:1032   */\ntag_44:\n    /* \"#utility.yul\":834:861   */\n  tag_88\n    /* \"#utility.yul\":856:860   */\n  dup3\n    /* \"#utility.yul\":834:861   */\n  tag_42\n  jump\t// in\ntag_88:\n    /* \"#utility.yul\":826:832   */\n  dup2\n    /* \"#utility.yul\":822:862   */\n  add\n    /* \"#utility.yul\":964:970   */\n  dup2\n    /* \"#utility.yul\":952:962   */\n  dup2\n    /* \"#utility.yul\":949:971   */\n  lt\n    /* \"#utility.yul\":928:946   */\n  0xffffffffffffffff\n    /* \"#utility.yul\":916:926   */\n  dup3\n    /* \"#utility.yul\":913:947   */\n  gt\n    /* \"#utility.yul\":910:972   */\n  or\n    /* \"#utility.yul\":907:995   */\n  iszero\n  tag_89\n  jumpi\n    /* \"#utility.yul\":975:993   */\n  tag_90\n  tag_43\n  jump\t// in\ntag_90:\n    /* \"#utility.yul\":907:995   */\ntag_89:\n    /* \"#utility.yul\":1015:1025   */\n  dup1\n    /* \"#utility.yul\":1011:1013   */\n  0x40\n    /* \"#utility.yul\":1004:1026   */\n  mstore\n    /* \"#utility.yul\":794:1032   */\n  pop\n    /* \"#utility.yul\":751:1032   */\n  pop\n  pop\n  jump\t// out\n    /* \"#utility.yul\":1038:1167   */\ntag_45:\n    /* \"#utility.yul\":1072:1078   */\n  0x00\n    /* \"#utility.yul\":1099:1119   */\n  tag_92\n  tag_38\n  jump\t// in\ntag_92:\n    /* \"#utility.yul\":1089:1119   */\n  swap1\n  pop\n    /* \"#utility.yul\":1128:1161   */\n  tag_93\n    /* \"#utility.yul\":1156:1160   */\n  dup3\n    /* \"#utility.yul\":1148:1154   */\n  dup3\n    /* \"#utility.yul\":1128:1161   */\n  tag_44\n  jump\t// in\ntag_93:\n    /* \"#utility.yul\":1038:1167   */\n  swap2\n  swap1\n  pop\n  jump\t// out\n    /* \"#utility.yul\":1173:1494   */\ntag_46:\n    /* \"#utility.yul\":1260:1264   */\n  0x00\n    /* \"#utility.yul\":1350:1368   */\n  0xffffffffffffffff\n    /* \"#utility.yul\":1342:1348   */\n  dup3\n    /* \"#utility.yul\":1339:1369   */\n  gt\n    /* \"#utility.yul\":1336:1392   */\n  iszero\n  tag_95\n  jumpi\n    /* \"#utility.yul\":1372:1390   */\n  tag_96\n  tag_43\n  jump\t// in\ntag_96:\n    /* \"#utility.yul\":1336:1392   */\ntag_95:\n    /* \"#utility.yul\":1422:1426   */\n  0x20\n    /* \"#utility.yul\":1414:1420   */\n  dup3\n    /* \"#utility.yul\":1410:1427   */\n  mul\n    /* \"#utility.yul\":1402:1427   */\n  swap1\n  pop\n    /* \"#utility.yul\":1482:1486   */\n  0x20\n    /* \"#utility.yul\":1476:1480   */\n  dup2\n    /* \"#utility.yul\":1472:1487   */\n  add\n    /* \"#utility.yul\":1464:1487   */\n  swap1\n  pop\n    /* \"#utility.yul\":1173:1494   */\n  swap2\n  swap1\n  pop\n  jump\t// out\n    /* \"#utility.yul\":1500:1617   */\ntag_47:\n    /* \"#utility.yul\":1609:1610   */\n  0x00\n    /* \"#utility.yul\":1606:1607   */\n  dup1\n    /* \"#utility.yul\":1599:1611   */\n  revert\n    /* \"#utility.yul\":1623:1740   */\ntag_48:\n    /* \"#utility.yul\":1732:1733   */\n  0x00\n    /* \"#utility.yul\":1729:1730   */\n  dup1\n    /* \"#utility.yul\":1722:1734   */\n  revert\n    /* \"#utility.yul\":1746:2054   */\ntag_49:\n    /* \"#utility.yul\":1808:1812   */\n  0x00\n    /* \"#utility.yul\":1898:1916   */\n  0xffffffffffffffff\n    /* \"#utility.yul\":1890:1896   */\n  dup3\n    /* \"#utility.yul\":1887:1917   */\n  gt\n    /* \"#utility.yul\":1884:1940   */\n  iszero\n  tag_100\n  jumpi\n    /* \"#utility.yul\":1920:1938   */\n  tag_101\n  tag_43\n  jump\t// in\ntag_101:\n    /* \"#utility.yul\":1884:1940   */\ntag_100:\n    /* \"#utility.yul\":1958:1987   */\n  tag_102\n    /* \"#utility.yul\":1980:1986   */\n  dup3\n    /* \"#utility.yul\":1958:1987   */\n  tag_42\n  jump\t// in\ntag_102:\n    /* \"#utility.yul\":1950:1987   */\n  swap1\n  pop\n    /* \"#utility.yul\":2042:2046   */\n  0x20\n    /* \"#utility.yul\":2036:2040   */\n  dup2\n    /* \"#utility.yul\":2032:2047   */\n  add\n    /* \"#utility.yul\":2024:2047   */\n  swap1\n  pop\n    /* \"#utility.yul\":1746:2054   */\n  swap2\n  swap1\n  pop\n  jump\t// out\n    /* \"#utility.yul\":2060:2306   */\ntag_50:\n    /* \"#utility.yul\":2141:2142   */\n  0x00\n    /* \"#utility.yul\":2151:2264   */\ntag_104:\n    /* \"#utility.yul\":2165:2171   */\n  dup4\n    /* \"#utility.yul\":2162:2163   */\n  dup2\n    /* \"#utility.yul\":2159:2172   */\n  lt\n    /* \"#utility.yul\":2151:2264   */\n  iszero\n  tag_106\n  jumpi\n    /* \"#utility.yul\":2250:2251   */\n  dup1\n    /* \"#utility.yul\":2245:2248   */\n  dup3\n    /* \"#utility.yul\":2241:2252   */\n  add\n    /* \"#utility.yul\":2235:2253   */\n  mload\n    /* \"#utility.yul\":2231:2232   */\n  dup2\n    /* \"#utility.yul\":2226:2229   */\n  dup5\n    /* \"#utility.yul\":2222:2233   */\n  add\n    /* \"#utility.yul\":2215:2254   */\n  mstore\n    /* \"#utility.yul\":2187:2189   */\n  0x20\n    /* \"#utility.yul\":2184:2185   */\n  dup2\n    /* \"#utility.yul\":2180:2190   */\n  add\n    /* \"#utility.yul\":2175:2190   */\n  swap1\n  pop\n    /* \"#utility.yul\":2151:2264   */\n  jump(tag_104)\ntag_106:\n    /* \"#utility.yul\":2298:2299   */\n  0x00\n    /* \"#utility.yul\":2289:2295   */\n  dup5\n    /* \"#utility.yul\":2284:2287   */\n  dup5\n    /* \"#utility.yul\":2280:2296   */\n  add\n    /* \"#utility.yul\":2273:2300   */\n  mstore\n    /* \"#utility.yul\":2122:2306   */\n  pop\n    /* \"#utility.yul\":2060:2306   */\n  pop\n  pop\n  pop\n  jump\t// out\n    /* \"#utility.yul\":2312:2746   */\ntag_51:\n    /* \"#utility.yul\":2401:2406   */\n  0x00\n    /* \"#utility.yul\":2426:2492   */\n  tag_108\n    /* \"#utility.yul\":2442:2491   */\n  tag_109\n    /* \"#utility.yul\":2484:2490   */\n  dup5\n    /* \"#utility.yul\":2442:2491   */\n  tag_49\n  jump\t// in\ntag_109:\n    /* \"#utility.yul\":2426:2492   */\n  tag_45\n  jump\t// in\ntag_108:\n    /* \"#utility.yul\":2417:2492   */\n  swap1\n  pop\n    /* \"#utility.yul\":2515:2521   */\n  dup3\n    /* \"#utility.yul\":2508:2513   */\n  dup2\n    /* \"#utility.yul\":2501:2522   */\n  mstore\n    /* \"#utility.yul\":2553:2557   */\n  0x20\n    /* \"#utility.yul\":2546:2551   */\n  dup2\n    /* \"#utility.yul\":2542:2558   */\n  add\n    /* \"#utility.yul\":2591:2594   */\n  dup5\n    /* \"#utility.yul\":2582:2588   */\n  dup5\n    /* \"#utility.yul\":2577:2580   */\n  dup5\n    /* \"#utility.yul\":2573:2589   */\n  add\n    /* \"#utility.yul\":2570:2595   */\n  gt\n    /* \"#utility.yul\":2567:2679   */\n  iszero\n  tag_110\n  jumpi\n    /* \"#utility.yul\":2598:2677   */\n  tag_111\n  tag_48\n  jump\t// in\ntag_111:\n    /* \"#utility.yul\":2567:2679   */\ntag_110:\n    /* \"#utility.yul\":2688:2740   */\n  tag_112\n    /* \"#utility.yul\":2733:2739   */\n  dup5\n    /* \"#utility.yul\":2728:2731   */\n  dup3\n    /* \"#utility.yul\":2723:2726   */\n  dup6\n    /* \"#utility.yul\":2688:2740   */\n  tag_50\n  jump\t// in\ntag_112:\n    /* \"#utility.yul\":2407:2746   */\n  pop\n    /* \"#utility.yul\":2312:2746   */\n  swap4\n  swap3\n  pop\n  pop\n  pop\n  jump\t// out\n    /* \"#utility.yul\":2766:3121   */\ntag_52:\n    /* \"#utility.yul\":2833:2838   */\n  0x00\n    /* \"#utility.yul\":2882:2885   */\n  dup3\n    /* \"#utility.yul\":2875:2879   */\n  0x1f\n    /* \"#utility.yul\":2867:2873   */\n  dup4\n    /* \"#utility.yul\":2863:2880   */\n  add\n    /* \"#utility.yul\":2859:2886   */\n  slt\n    /* \"#utility.yul\":2849:2971   */\n  tag_114\n  jumpi\n    /* \"#utility.yul\":2890:2969   */\n  tag_115\n  tag_41\n  jump\t// in\ntag_115:\n    /* \"#utility.yul\":2849:2971   */\ntag_114:\n    /* \"#utility.yul\":3000:3006   */\n  dup2\n    /* \"#utility.yul\":2994:3007   */\n  mload\n    /* \"#utility.yul\":3025:3115   */\n  tag_116\n    /* \"#utility.yul\":3111:3114   */\n  dup5\n    /* \"#utility.yul\":3103:3109   */\n  dup3\n    /* \"#utility.yul\":3096:3100   */\n  0x20\n    /* \"#utility.yul\":3088:3094   */\n  dup7\n    /* \"#utility.yul\":3084:3101   */\n  add\n    /* \"#utility.yul\":3025:3115   */\n  tag_51\n  jump\t// in\ntag_116:\n    /* \"#utility.yul\":3016:3115   */\n  swap2\n  pop\n    /* \"#utility.yul\":2839:3121   */\n  pop\n    /* \"#utility.yul\":2766:3121   */\n  swap3\n  swap2\n  pop\n  pop\n  jump\t// out\n    /* \"#utility.yul\":3143:4103   */\ntag_53:\n    /* \"#utility.yul\":3260:3265   */\n  0x00\n    /* \"#utility.yul\":3285:3376   */\n  tag_118\n    /* \"#utility.yul\":3301:3375   */\n  tag_119\n    /* \"#utility.yul\":3368:3374   */\n  dup5\n    /* \"#utility.yul\":3301:3375   */\n  tag_46\n  jump\t// in\ntag_119:\n    /* \"#utility.yul\":3285:3376   */\n  tag_45\n  jump\t// in\ntag_118:\n    /* \"#utility.yul\":3276:3376   */\n  swap1\n  pop\n    /* \"#utility.yul\":3396:3401   */\n  dup1\n    /* \"#utility.yul\":3425:3431   */\n  dup4\n    /* \"#utility.yul\":3418:3423   */\n  dup3\n    /* \"#utility.yul\":3411:3432   */\n  mstore\n    /* \"#utility.yul\":3459:3463   */\n  0x20\n    /* \"#utility.yul\":3452:3457   */\n  dup3\n    /* \"#utility.yul\":3448:3464   */\n  add\n    /* \"#utility.yul\":3441:3464   */\n  swap1\n  pop\n    /* \"#utility.yul\":3512:3516   */\n  0x20\n    /* \"#utility.yul\":3504:3510   */\n  dup5\n    /* \"#utility.yul\":3500:3517   */\n  mul\n    /* \"#utility.yul\":3492:3498   */\n  dup4\n    /* \"#utility.yul\":3488:3518   */\n  add\n    /* \"#utility.yul\":3541:3544   */\n  dup6\n    /* \"#utility.yul\":3533:3539   */\n  dup2\n    /* \"#utility.yul\":3530:3545   */\n  gt\n    /* \"#utility.yul\":3527:3649   */\n  iszero\n  tag_120\n  jumpi\n    /* \"#utility.yul\":3560:3639   */\n  tag_121\n  tag_47\n  jump\t// in\ntag_121:\n    /* \"#utility.yul\":3527:3649   */\ntag_120:\n    /* \"#utility.yul\":3675:3681   */\n  dup4\n    /* \"#utility.yul\":3658:4097   */\ntag_122:\n    /* \"#utility.yul\":3692:3698   */\n  dup2\n    /* \"#utility.yul\":3687:3690   */\n  dup2\n    /* \"#utility.yul\":3684:3699   */\n  lt\n    /* \"#utility.yul\":3658:4097   */\n  iszero\n  tag_124\n  jumpi\n    /* \"#utility.yul\":3774:3777   */\n  dup1\n    /* \"#utility.yul\":3768:3778   */\n  mload\n    /* \"#utility.yul\":3810:3828   */\n  0xffffffffffffffff\n    /* \"#utility.yul\":3797:3808   */\n  dup2\n    /* \"#utility.yul\":3794:3829   */\n  gt\n    /* \"#utility.yul\":3791:3913   */\n  iszero\n  tag_125\n  jumpi\n    /* \"#utility.yul\":3832:3911   */\n  tag_126\n  tag_41\n  jump\t// in\ntag_126:\n    /* \"#utility.yul\":3791:3913   */\ntag_125:\n    /* \"#utility.yul\":3956:3967   */\n  dup1\n    /* \"#utility.yul\":3948:3954   */\n  dup7\n    /* \"#utility.yul\":3944:3968   */\n  add\n    /* \"#utility.yul\":3994:4052   */\n  tag_127\n    /* \"#utility.yul\":4048:4051   */\n  dup10\n    /* \"#utility.yul\":4036:4046   */\n  dup3\n    /* \"#utility.yul\":3994:4052   */\n  tag_52\n  jump\t// in\ntag_127:\n    /* \"#utility.yul\":3989:3992   */\n  dup6\n    /* \"#utility.yul\":3982:4053   */\n  mstore\n    /* \"#utility.yul\":4082:4086   */\n  0x20\n    /* \"#utility.yul\":4077:4080   */\n  dup6\n    /* \"#utility.yul\":4073:4087   */\n  add\n    /* \"#utility.yul\":4066:4087   */\n  swap5\n  pop\n    /* \"#utility.yul\":3734:4097   */\n  pop\n  pop\n    /* \"#utility.yul\":3718:3722   */\n  0x20\n    /* \"#utility.yul\":3713:3716   */\n  dup2\n    /* \"#utility.yul\":3709:3723   */\n  add\n    /* \"#utility.yul\":3702:3723   */\n  swap1\n  pop\n    /* \"#utility.yul\":3658:4097   */\n  jump(tag_122)\ntag_124:\n    /* \"#utility.yul\":3662:3683   */\n  pop\n    /* \"#utility.yul\":3266:4103   */\n  pop\n  pop\n    /* \"#utility.yul\":3143:4103   */\n  swap4\n  swap3\n  pop\n  pop\n  pop\n  jump\t// out\n    /* \"#utility.yul\":4125:4530   */\ntag_54:\n    /* \"#utility.yul\":4217:4222   */\n  0x00\n    /* \"#utility.yul\":4266:4269   */\n  dup3\n    /* \"#utility.yul\":4259:4263   */\n  0x1f\n    /* \"#utility.yul\":4251:4257   */\n  dup4\n    /* \"#utility.yul\":4247:4264   */\n  add\n    /* \"#utility.yul\":4243:4270   */\n  slt\n    /* \"#utility.yul\":4233:4355   */\n  tag_129\n  jumpi\n    /* \"#utility.yul\":4274:4353   */\n  tag_130\n  tag_41\n  jump\t// in\ntag_130:\n    /* \"#utility.yul\":4233:4355   */\ntag_129:\n    /* \"#utility.yul\":4384:4390   */\n  dup2\n    /* \"#utility.yul\":4378:4391   */\n  mload\n    /* \"#utility.yul\":4409:4524   */\n  tag_131\n    /* \"#utility.yul\":4520:4523   */\n  dup5\n    /* \"#utility.yul\":4512:4518   */\n  dup3\n    /* \"#utility.yul\":4505:4509   */\n  0x20\n    /* \"#utility.yul\":4497:4503   */\n  dup7\n    /* \"#utility.yul\":4493:4510   */\n  add\n    /* \"#utility.yul\":4409:4524   */\n  tag_53\n  jump\t// in\ntag_131:\n    /* \"#utility.yul\":4400:4524   */\n  swap2\n  pop\n    /* \"#utility.yul\":4223:4530   */\n  pop\n    /* \"#utility.yul\":4125:4530   */\n  swap3\n  swap2\n  pop\n  pop\n  jump\t// out\n    /* \"#utility.yul\":4536:4847   */\ntag_55:\n    /* \"#utility.yul\":4613:4617   */\n  0x00\n    /* \"#utility.yul\":4703:4721   */\n  0xffffffffffffffff\n    /* \"#utility.yul\":4695:4701   */\n  dup3\n    /* \"#utility.yul\":4692:4722   */\n  gt\n    /* \"#utility.yul\":4689:4745   */\n  iszero\n  tag_133\n  jumpi\n    /* \"#utility.yul\":4725:4743   */\n  tag_134\n  tag_43\n  jump\t// in\ntag_134:\n    /* \"#utility.yul\":4689:4745   */\ntag_133:\n    /* \"#utility.yul\":4775:4779   */\n  0x20\n    /* \"#utility.yul\":4767:4773   */\n  dup3\n    /* \"#utility.yul\":4763:4780   */\n  mul\n    /* \"#utility.yul\":4755:4780   */\n  swap1\n  pop\n    /* \"#utility.yul\":4835:4839   */\n  0x20\n    /* \"#utility.yul\":4829:4833   */\n  dup2\n    /* \"#utility.yul\":4825:4840   */\n  add\n    /* \"#utility.yul\":4817:4840   */\n  swap1\n  pop\n    /* \"#utility.yul\":4536:4847   */\n  swap2\n  swap1\n  pop\n  jump\t// out\n    /* \"#utility.yul\":4853:4979   */\ntag_56:\n    /* \"#utility.yul\":4890:4897   */\n  0x00\n    /* \"#utility.yul\":4930:4972   */\n  0xffffffffffffffffffffffffffffffffffffffff\n    /* \"#utility.yul\":4923:4928   */\n  dup3\n    /* \"#utility.yul\":4919:4973   */\n  and\n    /* \"#utility.yul\":4908:4973   */\n  swap1\n  pop\n    /* \"#utility.yul\":4853:4979   */\n  swap2\n  swap1\n  pop\n  jump\t// out\n    /* \"#utility.yul\":4985:5081   */\ntag_57:\n    /* \"#utility.yul\":5022:5029   */\n  0x00\n    /* \"#utility.yul\":5051:5075   */\n  tag_137\n    /* \"#utility.yul\":5069:5074   */\n  dup3\n    /* \"#utility.yul\":5051:5075   */\n  tag_56\n  jump\t// in\ntag_137:\n    /* \"#utility.yul\":5040:5075   */\n  swap1\n  pop\n    /* \"#utility.yul\":4985:5081   */\n  swap2\n  swap1\n  pop\n  jump\t// out\n    /* \"#utility.yul\":5087:5209   */\ntag_58:\n    /* \"#utility.yul\":5160:5184   */\n  tag_139\n    /* \"#utility.yul\":5178:5183   */\n  dup2\n    /* \"#utility.yul\":5160:5184   */\n  tag_57\n  jump\t// in\ntag_139:\n    /* \"#utility.yul\":5153:5158   */\n  dup2\n    /* \"#utility.yul\":5150:5185   */\n  eq\n    /* \"#utility.yul\":5140:5203   */\n  tag_140\n  jumpi\n    /* \"#utility.yul\":5199:5200   */\n  0x00\n    /* \"#utility.yul\":5196:5197   */\n  dup1\n    /* \"#utility.yul\":5189:5201   */\n  revert\n    /* \"#utility.yul\":5140:5203   */\ntag_140:\n    /* \"#utility.yul\":5087:5209   */\n  pop\n  jump\t// out\n    /* \"#utility.yul\":5215:5358   */\ntag_59:\n    /* \"#utility.yul\":5272:5277   */\n  0x00\n    /* \"#utility.yul\":5303:5309   */\n  dup2\n    /* \"#utility.yul\":5297:5310   */\n  mload\n    /* \"#utility.yul\":5288:5310   */\n  swap1\n  pop\n    /* \"#utility.yul\":5319:5352   */\n  tag_142\n    /* \"#utility.yul\":5346:5351   */\n  dup2\n    /* \"#utility.yul\":5319:5352   */\n  tag_58\n  jump\t// in\ntag_142:\n    /* \"#utility.yul\":5215:5358   */\n  swap3\n  swap2\n  pop\n  pop\n  jump\t// out\n    /* \"#utility.yul\":5381:6113   */\ntag_60:\n    /* \"#utility.yul\":5488:5493   */\n  0x00\n    /* \"#utility.yul\":5513:5594   */\n  tag_144\n    /* \"#utility.yul\":5529:5593   */\n  tag_145\n    /* \"#utility.yul\":5586:5592   */\n  dup5\n    /* \"#utility.yul\":5529:5593   */\n  tag_55\n  jump\t// in\ntag_145:\n    /* \"#utility.yul\":5513:5594   */\n  tag_45\n  jump\t// in\ntag_144:\n    /* \"#utility.yul\":5504:5594   */\n  swap1\n  pop\n    /* \"#utility.yul\":5614:5619   */\n  dup1\n    /* \"#utility.yul\":5643:5649   */\n  dup4\n    /* \"#utility.yul\":5636:5641   */\n  dup3\n    /* \"#utility.yul\":5629:5650   */\n  mstore\n    /* \"#utility.yul\":5677:5681   */\n  0x20\n    /* \"#utility.yul\":5670:5675   */\n  dup3\n    /* \"#utility.yul\":5666:5682   */\n  add\n    /* \"#utility.yul\":5659:5682   */\n  swap1\n  pop\n    /* \"#utility.yul\":5730:5734   */\n  0x20\n    /* \"#utility.yul\":5722:5728   */\n  dup5\n    /* \"#utility.yul\":5718:5735   */\n  mul\n    /* \"#utility.yul\":5710:5716   */\n  dup4\n    /* \"#utility.yul\":5706:5736   */\n  add\n    /* \"#utility.yul\":5759:5762   */\n  dup6\n    /* \"#utility.yul\":5751:5757   */\n  dup2\n    /* \"#utility.yul\":5748:5763   */\n  gt\n    /* \"#utility.yul\":5745:5867   */\n  iszero\n  tag_146\n  jumpi\n    /* \"#utility.yul\":5778:5857   */\n  tag_147\n  tag_47\n  jump\t// in\ntag_147:\n    /* \"#utility.yul\":5745:5867   */\ntag_146:\n    /* \"#utility.yul\":5893:5899   */\n  dup4\n    /* \"#utility.yul\":5876:6107   */\ntag_148:\n    /* \"#utility.yul\":5910:5916   */\n  dup2\n    /* \"#utility.yul\":5905:5908   */\n  dup2\n    /* \"#utility.yul\":5902:5917   */\n  lt\n    /* \"#utility.yul\":5876:6107   */\n  iszero\n  tag_150\n  jumpi\n    /* \"#utility.yul\":5985:5988   */\n  dup1\n    /* \"#utility.yul\":6014:6062   */\n  tag_151\n    /* \"#utility.yul\":6058:6061   */\n  dup9\n    /* \"#utility.yul\":6046:6056   */\n  dup3\n    /* \"#utility.yul\":6014:6062   */\n  tag_59\n  jump\t// in\ntag_151:\n    /* \"#utility.yul\":6009:6012   */\n  dup5\n    /* \"#utility.yul\":6002:6063   */\n  mstore\n    /* \"#utility.yul\":6092:6096   */\n  0x20\n    /* \"#utility.yul\":6087:6090   */\n  dup5\n    /* \"#utility.yul\":6083:6097   */\n  add\n    /* \"#utility.yul\":6076:6097   */\n  swap4\n  pop\n    /* \"#utility.yul\":5952:6107   */\n  pop\n    /* \"#utility.yul\":5936:5940   */\n  0x20\n    /* \"#utility.yul\":5931:5934   */\n  dup2\n    /* \"#utility.yul\":5927:5941   */\n  add\n    /* \"#utility.yul\":5920:5941   */\n  swap1\n  pop\n    /* \"#utility.yul\":5876:6107   */\n  jump(tag_148)\ntag_150:\n    /* \"#utility.yul\":5880:5901   */\n  pop\n    /* \"#utility.yul\":5494:6113   */\n  pop\n  pop\n    /* \"#utility.yul\":5381:6113   */\n  swap4\n  swap3\n  pop\n  pop\n  pop\n  jump\t// out\n    /* \"#utility.yul\":6136:6521   */\ntag_61:\n    /* \"#utility.yul\":6218:6223   */\n  0x00\n    /* \"#utility.yul\":6267:6270   */\n  dup3\n    /* \"#utility.yul\":6260:6264   */\n  0x1f\n    /* \"#utility.yul\":6252:6258   */\n  dup4\n    /* \"#utility.yul\":6248:6265   */\n  add\n    /* \"#utility.yul\":6244:6271   */\n  slt\n    /* \"#utility.yul\":6234:6356   */\n  tag_153\n  jumpi\n    /* \"#utility.yul\":6275:6354   */\n  tag_154\n  tag_41\n  jump\t// in\ntag_154:\n    /* \"#utility.yul\":6234:6356   */\ntag_153:\n    /* \"#utility.yul\":6385:6391   */\n  dup2\n    /* \"#utility.yul\":6379:6392   */\n  mload\n    /* \"#utility.yul\":6410:6515   */\n  tag_155\n    /* \"#utility.yul\":6511:6514   */\n  dup5\n    /* \"#utility.yul\":6503:6509   */\n  dup3\n    /* \"#utility.yul\":6496:6500   */\n  0x20\n    /* \"#utility.yul\":6488:6494   */\n  dup7\n    /* \"#utility.yul\":6484:6501   */\n  add\n    /* \"#utility.yul\":6410:6515   */\n  tag_60\n  jump\t// in\ntag_155:\n    /* \"#utility.yul\":6401:6515   */\n  swap2\n  pop\n    /* \"#utility.yul\":6224:6521   */\n  pop\n    /* \"#utility.yul\":6136:6521   */\n  swap3\n  swap2\n  pop\n  pop\n  jump\t// out\n    /* \"#utility.yul\":6527:8479   */\ntag_3:\n    /* \"#utility.yul\":6738:6744   */\n  0x00\n    /* \"#utility.yul\":6746:6752   */\n  dup1\n    /* \"#utility.yul\":6754:6760   */\n  0x00\n    /* \"#utility.yul\":6762:6768   */\n  dup1\n    /* \"#utility.yul\":6770:6776   */\n  0x00\n    /* \"#utility.yul\":6819:6822   */\n  0xa0\n    /* \"#utility.yul\":6807:6816   */\n  dup7\n    /* \"#utility.yul\":6798:6805   */\n  dup9\n    /* \"#utility.yul\":6794:6817   */\n  sub\n    /* \"#utility.yul\":6790:6823   */\n  slt\n    /* \"#utility.yul\":6787:6907   */\n  iszero\n  tag_157\n  jumpi\n    /* \"#utility.yul\":6826:6905   */\n  tag_158\n  tag_39\n  jump\t// in\ntag_158:\n    /* \"#utility.yul\":6787:6907   */\ntag_157:\n    /* \"#utility.yul\":6967:6968   */\n  0x00\n    /* \"#utility.yul\":6956:6965   */\n  dup7\n    /* \"#utility.yul\":6952:6969   */\n  add\n    /* \"#utility.yul\":6946:6970   */\n  mload\n    /* \"#utility.yul\":6997:7015   */\n  0xffffffffffffffff\n    /* \"#utility.yul\":6989:6995   */\n  dup2\n    /* \"#utility.yul\":6986:7016   */\n  gt\n    /* \"#utility.yul\":6983:7100   */\n  iszero\n  tag_159\n  jumpi\n    /* \"#utility.yul\":7019:7098   */\n  tag_160\n  tag_40\n  jump\t// in\ntag_160:\n    /* \"#utility.yul\":6983:7100   */\ntag_159:\n    /* \"#utility.yul\":7124:7223   */\n  tag_161\n    /* \"#utility.yul\":7215:7222   */\n  dup9\n    /* \"#utility.yul\":7206:7212   */\n  dup3\n    /* \"#utility.yul\":7195:7204   */\n  dup10\n    /* \"#utility.yul\":7191:7213   */\n  add\n    /* \"#utility.yul\":7124:7223   */\n  tag_54\n  jump\t// in\ntag_161:\n    /* \"#utility.yul\":7114:7223   */\n  swap6\n  pop\n    /* \"#utility.yul\":6917:7233   */\n  pop\n    /* \"#utility.yul\":7293:7295   */\n  0x20\n    /* \"#utility.yul\":7282:7291   */\n  dup7\n    /* \"#utility.yul\":7278:7296   */\n  add\n    /* \"#utility.yul\":7272:7297   */\n  mload\n    /* \"#utility.yul\":7324:7342   */\n  0xffffffffffffffff\n    /* \"#utility.yul\":7316:7322   */\n  dup2\n    /* \"#utility.yul\":7313:7343   */\n  gt\n    /* \"#utility.yul\":7310:7427   */\n  iszero\n  tag_162\n  jumpi\n    /* \"#utility.yul\":7346:7425   */\n  tag_163\n  tag_40\n  jump\t// in\ntag_163:\n    /* \"#utility.yul\":7310:7427   */\ntag_162:\n    /* \"#utility.yul\":7451:7525   */\n  tag_164\n    /* \"#utility.yul\":7517:7524   */\n  dup9\n    /* \"#utility.yul\":7508:7514   */\n  dup3\n    /* \"#utility.yul\":7497:7506   */\n  dup10\n    /* \"#utility.yul\":7493:7515   */\n  add\n    /* \"#utility.yul\":7451:7525   */\n  tag_52\n  jump\t// in\ntag_164:\n    /* \"#utility.yul\":7441:7525   */\n  swap5\n  pop\n    /* \"#utility.yul\":7243:7535   */\n  pop\n    /* \"#utility.yul\":7595:7597   */\n  0x40\n    /* \"#utility.yul\":7584:7593   */\n  dup7\n    /* \"#utility.yul\":7580:7598   */\n  add\n    /* \"#utility.yul\":7574:7599   */\n  mload\n    /* \"#utility.yul\":7626:7644   */\n  0xffffffffffffffff\n    /* \"#utility.yul\":7618:7624   */\n  dup2\n    /* \"#utility.yul\":7615:7645   */\n  gt\n    /* \"#utility.yul\":7612:7729   */\n  iszero\n  tag_165\n  jumpi\n    /* \"#utility.yul\":7648:7727   */\n  tag_166\n  tag_40\n  jump\t// in\ntag_166:\n    /* \"#utility.yul\":7612:7729   */\ntag_165:\n    /* \"#utility.yul\":7753:7842   */\n  tag_167\n    /* \"#utility.yul\":7834:7841   */\n  dup9\n    /* \"#utility.yul\":7825:7831   */\n  dup3\n    /* \"#utility.yul\":7814:7823   */\n  dup10\n    /* \"#utility.yul\":7810:7832   */\n  add\n    /* \"#utility.yul\":7753:7842   */\n  tag_61\n  jump\t// in\ntag_167:\n    /* \"#utility.yul\":7743:7842   */\n  swap4\n  pop\n    /* \"#utility.yul\":7545:7852   */\n  pop\n    /* \"#utility.yul\":7912:7914   */\n  0x60\n    /* \"#utility.yul\":7901:7910   */\n  dup7\n    /* \"#utility.yul\":7897:7915   */\n  add\n    /* \"#utility.yul\":7891:7916   */\n  mload\n    /* \"#utility.yul\":7943:7961   */\n  0xffffffffffffffff\n    /* \"#utility.yul\":7935:7941   */\n  dup2\n    /* \"#utility.yul\":7932:7962   */\n  gt\n    /* \"#utility.yul\":7929:8046   */\n  iszero\n  tag_168\n  jumpi\n    /* \"#utility.yul\":7965:8044   */\n  tag_169\n  tag_40\n  jump\t// in\ntag_169:\n    /* \"#utility.yul\":7929:8046   */\ntag_168:\n    /* \"#utility.yul\":8070:8159   */\n  tag_170\n    /* \"#utility.yul\":8151:8158   */\n  dup9\n    /* \"#utility.yul\":8142:8148   */\n  dup3\n    /* \"#utility.yul\":8131:8140   */\n  dup10\n    /* \"#utility.yul\":8127:8149   */\n  add\n    /* \"#utility.yul\":8070:8159   */\n  tag_61\n  jump\t// in\ntag_170:\n    /* \"#utility.yul\":8060:8159   */\n  swap3\n  pop\n    /* \"#utility.yul\":7862:8169   */\n  pop\n    /* \"#utility.yul\":8229:8232   */\n  0x80\n    /* \"#utility.yul\":8218:8227   */\n  dup7\n    /* \"#utility.yul\":8214:8233   */\n  add\n    /* \"#utility.yul\":8208:8234   */\n  mload\n    /* \"#utility.yul\":8261:8279   */\n  0xffffffffffffffff\n    /* \"#utility.yul\":8253:8259   */\n  dup2\n    /* \"#utility.yul\":8250:8280   */\n  gt\n    /* \"#utility.yul\":8247:8364   */\n  iszero\n  tag_171\n  jumpi\n    /* \"#utility.yul\":8283:8362   */\n  tag_172\n  tag_40\n  jump\t// in\ntag_172:\n    /* \"#utility.yul\":8247:8364   */\ntag_171:\n    /* \"#utility.yul\":8388:8462   */\n  tag_173\n    /* \"#utility.yul\":8454:8461   */\n  dup9\n    /* \"#utility.yul\":8445:8451   */\n  dup3\n    /* \"#utility.yul\":8434:8443   */\n  dup10\n    /* \"#utility.yul\":8430:8452   */\n  add\n    /* \"#utility.yul\":8388:8462   */\n  tag_52\n  jump\t// in\ntag_173:\n    /* \"#utility.yul\":8378:8462   */\n  swap2\n  pop\n    /* \"#utility.yul\":8179:8472   */\n  pop\n    /* \"#utility.yul\":6527:8479   */\n  swap3\n  swap6\n  pop\n  swap3\n  swap6\n  swap1\n  swap4\n  pop\n  jump\t// out\n    /* \"#utility.yul\":8485:8584   */\ntag_62:\n    /* \"#utility.yul\":8537:8543   */\n  0x00\n    /* \"#utility.yul\":8571:8576   */\n  dup2\n    /* \"#utility.yul\":8565:8577   */\n  mload\n    /* \"#utility.yul\":8555:8577   */\n  swap1\n  pop\n    /* \"#utility.yul\":8485:8584   */\n  swap2\n  swap1\n  pop\n  jump\t// out\n    /* \"#utility.yul\":8590:8770   */\ntag_63:\n    /* \"#utility.yul\":8638:8715   */\n  0x4e487b7100000000000000000000000000000000000000000000000000000000\n    /* \"#utility.yul\":8635:8636   */\n  0x00\n    /* \"#utility.yul\":8628:8716   */\n  mstore\n    /* \"#utility.yul\":8735:8739   */\n  0x22\n    /* \"#utility.yul\":8732:8733   */\n  0x04\n    /* \"#utility.yul\":8725:8740   */\n  mstore\n    /* \"#utility.yul\":8759:8763   */\n  0x24\n    /* \"#utility.yul\":8756:8757   */\n  0x00\n    /* \"#utility.yul\":8749:8764   */\n  revert\n    /* \"#utility.yul\":8776:9096   */\ntag_34:\n    /* \"#utility.yul\":8820:8826   */\n  0x00\n    /* \"#utility.yul\":8857:8858   */\n  0x02\n    /* \"#utility.yul\":8851:8855   */\n  dup3\n    /* \"#utility.yul\":8847:8859   */\n  div\n    /* \"#utility.yul\":8837:8859   */\n  swap1\n  pop\n    /* \"#utility.yul\":8904:8905   */\n  0x01\n    /* \"#utility.yul\":8898:8902   */\n  dup3\n    /* \"#utility.yul\":8894:8906   */\n  and\n    /* \"#utility.yul\":8925:8943   */\n  dup1\n    /* \"#utility.yul\":8915:8996   */\n  tag_177\n  jumpi\n    /* \"#utility.yul\":8981:8985   */\n  0x7f\n    /* \"#utility.yul\":8973:8979   */\n  dup3\n    /* \"#utility.yul\":8969:8986   */\n  and\n    /* \"#utility.yul\":8959:8986   */\n  swap2\n  pop\n    /* \"#utility.yul\":8915:8996   */\ntag_177:\n    /* \"#utility.yul\":9043:9045   */\n  0x20\n    /* \"#utility.yul\":9035:9041   */\n  dup3\n    /* \"#utility.yul\":9032:9046   */\n  lt\n    /* \"#utility.yul\":9012:9030   */\n  dup2\n    /* \"#utility.yul\":9009:9047   */\n  sub\n    /* \"#utility.yul\":9006:9090   */\n  tag_178\n  jumpi\n    /* \"#utility.yul\":9062:9080   */\n  tag_179\n  tag_63\n  jump\t// in\ntag_179:\n    /* \"#utility.yul\":9006:9090   */\ntag_178:\n    /* \"#utility.yul\":8827:9096   */\n  pop\n    /* \"#utility.yul\":8776:9096   */\n  swap2\n  swap1\n  pop\n  jump\t// out\n    /* \"#utility.yul\":9102:9243   */\ntag_64:\n    /* \"#utility.yul\":9151:9155   */\n  0x00\n    /* \"#utility.yul\":9174:9177   */\n  dup2\n    /* \"#utility.yul\":9166:9177   */\n  swap1\n  pop\n    /* \"#utility.yul\":9197:9200   */\n  dup2\n    /* \"#utility.yul\":9194:9195   */\n  0x00\n    /* \"#utility.yul\":9187:9201   */\n  mstore\n    /* \"#utility.yul\":9231:9235   */\n  0x20\n    /* \"#utility.yul\":9228:9229   */\n  0x00\n    /* \"#utility.yul\":9218:9236   */\n  keccak256\n    /* \"#utility.yul\":9210:9236   */\n  swap1\n  pop\n    /* \"#utility.yul\":9102:9243   */\n  swap2\n  swap1\n  pop\n  jump\t// out\n    /* \"#utility.yul\":9249:9342   */\ntag_65:\n    /* \"#utility.yul\":9286:9292   */\n  0x00\n    /* \"#utility.yul\":9333:9335   */\n  0x20\n    /* \"#utility.yul\":9328:9330   */\n  0x1f\n    /* \"#utility.yul\":9321:9326   */\n  dup4\n    /* \"#utility.yul\":9317:9331   */\n  add\n    /* \"#utility.yul\":9313:9336   */\n  div\n    /* \"#utility.yul\":9303:9336   */\n  swap1\n  pop\n    /* \"#utility.yul\":9249:9342   */\n  swap2\n  swap1\n  pop\n  jump\t// out\n    /* \"#utility.yul\":9348:9455   */\ntag_66:\n    /* \"#utility.yul\":9392:9400   */\n  0x00\n    /* \"#utility.yul\":9442:9447   */\n  dup3\n    /* \"#utility.yul\":9436:9440   */\n  dup3\n    /* \"#utility.yul\":9432:9448   */\n  shl\n    /* \"#utility.yul\":9411:9448   */\n  swap1\n  pop\n    /* \"#utility.yul\":9348:9455   */\n  swap3\n  swap2\n  pop\n  pop\n  jump\t// out\n    /* \"#utility.yul\":9461:9854   */\ntag_67:\n    /* \"#utility.yul\":9530:9536   */\n  0x00\n    /* \"#utility.yul\":9580:9581   */\n  0x08\n    /* \"#utility.yul\":9568:9578   */\n  dup4\n    /* \"#utility.yul\":9564:9582   */\n  mul\n    /* \"#utility.yul\":9603:9700   */\n  tag_184\n    /* \"#utility.yul\":9633:9699   */\n  0xffffffffffffffffffffffffffffffffffffffffffffffffffffffffffffffff\n    /* \"#utility.yul\":9622:9631   */\n  dup3\n    /* \"#utility.yul\":9603:9700   */\n  tag_66\n  jump\t// in\ntag_184:\n    /* \"#utility.yul\":9721:9760   */\n  tag_185\n    /* \"#utility.yul\":9751:9759   */\n  dup7\n    /* \"#utility.yul\":9740:9749   */\n  dup4\n    /* \"#utility.yul\":9721:9760   */\n  tag_66\n  jump\t// in\ntag_185:\n    /* \"#utility.yul\":9709:9760   */\n  swap6\n  pop\n    /* \"#utility.yul\":9793:9797   */\n  dup1\n    /* \"#utility.yul\":9789:9798   */\n  not\n    /* \"#utility.yul\":9782:9787   */\n  dup5\n    /* \"#utility.yul\":9778:9799   */\n  and\n    /* \"#utility.yul\":9769:9799   */\n  swap4\n  pop\n    /* \"#utility.yul\":9842:9846   */\n  dup1\n    /* \"#utility.yul\":9832:9840   */\n  dup7\n    /* \"#utility.yul\":9828:9847   */\n  and\n    /* \"#utility.yul\":9821:9826   */\n  dup5\n    /* \"#utility.yul\":9818:9848   */\n  or\n    /* \"#utility.yul\":9808:9848   */\n  swap3\n  pop\n    /* \"#utility.yul\":9537:9854   */\n  pop\n  pop\n    /* \"#utility.yul\":9461:9854   */\n  swap4\n  swap3\n  pop\n  pop\n  pop\n  jump\t// out\n    /* \"#utility.yul\":9860:9937   */\ntag_68:\n    /* \"#utility.yul\":9897:9904   */\n  0x00\n    /* \"#utility.yul\":9926:9931   */\n  dup2\n    /* \"#utility.yul\":9915:9931   */\n  swap1\n  pop\n    /* \"#utility.yul\":9860:9937   */\n  swap2\n  swap1\n  pop\n  jump\t// out\n    /* \"#utility.yul\":9943:10003   */\ntag_69:\n    /* \"#utility.yul\":9971:9974   */\n  0x00\n    /* \"#utility.yul\":9992:9997   */\n  dup2\n    /* \"#utility.yul\":9985:9997   */\n  swap1\n  pop\n    /* \"#utility.yul\":9943:10003   */\n  swap2\n  swap1\n  pop\n  jump\t// out\n    /* \"#utility.yul\":10009:10151   */\ntag_70:\n    /* \"#utility.yul\":10059:10068   */\n  0x00\n    /* \"#utility.yul\":10092:10145   */\n  tag_189\n    /* \"#utility.yul\":10110:10144   */\n  tag_190\n    /* \"#utility.yul\":10119:10143   */\n  tag_191\n    /* \"#utility.yul\":10137:10142   */\n  dup5\n    /* \"#utility.yul\":10119:10143   */\n  tag_68\n  jump\t// in\ntag_191:\n    /* \"#utility.yul\":10110:10144   */\n  tag_69\n  jump\t// in\ntag_190:\n    /* \"#utility.yul\":10092:10145   */\n  tag_68\n  jump\t// in\ntag_189:\n    /* \"#utility.yul\":10079:10145   */\n  swap1\n  pop\n    /* \"#utility.yul\":10009:10151   */\n  swap2\n  swap1\n  pop\n  jump\t// out\n    /* \"#utility.yul\":10157:10232   */\ntag_71:\n    /* \"#utility.yul\":10200:10203   */\n  0x00\n    /* \"#utility.yul\":10221:10226   */\n  dup2\n    /* \"#utility.yul\":10214:10226   */\n  swap1\n  pop\n    /* \"#utility.yul\":10157:10232   */\n  swap2\n  swap1\n  pop\n  jump\t// out\n    /* \"#utility.yul\":10238:10507   */\ntag_72:\n    /* \"#utility.yul\":10348:10387   */\n  tag_194\n    /* \"#utility.yul\":10379:10386   */\n  dup4\n    /* \"#utility.yul\":10348:10387   */\n  tag_70\n  jump\t// in\ntag_194:\n    /* \"#utility.yul\":10409:10500   */\n  tag_195\n    /* \"#utility.yul\":10458:10499   */\n  tag_196\n    /* \"#utility.yul\":10482:10498   */\n  dup3\n    /* \"#utility.yul\":10458:10499   */\n  tag_71\n  jump\t// in\ntag_196:\n    /* \"#utility.yul\":10450:10456   */\n  dup5\n    /* \"#utility.yul\":10443:10447   */\n  dup5\n    /* \"#utility.yul\":10437:10448   */\n  sload\n    /* \"#utility.yul\":10409:10500   */\n  tag_67\n  jump\t// in\ntag_195:\n    /* \"#utility.yul\":10403:10407   */\n  dup3\n    /* \"#utility.yul\":10396:10501   */\n  sstore\n    /* \"#utility.yul\":10314:10507   */\n  pop\n    /* \"#utility.yul\":10238:10507   */\n  pop\n  pop\n  pop\n  jump\t// out\n    /* \"#utility.yul\":10513:10586   */\ntag_73:\n    /* \"#utility.yul\":10558:10561   */\n  0x00\n    /* \"#utility.yul\":10513:10586   */\n  swap1\n  jump\t// out\n    /* \"#utility.yul\":10592:10781   */\ntag_74:\n    /* \"#utility.yul\":10669:10701   */\n  tag_199\n  tag_73\n  jump\t// in\ntag_199:\n    /* \"#utility.yul\":10710:10775   */\n  tag_200\n    /* \"#utility.yul\":10768:10774   */\n  dup2\n    /* \"#utility.yul\":10760:10766   */\n  dup5\n    /* \"#utility.yul\":10754:10758   */\n  dup5\n    /* \"#utility.yul\":10710:10775   */\n  tag_72\n  jump\t// in\ntag_200:\n    /* \"#utility.yul\":10645:10781   */\n  pop\n    /* \"#utility.yul\":10592:10781   */\n  pop\n  pop\n  jump\t// out\n    /* \"#utility.yul\":10787:10973   */\ntag_75:\n    /* \"#utility.yul\":10847:10967   */\ntag_202:\n    /* \"#utility.yul\":10864:10867   */\n  dup2\n    /* \"#utility.yul\":10857:10862   */\n  dup2\n    /* \"#utility.yul\":10854:10868   */\n  lt\n    /* \"#utility.yul\":10847:10967   */\n  iszero\n  tag_204\n  jumpi\n    /* \"#utility.yul\":10918:10957   */\n  tag_205\n    /* \"#utility.yul\":10955:10956   */\n  0x00\n    /* \"#utility.yul\":10948:10953   */\n  dup3\n    /* \"#utility.yul\":10918:10957   */\n  tag_74\n  jump\t// in\ntag_205:\n    /* \"#utility.yul\":10891:10892   */\n  0x01\n    /* \"#utility.yul\":10884:10889   */\n  dup2\n    /* \"#utility.yul\":10880:10893   */\n  add\n    /* \"#utility.yul\":10871:10893   */\n  swap1\n  pop\n    /* \"#utility.yul\":10847:10967   */\n  jump(tag_202)\ntag_204:\n    /* \"#utility.yul\":10787:10973   */\n  pop\n  pop\n  jump\t// out\n    /* \"#utility.yul\":10979:11522   */\ntag_76:\n    /* \"#utility.yul\":11080:11082   */\n  0x1f\n    /* \"#utility.yul\":11075:11078   */\n  dup3\n    /* \"#utility.yul\":11072:11083   */\n  gt\n    /* \"#utility.yul\":11069:11515   */\n  iszero\n  tag_207\n  jumpi\n    /* \"#utility.yul\":11114:11152   */\n  tag_208\n    /* \"#utility.yul\":11146:11151   */\n  dup2\n    /* \"#utility.yul\":11114:11152   */\n  tag_64\n  jump\t// in\ntag_208:\n    /* \"#utility.yul\":11198:11227   */\n  tag_209\n    /* \"#utility.yul\":11216:11226   */\n  dup5\n    /* \"#utility.yul\":11198:11227   */\n  tag_65\n  jump\t// in\ntag_209:\n    /* \"#utility.yul\":11188:11196   */\n  dup2\n    /* \"#utility.yul\":11184:11228   */\n  add\n    /* \"#utility.yul\":11381:11383   */\n  0x20\n    /* \"#utility.yul\":11369:11379   */\n  dup6\n    /* \"#utility.yul\":11366:11384   */\n  lt\n    /* \"#utility.yul\":11363:11412   */\n  iszero\n  tag_210\n  jumpi\n    /* \"#utility.yul\":11402:11410   */\n  dup2\n    /* \"#utility.yul\":11387:11410   */\n  swap1\n  pop\n    /* \"#utility.yul\":11363:11412   */\ntag_210:\n    /* \"#utility.yul\":11425:11505   */\n  tag_211\n    /* \"#utility.yul\":11481:11503   */\n  tag_212\n    /* \"#utility.yul\":11499:11502   */\n  dup6\n    /* \"#utility.yul\":11481:11503   */\n  tag_65\n  jump\t// in\ntag_212:\n    /* \"#utility.yul\":11471:11479   */\n  dup4\n    /* \"#utility.yul\":11467:11504   */\n  add\n    /* \"#utility.yul\":11454:11465   */\n  dup3\n    /* \"#utility.yul\":11425:11505   */\n  tag_75\n  jump\t// in\ntag_211:\n    /* \"#utility.yul\":11084:11515   */\n  pop\n  pop\n    /* \"#utility.yul\":11069:11515   */\ntag_207:\n    /* \"#utility.yul\":10979:11522   */\n  pop\n  pop\n  pop\n  jump\t// out\n    /* \"#utility.yul\":11528:11645   */\ntag_77:\n    /* \"#utility.yul\":11582:11590   */\n  0x00\n    /* \"#utility.yul\":11632:11637   */\n  dup3\n    /* \"#utility.yul\":11626:11630   */\n  dup3\n    /* \"#utility.yul\":11622:11638   */\n  shr\n    /* \"#utility.yul\":11601:11638   */\n  swap1\n  pop\n    /* \"#utility.yul\":11528:11645   */\n  swap3\n  swap2\n  pop\n  pop\n  jump\t// out\n    /* \"#utility.yul\":11651:11820   */\ntag_78:\n    /* \"#utility.yul\":11695:11701   */\n  0x00\n    /* \"#utility.yul\":11728:11779   */\n  tag_215\n    /* \"#utility.yul\":11776:11777   */\n  0x00\n    /* \"#utility.yul\":11772:11778   */\n  not\n    /* \"#utility.yul\":11764:11769   */\n  dup5\n    /* \"#utility.yul\":11761:11762   */\n  0x08\n    /* \"#utility.yul\":11757:11770   */\n  mul\n    /* \"#utility.yul\":11728:11779   */\n  tag_77\n  jump\t// in\ntag_215:\n    /* \"#utility.yul\":11724:11780   */\n  not\n    /* \"#utility.yul\":11809:11813   */\n  dup1\n    /* \"#utility.yul\":11803:11807   */\n  dup4\n    /* \"#utility.yul\":11799:11814   */\n  and\n    /* \"#utility.yul\":11789:11814   */\n  swap2\n  pop\n    /* \"#utility.yul\":11702:11820   */\n  pop\n    /* \"#utility.yul\":11651:11820   */\n  swap3\n  swap2\n  pop\n  pop\n  jump\t// out\n    /* \"#utility.yul\":11825:12120   */\ntag_79:\n    /* \"#utility.yul\":11901:11905   */\n  0x00\n    /* \"#utility.yul\":12047:12076   */\n  tag_217\n    /* \"#utility.yul\":12072:12075   */\n  dup4\n    /* \"#utility.yul\":12066:12070   */\n  dup4\n    /* \"#utility.yul\":12047:12076   */\n  tag_78\n  jump\t// in\ntag_217:\n    /* \"#utility.yul\":12039:12076   */\n  swap2\n  pop\n    /* \"#utility.yul\":12109:12112   */\n  dup3\n    /* \"#utility.yul\":12106:12107   */\n  0x02\n    /* \"#utility.yul\":12102:12113   */\n  mul\n    /* \"#utility.yul\":12096:12100   */\n  dup3\n    /* \"#utility.yul\":12093:12114   */\n  or\n    /* \"#utility.yul\":12085:12114   */\n  swap1\n  pop\n    /* \"#utility.yul\":11825:12120   */\n  swap3\n  swap2\n  pop\n  pop\n  jump\t// out\n    /* \"#utility.yul\":12125:13520   */\ntag_9:\n    /* \"#utility.yul\":12242:12279   */\n  tag_219\n    /* \"#utility.yul\":12275:12278   */\n  dup3\n    /* \"#utility.yul\":12242:12279   */\n  tag_62\n  jump\t// in\ntag_219:\n    /* \"#utility.yul\":12344:12362   */\n  0xffffffffffffffff\n    /* \"#utility.yul\":12336:12342   */\n  dup2\n    /* \"#utility.yul\":12333:12363   */\n  gt\n    /* \"#utility.yul\":12330:12386   */\n  iszero\n  tag_220\n  jumpi\n    /* \"#utility.yul\":12366:12384   */\n  tag_221\n  tag_43\n  jump\t// in\ntag_221:\n    /* \"#utility.yul\":12330:12386   */\ntag_220:\n    /* \"#utility.yul\":12410:12448   */\n  tag_222\n    /* \"#utility.yul\":12442:12446   */\n  dup3\n    /* \"#utility.yul\":12436:12447   */\n  sload\n    /* \"#utility.yul\":12410:12448   */\n  tag_34\n  jump\t// in\ntag_222:\n    /* \"#utility.yul\":12495:12562   */\n  tag_223\n    /* \"#utility.yul\":12555:12561   */\n  dup3\n    /* \"#utility.yul\":12547:12553   */\n  dup3\n    /* \"#utility.yul\":12541:12545   */\n  dup6\n    /* \"#utility.yul\":12495:12562   */\n  tag_76\n  jump\t// in\ntag_223:\n    /* \"#utility.yul\":12589:12590   */\n  0x00\n    /* \"#utility.yul\":12613:12617   */\n  0x20\n    /* \"#utility.yul\":12600:12617   */\n  swap1\n  pop\n    /* \"#utility.yul\":12645:12647   */\n  0x1f\n    /* \"#utility.yul\":12637:12643   */\n  dup4\n    /* \"#utility.yul\":12634:12648   */\n  gt\n    /* \"#utility.yul\":12662:12663   */\n  0x01\n    /* \"#utility.yul\":12657:13275   */\n  dup2\n  eq\n  tag_225\n  jumpi\n    /* \"#utility.yul\":13319:13320   */\n  0x00\n    /* \"#utility.yul\":13336:13342   */\n  dup5\n    /* \"#utility.yul\":13333:13410   */\n  iszero\n  tag_226\n  jumpi\n    /* \"#utility.yul\":13385:13394   */\n  dup3\n    /* \"#utility.yul\":13380:13383   */\n  dup8\n    /* \"#utility.yul\":13376:13395   */\n  add\n    /* \"#utility.yul\":13370:13396   */\n  mload\n    /* \"#utility.yul\":13361:13396   */\n  swap1\n  pop\n    /* \"#utility.yul\":13333:13410   */\ntag_226:\n    /* \"#utility.yul\":13436:13503   */\n  tag_227\n    /* \"#utility.yul\":13496:13502   */\n  dup6\n    /* \"#utility.yul\":13489:13494   */\n  dup3\n    /* \"#utility.yul\":13436:13503   */\n  tag_79\n  jump\t// in\ntag_227:\n    /* \"#utility.yul\":13430:13434   */\n  dup7\n    /* \"#utility.yul\":13423:13504   */\n  sstore\n    /* \"#utility.yul\":13292:13514   */\n  pop\n    /* \"#utility.yul\":12627:13514   */\n  jump(tag_224)\n    /* \"#utility.yul\":12657:13275   */\ntag_225:\n    /* \"#utility.yul\":12709:12713   */\n  0x1f\n    /* \"#utility.yul\":12705:12714   */\n  not\n    /* \"#utility.yul\":12697:12703   */\n  dup5\n    /* \"#utility.yul\":12693:12715   */\n  and\n    /* \"#utility.yul\":12743:12780   */\n  tag_228\n    /* \"#utility.yul\":12775:12779   */\n  dup7\n    /* \"#utility.yul\":12743:12780   */\n  tag_64\n  jump\t// in\ntag_228:\n    /* \"#utility.yul\":12802:12803   */\n  0x00\n    /* \"#utility.yul\":12816:13024   */\ntag_229:\n    /* \"#utility.yul\":12830:12837   */\n  dup3\n    /* \"#utility.yul\":12827:12828   */\n  dup2\n    /* \"#utility.yul\":12824:12838   */\n  lt\n    /* \"#utility.yul\":12816:13024   */\n  iszero\n  tag_231\n  jumpi\n    /* \"#utility.yul\":12909:12918   */\n  dup5\n    /* \"#utility.yul\":12904:12907   */\n  dup10\n    /* \"#utility.yul\":12900:12919   */\n  add\n    /* \"#utility.yul\":12894:12920   */\n  mload\n    /* \"#utility.yul\":12886:12892   */\n  dup3\n    /* \"#utility.yul\":12879:12921   */\n  sstore\n    /* \"#utility.yul\":12960:12961   */\n  0x01\n    /* \"#utility.yul\":12952:12958   */\n  dup3\n    /* \"#utility.yul\":12948:12962   */\n  add\n    /* \"#utility.yul\":12938:12962   */\n  swap2\n  pop\n    /* \"#utility.yul\":13007:13009   */\n  0x20\n    /* \"#utility.yul\":12996:13005   */\n  dup6\n    /* \"#utility.yul\":12992:13010   */\n  add\n    /* \"#utility.yul\":12979:13010   */\n  swap5\n  pop\n    /* \"#utility.yul\":12853:12857   */\n  0x20\n    /* \"#utility.yul\":12850:12851   */\n  dup2\n    /* \"#utility.yul\":12846:12858   */\n  add\n    /* \"#utility.yul\":12841:12858   */\n  swap1\n  pop\n    /* \"#utility.yul\":12816:13024   */\n  jump(tag_229)\ntag_231:\n    /* \"#utility.yul\":13052:13058   */\n  dup7\n    /* \"#utility.yul\":13043:13050   */\n  dup4\n    /* \"#utility.yul\":13040:13059   */\n  lt\n    /* \"#utility.yul\":13037:13216   */\n  iszero\n  tag_232\n  jumpi\n    /* \"#utility.yul\":13110:13119   */\n  dup5\n    /* \"#utility.yul\":13105:13108   */\n  dup10\n    /* \"#utility.yul\":13101:13120   */\n  add\n    /* \"#utility.yul\":13095:13121   */\n  mload\n    /* \"#utility.yul\":13153:13201   */\n  tag_233\n    /* \"#utility.yul\":13195:13199   */\n  0x1f\n    /* \"#utility.yul\":13187:13193   */\n  dup10\n    /* \"#utility.yul\":13183:13200   */\n  and\n    /* \"#utility.yul\":13172:13181   */\n  dup3\n    /* \"#utility.yul\":13153:13201   */\n  tag_78\n  jump\t// in\ntag_233:\n    /* \"#utility.yul\":13145:13151   */\n  dup4\n    /* \"#utility.yul\":13138:13202   */\n  sstore\n    /* \"#utility.yul\":13060:13216   */\n  pop\n    /* \"#utility.yul\":13037:13216   */\ntag_232:\n    /* \"#utility.yul\":13262:13263   */\n  0x01\n    /* \"#utility.yul\":13258:13259   */\n  0x02\n    /* \"#utility.yul\":13250:13256   */\n  dup9\n    /* \"#utility.yul\":13246:13260   */\n  mul\n    /* \"#utility.yul\":13242:13264   */\n  add\n    /* \"#utility.yul\":13236:13240   */\n  dup9\n    /* \"#utility.yul\":13229:13265   */\n  sstore\n    /* \"#utility.yul\":12664:13275   */\n  pop\n  pop\n  pop\n    /* \"#utility.yul\":12627:13514   */\ntag_224:\n  pop\n    /* \"#utility.yul\":12217:13520   */\n  pop\n  pop\n  pop\n    /* \"#utility.yul\":12125:13520   */\n  pop\n  pop\n  jump\t// out\n    /* \"contracts/Publication.sol\":177:1278  contract Publication {... */\ntag_15:\n  dataSize(sub_0)\n  dup1\n  dataOffset(sub_0)\n  0x00\n  codecopy\n  0x00\n  return\nstop\n\nsub_0: assembly {\n        /* \"contracts/Publication.sol\":177:1278  contract Publication {... */\n      mstore(0x40, 0x80)\n      callvalue\n      dup1\n      iszero\n      tag_1\n      jumpi\n      0x00\n      dup1\n      revert\n    tag_1:\n      pop\n      jumpi(tag_2, lt(calldatasize, 0x04))\n      shr(0xe0, calldataload(0x00))\n      dup1\n      0x2b736100\n      eq\n      tag_3\n      jumpi\n      dup1\n      0x55f28564\n      eq\n      tag_4\n      jumpi\n      dup1\n      0xa13c53be\n      eq\n      tag_5\n      jumpi\n      dup1\n      0xdd1ed946\n      eq\n      tag_6\n      jumpi\n      dup1\n      0xf8c587ac\n      eq\n      tag_7\n      jumpi\n    tag_2:\n      0x00\n      dup1\n      revert\n        /* \"contracts/Publication.sol\":1175:1275  function revealData() public view returns(address[] memory)  {... */\n    tag_3:\n      tag_8\n      tag_9\n      jump\t// in\n    tag_8:\n      mload(0x40)\n      tag_10\n      swap2\n      swap1\n      tag_11\n      jump\t// in\n    tag_10:\n      mload(0x40)\n      dup1\n      swap2\n      sub\n      swap1\n      return\n        /* \"contracts/Publication.sol\":760:861  function updateCitedBy(address citingPaper) public {... */\n    tag_4:\n      tag_12\n      0x04\n      dup1\n      calldatasize\n      sub\n      dup2\n      add\n      swap1\n      tag_13\n      swap2\n      swap1\n      tag_14\n      jump\t// in\n    tag_13:\n      tag_15\n      jump\t// in\n    tag_12:\n      stop\n        /* \"contracts/Publication.sol\":955:1141  function cite(address _paper) public {... */\n    tag_5:\n      tag_16\n      0x04\n      dup1\n      calldatasize\n      sub\n      dup2\n      add\n      swap1\n      tag_17\n      swap2\n      swap1\n      tag_14\n      jump\t// in\n    tag_17:\n      tag_18\n      jump\t// in\n    tag_16:\n      stop\n        /* \"contracts/Publication.sol\":402:426  address[] public citedBy */\n    tag_6:\n      tag_19\n      0x04\n      dup1\n      calldatasize\n      sub\n      dup2\n      add\n      swap1\n      tag_20\n      swap2\n      swap1\n      tag_21\n      jump\t// in\n    tag_20:\n      tag_22\n      jump\t// in\n    tag_19:\n      mload(0x40)\n      tag_23\n      swap2\n      swap1\n      tag_24\n      jump\t// in\n    tag_23:\n      mload(0x40)\n      dup1\n      swap2\n      sub\n      swap1\n      return\n        /* \"contracts/Publication.sol\":377:395  Paper public paper */\n    tag_7:\n      tag_25\n      tag_26\n      jump\t// in\n    tag_25:\n      mload(0x40)\n      tag_27\n      swap3\n      swap2\n      swap1\n      tag_28\n      jump\t// in\n    tag_27:\n      mload(0x40)\n      dup1\n      swap2\n      sub\n      swap1\n      return\n        /* \"contracts/Publication.sol\":1175:1275  function revealData() public view returns(address[] memory)  {... */\n    tag_9:\n        /* \"contracts/Publication.sol\":1217:1233  address[] memory */\n      0x60\n        /* \"contracts/Publication.sol\":1254:1259  paper */\n      0x00\n        /* \"contracts/Publication.sol\":1254:1267  paper.citedBy */\n      0x03\n      add\n        /* \"contracts/Publication.sol\":1247:1267  return paper.citedBy */\n      dup1\n      sload\n      dup1\n      0x20\n      mul\n      0x20\n      add\n      mload(0x40)\n      swap1\n      dup2\n      add\n      0x40\n      mstore\n      dup1\n      swap3\n      swap2\n      swap1\n      dup2\n      dup2\n      mstore\n      0x20\n      add\n      dup3\n      dup1\n      sload\n      dup1\n      iszero\n      tag_30\n      jumpi\n      0x20\n      mul\n      dup3\n      add\n      swap2\n      swap1\n      0x00\n      mstore\n      keccak256(0x00, 0x20)\n      swap1\n    tag_31:\n      dup2\n      0x00\n      swap1\n      sload\n      swap1\n      0x0100\n      exp\n      swap1\n      div\n      0xffffffffffffffffffffffffffffffffffffffff\n      and\n      0xffffffffffffffffffffffffffffffffffffffff\n      and\n      dup2\n      mstore\n      0x20\n      add\n      swap1\n      0x01\n      add\n      swap1\n      dup1\n      dup4\n      gt\n      tag_31\n      jumpi\n    tag_30:\n      pop\n      pop\n      pop\n      pop\n      pop\n      swap1\n      pop\n        /* \"contracts/Publication.sol\":1175:1275  function revealData() public view returns(address[] memory)  {... */\n      swap1\n      jump\t// out\n        /* \"contracts/Publication.sol\":760:861  function updateCitedBy(address citingPaper) public {... */\n    tag_15:\n        /* \"contracts/Publication.sol\":822:827  paper */\n      0x00\n        /* \"contracts/Publication.sol\":822:835  paper.citedBy */\n      0x03\n      add\n        /* \"contracts/Publication.sol\":841:852  citingPaper */\n      dup2\n        /* \"contracts/Publication.sol\":822:853  paper.citedBy.push(citingPaper) */\n      swap1\n      dup1\n      0x01\n      dup2\n      sload\n      add\n      dup1\n      dup3\n      sstore\n      dup1\n      swap2\n      pop\n      pop\n      0x01\n      swap1\n      sub\n      swap1\n      0x00\n      mstore\n      keccak256(0x00, 0x20)\n      add\n      0x00\n      swap1\n      swap2\n      swap1\n      swap2\n      swap1\n      swap2\n      0x0100\n      exp\n      dup2\n      sload\n      dup2\n      0xffffffffffffffffffffffffffffffffffffffff\n      mul\n      not\n      and\n      swap1\n      dup4\n      0xffffffffffffffffffffffffffffffffffffffff\n      and\n      mul\n      or\n      swap1\n      sstore\n      pop\n        /* \"contracts/Publication.sol\":760:861  function updateCitedBy(address citingPaper) public {... */\n      pop\n      jump\t// out\n        /* \"contracts/Publication.sol\":955:1141  function cite(address _paper) public {... */\n    tag_18:\n        /* \"contracts/Publication.sol\":1003:1025  Publication paperCited */\n      0x00\n        /* \"contracts/Publication.sol\":1040:1046  _paper */\n      dup2\n        /* \"contracts/Publication.sol\":1003:1047  Publication paperCited = Publication(_paper) */\n      swap1\n      pop\n        /* \"contracts/Publication.sol\":1097:1107  paperCited */\n      dup1\n        /* \"contracts/Publication.sol\":1097:1121  paperCited.updateCitedBy */\n      0xffffffffffffffffffffffffffffffffffffffff\n      and\n      0x55f28564\n        /* \"contracts/Publication.sol\":1122:1132  msg.sender */\n      caller\n        /* \"contracts/Publication.sol\":1097:1133  paperCited.updateCitedBy(msg.sender) */\n      mload(0x40)\n      dup3\n      0xffffffff\n      and\n      0xe0\n      shl\n      dup2\n      mstore\n      0x04\n      add\n      tag_35\n      swap2\n      swap1\n      tag_24\n      jump\t// in\n    tag_35:\n      0x00\n      mload(0x40)\n      dup1\n      dup4\n      sub\n      dup2\n      0x00\n      dup8\n      dup1\n      extcodesize\n      iszero\n      dup1\n      iszero\n      tag_36\n      jumpi\n      0x00\n      dup1\n      revert\n    tag_36:\n      pop\n      gas\n      call\n      iszero\n      dup1\n      iszero\n      tag_38\n      jumpi\n      returndatasize\n      0x00\n      dup1\n      returndatacopy\n      revert(0x00, returndatasize)\n    tag_38:\n      pop\n      pop\n      pop\n      pop\n        /* \"contracts/Publication.sol\":992:1141  {... */\n      pop\n        /* \"contracts/Publication.sol\":955:1141  function cite(address _paper) public {... */\n      pop\n      jump\t// out\n        /* \"contracts/Publication.sol\":402:426  address[] public citedBy */\n    tag_22:\n      0x05\n      dup2\n      dup2\n      sload\n      dup2\n      lt\n      tag_39\n      jumpi\n      0x00\n      dup1\n      revert\n    tag_39:\n      swap1\n      0x00\n      mstore\n      keccak256(0x00, 0x20)\n      add\n      0x00\n      swap2\n      pop\n      sload\n      swap1\n      0x0100\n      exp\n      swap1\n      div\n      0xffffffffffffffffffffffffffffffffffffffff\n      and\n      dup2\n      jump\t// out\n        /* \"contracts/Publication.sol\":377:395  Paper public paper */\n    tag_26:\n      0x00\n      dup1\n      0x01\n      add\n      dup1\n      sload\n      tag_41\n      swap1\n      tag_42\n      jump\t// in\n    tag_41:\n      dup1\n      0x1f\n      add\n      0x20\n      dup1\n      swap2\n      div\n      mul\n      0x20\n      add\n      mload(0x40)\n      swap1\n      dup2\n      add\n      0x40\n      mstore\n      dup1\n      swap3\n      swap2\n      swap1\n      dup2\n      dup2\n      mstore\n      0x20\n      add\n      dup3\n      dup1\n      sload\n      tag_43\n      swap1\n      tag_42\n      jump\t// in\n    tag_43:\n      dup1\n      iszero\n      tag_44\n      jumpi\n      dup1\n      0x1f\n      lt\n      tag_45\n      jumpi\n      0x0100\n      dup1\n      dup4\n      sload\n      div\n      mul\n      dup4\n      mstore\n      swap2\n      0x20\n      add\n      swap2\n      jump(tag_44)\n    tag_45:\n      dup3\n      add\n      swap2\n      swap1\n      0x00\n      mstore\n      keccak256(0x00, 0x20)\n      swap1\n    tag_46:\n      dup2\n      sload\n      dup2\n      mstore\n      swap1\n      0x01\n      add\n      swap1\n      0x20\n      add\n      dup1\n      dup4\n      gt\n      tag_46\n      jumpi\n      dup3\n      swap1\n      sub\n      0x1f\n      and\n      dup3\n      add\n      swap2\n    tag_44:\n      pop\n      pop\n      pop\n      pop\n      pop\n      swap1\n      dup1\n      0x04\n      add\n      dup1\n      sload\n      tag_47\n      swap1\n      tag_42\n      jump\t// in\n    tag_47:\n      dup1\n      0x1f\n      add\n      0x20\n      dup1\n      swap2\n      div\n      mul\n      0x20\n      add\n      mload(0x40)\n      swap1\n      dup2\n      add\n      0x40\n      mstore\n      dup1\n      swap3\n      swap2\n      swap1\n      dup2\n      dup2\n      mstore\n      0x20\n      add\n      dup3\n      dup1\n      sload\n      tag_48\n      swap1\n      tag_42\n      jump\t// in\n    tag_48:\n      dup1\n      iszero\n      tag_49\n      jumpi\n      dup1\n      0x1f\n      lt\n      tag_50\n      jumpi\n      0x0100\n      dup1\n      dup4\n      sload\n      div\n      mul\n      dup4\n      mstore\n      swap2\n      0x20\n      add\n      swap2\n      jump(tag_49)\n    tag_50:\n      dup3\n      add\n      swap2\n      swap1\n      0x00\n      mstore\n      keccak256(0x00, 0x20)\n      swap1\n    tag_51:\n      dup2\n      sload\n      dup2\n      mstore\n      swap1\n      0x01\n      add\n      swap1\n      0x20\n      add\n      dup1\n      dup4\n      gt\n      tag_51\n      jumpi\n      dup3\n      swap1\n      sub\n      0x1f\n      and\n      dup3\n      add\n      swap2\n    tag_49:\n      pop\n      pop\n      pop\n      pop\n      pop\n      swap1\n      pop\n      dup3\n      jump\t// out\n        /* \"#utility.yul\":7:121   */\n    tag_52:\n        /* \"#utility.yul\":74:80   */\n      0x00\n        /* \"#utility.yul\":108:113   */\n      dup2\n        /* \"#utility.yul\":102:114   */\n      mload\n        /* \"#utility.yul\":92:114   */\n      swap1\n      pop\n        /* \"#utility.yul\":7:121   */\n      swap2\n      swap1\n      pop\n      jump\t// out\n        /* \"#utility.yul\":127:311   */\n    tag_53:\n        /* \"#utility.yul\":226:237   */\n      0x00\n        /* \"#utility.yul\":260:266   */\n      dup3\n        /* \"#utility.yul\":255:258   */\n      dup3\n        /* \"#utility.yul\":248:267   */\n      mstore\n        /* \"#utility.yul\":300:304   */\n      0x20\n        /* \"#utility.yul\":295:298   */\n      dup3\n        /* \"#utility.yul\":291:305   */\n      add\n        /* \"#utility.yul\":276:305   */\n      swap1\n      pop\n        /* \"#utility.yul\":127:311   */\n      swap3\n      swap2\n      pop\n      pop\n      jump\t// out\n        /* \"#utility.yul\":317:449   */\n    tag_54:\n        /* \"#utility.yul\":384:388   */\n      0x00\n        /* \"#utility.yul\":407:410   */\n      dup2\n        /* \"#utility.yul\":399:410   */\n      swap1\n      pop\n        /* \"#utility.yul\":437:441   */\n      0x20\n        /* \"#utility.yul\":432:435   */\n      dup3\n        /* \"#utility.yul\":428:442   */\n      add\n        /* \"#utility.yul\":420:442   */\n      swap1\n      pop\n        /* \"#utility.yul\":317:449   */\n      swap2\n      swap1\n      pop\n      jump\t// out\n        /* \"#utility.yul\":455:581   */\n    tag_55:\n        /* \"#utility.yul\":492:499   */\n      0x00\n        /* \"#utility.yul\":532:574   */\n      0xffffffffffffffffffffffffffffffffffffffff\n        /* \"#utility.yul\":525:530   */\n      dup3\n        /* \"#utility.yul\":521:575   */\n      and\n        /* \"#utility.yul\":510:575   */\n      swap1\n      pop\n        /* \"#utility.yul\":455:581   */\n      swap2\n      swap1\n      pop\n      jump\t// out\n        /* \"#utility.yul\":587:683   */\n    tag_56:\n        /* \"#utility.yul\":624:631   */\n      0x00\n        /* \"#utility.yul\":653:677   */\n      tag_82\n        /* \"#utility.yul\":671:676   */\n      dup3\n        /* \"#utility.yul\":653:677   */\n      tag_55\n      jump\t// in\n    tag_82:\n        /* \"#utility.yul\":642:677   */\n      swap1\n      pop\n        /* \"#utility.yul\":587:683   */\n      swap2\n      swap1\n      pop\n      jump\t// out\n        /* \"#utility.yul\":689:797   */\n    tag_57:\n        /* \"#utility.yul\":766:790   */\n      tag_84\n        /* \"#utility.yul\":784:789   */\n      dup2\n        /* \"#utility.yul\":766:790   */\n      tag_56\n      jump\t// in\n    tag_84:\n        /* \"#utility.yul\":761:764   */\n      dup3\n        /* \"#utility.yul\":754:791   */\n      mstore\n        /* \"#utility.yul\":689:797   */\n      pop\n      pop\n      jump\t// out\n        /* \"#utility.yul\":803:982   */\n    tag_58:\n        /* \"#utility.yul\":872:882   */\n      0x00\n        /* \"#utility.yul\":893:939   */\n      tag_86\n        /* \"#utility.yul\":935:938   */\n      dup4\n        /* \"#utility.yul\":927:933   */\n      dup4\n        /* \"#utility.yul\":893:939   */\n      tag_57\n      jump\t// in\n    tag_86:\n        /* \"#utility.yul\":971:975   */\n      0x20\n        /* \"#utility.yul\":966:969   */\n      dup4\n        /* \"#utility.yul\":962:976   */\n      add\n        /* \"#utility.yul\":948:976   */\n      swap1\n      pop\n        /* \"#utility.yul\":803:982   */\n      swap3\n      swap2\n      pop\n      pop\n      jump\t// out\n        /* \"#utility.yul\":988:1101   */\n    tag_59:\n        /* \"#utility.yul\":1058:1062   */\n      0x00\n        /* \"#utility.yul\":1090:1094   */\n      0x20\n        /* \"#utility.yul\":1085:1088   */\n      dup3\n        /* \"#utility.yul\":1081:1095   */\n      add\n        /* \"#utility.yul\":1073:1095   */\n      swap1\n      pop\n        /* \"#utility.yul\":988:1101   */\n      swap2\n      swap1\n      pop\n      jump\t// out\n        /* \"#utility.yul\":1137:1869   */\n    tag_60:\n        /* \"#utility.yul\":1256:1259   */\n      0x00\n        /* \"#utility.yul\":1285:1339   */\n      tag_89\n        /* \"#utility.yul\":1333:1338   */\n      dup3\n        /* \"#utility.yul\":1285:1339   */\n      tag_52\n      jump\t// in\n    tag_89:\n        /* \"#utility.yul\":1355:1441   */\n      tag_90\n        /* \"#utility.yul\":1434:1440   */\n      dup2\n        /* \"#utility.yul\":1429:1432   */\n      dup6\n        /* \"#utility.yul\":1355:1441   */\n      tag_53\n      jump\t// in\n    tag_90:\n        /* \"#utility.yul\":1348:1441   */\n      swap4\n      pop\n        /* \"#utility.yul\":1465:1521   */\n      tag_91\n        /* \"#utility.yul\":1515:1520   */\n      dup4\n        /* \"#utility.yul\":1465:1521   */\n      tag_54\n      jump\t// in\n    tag_91:\n        /* \"#utility.yul\":1544:1551   */\n      dup1\n        /* \"#utility.yul\":1575:1576   */\n      0x00\n        /* \"#utility.yul\":1560:1844   */\n    tag_92:\n        /* \"#utility.yul\":1585:1591   */\n      dup4\n        /* \"#utility.yul\":1582:1583   */\n      dup2\n        /* \"#utility.yul\":1579:1592   */\n      lt\n        /* \"#utility.yul\":1560:1844   */\n      iszero\n      tag_94\n      jumpi\n        /* \"#utility.yul\":1661:1667   */\n      dup2\n        /* \"#utility.yul\":1655:1668   */\n      mload\n        /* \"#utility.yul\":1688:1751   */\n      tag_95\n        /* \"#utility.yul\":1747:1750   */\n      dup9\n        /* \"#utility.yul\":1732:1745   */\n      dup3\n        /* \"#utility.yul\":1688:1751   */\n      tag_58\n      jump\t// in\n    tag_95:\n        /* \"#utility.yul\":1681:1751   */\n      swap8\n      pop\n        /* \"#utility.yul\":1774:1834   */\n      tag_96\n        /* \"#utility.yul\":1827:1833   */\n      dup4\n        /* \"#utility.yul\":1774:1834   */\n      tag_59\n      jump\t// in\n    tag_96:\n        /* \"#utility.yul\":1764:1834   */\n      swap3\n      pop\n        /* \"#utility.yul\":1620:1844   */\n      pop\n        /* \"#utility.yul\":1607:1608   */\n      0x01\n        /* \"#utility.yul\":1604:1605   */\n      dup2\n        /* \"#utility.yul\":1600:1609   */\n      add\n        /* \"#utility.yul\":1595:1609   */\n      swap1\n      pop\n        /* \"#utility.yul\":1560:1844   */\n      jump(tag_92)\n    tag_94:\n        /* \"#utility.yul\":1564:1578   */\n      pop\n        /* \"#utility.yul\":1860:1863   */\n      dup6\n        /* \"#utility.yul\":1853:1863   */\n      swap4\n      pop\n        /* \"#utility.yul\":1261:1869   */\n      pop\n      pop\n      pop\n        /* \"#utility.yul\":1137:1869   */\n      swap3\n      swap2\n      pop\n      pop\n      jump\t// out\n        /* \"#utility.yul\":1875:2248   */\n    tag_11:\n        /* \"#utility.yul\":2018:2022   */\n      0x00\n        /* \"#utility.yul\":2056:2058   */\n      0x20\n        /* \"#utility.yul\":2045:2054   */\n      dup3\n        /* \"#utility.yul\":2041:2059   */\n      add\n        /* \"#utility.yul\":2033:2059   */\n      swap1\n      pop\n        /* \"#utility.yul\":2105:2114   */\n      dup2\n        /* \"#utility.yul\":2099:2103   */\n      dup2\n        /* \"#utility.yul\":2095:2115   */\n      sub\n        /* \"#utility.yul\":2091:2092   */\n      0x00\n        /* \"#utility.yul\":2080:2089   */\n      dup4\n        /* \"#utility.yul\":2076:2093   */\n      add\n        /* \"#utility.yul\":2069:2116   */\n      mstore\n        /* \"#utility.yul\":2133:2241   */\n      tag_98\n        /* \"#utility.yul\":2236:2240   */\n      dup2\n        /* \"#utility.yul\":2227:2233   */\n      dup5\n        /* \"#utility.yul\":2133:2241   */\n      tag_60\n      jump\t// in\n    tag_98:\n        /* \"#utility.yul\":2125:2241   */\n      swap1\n      pop\n        /* \"#utility.yul\":1875:2248   */\n      swap3\n      swap2\n      pop\n      pop\n      jump\t// out\n        /* \"#utility.yul\":2335:2452   */\n    tag_62:\n        /* \"#utility.yul\":2444:2445   */\n      0x00\n        /* \"#utility.yul\":2441:2442   */\n      dup1\n        /* \"#utility.yul\":2434:2446   */\n      revert\n        /* \"#utility.yul\":2581:2703   */\n    tag_64:\n        /* \"#utility.yul\":2654:2678   */\n      tag_103\n        /* \"#utility.yul\":2672:2677   */\n      dup2\n        /* \"#utility.yul\":2654:2678   */\n      tag_56\n      jump\t// in\n    tag_103:\n        /* \"#utility.yul\":2647:2652   */\n      dup2\n        /* \"#utility.yul\":2644:2679   */\n      eq\n        /* \"#utility.yul\":2634:2697   */\n      tag_104\n      jumpi\n        /* \"#utility.yul\":2693:2694   */\n      0x00\n        /* \"#utility.yul\":2690:2691   */\n      dup1\n        /* \"#utility.yul\":2683:2695   */\n      revert\n        /* \"#utility.yul\":2634:2697   */\n    tag_104:\n        /* \"#utility.yul\":2581:2703   */\n      pop\n      jump\t// out\n        /* \"#utility.yul\":2709:2848   */\n    tag_65:\n        /* \"#utility.yul\":2755:2760   */\n      0x00\n        /* \"#utility.yul\":2793:2799   */\n      dup2\n        /* \"#utility.yul\":2780:2800   */\n      calldataload\n        /* \"#utility.yul\":2771:2800   */\n      swap1\n      pop\n        /* \"#utility.yul\":2809:2842   */\n      tag_106\n        /* \"#utility.yul\":2836:2841   */\n      dup2\n        /* \"#utility.yul\":2809:2842   */\n      tag_64\n      jump\t// in\n    tag_106:\n        /* \"#utility.yul\":2709:2848   */\n      swap3\n      swap2\n      pop\n      pop\n      jump\t// out\n        /* \"#utility.yul\":2854:3183   */\n    tag_14:\n        /* \"#utility.yul\":2913:2919   */\n      0x00\n        /* \"#utility.yul\":2962:2964   */\n      0x20\n        /* \"#utility.yul\":2950:2959   */\n      dup3\n        /* \"#utility.yul\":2941:2948   */\n      dup5\n        /* \"#utility.yul\":2937:2960   */\n      sub\n        /* \"#utility.yul\":2933:2965   */\n      slt\n        /* \"#utility.yul\":2930:3049   */\n      iszero\n      tag_108\n      jumpi\n        /* \"#utility.yul\":2968:3047   */\n      tag_109\n      tag_62\n      jump\t// in\n    tag_109:\n        /* \"#utility.yul\":2930:3049   */\n    tag_108:\n        /* \"#utility.yul\":3088:3089   */\n      0x00\n        /* \"#utility.yul\":3113:3166   */\n      tag_110\n        /* \"#utility.yul\":3158:3165   */\n      dup5\n        /* \"#utility.yul\":3149:3155   */\n      dup3\n        /* \"#utility.yul\":3138:3147   */\n      dup6\n        /* \"#utility.yul\":3134:3156   */\n      add\n        /* \"#utility.yul\":3113:3166   */\n      tag_65\n      jump\t// in\n    tag_110:\n        /* \"#utility.yul\":3103:3166   */\n      swap2\n      pop\n        /* \"#utility.yul\":3059:3176   */\n      pop\n        /* \"#utility.yul\":2854:3183   */\n      swap3\n      swap2\n      pop\n      pop\n      jump\t// out\n        /* \"#utility.yul\":3189:3266   */\n    tag_66:\n        /* \"#utility.yul\":3226:3233   */\n      0x00\n        /* \"#utility.yul\":3255:3260   */\n      dup2\n        /* \"#utility.yul\":3244:3260   */\n      swap1\n      pop\n        /* \"#utility.yul\":3189:3266   */\n      swap2\n      swap1\n      pop\n      jump\t// out\n        /* \"#utility.yul\":3272:3394   */\n    tag_67:\n        /* \"#utility.yul\":3345:3369   */\n      tag_113\n        /* \"#utility.yul\":3363:3368   */\n      dup2\n        /* \"#utility.yul\":3345:3369   */\n      tag_66\n      jump\t// in\n    tag_113:\n        /* \"#utility.yul\":3338:3343   */\n      dup2\n        /* \"#utility.yul\":3335:3370   */\n      eq\n        /* \"#utility.yul\":3325:3388   */\n      tag_114\n      jumpi\n        /* \"#utility.yul\":3384:3385   */\n      0x00\n        /* \"#utility.yul\":3381:3382   */\n      dup1\n        /* \"#utility.yul\":3374:3386   */\n      revert\n        /* \"#utility.yul\":3325:3388   */\n    tag_114:\n        /* \"#utility.yul\":3272:3394   */\n      pop\n      jump\t// out\n        /* \"#utility.yul\":3400:3539   */\n    tag_68:\n        /* \"#utility.yul\":3446:3451   */\n      0x00\n        /* \"#utility.yul\":3484:3490   */\n      dup2\n        /* \"#utility.yul\":3471:3491   */\n      calldataload\n        /* \"#utility.yul\":3462:3491   */\n      swap1\n      pop\n        /* \"#utility.yul\":3500:3533   */\n      tag_116\n        /* \"#utility.yul\":3527:3532   */\n      dup2\n        /* \"#utility.yul\":3500:3533   */\n      tag_67\n      jump\t// in\n    tag_116:\n        /* \"#utility.yul\":3400:3539   */\n      swap3\n      swap2\n      pop\n      pop\n      jump\t// out\n        /* \"#utility.yul\":3545:3874   */\n    tag_21:\n        /* \"#utility.yul\":3604:3610   */\n      0x00\n        /* \"#utility.yul\":3653:3655   */\n      0x20\n        /* \"#utility.yul\":3641:3650   */\n      dup3\n        /* \"#utility.yul\":3632:3639   */\n      dup5\n        /* \"#utility.yul\":3628:3651   */\n      sub\n        /* \"#utility.yul\":3624:3656   */\n      slt\n        /* \"#utility.yul\":3621:3740   */\n      iszero\n      tag_118\n      jumpi\n        /* \"#utility.yul\":3659:3738   */\n      tag_119\n      tag_62\n      jump\t// in\n    tag_119:\n        /* \"#utility.yul\":3621:3740   */\n    tag_118:\n        /* \"#utility.yul\":3779:3780   */\n      0x00\n        /* \"#utility.yul\":3804:3857   */\n      tag_120\n        /* \"#utility.yul\":3849:3856   */\n      dup5\n        /* \"#utility.yul\":3840:3846   */\n      dup3\n        /* \"#utility.yul\":3829:3838   */\n      dup6\n        /* \"#utility.yul\":3825:3847   */\n      add\n        /* \"#utility.yul\":3804:3857   */\n      tag_68\n      jump\t// in\n    tag_120:\n        /* \"#utility.yul\":3794:3857   */\n      swap2\n      pop\n        /* \"#utility.yul\":3750:3867   */\n      pop\n        /* \"#utility.yul\":3545:3874   */\n      swap3\n      swap2\n      pop\n      pop\n      jump\t// out\n        /* \"#utility.yul\":3880:3998   */\n    tag_69:\n        /* \"#utility.yul\":3967:3991   */\n      tag_122\n        /* \"#utility.yul\":3985:3990   */\n      dup2\n        /* \"#utility.yul\":3967:3991   */\n      tag_56\n      jump\t// in\n    tag_122:\n        /* \"#utility.yul\":3962:3965   */\n      dup3\n        /* \"#utility.yul\":3955:3992   */\n      mstore\n        /* \"#utility.yul\":3880:3998   */\n      pop\n      pop\n      jump\t// out\n        /* \"#utility.yul\":4004:4226   */\n    tag_24:\n        /* \"#utility.yul\":4097:4101   */\n      0x00\n        /* \"#utility.yul\":4135:4137   */\n      0x20\n        /* \"#utility.yul\":4124:4133   */\n      dup3\n        /* \"#utility.yul\":4120:4138   */\n      add\n        /* \"#utility.yul\":4112:4138   */\n      swap1\n      pop\n        /* \"#utility.yul\":4148:4219   */\n      tag_124\n        /* \"#utility.yul\":4216:4217   */\n      0x00\n        /* \"#utility.yul\":4205:4214   */\n      dup4\n        /* \"#utility.yul\":4201:4218   */\n      add\n        /* \"#utility.yul\":4192:4198   */\n      dup5\n        /* \"#utility.yul\":4148:4219   */\n      tag_69\n      jump\t// in\n    tag_124:\n        /* \"#utility.yul\":4004:4226   */\n      swap3\n      swap2\n      pop\n      pop\n      jump\t// out\n        /* \"#utility.yul\":4232:4331   */\n    tag_70:\n        /* \"#utility.yul\":4284:4290   */\n      0x00\n        /* \"#utility.yul\":4318:4323   */\n      dup2\n        /* \"#utility.yul\":4312:4324   */\n      mload\n        /* \"#utility.yul\":4302:4324   */\n      swap1\n      pop\n        /* \"#utility.yul\":4232:4331   */\n      swap2\n      swap1\n      pop\n      jump\t// out\n        /* \"#utility.yul\":4337:4506   */\n    tag_71:\n        /* \"#utility.yul\":4421:4432   */\n      0x00\n        /* \"#utility.yul\":4455:4461   */\n      dup3\n        /* \"#utility.yul\":4450:4453   */\n      dup3\n        /* \"#utility.yul\":4443:4462   */\n      mstore\n        /* \"#utility.yul\":4495:4499   */\n      0x20\n        /* \"#utility.yul\":4490:4493   */\n      dup3\n        /* \"#utility.yul\":4486:4500   */\n      add\n        /* \"#utility.yul\":4471:4500   */\n      swap1\n      pop\n        /* \"#utility.yul\":4337:4506   */\n      swap3\n      swap2\n      pop\n      pop\n      jump\t// out\n        /* \"#utility.yul\":4512:4758   */\n    tag_72:\n        /* \"#utility.yul\":4593:4594   */\n      0x00\n        /* \"#utility.yul\":4603:4716   */\n    tag_128:\n        /* \"#utility.yul\":4617:4623   */\n      dup4\n        /* \"#utility.yul\":4614:4615   */\n      dup2\n        /* \"#utility.yul\":4611:4624   */\n      lt\n        /* \"#utility.yul\":4603:4716   */\n      iszero\n      tag_130\n      jumpi\n        /* \"#utility.yul\":4702:4703   */\n      dup1\n        /* \"#utility.yul\":4697:4700   */\n      dup3\n        /* \"#utility.yul\":4693:4704   */\n      add\n        /* \"#utility.yul\":4687:4705   */\n      mload\n        /* \"#utility.yul\":4683:4684   */\n      dup2\n        /* \"#utility.yul\":4678:4681   */\n      dup5\n        /* \"#utility.yul\":4674:4685   */\n      add\n        /* \"#utility.yul\":4667:4706   */\n      mstore\n        /* \"#utility.yul\":4639:4641   */\n      0x20\n        /* \"#utility.yul\":4636:4637   */\n      dup2\n        /* \"#utility.yul\":4632:4642   */\n      add\n        /* \"#utility.yul\":4627:4642   */\n      swap1\n      pop\n        /* \"#utility.yul\":4603:4716   */\n      jump(tag_128)\n    tag_130:\n        /* \"#utility.yul\":4750:4751   */\n      0x00\n        /* \"#utility.yul\":4741:4747   */\n      dup5\n        /* \"#utility.yul\":4736:4739   */\n      dup5\n        /* \"#utility.yul\":4732:4748   */\n      add\n        /* \"#utility.yul\":4725:4752   */\n      mstore\n        /* \"#utility.yul\":4574:4758   */\n      pop\n        /* \"#utility.yul\":4512:4758   */\n      pop\n      pop\n      pop\n      jump\t// out\n        /* \"#utility.yul\":4764:4866   */\n    tag_73:\n        /* \"#utility.yul\":4805:4811   */\n      0x00\n        /* \"#utility.yul\":4856:4858   */\n      0x1f\n        /* \"#utility.yul\":4852:4859   */\n      not\n        /* \"#utility.yul\":4847:4849   */\n      0x1f\n        /* \"#utility.yul\":4840:4845   */\n      dup4\n        /* \"#utility.yul\":4836:4850   */\n      add\n        /* \"#utility.yul\":4832:4860   */\n      and\n        /* \"#utility.yul\":4822:4860   */\n      swap1\n      pop\n        /* \"#utility.yul\":4764:4866   */\n      swap2\n      swap1\n      pop\n      jump\t// out\n        /* \"#utility.yul\":4872:5249   */\n    tag_74:\n        /* \"#utility.yul\":4960:4963   */\n      0x00\n        /* \"#utility.yul\":4988:5027   */\n      tag_133\n        /* \"#utility.yul\":5021:5026   */\n      dup3\n        /* \"#utility.yul\":4988:5027   */\n      tag_70\n      jump\t// in\n    tag_133:\n        /* \"#utility.yul\":5043:5114   */\n      tag_134\n        /* \"#utility.yul\":5107:5113   */\n      dup2\n        /* \"#utility.yul\":5102:5105   */\n      dup6\n        /* \"#utility.yul\":5043:5114   */\n      tag_71\n      jump\t// in\n    tag_134:\n        /* \"#utility.yul\":5036:5114   */\n      swap4\n      pop\n        /* \"#utility.yul\":5123:5188   */\n      tag_135\n        /* \"#utility.yul\":5181:5187   */\n      dup2\n        /* \"#utility.yul\":5176:5179   */\n      dup6\n        /* \"#utility.yul\":5169:5173   */\n      0x20\n        /* \"#utility.yul\":5162:5167   */\n      dup7\n        /* \"#utility.yul\":5158:5174   */\n      add\n        /* \"#utility.yul\":5123:5188   */\n      tag_72\n      jump\t// in\n    tag_135:\n        /* \"#utility.yul\":5213:5242   */\n      tag_136\n        /* \"#utility.yul\":5235:5241   */\n      dup2\n        /* \"#utility.yul\":5213:5242   */\n      tag_73\n      jump\t// in\n    tag_136:\n        /* \"#utility.yul\":5208:5211   */\n      dup5\n        /* \"#utility.yul\":5204:5243   */\n      add\n        /* \"#utility.yul\":5197:5243   */\n      swap2\n      pop\n        /* \"#utility.yul\":4964:5249   */\n      pop\n        /* \"#utility.yul\":4872:5249   */\n      swap3\n      swap2\n      pop\n      pop\n      jump\t// out\n        /* \"#utility.yul\":5255:5769   */\n    tag_28:\n        /* \"#utility.yul\":5416:5420   */\n      0x00\n        /* \"#utility.yul\":5454:5456   */\n      0x40\n        /* \"#utility.yul\":5443:5452   */\n      dup3\n        /* \"#utility.yul\":5439:5457   */\n      add\n        /* \"#utility.yul\":5431:5457   */\n      swap1\n      pop\n        /* \"#utility.yul\":5503:5512   */\n      dup2\n        /* \"#utility.yul\":5497:5501   */\n      dup2\n        /* \"#utility.yul\":5493:5513   */\n      sub\n        /* \"#utility.yul\":5489:5490   */\n      0x00\n        /* \"#utility.yul\":5478:5487   */\n      dup4\n        /* \"#utility.yul\":5474:5491   */\n      add\n        /* \"#utility.yul\":5467:5514   */\n      mstore\n        /* \"#utility.yul\":5531:5609   */\n      tag_138\n        /* \"#utility.yul\":5604:5608   */\n      dup2\n        /* \"#utility.yul\":5595:5601   */\n      dup6\n        /* \"#utility.yul\":5531:5609   */\n      tag_74\n      jump\t// in\n    tag_138:\n        /* \"#utility.yul\":5523:5609   */\n      swap1\n      pop\n        /* \"#utility.yul\":5656:5665   */\n      dup2\n        /* \"#utility.yul\":5650:5654   */\n      dup2\n        /* \"#utility.yul\":5646:5666   */\n      sub\n        /* \"#utility.yul\":5641:5643   */\n      0x20\n        /* \"#utility.yul\":5630:5639   */\n      dup4\n        /* \"#utility.yul\":5626:5644   */\n      add\n        /* \"#utility.yul\":5619:5667   */\n      mstore\n        /* \"#utility.yul\":5684:5762   */\n      tag_139\n        /* \"#utility.yul\":5757:5761   */\n      dup2\n        /* \"#utility.yul\":5748:5754   */\n      dup5\n        /* \"#utility.yul\":5684:5762   */\n      tag_74\n      jump\t// in\n    tag_139:\n        /* \"#utility.yul\":5676:5762   */\n      swap1\n      pop\n        /* \"#utility.yul\":5255:5769   */\n      swap4\n      swap3\n      pop\n      pop\n      pop\n      jump\t// out\n        /* \"#utility.yul\":5775:5955   */\n    tag_75:\n        /* \"#utility.yul\":5823:5900   */\n      0x4e487b7100000000000000000000000000000000000000000000000000000000\n        /* \"#utility.yul\":5820:5821   */\n      0x00\n        /* \"#utility.yul\":5813:5901   */\n      mstore\n        /* \"#utility.yul\":5920:5924   */\n      0x22\n        /* \"#utility.yul\":5917:5918   */\n      0x04\n        /* \"#utility.yul\":5910:5925   */\n      mstore\n        /* \"#utility.yul\":5944:5948   */\n      0x24\n        /* \"#utility.yul\":5941:5942   */\n      0x00\n        /* \"#utility.yul\":5934:5949   */\n      revert\n        /* \"#utility.yul\":5961:6281   */\n    tag_42:\n        /* \"#utility.yul\":6005:6011   */\n      0x00\n        /* \"#utility.yul\":6042:6043   */\n      0x02\n        /* \"#utility.yul\":6036:6040   */\n      dup3\n        /* \"#utility.yul\":6032:6044   */\n      div\n        /* \"#utility.yul\":6022:6044   */\n      swap1\n      pop\n        /* \"#utility.yul\":6089:6090   */\n      0x01\n        /* \"#utility.yul\":6083:6087   */\n      dup3\n        /* \"#utility.yul\":6079:6091   */\n      and\n        /* \"#utility.yul\":6110:6128   */\n      dup1\n        /* \"#utility.yul\":6100:6181   */\n      tag_142\n      jumpi\n        /* \"#utility.yul\":6166:6170   */\n      0x7f\n        /* \"#utility.yul\":6158:6164   */\n      dup3\n        /* \"#utility.yul\":6154:6171   */\n      and\n        /* \"#utility.yul\":6144:6171   */\n      swap2\n      pop\n        /* \"#utility.yul\":6100:6181   */\n    tag_142:\n        /* \"#utility.yul\":6228:6230   */\n      0x20\n        /* \"#utility.yul\":6220:6226   */\n      dup3\n        /* \"#utility.yul\":6217:6231   */\n      lt\n        /* \"#utility.yul\":6197:6215   */\n      dup2\n        /* \"#utility.yul\":6194:6232   */\n      sub\n        /* \"#utility.yul\":6191:6275   */\n      tag_143\n      jumpi\n        /* \"#utility.yul\":6247:6265   */\n      tag_144\n      tag_75\n      jump\t// in\n    tag_144:\n        /* \"#utility.yul\":6191:6275   */\n    tag_143:\n        /* \"#utility.yul\":6012:6281   */\n      pop\n        /* \"#utility.yul\":5961:6281   */\n      swap2\n      swap1\n      pop\n      jump\t// out\n\n    auxdata: 0xa264697066735822122014b22ff583a6e3a74e40cdfaf60e01a421b312f8a079583ae5b1908a79795b8d64736f6c63430008120033\n}\n",
				"bytecode": {
					"linkReferences": {},
					"object": "60806040523480156200001157600080fd5b50604051620011e8380380620011e8833981810160405281019062000037919062000659565b6040518060a00160405280868152602001858152602001848152602001838152602001828152506000808201518160000190805190602001906200007d92919062000113565b506020820151816001019081620000959190620009c7565b506040820151816002019080519060200190620000b492919062000173565b506060820151816003019080519060200190620000d392919062000173565b506080820151816004019081620000eb9190620009c7565b5090505081600590805190602001906200010792919062000173565b50505050505062000aae565b82805482825590600052602060002090810192821562000160579160200282015b828111156200015f5782518290816200014e9190620009c7565b509160200191906001019062000134565b5b5090506200016f919062000202565b5090565b828054828255906000526020600020908101928215620001ef579160200282015b82811115620001ee5782518260006101000a81548173ffffffffffffffffffffffffffffffffffffffff021916908373ffffffffffffffffffffffffffffffffffffffff1602179055509160200191906001019062000194565b5b509050620001fe91906200022a565b5090565b5b808211156200022657600081816200021c919062000249565b5060010162000203565b5090565b5b80821115620002455760008160009055506001016200022b565b5090565b5080546200025790620007b6565b6000825580601f106200026b57506200028c565b601f0160209004906000526020600020908101906200028b91906200022a565b5b50565b6000604051905090565b600080fd5b600080fd5b600080fd5b6000601f19601f8301169050919050565b7f4e487b7100000000000000000000000000000000000000000000000000000000600052604160045260246000fd5b620002f382620002a8565b810181811067ffffffffffffffff82111715620003155762000314620002b9565b5b80604052505050565b60006200032a6200028f565b9050620003388282620002e8565b919050565b600067ffffffffffffffff8211156200035b576200035a620002b9565b5b602082029050602081019050919050565b600080fd5b600080fd5b600067ffffffffffffffff821115620003945762000393620002b9565b5b6200039f82620002a8565b9050602081019050919050565b60005b83811015620003cc578082015181840152602081019050620003af565b60008484015250505050565b6000620003ef620003e98462000376565b6200031e565b9050828152602081018484840111156200040e576200040d62000371565b5b6200041b848285620003ac565b509392505050565b600082601f8301126200043b576200043a620002a3565b5b81516200044d848260208601620003d8565b91505092915050565b60006200046d62000467846200033d565b6200031e565b905080838252602082019050602084028301858111156200049357620004926200036c565b5b835b81811015620004e157805167ffffffffffffffff811115620004bc57620004bb620002a3565b5b808601620004cb898262000423565b8552602085019450505060208101905062000495565b5050509392505050565b600082601f830112620005035762000502620002a3565b5b81516200051584826020860162000456565b91505092915050565b600067ffffffffffffffff8211156200053c576200053b620002b9565b5b602082029050602081019050919050565b600073ffffffffffffffffffffffffffffffffffffffff82169050919050565b60006200057a826200054d565b9050919050565b6200058c816200056d565b81146200059857600080fd5b50565b600081519050620005ac8162000581565b92915050565b6000620005c9620005c3846200051e565b6200031e565b90508083825260208201905060208402830185811115620005ef57620005ee6200036c565b5b835b818110156200061c57806200060788826200059b565b845260208401935050602081019050620005f1565b5050509392505050565b600082601f8301126200063e576200063d620002a3565b5b815162000650848260208601620005b2565b91505092915050565b600080600080600060a0868803121562000678576200067762000299565b5b600086015167ffffffffffffffff8111156200069957620006986200029e565b5b620006a788828901620004eb565b955050602086015167ffffffffffffffff811115620006cb57620006ca6200029e565b5b620006d98882890162000423565b945050604086015167ffffffffffffffff811115620006fd57620006fc6200029e565b5b6200070b8882890162000626565b935050606086015167ffffffffffffffff8111156200072f576200072e6200029e565b5b6200073d8882890162000626565b925050608086015167ffffffffffffffff8111156200076157620007606200029e565b5b6200076f8882890162000423565b9150509295509295909350565b600081519050919050565b7f4e487b7100000000000000000000000000000000000000000000000000000000600052602260045260246000fd5b60006002820490506001821680620007cf57607f821691505b602082108103620007e557620007e462000787565b5b50919050565b60008190508160005260206000209050919050565b60006020601f8301049050919050565b600082821b905092915050565b6000600883026200084f7fffffffffffffffffffffffffffffffffffffffffffffffffffffffffffffffff8262000810565b6200085b868362000810565b95508019841693508086168417925050509392505050565b6000819050919050565b6000819050919050565b6000620008a8620008a26200089c8462000873565b6200087d565b62000873565b9050919050565b6000819050919050565b620008c48362000887565b620008dc620008d382620008af565b8484546200081d565b825550505050565b600090565b620008f3620008e4565b62000900818484620008b9565b505050565b5b8181101562000928576200091c600082620008e9565b60018101905062000906565b5050565b601f82111562000977576200094181620007eb565b6200094c8462000800565b810160208510156200095c578190505b620009746200096b8562000800565b83018262000905565b50505b505050565b600082821c905092915050565b60006200099c600019846008026200097c565b1980831691505092915050565b6000620009b7838362000989565b9150826002028217905092915050565b620009d2826200077c565b67ffffffffffffffff811115620009ee57620009ed620002b9565b5b620009fa8254620007b6565b62000a078282856200092c565b600060209050601f83116001811462000a3f576000841562000a2a578287015190505b62000a368582620009a9565b86555062000aa6565b601f19841662000a4f86620007eb565b60005b8281101562000a795784890151825560018201915060208501945060208101905062000a52565b8683101562000a99578489015162000a95601f89168262000989565b8355505b6001600288020188555050505b505050505050565b61072a8062000abe6000396000f3fe608060405234801561001057600080fd5b50600436106100575760003560e01c80632b7361001461005c57806355f285641461007a578063a13c53be14610096578063dd1ed946146100b2578063f8c587ac146100e2575b600080fd5b610064610101565b60405161007191906104c0565b60405180910390f35b610094600480360381019061008f9190610513565b610192565b005b6100b060048036038101906100ab9190610513565b6101fb565b005b6100cc60048036038101906100c79190610576565b61026f565b6040516100d991906105b2565b60405180910390f35b6100ea6102ae565b6040516100f892919061065d565b60405180910390f35b6060600060030180548060200260200160405190810160405280929190818152602001828054801561018857602002820191906000526020600020905b8160009054906101000a900473ffffffffffffffffffffffffffffffffffffffff1673ffffffffffffffffffffffffffffffffffffffff168152602001906001019080831161013e575b5050505050905090565b6000600301819080600181540180825580915050600190039060005260206000200160009091909190916101000a81548173ffffffffffffffffffffffffffffffffffffffff021916908373ffffffffffffffffffffffffffffffffffffffff16021790555050565b60008190508073ffffffffffffffffffffffffffffffffffffffff166355f28564336040518263ffffffff1660e01b815260040161023991906105b2565b600060405180830381600087803b15801561025357600080fd5b505af1158015610267573d6000803e3d6000fd5b505050505050565b6005818154811061027f57600080fd5b906000526020600020016000915054906101000a900473ffffffffffffffffffffffffffffffffffffffff1681565b60008060010180546102bf906106c3565b80601f01602080910402602001604051908101604052809291908181526020018280546102eb906106c3565b80156103385780601f1061030d57610100808354040283529160200191610338565b820191906000526020600020905b81548152906001019060200180831161031b57829003601f168201915b50505050509080600401805461034d906106c3565b80601f0160208091040260200160405190810160405280929190818152602001828054610379906106c3565b80156103c65780601f1061039b576101008083540402835291602001916103c6565b820191906000526020600020905b8154815290600101906020018083116103a957829003601f168201915b5050505050905082565b600081519050919050565b600082825260208201905092915050565b6000819050602082019050919050565b600073ffffffffffffffffffffffffffffffffffffffff82169050919050565b6000610427826103fc565b9050919050565b6104378161041c565b82525050565b6000610449838361042e565b60208301905092915050565b6000602082019050919050565b600061046d826103d0565b61047781856103db565b9350610482836103ec565b8060005b838110156104b357815161049a888261043d565b97506104a583610455565b925050600181019050610486565b5085935050505092915050565b600060208201905081810360008301526104da8184610462565b905092915050565b600080fd5b6104f08161041c565b81146104fb57600080fd5b50565b60008135905061050d816104e7565b92915050565b600060208284031215610529576105286104e2565b5b6000610537848285016104fe565b91505092915050565b6000819050919050565b61055381610540565b811461055e57600080fd5b50565b6000813590506105708161054a565b92915050565b60006020828403121561058c5761058b6104e2565b5b600061059a84828501610561565b91505092915050565b6105ac8161041c565b82525050565b60006020820190506105c760008301846105a3565b92915050565b600081519050919050565b600082825260208201905092915050565b60005b838110156106075780820151818401526020810190506105ec565b60008484015250505050565b6000601f19601f8301169050919050565b600061062f826105cd565b61063981856105d8565b93506106498185602086016105e9565b61065281610613565b840191505092915050565b600060408201905081810360008301526106778185610624565b9050818103602083015261068b8184610624565b90509392505050565b7f4e487b7100000000000000000000000000000000000000000000000000000000600052602260045260246000fd5b600060028204905060018216806106db57607f821691505b6020821081036106ee576106ed610694565b5b5091905056fea264697066735822122014b22ff583a6e3a74e40cdfaf60e01a421b312f8a079583ae5b1908a79795b8d64736f6c63430008120033",
					"opcodes": "PUSH1 0x80 PUSH1 0x40 MSTORE CALLVALUE DUP1 ISZERO PUSH3 0x11 JUMPI PUSH1 0x0 DUP1 REVERT JUMPDEST POP PUSH1 0x40 MLOAD PUSH3 0x11E8 CODESIZE SUB DUP1 PUSH3 0x11E8 DUP4 CODECOPY DUP2 DUP2 ADD PUSH1 0x40 MSTORE DUP2 ADD SWAP1 PUSH3 0x37 SWAP2 SWAP1 PUSH3 0x659 JUMP JUMPDEST PUSH1 0x40 MLOAD DUP1 PUSH1 0xA0 ADD PUSH1 0x40 MSTORE DUP1 DUP7 DUP2 MSTORE PUSH1 0x20 ADD DUP6 DUP2 MSTORE PUSH1 0x20 ADD DUP5 DUP2 MSTORE PUSH1 0x20 ADD DUP4 DUP2 MSTORE PUSH1 0x20 ADD DUP3 DUP2 MSTORE POP PUSH1 0x0 DUP1 DUP3 ADD MLOAD DUP2 PUSH1 0x0 ADD SWAP1 DUP1 MLOAD SWAP1 PUSH1 0x20 ADD SWAP1 PUSH3 0x7D SWAP3 SWAP2 SWAP1 PUSH3 0x113 JUMP JUMPDEST POP PUSH1 0x20 DUP3 ADD MLOAD DUP2 PUSH1 0x1 ADD SWAP1 DUP2 PUSH3 0x95 SWAP2 SWAP1 PUSH3 0x9C7 JUMP JUMPDEST POP PUSH1 0x40 DUP3 ADD MLOAD DUP2 PUSH1 0x2 ADD SWAP1 DUP1 MLOAD SWAP1 PUSH1 0x20 ADD SWAP1 PUSH3 0xB4 SWAP3 SWAP2 SWAP1 PUSH3 0x173 JUMP JUMPDEST POP PUSH1 0x60 DUP3 ADD MLOAD DUP2 PUSH1 0x3 ADD SWAP1 DUP1 MLOAD SWAP1 PUSH1 0x20 ADD SWAP1 PUSH3 0xD3 SWAP3 SWAP2 SWAP1 PUSH3 0x173 JUMP JUMPDEST POP PUSH1 0x80 DUP3 ADD MLOAD DUP2 PUSH1 0x4 ADD SWAP1 DUP2 PUSH3 0xEB SWAP2 SWAP1 PUSH3 0x9C7 JUMP JUMPDEST POP SWAP1 POP POP DUP2 PUSH1 0x5 SWAP1 DUP1 MLOAD SWAP1 PUSH1 0x20 ADD SWAP1 PUSH3 0x107 SWAP3 SWAP2 SWAP1 PUSH3 0x173 JUMP JUMPDEST POP POP POP POP POP POP PUSH3 0xAAE JUMP JUMPDEST DUP3 DUP1 SLOAD DUP3 DUP3 SSTORE SWAP1 PUSH1 0x0 MSTORE PUSH1 0x20 PUSH1 0x0 KECCAK256 SWAP1 DUP2 ADD SWAP3 DUP3 ISZERO PUSH3 0x160 JUMPI SWAP2 PUSH1 0x20 MUL DUP3 ADD JUMPDEST DUP3 DUP2 GT ISZERO PUSH3 0x15F JUMPI DUP3 MLOAD DUP3 SWAP1 DUP2 PUSH3 0x14E SWAP2 SWAP1 PUSH3 0x9C7 JUMP JUMPDEST POP SWAP2 PUSH1 0x20 ADD SWAP2 SWAP1 PUSH1 0x1 ADD SWAP1 PUSH3 0x134 JUMP JUMPDEST JUMPDEST POP SWAP1 POP PUSH3 0x16F SWAP2 SWAP1 PUSH3 0x202 JUMP JUMPDEST POP SWAP1 JUMP JUMPDEST DUP3 DUP1 SLOAD DUP3 DUP3 SSTORE SWAP1 PUSH1 0x0 MSTORE PUSH1 0x20 PUSH1 0x0 KECCAK256 SWAP1 DUP2 ADD SWAP3 DUP3 ISZERO PUSH3 0x1EF JUMPI SWAP2 PUSH1 0x20 MUL DUP3 ADD JUMPDEST DUP3 DUP2 GT ISZERO PUSH3 0x1EE JUMPI DUP3 MLOAD DUP3 PUSH1 0x0 PUSH2 0x100 EXP DUP2 SLOAD DUP2 PUSH20 0xFFFFFFFFFFFFFFFFFFFFFFFFFFFFFFFFFFFFFFFF MUL NOT AND SWAP1 DUP4 PUSH20 0xFFFFFFFFFFFFFFFFFFFFFFFFFFFFFFFFFFFFFFFF AND MUL OR SWAP1 SSTORE POP SWAP2 PUSH1 0x20 ADD SWAP2 SWAP1 PUSH1 0x1 ADD SWAP1 PUSH3 0x194 JUMP JUMPDEST JUMPDEST POP SWAP1 POP PUSH3 0x1FE SWAP2 SWAP1 PUSH3 0x22A JUMP JUMPDEST POP SWAP1 JUMP JUMPDEST JUMPDEST DUP1 DUP3 GT ISZERO PUSH3 0x226 JUMPI PUSH1 0x0 DUP2 DUP2 PUSH3 0x21C SWAP2 SWAP1 PUSH3 0x249 JUMP JUMPDEST POP PUSH1 0x1 ADD PUSH3 0x203 JUMP JUMPDEST POP SWAP1 JUMP JUMPDEST JUMPDEST DUP1 DUP3 GT ISZERO PUSH3 0x245 JUMPI PUSH1 0x0 DUP2 PUSH1 0x0 SWAP1 SSTORE POP PUSH1 0x1 ADD PUSH3 0x22B JUMP JUMPDEST POP SWAP1 JUMP JUMPDEST POP DUP1 SLOAD PUSH3 0x257 SWAP1 PUSH3 0x7B6 JUMP JUMPDEST PUSH1 0x0 DUP3 SSTORE DUP1 PUSH1 0x1F LT PUSH3 0x26B JUMPI POP PUSH3 0x28C JUMP JUMPDEST PUSH1 0x1F ADD PUSH1 0x20 SWAP1 DIV SWAP1 PUSH1 0x0 MSTORE PUSH1 0x20 PUSH1 0x0 KECCAK256 SWAP1 DUP2 ADD SWAP1 PUSH3 0x28B SWAP2 SWAP1 PUSH3 0x22A JUMP JUMPDEST JUMPDEST POP JUMP JUMPDEST PUSH1 0x0 PUSH1 0x40 MLOAD SWAP1 POP SWAP1 JUMP JUMPDEST PUSH1 0x0 DUP1 REVERT JUMPDEST PUSH1 0x0 DUP1 REVERT JUMPDEST PUSH1 0x0 DUP1 REVERT JUMPDEST PUSH1 0x0 PUSH1 0x1F NOT PUSH1 0x1F DUP4 ADD AND SWAP1 POP SWAP2 SWAP1 POP JUMP JUMPDEST PUSH32 0x4E487B7100000000000000000000000000000000000000000000000000000000 PUSH1 0x0 MSTORE PUSH1 0x41 PUSH1 0x4 MSTORE PUSH1 0x24 PUSH1 0x0 REVERT JUMPDEST PUSH3 0x2F3 DUP3 PUSH3 0x2A8 JUMP JUMPDEST DUP2 ADD DUP2 DUP2 LT PUSH8 0xFFFFFFFFFFFFFFFF DUP3 GT OR ISZERO PUSH3 0x315 JUMPI PUSH3 0x314 PUSH3 0x2B9 JUMP JUMPDEST JUMPDEST DUP1 PUSH1 0x40 MSTORE POP POP POP JUMP JUMPDEST PUSH1 0x0 PUSH3 0x32A PUSH3 0x28F JUMP JUMPDEST SWAP1 POP PUSH3 0x338 DUP3 DUP3 PUSH3 0x2E8 JUMP JUMPDEST SWAP2 SWAP1 POP JUMP JUMPDEST PUSH1 0x0 PUSH8 0xFFFFFFFFFFFFFFFF DUP3 GT ISZERO PUSH3 0x35B JUMPI PUSH3 0x35A PUSH3 0x2B9 JUMP JUMPDEST JUMPDEST PUSH1 0x20 DUP3 MUL SWAP1 POP PUSH1 0x20 DUP2 ADD SWAP1 POP SWAP2 SWAP1 POP JUMP JUMPDEST PUSH1 0x0 DUP1 REVERT JUMPDEST PUSH1 0x0 DUP1 REVERT JUMPDEST PUSH1 0x0 PUSH8 0xFFFFFFFFFFFFFFFF DUP3 GT ISZERO PUSH3 0x394 JUMPI PUSH3 0x393 PUSH3 0x2B9 JUMP JUMPDEST JUMPDEST PUSH3 0x39F DUP3 PUSH3 0x2A8 JUMP JUMPDEST SWAP1 POP PUSH1 0x20 DUP2 ADD SWAP1 POP SWAP2 SWAP1 POP JUMP JUMPDEST PUSH1 0x0 JUMPDEST DUP4 DUP2 LT ISZERO PUSH3 0x3CC JUMPI DUP1 DUP3 ADD MLOAD DUP2 DUP5 ADD MSTORE PUSH1 0x20 DUP2 ADD SWAP1 POP PUSH3 0x3AF JUMP JUMPDEST PUSH1 0x0 DUP5 DUP5 ADD MSTORE POP POP POP POP JUMP JUMPDEST PUSH1 0x0 PUSH3 0x3EF PUSH3 0x3E9 DUP5 PUSH3 0x376 JUMP JUMPDEST PUSH3 0x31E JUMP JUMPDEST SWAP1 POP DUP3 DUP2 MSTORE PUSH1 0x20 DUP2 ADD DUP5 DUP5 DUP5 ADD GT ISZERO PUSH3 0x40E JUMPI PUSH3 0x40D PUSH3 0x371 JUMP JUMPDEST JUMPDEST PUSH3 0x41B DUP5 DUP3 DUP6 PUSH3 0x3AC JUMP JUMPDEST POP SWAP4 SWAP3 POP POP POP JUMP JUMPDEST PUSH1 0x0 DUP3 PUSH1 0x1F DUP4 ADD SLT PUSH3 0x43B JUMPI PUSH3 0x43A PUSH3 0x2A3 JUMP JUMPDEST JUMPDEST DUP2 MLOAD PUSH3 0x44D DUP5 DUP3 PUSH1 0x20 DUP7 ADD PUSH3 0x3D8 JUMP JUMPDEST SWAP2 POP POP SWAP3 SWAP2 POP POP JUMP JUMPDEST PUSH1 0x0 PUSH3 0x46D PUSH3 0x467 DUP5 PUSH3 0x33D JUMP JUMPDEST PUSH3 0x31E JUMP JUMPDEST SWAP1 POP DUP1 DUP4 DUP3 MSTORE PUSH1 0x20 DUP3 ADD SWAP1 POP PUSH1 0x20 DUP5 MUL DUP4 ADD DUP6 DUP2 GT ISZERO PUSH3 0x493 JUMPI PUSH3 0x492 PUSH3 0x36C JUMP JUMPDEST JUMPDEST DUP4 JUMPDEST DUP2 DUP2 LT ISZERO PUSH3 0x4E1 JUMPI DUP1 MLOAD PUSH8 0xFFFFFFFFFFFFFFFF DUP2 GT ISZERO PUSH3 0x4BC JUMPI PUSH3 0x4BB PUSH3 0x2A3 JUMP JUMPDEST JUMPDEST DUP1 DUP7 ADD PUSH3 0x4CB DUP10 DUP3 PUSH3 0x423 JUMP JUMPDEST DUP6 MSTORE PUSH1 0x20 DUP6 ADD SWAP5 POP POP POP PUSH1 0x20 DUP2 ADD SWAP1 POP PUSH3 0x495 JUMP JUMPDEST POP POP POP SWAP4 SWAP3 POP POP POP JUMP JUMPDEST PUSH1 0x0 DUP3 PUSH1 0x1F DUP4 ADD SLT PUSH3 0x503 JUMPI PUSH3 0x502 PUSH3 0x2A3 JUMP JUMPDEST JUMPDEST DUP2 MLOAD PUSH3 0x515 DUP5 DUP3 PUSH1 0x20 DUP7 ADD PUSH3 0x456 JUMP JUMPDEST SWAP2 POP POP SWAP3 SWAP2 POP POP JUMP JUMPDEST PUSH1 0x0 PUSH8 0xFFFFFFFFFFFFFFFF DUP3 GT ISZERO PUSH3 0x53C JUMPI PUSH3 0x53B PUSH3 0x2B9 JUMP JUMPDEST JUMPDEST PUSH1 0x20 DUP3 MUL SWAP1 POP PUSH1 0x20 DUP2 ADD SWAP1 POP SWAP2 SWAP1 POP JUMP JUMPDEST PUSH1 0x0 PUSH20 0xFFFFFFFFFFFFFFFFFFFFFFFFFFFFFFFFFFFFFFFF DUP3 AND SWAP1 POP SWAP2 SWAP1 POP JUMP JUMPDEST PUSH1 0x0 PUSH3 0x57A DUP3 PUSH3 0x54D JUMP JUMPDEST SWAP1 POP SWAP2 SWAP1 POP JUMP JUMPDEST PUSH3 0x58C DUP2 PUSH3 0x56D JUMP JUMPDEST DUP2 EQ PUSH3 0x598 JUMPI PUSH1 0x0 DUP1 REVERT JUMPDEST POP JUMP JUMPDEST PUSH1 0x0 DUP2 MLOAD SWAP1 POP PUSH3 0x5AC DUP2 PUSH3 0x581 JUMP JUMPDEST SWAP3 SWAP2 POP POP JUMP JUMPDEST PUSH1 0x0 PUSH3 0x5C9 PUSH3 0x5C3 DUP5 PUSH3 0x51E JUMP JUMPDEST PUSH3 0x31E JUMP JUMPDEST SWAP1 POP DUP1 DUP4 DUP3 MSTORE PUSH1 0x20 DUP3 ADD SWAP1 POP PUSH1 0x20 DUP5 MUL DUP4 ADD DUP6 DUP2 GT ISZERO PUSH3 0x5EF JUMPI PUSH3 0x5EE PUSH3 0x36C JUMP JUMPDEST JUMPDEST DUP4 JUMPDEST DUP2 DUP2 LT ISZERO PUSH3 0x61C JUMPI DUP1 PUSH3 0x607 DUP9 DUP3 PUSH3 0x59B JUMP JUMPDEST DUP5 MSTORE PUSH1 0x20 DUP5 ADD SWAP4 POP POP PUSH1 0x20 DUP2 ADD SWAP1 POP PUSH3 0x5F1 JUMP JUMPDEST POP POP POP SWAP4 SWAP3 POP POP POP JUMP JUMPDEST PUSH1 0x0 DUP3 PUSH1 0x1F DUP4 ADD SLT PUSH3 0x63E JUMPI PUSH3 0x63D PUSH3 0x2A3 JUMP JUMPDEST JUMPDEST DUP2 MLOAD PUSH3 0x650 DUP5 DUP3 PUSH1 0x20 DUP7 ADD PUSH3 0x5B2 JUMP JUMPDEST SWAP2 POP POP SWAP3 SWAP2 POP POP JUMP JUMPDEST PUSH1 0x0 DUP1 PUSH1 0x0 DUP1 PUSH1 0x0 PUSH1 0xA0 DUP7 DUP9 SUB SLT ISZERO PUSH3 0x678 JUMPI PUSH3 0x677 PUSH3 0x299 JUMP JUMPDEST JUMPDEST PUSH1 0x0 DUP7 ADD MLOAD PUSH8 0xFFFFFFFFFFFFFFFF DUP2 GT ISZERO PUSH3 0x699 JUMPI PUSH3 0x698 PUSH3 0x29E JUMP JUMPDEST JUMPDEST PUSH3 0x6A7 DUP9 DUP3 DUP10 ADD PUSH3 0x4EB JUMP JUMPDEST SWAP6 POP POP PUSH1 0x20 DUP7 ADD MLOAD PUSH8 0xFFFFFFFFFFFFFFFF DUP2 GT ISZERO PUSH3 0x6CB JUMPI PUSH3 0x6CA PUSH3 0x29E JUMP JUMPDEST JUMPDEST PUSH3 0x6D9 DUP9 DUP3 DUP10 ADD PUSH3 0x423 JUMP JUMPDEST SWAP5 POP POP PUSH1 0x40 DUP7 ADD MLOAD PUSH8 0xFFFFFFFFFFFFFFFF DUP2 GT ISZERO PUSH3 0x6FD JUMPI PUSH3 0x6FC PUSH3 0x29E JUMP JUMPDEST JUMPDEST PUSH3 0x70B DUP9 DUP3 DUP10 ADD PUSH3 0x626 JUMP JUMPDEST SWAP4 POP POP PUSH1 0x60 DUP7 ADD MLOAD PUSH8 0xFFFFFFFFFFFFFFFF DUP2 GT ISZERO PUSH3 0x72F JUMPI PUSH3 0x72E PUSH3 0x29E JUMP JUMPDEST JUMPDEST PUSH3 0x73D DUP9 DUP3 DUP10 ADD PUSH3 0x626 JUMP JUMPDEST SWAP3 POP POP PUSH1 0x80 DUP7 ADD MLOAD PUSH8 0xFFFFFFFFFFFFFFFF DUP2 GT ISZERO PUSH3 0x761 JUMPI PUSH3 0x760 PUSH3 0x29E JUMP JUMPDEST JUMPDEST PUSH3 0x76F DUP9 DUP3 DUP10 ADD PUSH3 0x423 JUMP JUMPDEST SWAP2 POP POP SWAP3 SWAP6 POP SWAP3 SWAP6 SWAP1 SWAP4 POP JUMP JUMPDEST PUSH1 0x0 DUP2 MLOAD SWAP1 POP SWAP2 SWAP1 POP JUMP JUMPDEST PUSH32 0x4E487B7100000000000000000000000000000000000000000000000000000000 PUSH1 0x0 MSTORE PUSH1 0x22 PUSH1 0x4 MSTORE PUSH1 0x24 PUSH1 0x0 REVERT JUMPDEST PUSH1 0x0 PUSH1 0x2 DUP3 DIV SWAP1 POP PUSH1 0x1 DUP3 AND DUP1 PUSH3 0x7CF JUMPI PUSH1 0x7F DUP3 AND SWAP2 POP JUMPDEST PUSH1 0x20 DUP3 LT DUP2 SUB PUSH3 0x7E5 JUMPI PUSH3 0x7E4 PUSH3 0x787 JUMP JUMPDEST JUMPDEST POP SWAP2 SWAP1 POP JUMP JUMPDEST PUSH1 0x0 DUP2 SWAP1 POP DUP2 PUSH1 0x0 MSTORE PUSH1 0x20 PUSH1 0x0 KECCAK256 SWAP1 POP SWAP2 SWAP1 POP JUMP JUMPDEST PUSH1 0x0 PUSH1 0x20 PUSH1 0x1F DUP4 ADD DIV SWAP1 POP SWAP2 SWAP1 POP JUMP JUMPDEST PUSH1 0x0 DUP3 DUP3 SHL SWAP1 POP SWAP3 SWAP2 POP POP JUMP JUMPDEST PUSH1 0x0 PUSH1 0x8 DUP4 MUL PUSH3 0x84F PUSH32 0xFFFFFFFFFFFFFFFFFFFFFFFFFFFFFFFFFFFFFFFFFFFFFFFFFFFFFFFFFFFFFFFF DUP3 PUSH3 0x810 JUMP JUMPDEST PUSH3 0x85B DUP7 DUP4 PUSH3 0x810 JUMP JUMPDEST SWAP6 POP DUP1 NOT DUP5 AND SWAP4 POP DUP1 DUP7 AND DUP5 OR SWAP3 POP POP POP SWAP4 SWAP3 POP POP POP JUMP JUMPDEST PUSH1 0x0 DUP2 SWAP1 POP SWAP2 SWAP1 POP JUMP JUMPDEST PUSH1 0x0 DUP2 SWAP1 POP SWAP2 SWAP1 POP JUMP JUMPDEST PUSH1 0x0 PUSH3 0x8A8 PUSH3 0x8A2 PUSH3 0x89C DUP5 PUSH3 0x873 JUMP JUMPDEST PUSH3 0x87D JUMP JUMPDEST PUSH3 0x873 JUMP JUMPDEST SWAP1 POP SWAP2 SWAP1 POP JUMP JUMPDEST PUSH1 0x0 DUP2 SWAP1 POP SWAP2 SWAP1 POP JUMP JUMPDEST PUSH3 0x8C4 DUP4 PUSH3 0x887 JUMP JUMPDEST PUSH3 0x8DC PUSH3 0x8D3 DUP3 PUSH3 0x8AF JUMP JUMPDEST DUP5 DUP5 SLOAD PUSH3 0x81D JUMP JUMPDEST DUP3 SSTORE POP POP POP POP JUMP JUMPDEST PUSH1 0x0 SWAP1 JUMP JUMPDEST PUSH3 0x8F3 PUSH3 0x8E4 JUMP JUMPDEST PUSH3 0x900 DUP2 DUP5 DUP5 PUSH3 0x8B9 JUMP JUMPDEST POP POP POP JUMP JUMPDEST JUMPDEST DUP2 DUP2 LT ISZERO PUSH3 0x928 JUMPI PUSH3 0x91C PUSH1 0x0 DUP3 PUSH3 0x8E9 JUMP JUMPDEST PUSH1 0x1 DUP2 ADD SWAP1 POP PUSH3 0x906 JUMP JUMPDEST POP POP JUMP JUMPDEST PUSH1 0x1F DUP3 GT ISZERO PUSH3 0x977 JUMPI PUSH3 0x941 DUP2 PUSH3 0x7EB JUMP JUMPDEST PUSH3 0x94C DUP5 PUSH3 0x800 JUMP JUMPDEST DUP2 ADD PUSH1 0x20 DUP6 LT ISZERO PUSH3 0x95C JUMPI DUP2 SWAP1 POP JUMPDEST PUSH3 0x974 PUSH3 0x96B DUP6 PUSH3 0x800 JUMP JUMPDEST DUP4 ADD DUP3 PUSH3 0x905 JUMP JUMPDEST POP POP JUMPDEST POP POP POP JUMP JUMPDEST PUSH1 0x0 DUP3 DUP3 SHR SWAP1 POP SWAP3 SWAP2 POP POP JUMP JUMPDEST PUSH1 0x0 PUSH3 0x99C PUSH1 0x0 NOT DUP5 PUSH1 0x8 MUL PUSH3 0x97C JUMP JUMPDEST NOT DUP1 DUP4 AND SWAP2 POP POP SWAP3 SWAP2 POP POP JUMP JUMPDEST PUSH1 0x0 PUSH3 0x9B7 DUP4 DUP4 PUSH3 0x989 JUMP JUMPDEST SWAP2 POP DUP3 PUSH1 0x2 MUL DUP3 OR SWAP1 POP SWAP3 SWAP2 POP POP JUMP JUMPDEST PUSH3 0x9D2 DUP3 PUSH3 0x77C JUMP JUMPDEST PUSH8 0xFFFFFFFFFFFFFFFF DUP2 GT ISZERO PUSH3 0x9EE JUMPI PUSH3 0x9ED PUSH3 0x2B9 JUMP JUMPDEST JUMPDEST PUSH3 0x9FA DUP3 SLOAD PUSH3 0x7B6 JUMP JUMPDEST PUSH3 0xA07 DUP3 DUP3 DUP6 PUSH3 0x92C JUMP JUMPDEST PUSH1 0x0 PUSH1 0x20 SWAP1 POP PUSH1 0x1F DUP4 GT PUSH1 0x1 DUP2 EQ PUSH3 0xA3F JUMPI PUSH1 0x0 DUP5 ISZERO PUSH3 0xA2A JUMPI DUP3 DUP8 ADD MLOAD SWAP1 POP JUMPDEST PUSH3 0xA36 DUP6 DUP3 PUSH3 0x9A9 JUMP JUMPDEST DUP7 SSTORE POP PUSH3 0xAA6 JUMP JUMPDEST PUSH1 0x1F NOT DUP5 AND PUSH3 0xA4F DUP7 PUSH3 0x7EB JUMP JUMPDEST PUSH1 0x0 JUMPDEST DUP3 DUP2 LT ISZERO PUSH3 0xA79 JUMPI DUP5 DUP10 ADD MLOAD DUP3 SSTORE PUSH1 0x1 DUP3 ADD SWAP2 POP PUSH1 0x20 DUP6 ADD SWAP5 POP PUSH1 0x20 DUP2 ADD SWAP1 POP PUSH3 0xA52 JUMP JUMPDEST DUP7 DUP4 LT ISZERO PUSH3 0xA99 JUMPI DUP5 DUP10 ADD MLOAD PUSH3 0xA95 PUSH1 0x1F DUP10 AND DUP3 PUSH3 0x989 JUMP JUMPDEST DUP4 SSTORE POP JUMPDEST PUSH1 0x1 PUSH1 0x2 DUP9 MUL ADD DUP9 SSTORE POP POP POP JUMPDEST POP POP POP POP POP POP JUMP JUMPDEST PUSH2 0x72A DUP1 PUSH3 0xABE PUSH1 0x0 CODECOPY PUSH1 0x0 RETURN INVALID PUSH1 0x80 PUSH1 0x40 MSTORE CALLVALUE DUP1 ISZERO PUSH2 0x10 JUMPI PUSH1 0x0 DUP1 REVERT JUMPDEST POP PUSH1 0x4 CALLDATASIZE LT PUSH2 0x57 JUMPI PUSH1 0x0 CALLDATALOAD PUSH1 0xE0 SHR DUP1 PUSH4 0x2B736100 EQ PUSH2 0x5C JUMPI DUP1 PUSH4 0x55F28564 EQ PUSH2 0x7A JUMPI DUP1 PUSH4 0xA13C53BE EQ PUSH2 0x96 JUMPI DUP1 PUSH4 0xDD1ED946 EQ PUSH2 0xB2 JUMPI DUP1 PUSH4 0xF8C587AC EQ PUSH2 0xE2 JUMPI JUMPDEST PUSH1 0x0 DUP1 REVERT JUMPDEST PUSH2 0x64 PUSH2 0x101 JUMP JUMPDEST PUSH1 0x40 MLOAD PUSH2 0x71 SWAP2 SWAP1 PUSH2 0x4C0 JUMP JUMPDEST PUSH1 0x40 MLOAD DUP1 SWAP2 SUB SWAP1 RETURN JUMPDEST PUSH2 0x94 PUSH1 0x4 DUP1 CALLDATASIZE SUB DUP2 ADD SWAP1 PUSH2 0x8F SWAP2 SWAP1 PUSH2 0x513 JUMP JUMPDEST PUSH2 0x192 JUMP JUMPDEST STOP JUMPDEST PUSH2 0xB0 PUSH1 0x4 DUP1 CALLDATASIZE SUB DUP2 ADD SWAP1 PUSH2 0xAB SWAP2 SWAP1 PUSH2 0x513 JUMP JUMPDEST PUSH2 0x1FB JUMP JUMPDEST STOP JUMPDEST PUSH2 0xCC PUSH1 0x4 DUP1 CALLDATASIZE SUB DUP2 ADD SWAP1 PUSH2 0xC7 SWAP2 SWAP1 PUSH2 0x576 JUMP JUMPDEST PUSH2 0x26F JUMP JUMPDEST PUSH1 0x40 MLOAD PUSH2 0xD9 SWAP2 SWAP1 PUSH2 0x5B2 JUMP JUMPDEST PUSH1 0x40 MLOAD DUP1 SWAP2 SUB SWAP1 RETURN JUMPDEST PUSH2 0xEA PUSH2 0x2AE JUMP JUMPDEST PUSH1 0x40 MLOAD PUSH2 0xF8 SWAP3 SWAP2 SWAP1 PUSH2 0x65D JUMP JUMPDEST PUSH1 0x40 MLOAD DUP1 SWAP2 SUB SWAP1 RETURN JUMPDEST PUSH1 0x60 PUSH1 0x0 PUSH1 0x3 ADD DUP1 SLOAD DUP1 PUSH1 0x20 MUL PUSH1 0x20 ADD PUSH1 0x40 MLOAD SWAP1 DUP2 ADD PUSH1 0x40 MSTORE DUP1 SWAP3 SWAP2 SWAP1 DUP2 DUP2 MSTORE PUSH1 0x20 ADD DUP3 DUP1 SLOAD DUP1 ISZERO PUSH2 0x188 JUMPI PUSH1 0x20 MUL DUP3 ADD SWAP2 SWAP1 PUSH1 0x0 MSTORE PUSH1 0x20 PUSH1 0x0 KECCAK256 SWAP1 JUMPDEST DUP2 PUSH1 0x0 SWAP1 SLOAD SWAP1 PUSH2 0x100 EXP SWAP1 DIV PUSH20 0xFFFFFFFFFFFFFFFFFFFFFFFFFFFFFFFFFFFFFFFF AND PUSH20 0xFFFFFFFFFFFFFFFFFFFFFFFFFFFFFFFFFFFFFFFF AND DUP2 MSTORE PUSH1 0x20 ADD SWAP1 PUSH1 0x1 ADD SWAP1 DUP1 DUP4 GT PUSH2 0x13E JUMPI JUMPDEST POP POP POP POP POP SWAP1 POP SWAP1 JUMP JUMPDEST PUSH1 0x0 PUSH1 0x3 ADD DUP2 SWAP1 DUP1 PUSH1 0x1 DUP2 SLOAD ADD DUP1 DUP3 SSTORE DUP1 SWAP2 POP POP PUSH1 0x1 SWAP1 SUB SWAP1 PUSH1 0x0 MSTORE PUSH1 0x20 PUSH1 0x0 KECCAK256 ADD PUSH1 0x0 SWAP1 SWAP2 SWAP1 SWAP2 SWAP1 SWAP2 PUSH2 0x100 EXP DUP2 SLOAD DUP2 PUSH20 0xFFFFFFFFFFFFFFFFFFFFFFFFFFFFFFFFFFFFFFFF MUL NOT AND SWAP1 DUP4 PUSH20 0xFFFFFFFFFFFFFFFFFFFFFFFFFFFFFFFFFFFFFFFF AND MUL OR SWAP1 SSTORE POP POP JUMP JUMPDEST PUSH1 0x0 DUP2 SWAP1 POP DUP1 PUSH20 0xFFFFFFFFFFFFFFFFFFFFFFFFFFFFFFFFFFFFFFFF AND PUSH4 0x55F28564 CALLER PUSH1 0x40 MLOAD DUP3 PUSH4 0xFFFFFFFF AND PUSH1 0xE0 SHL DUP2 MSTORE PUSH1 0x4 ADD PUSH2 0x239 SWAP2 SWAP1 PUSH2 0x5B2 JUMP JUMPDEST PUSH1 0x0 PUSH1 0x40 MLOAD DUP1 DUP4 SUB DUP2 PUSH1 0x0 DUP8 DUP1 EXTCODESIZE ISZERO DUP1 ISZERO PUSH2 0x253 JUMPI PUSH1 0x0 DUP1 REVERT JUMPDEST POP GAS CALL ISZERO DUP1 ISZERO PUSH2 0x267 JUMPI RETURNDATASIZE PUSH1 0x0 DUP1 RETURNDATACOPY RETURNDATASIZE PUSH1 0x0 REVERT JUMPDEST POP POP POP POP POP POP JUMP JUMPDEST PUSH1 0x5 DUP2 DUP2 SLOAD DUP2 LT PUSH2 0x27F JUMPI PUSH1 0x0 DUP1 REVERT JUMPDEST SWAP1 PUSH1 0x0 MSTORE PUSH1 0x20 PUSH1 0x0 KECCAK256 ADD PUSH1 0x0 SWAP2 POP SLOAD SWAP1 PUSH2 0x100 EXP SWAP1 DIV PUSH20 0xFFFFFFFFFFFFFFFFFFFFFFFFFFFFFFFFFFFFFFFF AND DUP2 JUMP JUMPDEST PUSH1 0x0 DUP1 PUSH1 0x1 ADD DUP1 SLOAD PUSH2 0x2BF SWAP1 PUSH2 0x6C3 JUMP JUMPDEST DUP1 PUSH1 0x1F ADD PUSH1 0x20 DUP1 SWAP2 DIV MUL PUSH1 0x20 ADD PUSH1 0x40 MLOAD SWAP1 DUP2 ADD PUSH1 0x40 MSTORE DUP1 SWAP3 SWAP2 SWAP1 DUP2 DUP2 MSTORE PUSH1 0x20 ADD DUP3 DUP1 SLOAD PUSH2 0x2EB SWAP1 PUSH2 0x6C3 JUMP JUMPDEST DUP1 ISZERO PUSH2 0x338 JUMPI DUP1 PUSH1 0x1F LT PUSH2 0x30D JUMPI PUSH2 0x100 DUP1 DUP4 SLOAD DIV MUL DUP4 MSTORE SWAP2 PUSH1 0x20 ADD SWAP2 PUSH2 0x338 JUMP JUMPDEST DUP3 ADD SWAP2 SWAP1 PUSH1 0x0 MSTORE PUSH1 0x20 PUSH1 0x0 KECCAK256 SWAP1 JUMPDEST DUP2 SLOAD DUP2 MSTORE SWAP1 PUSH1 0x1 ADD SWAP1 PUSH1 0x20 ADD DUP1 DUP4 GT PUSH2 0x31B JUMPI DUP3 SWAP1 SUB PUSH1 0x1F AND DUP3 ADD SWAP2 JUMPDEST POP POP POP POP POP SWAP1 DUP1 PUSH1 0x4 ADD DUP1 SLOAD PUSH2 0x34D SWAP1 PUSH2 0x6C3 JUMP JUMPDEST DUP1 PUSH1 0x1F ADD PUSH1 0x20 DUP1 SWAP2 DIV MUL PUSH1 0x20 ADD PUSH1 0x40 MLOAD SWAP1 DUP2 ADD PUSH1 0x40 MSTORE DUP1 SWAP3 SWAP2 SWAP1 DUP2 DUP2 MSTORE PUSH1 0x20 ADD DUP3 DUP1 SLOAD PUSH2 0x379 SWAP1 PUSH2 0x6C3 JUMP JUMPDEST DUP1 ISZERO PUSH2 0x3C6 JUMPI DUP1 PUSH1 0x1F LT PUSH2 0x39B JUMPI PUSH2 0x100 DUP1 DUP4 SLOAD DIV MUL DUP4 MSTORE SWAP2 PUSH1 0x20 ADD SWAP2 PUSH2 0x3C6 JUMP JUMPDEST DUP3 ADD SWAP2 SWAP1 PUSH1 0x0 MSTORE PUSH1 0x20 PUSH1 0x0 KECCAK256 SWAP1 JUMPDEST DUP2 SLOAD DUP2 MSTORE SWAP1 PUSH1 0x1 ADD SWAP1 PUSH1 0x20 ADD DUP1 DUP4 GT PUSH2 0x3A9 JUMPI DUP3 SWAP1 SUB PUSH1 0x1F AND DUP3 ADD SWAP2 JUMPDEST POP POP POP POP POP SWAP1 POP DUP3 JUMP JUMPDEST PUSH1 0x0 DUP2 MLOAD SWAP1 POP SWAP2 SWAP1 POP JUMP JUMPDEST PUSH1 0x0 DUP3 DUP3 MSTORE PUSH1 0x20 DUP3 ADD SWAP1 POP SWAP3 SWAP2 POP POP JUMP JUMPDEST PUSH1 0x0 DUP2 SWAP1 POP PUSH1 0x20 DUP3 ADD SWAP1 POP SWAP2 SWAP1 POP JUMP JUMPDEST PUSH1 0x0 PUSH20 0xFFFFFFFFFFFFFFFFFFFFFFFFFFFFFFFFFFFFFFFF DUP3 AND SWAP1 POP SWAP2 SWAP1 POP JUMP JUMPDEST PUSH1 0x0 PUSH2 0x427 DUP3 PUSH2 0x3FC JUMP JUMPDEST SWAP1 POP SWAP2 SWAP1 POP JUMP JUMPDEST PUSH2 0x437 DUP2 PUSH2 0x41C JUMP JUMPDEST DUP3 MSTORE POP POP JUMP JUMPDEST PUSH1 0x0 PUSH2 0x449 DUP4 DUP4 PUSH2 0x42E JUMP JUMPDEST PUSH1 0x20 DUP4 ADD SWAP1 POP SWAP3 SWAP2 POP POP JUMP JUMPDEST PUSH1 0x0 PUSH1 0x20 DUP3 ADD SWAP1 POP SWAP2 SWAP1 POP JUMP JUMPDEST PUSH1 0x0 PUSH2 0x46D DUP3 PUSH2 0x3D0 JUMP JUMPDEST PUSH2 0x477 DUP2 DUP6 PUSH2 0x3DB JUMP JUMPDEST SWAP4 POP PUSH2 0x482 DUP4 PUSH2 0x3EC JUMP JUMPDEST DUP1 PUSH1 0x0 JUMPDEST DUP4 DUP2 LT ISZERO PUSH2 0x4B3 JUMPI DUP2 MLOAD PUSH2 0x49A DUP9 DUP3 PUSH2 0x43D JUMP JUMPDEST SWAP8 POP PUSH2 0x4A5 DUP4 PUSH2 0x455 JUMP JUMPDEST SWAP3 POP POP PUSH1 0x1 DUP2 ADD SWAP1 POP PUSH2 0x486 JUMP JUMPDEST POP DUP6 SWAP4 POP POP POP POP SWAP3 SWAP2 POP POP JUMP JUMPDEST PUSH1 0x0 PUSH1 0x20 DUP3 ADD SWAP1 POP DUP2 DUP2 SUB PUSH1 0x0 DUP4 ADD MSTORE PUSH2 0x4DA DUP2 DUP5 PUSH2 0x462 JUMP JUMPDEST SWAP1 POP SWAP3 SWAP2 POP POP JUMP JUMPDEST PUSH1 0x0 DUP1 REVERT JUMPDEST PUSH2 0x4F0 DUP2 PUSH2 0x41C JUMP JUMPDEST DUP2 EQ PUSH2 0x4FB JUMPI PUSH1 0x0 DUP1 REVERT JUMPDEST POP JUMP JUMPDEST PUSH1 0x0 DUP2 CALLDATALOAD SWAP1 POP PUSH2 0x50D DUP2 PUSH2 0x4E7 JUMP JUMPDEST SWAP3 SWAP2 POP POP JUMP JUMPDEST PUSH1 0x0 PUSH1 0x20 DUP3 DUP5 SUB SLT ISZERO PUSH2 0x529 JUMPI PUSH2 0x528 PUSH2 0x4E2 JUMP JUMPDEST JUMPDEST PUSH1 0x0 PUSH2 0x537 DUP5 DUP3 DUP6 ADD PUSH2 0x4FE JUMP JUMPDEST SWAP2 POP POP SWAP3 SWAP2 POP POP JUMP JUMPDEST PUSH1 0x0 DUP2 SWAP1 POP SWAP2 SWAP1 POP JUMP JUMPDEST PUSH2 0x553 DUP2 PUSH2 0x540 JUMP JUMPDEST DUP2 EQ PUSH2 0x55E JUMPI PUSH1 0x0 DUP1 REVERT JUMPDEST POP JUMP JUMPDEST PUSH1 0x0 DUP2 CALLDATALOAD SWAP1 POP PUSH2 0x570 DUP2 PUSH2 0x54A JUMP JUMPDEST SWAP3 SWAP2 POP POP JUMP JUMPDEST PUSH1 0x0 PUSH1 0x20 DUP3 DUP5 SUB SLT ISZERO PUSH2 0x58C JUMPI PUSH2 0x58B PUSH2 0x4E2 JUMP JUMPDEST JUMPDEST PUSH1 0x0 PUSH2 0x59A DUP5 DUP3 DUP6 ADD PUSH2 0x561 JUMP JUMPDEST SWAP2 POP POP SWAP3 SWAP2 POP POP JUMP JUMPDEST PUSH2 0x5AC DUP2 PUSH2 0x41C JUMP JUMPDEST DUP3 MSTORE POP POP JUMP JUMPDEST PUSH1 0x0 PUSH1 0x20 DUP3 ADD SWAP1 POP PUSH2 0x5C7 PUSH1 0x0 DUP4 ADD DUP5 PUSH2 0x5A3 JUMP JUMPDEST SWAP3 SWAP2 POP POP JUMP JUMPDEST PUSH1 0x0 DUP2 MLOAD SWAP1 POP SWAP2 SWAP1 POP JUMP JUMPDEST PUSH1 0x0 DUP3 DUP3 MSTORE PUSH1 0x20 DUP3 ADD SWAP1 POP SWAP3 SWAP2 POP POP JUMP JUMPDEST PUSH1 0x0 JUMPDEST DUP4 DUP2 LT ISZERO PUSH2 0x607 JUMPI DUP1 DUP3 ADD MLOAD DUP2 DUP5 ADD MSTORE PUSH1 0x20 DUP2 ADD SWAP1 POP PUSH2 0x5EC JUMP JUMPDEST PUSH1 0x0 DUP5 DUP5 ADD MSTORE POP POP POP POP JUMP JUMPDEST PUSH1 0x0 PUSH1 0x1F NOT PUSH1 0x1F DUP4 ADD AND SWAP1 POP SWAP2 SWAP1 POP JUMP JUMPDEST PUSH1 0x0 PUSH2 0x62F DUP3 PUSH2 0x5CD JUMP JUMPDEST PUSH2 0x639 DUP2 DUP6 PUSH2 0x5D8 JUMP JUMPDEST SWAP4 POP PUSH2 0x649 DUP2 DUP6 PUSH1 0x20 DUP7 ADD PUSH2 0x5E9 JUMP JUMPDEST PUSH2 0x652 DUP2 PUSH2 0x613 JUMP JUMPDEST DUP5 ADD SWAP2 POP POP SWAP3 SWAP2 POP POP JUMP JUMPDEST PUSH1 0x0 PUSH1 0x40 DUP3 ADD SWAP1 POP DUP2 DUP2 SUB PUSH1 0x0 DUP4 ADD MSTORE PUSH2 0x677 DUP2 DUP6 PUSH2 0x624 JUMP JUMPDEST SWAP1 POP DUP2 DUP2 SUB PUSH1 0x20 DUP4 ADD MSTORE PUSH2 0x68B DUP2 DUP5 PUSH2 0x624 JUMP JUMPDEST SWAP1 POP SWAP4 SWAP3 POP POP POP JUMP JUMPDEST PUSH32 0x4E487B7100000000000000000000000000000000000000000000000000000000 PUSH1 0x0 MSTORE PUSH1 0x22 PUSH1 0x4 MSTORE PUSH1 0x24 PUSH1 0x0 REVERT JUMPDEST PUSH1 0x0 PUSH1 0x2 DUP3 DIV SWAP1 POP PUSH1 0x1 DUP3 AND DUP1 PUSH2 0x6DB JUMPI PUSH1 0x7F DUP3 AND SWAP2 POP JUMPDEST PUSH1 0x20 DUP3 LT DUP2 SUB PUSH2 0x6EE JUMPI PUSH2 0x6ED PUSH2 0x694 JUMP JUMPDEST JUMPDEST POP SWAP2 SWAP1 POP JUMP INVALID LOG2 PUSH5 0x6970667358 0x22 SLT KECCAK256 EQ 0xB2 0x2F CREATE2 DUP4 0xA6 0xE3 0xA7 0x4E BLOCKHASH 0xCD STATICCALL 0xF6 0xE ADD LOG4 0x21 0xB3 SLT 0xF8 LOG0 PUSH26 0x583AE5B1908A79795B8D64736F6C634300081200330000000000 "
				},
				"gasEstimates": {
					"creation": {
						"codeDepositCost": "366800",
						"executionCost": "infinite",
						"totalCost": "infinite"
					},
					"external": {
						"cite(address)": "infinite",
						"citedBy(uint256)": "5000",
						"paper()": "infinite",
						"revealData()": "infinite",
						"updateCitedBy(address)": "49040"
					}
				},
				"methodIdentifiers": {
					"cite(address)": "a13c53be",
					"citedBy(uint256)": "dd1ed946",
					"paper()": "f8c587ac",
					"revealData()": "2b736100",
					"updateCitedBy(address)": "55f28564"
				}
			},
			"storageLayout": {
				"storage": [
					{
						"astId": 18,
						"contract": "contracts/Publication.sol:Publication",
						"label": "paper",
						"offset": 0,
						"slot": "0",
						"type": "t_struct(Paper)15_storage"
					},
					{
						"astId": 21,
						"contract": "contracts/Publication.sol:Publication",
						"label": "citedBy",
						"offset": 0,
						"slot": "5",
						"type": "t_array(t_address)dyn_storage"
					}
				],
				"types": {
					"t_address": {
						"encoding": "inplace",
						"label": "address",
						"numberOfBytes": "20"
					},
					"t_array(t_address)dyn_storage": {
						"base": "t_address",
						"encoding": "dynamic_array",
						"label": "address[]",
						"numberOfBytes": "32"
					},
					"t_array(t_string_storage)dyn_storage": {
						"base": "t_string_storage",
						"encoding": "dynamic_array",
						"label": "string[]",
						"numberOfBytes": "32"
					},
					"t_string_storage": {
						"encoding": "bytes",
						"label": "string",
						"numberOfBytes": "32"
					},
					"t_struct(Paper)15_storage": {
						"encoding": "inplace",
						"label": "struct Publication.Paper",
						"members": [
							{
								"astId": 4,
								"contract": "contracts/Publication.sol:Publication",
								"label": "authors",
								"offset": 0,
								"slot": "0",
								"type": "t_array(t_string_storage)dyn_storage"
							},
							{
								"astId": 6,
								"contract": "contracts/Publication.sol:Publication",
								"label": "institution",
								"offset": 0,
								"slot": "1",
								"type": "t_string_storage"
							},
							{
								"astId": 9,
								"contract": "contracts/Publication.sol:Publication",
								"label": "citations",
								"offset": 0,
								"slot": "2",
								"type": "t_array(t_address)dyn_storage"
							},
							{
								"astId": 12,
								"contract": "contracts/Publication.sol:Publication",
								"label": "citedBy",
								"offset": 0,
								"slot": "3",
								"type": "t_array(t_address)dyn_storage"
							},
							{
								"astId": 14,
								"contract": "contracts/Publication.sol:Publication",
								"label": "category",
								"offset": 0,
								"slot": "4",
								"type": "t_string_storage"
							}
						],
						"numberOfBytes": "160"
					}
				}
			},
			"userdoc": {
				"kind": "user",
				"methods": {},
				"version": 1
			}
		}
	}
}